:1000000003C100002EC100002CC100002AC1000065
:1000100028C1000026C1000024C1000022C1000048
:1000200020C100001EC100001CC100001AC1000058
:1000300018C1000016C1000014C1000012C1000068
:1000400010C100000EC100000CC100000AC1000078
:1000500008C1000006C1000004C1000023C6000062
:1000600000C100000C946A080C94AE09FAC00000AC
:10007000F8C00000F6C00000F4C00000F2C00000AC
:10008000F0C00000EEC00000ECC00000EAC00000BC
:100090000C94AA080C94ED09E4C00000E2C0000032
:1000A000E0C00000DEC00000DCC00000DAC00000DC
:1000B000D8C00000D6C00000D4C00000D2C00000EC
:1000C000D0C00000CEC00000CCC000000C94EA08F4
:1000D0000C942C0AC6C000000C942A090C946B0ADC
:1000E000C0C0000000002100240027002A002D00CD
:1000F0003000330001010000040107010A01000083
:100100002200250028002B002E00310034000201BF
:100110000000050108010B0100002000230026005B
:1001200029002C002F00320000010000030106010D
:10013000090105050505070508080808020202026D
:100140000A0A080804040404010101010101010173
:100150000303030303030303040707070C0C0C0C3E
:100160000C0C0C0C02020202060606060606060627
:100170000B0B0B0B0B0B0B0B0102102020080810B4
:100180002040102040800201020108040201010207
:1001900004081020408080402010080402018004E0
:1001A000020180402010080402010804020101023B
:1001B0000408102040800102040810204080000044
:1001C000090A02080B0C0D070603040100000000D9
:1001D000000000000000000000000000000000001F
:1001E0000000000000000000000011100F000000DF
:1001F00000000000000000000000000000000000FF
:10020000000000005A05DA0B11241FBECFEFD1E227
:10021000DEBFCDBF00E00CBF12E0A0E0B2E0E6E33D
:10022000FDE100E00BBF02C007900D92A035B107C1
:10023000D9F71BBE15E0A0E5B2E001C01D92AF31B9
:10024000B107E1F712E0C8E0D2E004C02297FE0156
:100250000E94950EC430D107C9F70E94100D0C946E
:10026000990ECECEFC0161817281838194810895C3
:100270000F931F938C01862FF801608B61E015D6D8
:10028000F801808961E0C4D61F910F9108951F93F2
:10029000CF93DF93EC01888960E0BAD680EA8EBD07
:1002A0000DB407FEFDCF8EB51EBC0DB407FEFDCF0D
:1002B0001EB5888961E0ACD6812FDF91CF911F9167
:1002C0000895FF920F931F93CF93DF93EC01162FA6
:1002D000042FF22E888960E09BD685E08EBD0DB498
:1002E00007FEFDCF8EB51EBD0DB407FEFDCF8EB54A
:1002F0000EBD0DB407FEFDCF8EB5FEBC0DB407FEDE
:10030000FDCF8EB5888961E083D6DF91CF911F91B3
:100310000F91FF900895EF92FF920F931F93CF9349
:10032000DF93EC01162F042FF52EE22E888960E072
:100330006FD682E08EBD0DB407FEFDCF8EB51EBD1B
:100340000DB407FEFDCF8EB5802F9F2D9C01F901C6
:1003500090E008C080818EBD0DB407FEFDCF8EB544
:100360009F5F31969E15B0F3888961E051D6DF9189
:10037000CF911F910F91FF90EF900895EF92FF9210
:100380000F931F93DF93CF9300D00F92CDB7DEB7BB
:100390007C01F8014130B1F40C83FB83C901AA2729
:1003A000BB27382F282F2C71220F220F220F3370DA
:1003B000230F28602A8335E0969587953A95E1F7D3
:1003C00089830EC0C80123E0969587952A95E1F7A9
:1003D0008983802F8295880F807E8A831C821B826E
:1003E000C701AE014F5F5F4F24E095DF0F900F9084
:1003F0000F900F90CF91DF911F910F91FF90EF9091
:1004000008950F931F93CF93DF93EC01162F042FC2
:10041000888960E0FDD582E08EBD0DB407FEFDCF7A
:100420008EB51EBD0DB407FEFDCF8EB50EBD0DB44D
:1004300007FEFDCF8EB5888961E0EAD5DF91CF91C7
:100440001F910F910895FF920F931F93CF93DF9306
:10045000EC01F62E6B5FAC014A5F5F4F2D815BDFD5
:100460008E85813019F48D8180648D836F2D6C5F52
:10047000CE014D81C6DF09811A812B813C81CE01DD
:100480006F2D48817BDFDF91CF911F910F91FF90FE
:1004900008950F931F93CF93DF93EC0160E241E047
:1004A00000E010E020E030E069DFCE0164E241E0EE
:1004B00000E010E020E030E061DFCE0160E041E0EC
:1004C00000E010E020E030E059DFCE0164E040E0E1
:1004D00000E010E020E030E051DFCE0168E041E0D4
:1004E00000E010E020E030E049DFCE0160E140E0D4
:1004F00000E010E020E030E041DFCE0164E141E0C7
:1005000000E010E020E030E039DFCE0168E140E0BB
:1005100000E010E020E030E031DF10E3CE01612F99
:1005200040E06FDF105FCE01612F40E06ADF105FB7
:10053000CE01612F40E065DF1F511E3379F7CE01F8
:1005400060E640E05EDFCE0160E740E05ADFDF9129
:10055000CF911F910F9108950F931F93CF93DF9326
:10056000EC01673079F1683070F4633019F1643070
:1005700028F46130D9F06230A9F416C06530F1F08A
:100580006630F0F419C06A3019F16B3028F4683025
:10059000D9F0693039F41AC06C3009F16C30D8F0F8
:1005A0006D3009F181E02EC04FE101C04FE30FEF44
:1005B00017E81CC04FE0FBCF4FE00EC047E0F7CF7D
:1005C00047E007C043E0F3CF43E003C043E008C087
:1005D00041E00AEFEDCF41E401EF15E807C040E04C
:1005E00000EF16E803C040E000ED12E8CE016AE239
:1005F00008DFCE0169E2402F04DFCE0168E2412F1F
:1006000000DF80E0DF91CF911F910F910895EF926D
:10061000FF920F931F93CF93DF93EC01162F042FBC
:10062000F52EE22E888960E0F3D483E08EBD0DB410
:1006300007FEFDCF8EB51EBD0DB407FEFDCF8EB5F6
:10064000802F9F2D9C01F90190E007C01EBC0DB4C6
:1006500007FEFDCF8EB581939F5F9E15B8F3888905
:1006600061E0D6D4DF91CF911F910F91FF90EF9071
:100670000895EF92FF920F931F93DF93CF9300D0D3
:100680000F92CDB7DEB77A018901FA011082F90124
:100690001082118212821382AE014F5F5F4F24E0FD
:1006A000B6DF6A81462F50E09A01F5E0359527952F
:1006B000FA95E1F7898190E0E3E0880F991FEA95C8
:1006C000E1F7280F391FC901AA2797FDA095BA2F76
:1006D000F80180839183A283B38363FF25C072E016
:1006E000880F991FAA1FBB1F7A95D1F76370860FD9
:1006F000911DA11DB11DBA2FA92F982F88272B81DD
:10070000820F911DA11DB11DBA2FA92F982F8827E7
:100710002C81820F911DA11DB11D80839183A28325
:10072000B38381E0F70180830F900F900F900F90BB
:10073000CF91DF911F910F91FF90EF9008951F933C
:10074000CF93DF93EC01162F888960E061D483E0BA
:100750008EBD0DB407FEFDCF8EB51EBD0DB407FED8
:10076000FDCF8EB51EBC0DB407FEFDCF1EB588892A
:1007700061E04ED4812FDF91CF911F9108958F9228
:100780009F92AF92BF92CF92DF92FF920F931F93EF
:10079000DF93CF9300D0CDB7DEB74C016B01DE0104
:1007A0001196E5E3F2E083E001900D928150E1F7CC
:1007B000F60110828E010F5F1F4FA4E0AA2EB12C0C
:1007C000AC0EBD1EF801F080C4016F2DB8DF83FDB3
:1007D00005C0F394F601F08280E006C00F5F1F4F62
:1007E0000A151B0579F782E00F900F900F90CF91BB
:1007F000DF911F910F91FF90DF90CF90BF90AF904E
:100800009F908F9008950F931F93CF93DF93EC01E8
:10081000062F9C012F5F3F4FAE012BDF602F6150F1
:10082000CE018DDF182F602F6C5FCE0188DF8D83A6
:1008300013FF03C081E08E8701C01E862D812F70BB
:100840002D830B5FCE01602F2696AE01E0DEDF9197
:10085000CF911F910F910895CF93DF93EC0117DD96
:1008600080FF07C0CE0161E6CEDFCE016CE241E041
:100870000AC081FD02C084E009C0CE0161E7C3DF88
:10088000CE016CE242E020E01CDD80E0DF91CF9100
:100890000895EF92FF920F931F93CF93DF93EC0194
:1008A0008B017A01D9DF8D81F8018083DE0120E0A0
:1008B00030E009C0F701E20FF31F15968C911597F0
:1008C00080832F5F3F4F11968D8190E02817390765
:1008D0008CF3DF91CF911F910F91FF90EF900895CE
:1008E000FF920F931F938C01F62E6FE040EE2F2D99
:1008F000E8DCC8016FE023DF90E0807E8F1191E09B
:10090000892F1F910F91FF900895EF92FF921F93EF
:100910007C01162F70E06150704087E994E04AE056
:1009200050E00E943E0E1150C701612F48E028E0C0
:10093000C8DC1F91FF90EF900895CF92DF92EF9265
:10094000FF920F931F93DF93CF930F92CDB7DEB734
:100950007C0100E010E06E010894C11CD11CC701AD
:10096000B6010DDF0F5F1F4F823021F002331105FA
:1009700029F41DC00233110591F719C0C70169811F
:1009800062DDC7016981C1DF00E010E00F5F1F4F2A
:10099000C7016981D4DE83FD05C00233110529F04A
:1009A00080E006C00233110589F787E001C086E0C8
:1009B0000F90CF91DF911F910F91FF90EF90DF90FB
:1009C000CF900895EF92FF920F93CF93DF93EC01B6
:1009D000288349835A836B837C830D83DC0120E069
:1009E00030E0F701E20FF31F808116968C93169783
:1009F0002F5F3F4F11962830310599F7CE019DDFCB
:100A0000DF91CF910F91FF90EF900895CF93DF93F7
:100A1000EC01888960E0FCD280EC8EBD0DB407FE4D
:100A2000FDCF8EB5888961E0F3D26AE070E080E0A6
:100A300090E080D1DF91CF9108950F931F93CF93D2
:100A4000DF93EC01062FE2DFCE0160E849DF182FCB
:100A50008823C9F4CE01602F7FDD8823A1F4CE0165
:100A600018DDCE016BE243E0CCDCCE0160E644E66B
:100A700024E627DCCE0160E740E620E622DCCE015A
:100A800060E02EDF182F812FDF91CF911F910F9102
:100A90000895FF920F931F938C01F62EF1D082E000
:100AA000DED0C8016F2DC9DF811181E01F910F9148
:100AB000FF9008958DE592E065E3DACBEF92FF9227
:100AC0000F93DF93CF93CDB7DEB728970FB6F89487
:100AD000DEBF0FBECDBFDE011196E8E3F2E088E095
:100AE00001900D928150E1F78DE592E040E050E0F9
:100AF00060E070E020E008E07E010894E11CF11C59
:100B000061DF28960FB6F894DEBF0FBECDBFCF9140
:100B1000DF910F91FF90EF9008950F931F93CF9364
:100B2000DF9383E1A7D2892B09F055C08DE592E0D0
:100B300064E572E045E552E0ACDE8DE592E092DBE3
:100B4000609350027093510280935202909353022B
:100B500087E994E060E072E00E94500E40915002FC
:100B600050915102609152027091530287E994E0D2
:100B700020E130E00E94E20D87E994E065E072E058
:100B80000E94500E05E512E0C0E0D0E01AC0F80166
:100B90008081803130F487E994E06EE072E00E9459
:100BA000500E87E994E0F80161918F0140E150E037
:100BB0000E94EF0D87E994E060E172E00E94500E20
:100BC00021968091540290E0C817D90704F387E971
:100BD00094E05BD773DF64E670E080E090E0AAD039
:100BE00085E360E015D283E08EBD0DB407FEFDCF36
:100BF0008EB58DE28EBD0DB407FEFDCF8EB51EBC49
:100C00000DB407FEFDCF8EB58093340285E361E01D
:100C1000FFD1DF91CF911F910F91089587E994E063
:100C200040E052EC61E070E095D464E670E080E072
:100C300090E080D083E160E038D18DE592E066E01D
:100C400028DF882329F487E994E062E172E004C098
:100C500087E994E062E272E00E94500E2FCF2CB53B
:100C6000382F33702C7F322B3CBD2DB590E09595FD
:100C700087959595879581702E7F822B8DBD0895E0
:100C800085E361E0C5D185E361E00FD18CB580617A
:100C90008CBD8CB580648CBD84E361E006D183E3B8
:100CA00061E003C11F920F920FB60F9211242F9390
:100CB0003F938F939F93AF93BF93809172029091D4
:100CC0007302A0917402B091750230917602019680
:100CD000A11DB11D232F2D5F2D3720F02D5701961B
:100CE000A11DB11D2093760280937202909373022E
:100CF000A0937402B093750280916E0290916F027E
:100D0000A0917002B09171020196A11DB11D809356
:100D10006E0290936F02A0937002B0937102BF9124
:100D2000AF919F918F913F912F910F900FBE0F9098
:100D30001F9018959B01AC017FB7F89480916E02CB
:100D400090916F02A0917002B091710266B5A89B5C
:100D500005C06F3F19F00196A11DB11D7FBFBA2FCD
:100D6000A92F982F8827860F911DA11DB11D62E024
:100D7000880F991FAA1FBB1F6A95D1F7BC012DC010
:100D8000FFB7F89480916E0290916F02A09170026B
:100D9000B0917102E6B5A89B05C0EF3F19F001962E
:100DA000A11DB11DFFBFBA2FA92F982F88278E0F25
:100DB000911DA11DB11DE2E0880F991FAA1FBB1F45
:100DC000EA95D1F7861B970B885E9340C8F22150B5
:100DD00030404040504068517C4F2115310541055D
:100DE000510571F60895789484B5826084BD84B508
:100DF000816084BD85B5826085BD85B5816085BD16
:100E0000EEE6F0E0808181608083E1E8F0E010822E
:100E1000808182608083808181608083E0E8F0E06F
:100E2000808181608083E1EBF0E080818460808359
:100E3000E0EBF0E0808181608083E1E9F0E0808197
:100E400082608083808181608083E0E9F0E080813E
:100E500081608083E1EAF0E080818260808380812C
:100E600081608083E0EAF0E0808181608083E1E25C
:100E7000F1E0808182608083808181608083E0E214
:100E8000F1E0808181608083EAE7F0E08081846026
:100E90008083808182608083808181608083808183
:100EA000806880831092C1000895CF93DF93482F0C
:100EB00050E0CA0188589E4FFC0134914E5C5E4F51
:100EC000FA018491882369F190E0880F991FFC0151
:100ED000EC51FF4FA591B491FC01E250FF4FC59139
:100EE000D491662351F42FB7F8948C91932F909559
:100EF00089238C93888189230BC0623061F42FB7DA
:100F0000F8948C91932F909589238C938881832BCF
:100F100088832FBF06C09FB7F8948C91832B8C9346
:100F20009FBFDF91CF910895893009F449C08A307D
:100F3000A0F4843051F1853040F4823079F183306F
:100F400000F5813009F063C026C0873079F1883020
:100F500098F5863009F05BC025C08D3009F442C099
:100F60008E3028F48B30B1F18C30C0F52DC080313B
:100F700009F442C0813109F445C08F3009F047C0FF
:100F800037C0809180008F7703C0809180008F7D73
:100F900080938000089584B58F7702C084B58F7DDB
:100FA00084BD08958091B0008F7703C08091B00018
:100FB0008F7D8093B0000895809190008F7707C057
:100FC000809190008F7D03C080919000877F8093F7
:100FD000900008958091A0008F7707C08091A000B5
:100FE0008F7D03C08091A000877F8093A00008952B
:100FF000809120018F7703C0809120018F7D8093A5
:101000002001089580912001877F80932001089519
:10101000FF920F931F93F62E482F50E0CA0182547F
:101020009E4FFC012491CA0188589E4FFC011491E7
:101030004E5C5E4FFA0104910023C1F0222311F0AF
:10104000822F72DFE02FF0E0EE0FFF1FE250FF4F24
:10105000A591B4919FB7F894FF2021F48C9110953D
:10106000812302C08C91812B8C939FBF1F910F9184
:10107000FF9008950F931F93482F50E0CA018254A8
:101080009E4FFC012491CA0188589E4FFC01049197
:101090004E5C5E4FFA011491112319F420E030E008
:1010A00014C0222311F0822F3FDF812F90E0880FA0
:1010B000991F885E9E4FFC01A591B4918C9120E010
:1010C00030E0802311F021E030E0C9011F910F9141
:1010D000089508951F920F920FB60F920BB60F92BC
:1010E00011242F933F934F938F939F93EF93FF93ED
:1010F0008091C00082FD1DC04091C6002091B702C2
:101100003091B8022F5F3F4F2F7330708091B9023A
:101110009091BA022817390771F0E091B702F09167
:10112000B802E958FD4F40833093B8022093B702CC
:1011300002C08091C600FF91EF919F918F914F91D6
:101140003F912F910F900BBE0F900FBE0F901F90ED
:10115000189508951F920F920FB60F920BB60F922B
:1011600011242F933F934F938F939F93EF93FF936C
:101170008091C80082FD1DC04091CE0020913F03A8
:10118000309140032F5F3F4F2F73307080914103A8
:10119000909142032817390771F0E0913F03F091D5
:1011A0004003E150FD4F40833093400320933F03C1
:1011B00002C08091CE00FF91EF919F918F914F914E
:1011C0003F912F910F900BBE0F900FBE0F901F906D
:1011D000189508951F920F920FB60F920BB60F92AB
:1011E00011242F933F934F938F939F93EF93FF93EC
:1011F0008091D00082FD1DC04091D6002091C70390
:101200003091C8032F5F3F4F2F7330708091C90317
:101210009091CA032817390771F0E091C703F09144
:10122000C803E957FC4F40833093C8032093C7039A
:1012300002C08091D600FF91EF919F918F914F91C5
:101240003F912F910F900BBE0F900FBE0F901F90EC
:10125000189508951F920F920FB60F920BB60F922A
:1012600011242F933F934F938F939F93EF93FF936B
:101270008091300182FD1DC04091360120914F04C4
:10128000309150042F5F3F4F2F7330708091510485
:10129000909152042817390771F0E0914F04F091B2
:1012A0005004E15FFB4F40833093500420934F0480
:1012B00002C080913601FF91EF919F918F914F91E4
:1012C0003F912F910F900BBE0F900FBE0F901F906C
:1012D0001895E091A304F091A404E05CFF4F819184
:1012E000919120813181821B930B8F739070892B98
:1012F00009F0EFDEE091C504F091C604E05CFF4F19
:101300008191919120813181821B930B8F73907019
:10131000892B09F01EDFE091E704F091E804E05C1E
:10132000FF4F8191919120813181821B930B8F73AB
:101330009070892B09F04DDFE0910905F0910A05C5
:10134000E05CFF4F8191919120813181821B930B51
:101350008F739070892B09F07CCF08951F920F92A4
:101360000FB60F920BB60F9211242F933F938F93CA
:101370009F93EF93FF932091FB023091FC028091A9
:10138000FD029091FE022817390731F48091C100C7
:101390008F7D8093C10014C0E091FD02F091FE02A8
:1013A000E554FD4F20818091FD029091FE0201964F
:1013B0008F7390709093FE028093FD022093C6007D
:1013C000FF91EF919F918F913F912F910F900BBEC5
:1013D0000F900FBE0F901F9018951F920F920FB68F
:1013E0000F920BB60F9211242F933F938F939F93DD
:1013F000EF93FF93209183033091840380918503C1
:10140000909186032817390731F48091C9008F7DA8
:101410008093C90014C0E0918503F0918603ED5BD1
:10142000FC4F2081809185039091860301968F73F4
:10143000907090938603809385032093CE00FF9154
:10144000EF919F918F913F912F910F900BBE0F9035
:101450000FBE0F901F9018951F920F920FB60F920C
:101460000BB60F9211242F933F938F939F93EF937B
:10147000FF9320910B0430910C0480910D04909106
:101480000E042817390731F48091D1008F7D8093A5
:10149000D10014C0E0910D04F0910E04E553FC4F0F
:1014A000208180910D0490910E0401968F739070AD
:1014B00090930E0480930D042093D600FF91EF913A
:1014C0009F918F913F912F910F900BBE0F900FBE68
:1014D0000F901F9018951F920F920FB60F920BB698
:1014E0000F9211242F933F938F939F93EF93FF932A
:1014F00020919304309194048091950490919604E6
:101500002817390731F4809131018F7D80933101A3
:1015100014C0E0919504F0919604ED5AFB4F2081A0
:10152000809195049091960401968F73907090939A
:1015300096048093950420933601FF91EF919F913B
:101540008F913F912F910F900BBE0F900FBE0F9078
:101550001F901895AF92BF92DF92EF92FF920F9378
:101560001F93CF93DF93EC017A018B01DD24403090
:1015700081EE580780E0680780E0780711F0DD24ED
:10158000D39491E0A92EB12CEC89FD89DD2069F07E
:10159000C50108A002C0880F991F0A94E2F7808352
:1015A00060E079E08DE390E005C0108260E874E8C7
:1015B0008EE190E0A801970194D321503040404043
:1015C0005040569547953795279580E1203038074C
:1015D00020F0DD2011F0DD24D7CFE889F9893083B0
:1015E000EA89FB89208319A2EE89FF89408121E0E5
:1015F00030E0C9010C8C02C0880F991F0A94E2F7F1
:10160000482B4083EE89FF894081C9010D8C02C0BF
:10161000880F991F0A94E2F7482B4083EE89FF89CF
:101620004081C9010E8C02C0880F991F0A94E2F70D
:10163000482B4083EE89FF8980810F8C02C0220FE6
:10164000331F0A94E2F7209528232083DF91CF915E
:101650001F910F91FF90EF90DF90BF90AF90089592
:10166000DC011C96ED91FC911D97E05CFF4F2191F0
:10167000319180819181281B390B2F733070C90102
:101680000895DC011C96ED91FC911D97E05CFF4FE5
:1016900020813181E054F040DF01AE5BBF4F8D917E
:1016A0009C9111972817390719F42FEF3FEF07C0C6
:1016B0008D919C91E80FF91F8081282F30E0C9019E
:1016C0000895DC011C96ED91FC911D97E05CFF4FA5
:1016D00020813181E054F040DF01AE5BBF4F8D913E
:1016E0009C9111972817390719F42FEF3FEF10C07D
:1016F0008D919C911197E80FF91F20818D919C91FC
:10170000119701968F73907011969C938E9330E091
:10171000C9010895DC0191968C919197882339F045
:101720005496ED91FC915597808186FFF9CF919663
:101730001C920895CF93DF93EC01EE85FF85E05C6A
:10174000FF4F20813181E054F0402F5F3F4F2F73D6
:101750003070DF01AE5BBF4F8D919C9111972817C0
:101760003907D1F3E05CFF4F80819181E054F04074
:10177000E80FF91F6083EE85FF85E05CFF4F318342
:101780002083EE89FF89208181E090E00F8C02C0E8
:10179000880F991F0A94E2F7282B208381E089A300
:1017A000EC89FD8980818064808381E090E0DF9115
:1017B000CF9108951F9310929A041092990428EEE5
:1017C00033E040E050E020939B0430939C0440932E
:1017D0009D0450939E0464E472E0709398046093B7
:1017E000970487E792E09093A4048093A3048BEB83
:1017F00092E09093A6048093A50485EC90E09093EA
:10180000A8048093A70484EC90E09093AA048093AA
:10181000A90480EC90E09093AC048093AB0481EC3D
:1018200090E09093AE048093AD0482EC90E09093AE
:10183000B0048093AF0486EC90E09093B204809360
:10184000B10414E01093B304B3E0B093B404A7E080
:10185000A093B504F5E0F093B604E1E0E093B7049B
:101860001092BC041092BB042093BD043093BE04BC
:101870004093BF045093C0047093BA046093B904BA
:101880008FEF92E09093C6048093C50483E493E0C5
:101890009093C8048093C7048DEC90E09093CA04A1
:1018A0008093C9048CEC90E09093CC048093CB049B
:1018B00088EC90E09093CE048093CD0489EC90E086
:1018C0009093D0048093CF048AEC90E09093D2045C
:1018D0008093D1048EEC90E09093D4048093D30451
:1018E0001093D504B093D604A093D704F093D804F2
:1018F000E093D9041092DE041092DD042093DF04FB
:101900003093E0044093E1045093E2047093DC04CC
:101910006093DB0487E893E09093E8048093E70406
:101920008BEC93E09093EA048093E90485ED90E0DA
:101930009093EC048093EB0484ED90E09093EE049C
:101940008093ED0480ED90E09093F0048093EF0499
:1019500081ED90E09093F2048093F10482ED90E0A9
:101960009093F4048093F30486ED90E09093F60452
:101970008093F5041093F704B093F804A093F9044E
:10198000F093FA04E093FB04109200051092FF0418
:1019900020930105309302054093030550930405FD
:1019A0007093FE046093FD048FE094E090930A0529
:1019B0008093090583E594E090930C0580930B05D3
:1019C00085E391E090930E0580930D0584E391E00B
:1019D0009093100580930F0580E391E0909312059A
:1019E0008093110581E391E0909314058093130592
:1019F00082E391E0909316058093150586E391E0CC
:101A0000909318058093170510931905B0931A0544
:101A1000A0931B05F0931C05E0931D051F910895ED
:101A2000CF93DF93E0D9FAD8C9E6D9E076D82097EA
:101A3000E9F34FDCFBCFCF92DF92EF92FF920F934F
:101A40001F93CF93DF937C016B018A01C0E0D0E04C
:101A50000FC0D6016D916D01D701ED91FC91019000
:101A6000F081E02DC7011995C80FD91F0150104012
:101A70000115110571F7CE01DF91CF911F910F91E3
:101A8000FF90EF90DF90CF900895EF92FF920F9329
:101A90001F938C01DC01ED91FC910190F081E02D10
:101AA0006DE019957C01D801ED91FC910190F081D8
:101AB000E02DC8016AE019959C012E0D3F1DC9015A
:101AC0001F910F91FF90EF900895CF93DF93EC015A
:101AD0006115710519F420E030E00FC0DB010D90B5
:101AE0000020E9F71197A61BB70BE881F981028066
:101AF000F381E02DAD0119959C01C901DF91CF91D2
:101B000008954F925F927F928F929F92AF92BF9271
:101B1000CF92DF92EF92FF920F931F93DF93CF93B9
:101B2000CDB7DEB7A1970FB6F894DEBF0FBECDBF1D
:101B30002C01742ECB01223008F42AE019A231E2E4
:101B4000C32ED12CCC0EDD1E822E9924AA24BB24B8
:101B5000672D752FA5019401C4D079018A01C801B0
:101B6000B701A50194019ED0472D461B0894C108DA
:101B7000D1084A3014F4405D01C0495CF60140834D
:101B8000E114F1040105110521F07E2C5F2DC8013F
:101B9000DFCFC201B60199DFA1960FB6F894DEBF80
:101BA0000FBECDBFCF91DF911F910F91FF90EF90AE
:101BB000DF90CF90BF90AF909F908F907F905F907D
:101BC0004F900895DC012115310541F4ED91FC9110
:101BD0000190F081E02D642F1995089592CFEF9236
:101BE000FF920F931F939A01E62EFF2400E010E06E
:101BF000B801A701E7DF1F910F91FF90EF900895C3
:101C0000CF92DF92EF92FF920F931F93CF93DF93C8
:101C1000EC016A017B012115310541F4E881F9816C
:101C20000190F081E02D642F19951DC02A303105F7
:101C3000C9F477FF16C0E881F9810190F081E02DA9
:101C40006DE219958C0144275527BA014C195D099D
:101C50006E097F09CE012AE054DF9801280F391F51
:101C600003C02AE04EDF9C01C901DF91CF911F9193
:101C70000F91FF90EF90DF90CF900895EF92FF9239
:101C80000F931F937B019A010027F7FC0095102FFB
:101C9000B801A701B5DF1F910F91FF90EF90089554
:101CA00014CF0895629FD001739FF001829FE00DD1
:101CB000F11D649FE00DF11D929FF00D839FF00DCB
:101CC000749FF00D659FF00D9927729FB00DE11D77
:101CD000F91F639FB00DE11DF91FBD01CF01112454
:101CE0000895A1E21A2EAA1BBB1BFD010DC0AA1F5D
:101CF000BB1FEE1FFF1FA217B307E407F50720F075
:101D0000A21BB30BE40BF50B661F771F881F991FEF
:101D10001A9469F760957095809590959B01AC0138
:101D2000BD01CF010895EE0FFF1F0590F491E02D46
:061D30001994F894FFCFA6
:101D360049443A20002020446174613A2000300072
:101D4600200063616E20696E6974206F6B21210D1E
:101D56000A0043616E20696E6974206661696C21B0
:101D6600210D0A00F0304050000102030405060769
:101D7600000000009A0B1B0D300B610B410B8A0B08
:00000001FF
