:100000000C94380E0C9413130C9446130C94551343
:100010000C94550E0C94550E0C94550E0C94550ED4
:100020000C94550E0C94550E0C94550E0C94550EC4
:100030000C94550E0C94AF120C94550E0C94550E56
:100040000C94550E0C94550E0C94550E0C949A135A
:100050000C94550E0C94550E0C94550E0C94550E94
:100060000C94550E0C94550E0C94550E0C94550E84
:100070000000000000000000000000000000000080
:100080000000000000000000000000000000000070
:100090000000000000000000000000000000000060
:1000A0000000000000000000000000000000000050
:1000B0000000000000000000000000000000000040
:1000C0000000000000000000000000000000000030
:1000D0000000000000000000000000000000000020
:1000E0000000000000000000000000000000000010
:1000F000000000000000000000C0F0F03C0C0C0C00
:100100000C3C3CF000000000C0FCFCFCC000000007
:1001100000FCFCFCC0C00000000000C0FCFCFC00B7
:100120000000FCFC0C0C0C0C0C0C0C000000000083
:10013000000000C0C0F03C0C0C0C3C3CF0C00000C7
:100140003CFCC0C00000C0C0FC3C0000FCFCFC0C3F
:100150000C0C0C0C0C000000FCFCFC0C0C0C0C0C33
:10016000FCFCF000000000000000000000000000A7
:10017000000000000000000000FFFFFF0000303022
:1001800030F0F0F0000000F0FF030303FFF0F00098
:1001900000FFFFFF3F3FFCC0C0C0FC3FFFFFFF0070
:1001A0000000FFFF0C0C0C0C0C0C00000000000009
:1001B000000000FFFFFF000000000000FFFF000044
:1001C000000FFFFFC0C0FFFF0F000000FFFFFF0C8C
:1001D0000C0C0C0C00000000FFFFFF303030303002
:1001E000FFFFCF0000000000000000000000000042
:1001F000000000000000000000030F0F3C30303012
:10020000300F0F3F003C3C3F03030303033F3F3CE1
:10021000003F3F3F0000033F3F3F03003F3F3F00A1
:1002200000003F3F30303030303030000000000000
:1002300000000003030F3C3030303C3C0F03000053
:10024000000003033F3F0303000000003F3F3F3037
:1002500030303030300000003F3F3F0000000000F1
:100260000F0F3F3000000000000000000000000001
:10027000000000008080808080808080000000007E
:10028000000000000000000000000000000000006E
:10029000000000000000000000000000000000005E
:1002A000000000000000808000000000000000004E
:1002B000000000000000000000000000000000003E
:1002C000000000000000000000000000000000002E
:1002D000000000000000000000000000000000001E
:1002E000000000008080800000000000000000008E
:1002F00000000000000000FFFF00000000FCFC0CFC
:10030000040C3CF0C0C0F03C0C0000000000C8EC45
:100310003414FCF80000F8FC0404FCFC0000C8ECF9
:100320003414FCF80000FDFD0000FCFC0404FCF8A3
:1003300000000000000000000000000000000000BD
:1003400000000000000000000000000000000000AD
:10035000000000000000000000000000000000009D
:1003600000000000FFFFFF00800000000000000010
:100370000000000000000001010000000001010079
:100380000000080C0703000000000000000000014E
:10039000010101010000040D09090F07000000011F
:1003A0000101010100000101000001010000010143
:1003B000000000000000000000000000000000003D
:1003C000000000000000000000000000000000002D
:1003D000000000000000000000000000000000001D
:1003E00000000000E3E3E363800000081C08000055
:1003F00000000000000000000000000000000000FD
:1004000000000000000000000000000000000000EC
:1004100000000000000000000000000000000000DC
:1004200000000000000000000000000000000000CC
:1004300000000000000000000000000000000000BC
:1004400000000000000000000000000000000000AC
:10045000000000000000000000000000000000009C
:10046000000000003F3F3F000000000000000000CF
:10047000000000000000000000000000000000007C
:10048000000000000000000000000000000000006C
:10049000000000000000000000000000000000005C
:1004A000000000000000000000000000000000004C
:1004B000000000000000000000000000000000003C
:1004C000000000000000000000000000000000002C
:1004D000000000000000000000000000000000001C
:1004E000000000000000000000000000000000000C
:1004F000000000000000000000C0F0F03C0C0C0CFC
:100500000C3C3CF000000000C0FCFCFCC000000003
:1005100000FCFCFCC0C00000000000C0FCFCFC00B3
:100520000000FCFC0C0C0C0C0C0C0C00000000007F
:10053000000000C0C0F03C0C0C0C3C3CF0C00000C3
:100540003CFCC0C00000C0C0FC3C0000FCFCFC0C3B
:100550000C0C0C0C0C000000FCFCFC0C0C0C0C0C2F
:10056000FCFCF000000000000000000000000000A3
:10057000000000000000000000FFFFFF000030301E
:1005800030F0F0F0000000F0FF030303FFF0F00094
:1005900000FFFFFF3F3FFCC0C0C0FC3FFFFFFF006C
:1005A0000000FFFF0C0C0C0C0C0C00000000000005
:1005B000000000FFFFFF000000000000FFFF000040
:1005C000000FFFFFC0C0FFFF0F000000FFFFFF0C88
:1005D0000C0C0C0C00000000FFFFFF3030303030FE
:1005E000FFFFCF000000000000000000000000003E
:1005F000000000000000000000030F0F3C3030300E
:10060000300F0F3F003C3C3F03030303033F3F3CDD
:10061000003F3F3F0000033F3F3F03003F3F3F009D
:1006200000003F3F303030303030300000000000FC
:1006300000000003030F3C3030303C3C0F0300004F
:10064000000003033F3F0303000000003F3F3F3033
:1006500030303030300000003F3F3F0000000000ED
:100660000F0F3F30000000000000000000000000FD
:10067000000000008080808080808080000000007A
:10068000000000000000000000000000000000006A
:10069000000000000000000000000000000000005A
:1006A000000000000000808000000000000000004A
:1006B000000000000000000000000000000000003A
:1006C000000000000000000000000000000000002A
:1006D000000000000000000000000000000000001A
:1006E000000000008080800000000000000000008A
:1006F00000000000000000FFFF00000000FCFC0CF8
:10070000040C3CF0C0C0F03C0C0000000000C8EC41
:100710003414FCF80000F8FC0404FCFC0000C8ECF5
:100720003414FCF80000FDFD0000FCFC0404FCF89F
:1007300000000000000000000000000000000000B9
:1007400000000000000000000000000000000000A9
:100750000000000000000000000000000000000099
:1007600000000000FFFFFF0080000000000000000C
:100770000000000000000001010000000001010075
:100780000000080C0703000000000000000000014A
:10079000010101010000040D09090F07000000011B
:1007A000010101010000010100000101000001013F
:1007B0000000000000000000000000000000000039
:1007C0000000000000000000000000000000000029
:1007D0000000000000000000000000000000000019
:1007E00000000000E3E3E36B9C0800000000000051
:1007F00000000000000000000000000000000000F9
:1008000000000000000000000000000000000000E8
:1008100000000000000000000000000000000000D8
:1008200000000000000000000000000000000000C8
:1008300000000000000000000000000000000000B8
:1008400000000000000000000000000000000000A8
:100850000000000000000000000000000000000098
:10086000000000003F3F3F000000000000000000CB
:100870000000000000000000000000000000000078
:100880000000000000000000000000000000000068
:100890000000000000000000000000000000000058
:1008A0000000000000000000000000000000000048
:1008B0000000000000000000000000000000000038
:1008C0000000000000000000000000000000000028
:1008D0000000000000000000000000000000000018
:1008E0000000000000000000000000000000000008
:1008F000000000000000000000C0F0F03C0C0C0CF8
:100900000C3C3CF000000000C0FCFCFCC0000000FF
:1009100000FCFCFCC0C00000000000C0FCFCFC00AF
:100920000000FCFC0C0C0C0C0C0C0C00000000007B
:10093000000000C0C0F03C0C0C0C3C3CF0C00000BF
:100940003CFCC0C00000C0C0FC3C0000FCFCFC0C37
:100950000C0C0C0C0C000000FCFCFC0C0C0C0C0C2B
:10096000FCFCF0000000000000000000000000009F
:10097000000000000000000000FFFFFF000030301A
:1009800030F0F0F0000000F0FF030303FFF0F00090
:1009900000FFFFFF3F3FFCC0C0C0FC3FFFFFFF0068
:1009A0000000FFFF0C0C0C0C0C0C00000000000001
:1009B000000000FFFFFF000000000000FFFF00003C
:1009C000000FFFFFC0C0FFFF0F000000FFFFFF0C84
:1009D0000C0C0C0C00000000FFFFFF3030303030FA
:1009E000FFFFCF000000000000000000000000003A
:1009F000000000000000000000030F0F3C3030300A
:100A0000300F0F3F003C3C3F03030303033F3F3CD9
:100A1000003F3F3F0000033F3F3F03003F3F3F0099
:100A200000003F3F303030303030300000000000F8
:100A300000000003030F3C3030303C3C0F0300004B
:100A4000000003033F3F0303000000003F3F3F302F
:100A500030303030300000003F3F3F0000000000E9
:100A60000F0F3F30000000000000000000000000F9
:100A70000000000080808080808080800000000076
:100A80000000000000000000000000000000000066
:100A90000000000000000000000000000000000056
:100AA0000000000000008080000000000000000046
:100AB0000000000000000000000000000000000036
:100AC0000000000000000000000000000000000026
:100AD0000000000000000000000000000000000016
:100AE0000000000080808000000000000000000086
:100AF00000000000000000FFFF00000000FCFC0CF4
:100B0000040C3CF0C0C0F03C0C0000000000C8EC3D
:100B10003414FCF80000F8FC0404FCFC0000C8ECF1
:100B20003414FCF80000FDFD0000FCFC0404FCF89B
:100B300000000000000000000000000000000000B5
:100B400000000000000000000000000000000000A5
:100B50000000000000000000000000000000000095
:100B600000000000FFFFFF00000000000000000088
:100B70000000000000000001010000000001010071
:100B80000000080C07030000000000000000000146
:100B9000010101010000040D09090F070000000117
:100BA000010101010000010100000101000001013B
:100BB0000000000000000000000000000000000035
:100BC0000000000000000000000000000000000025
:100BD0000000000000000000000000000000000015
:100BE000081C0800FFFFFF000000000000000000DC
:100BF00000000000000000000000000000000000F5
:100C000000000000000000000000000000000000E4
:100C100000000000000000000000000000000000D4
:100C200000000000000000000000000000000000C4
:100C300000000000000000000000000000000000B4
:100C400000000000000000000000000000000000A4
:100C50000000000000000000000000000000000094
:100C6000000000003F3F3F000000000000000000C7
:100C70000000000000000000000000000000000074
:100C80000000000000000000000000000000000064
:100C90000000000000000000000000000000000054
:100CA0000000000000000000000000000000000044
:100CB0000000000000000000000000000000000034
:100CC0000000000000000000000000000000000024
:100CD0000000000000000000000000000000000014
:100CE0000000000000000000000000000000000004
:100CF000000000000000000000C0F0F03C0C0C0CF4
:100D00000C3C3CF000000000C0FCFCFCC0000000FB
:100D100000FCFCFCC0C00000000000C0FCFCFC00AB
:100D20000000FCFC0C0C0C0C0C0C0C000000000077
:100D3000000000C0C0F03C0C0C0C3C3CF0C00000BB
:100D40003CFCC0C00000C0C0FC3C0000FCFCFC0C33
:100D50000C0C0C0C0C000000FCFCFC0C0C0C0C0C27
:100D6000FCFCF0000000000000000000000000009B
:100D7000000000000000000000FFFFFF0000303016
:100D800030F0F0F0000000F0FF030303FFF0F0008C
:100D900000FFFFFF3F3FFCC0C0C0FC3FFFFFFF0064
:100DA0000000FFFF0C0C0C0C0C0C000000000000FD
:100DB000000000FFFFFF000000000000FFFF000038
:100DC000000FFFFFC0C0FFFF0F000000FFFFFF0C80
:100DD0000C0C0C0C00000000FFFFFF3030303030F6
:100DE000FFFFCF0000000000000000000000000036
:100DF000000000000000000000030F0F3C30303006
:100E0000300F0F3F003C3C3F03030303033F3F3CD5
:100E1000003F3F3F0000033F3F3F03003F3F3F0095
:100E200000003F3F303030303030300000000000F4
:100E300000000003030F3C3030303C3C0F03000047
:100E4000000003033F3F0303000000003F3F3F302B
:100E500030303030300000003F3F3F0000000000E5
:100E60000F0F3F30000000000000000000000000F5
:100E70000000000080808080808080800000000072
:100E80000000000000000000000000000000000062
:100E90000000000000000000000000000000000052
:100EA0000000000000008080000000000000000042
:100EB0000000000000000000000000000000000032
:100EC0000000000000000000000000000000000022
:100ED0000000000000000000000000000000000012
:100EE0000000000080808000000000000000000082
:100EF00000000000000000FFFF00000000FCFC0CF0
:100F0000040C3CF0C0C0F03C0C0000000000C8EC39
:100F10003414FCF80000F8FC0404FCFC0000C8ECED
:100F20003414FCF80000FDFD0000FCFC0404FCF897
:100F300000000000000000000000000000000000B1
:100F400000000000000000000000000000000000A1
:100F50000000000000000000000000000000000091
:100F600000000000FFFFFF00000000000000000084
:100F7000000000000000000101000000000101006D
:100F80000000080C07030000000000000000000142
:100F9000010101010000040D09090F070000000113
:100FA0000101010100000101000001010000010137
:100FB0000000000000000000000000000000000031
:100FC0000000000000000000000000000000000021
:100FD000000000000000000000000000081C0800E5
:100FE00000000000FFFFFF00000000000000000004
:100FF00000000000000000000000000000000000F1
:1010000000000000000000000000000000000000E0
:1010100000000000000000000000000000000000D0
:1010200000000000000000000000000000000000C0
:1010300000000000000000000000000000000000B0
:1010400000000000000000000000000000000000A0
:101050000000000000000000000000000000000090
:10106000000000003F3F3F000000000000000000C3
:101070000000000000000000000000000000000070
:101080000000000000000000000000000000000060
:101090000000000000000000000000000000000050
:1010A0000000000000000000000000000000000040
:1010B0000000000000000000000000000000000030
:1010C0000000000000000000000000000000000020
:1010D0000000000000000000000000000000000010
:1010E0000000000000000000000000000000000000
:1010F00000000000000000000000000000000000F0
:1011000000000000000000000000000000000000DF
:1011100000000000000000000000000000000000CF
:10112000C0F0F0F0F0F000E0F0F0D0F0F070B0B00F
:10113000B0B03010D0F0F07010C0F0F07010C0F00F
:10114000F07010000000000000000000000000002F
:10115000000000000000000000000000000000008F
:10116000000000000000000000000000000000007F
:10117000000000000000000000000000000000006F
:10118000000000000000000000000000000000005F
:101190000000000000000000000000000000080E39
:1011A0000F0F01010F0F0F0F0F0E0F0F0D0D0D0D74
:1011B0000C0400020F0F0F0C0E0F0F0D0C0E0F0F73
:1011C000010000000000000000000000000000001E
:1011D000000000000000000000000000000000000F
:1011E00000000000000000000000000000000000FF
:1011F000000000000080E0FCFF3F2F3130B0F0FE27
:10120000FF3F078582C3FBFFFF9F8383030331FCFE
:10121000FEFF8FC7A7F7F7F77793E1FCFF3F2F316A
:1012200030B0F0FEFF3F079DBEBFBFB7B7B7F7F7BF
:10123000E7030131FCFEFFCF87838383830303F140
:10124000FCFEFE8F878783C7E7FFFF3E80E0FCFF41
:101250003F6FF3F3F3B33F3F1F8EE0FCFFBFAFB32D
:10126000B3B39393030361FC7F3F0F0100000000C1
:101270000000000000030303010000000203030359
:10128000020203030303030303030300000000003F
:10129000010303030303030300030303010000002E
:1012A00002030303C0C2C3C3838383030303030393
:1012B0000100000000010383030303030100000099
:1012C00001030303030303030101000003030301FC
:1012D00000000001030303020203030303030303EB
:1012E00003030301000303030000000000000000EB
:1012F00000000000000000000000000000000000EE
:101300000000000000000000004040606060E0E07D
:10131000C0C080800080C0C080001018181C3C3CF9
:101320003E7C7CFCFC793FBF9F9FCFCF8F9E1C10E3
:1013300000000C8E8ECFFFFFFFFFFEFCFC0800C0FC
:10134000F0FCFCFEFEFFFFFFFFFEFEFCFCF8C00011
:10135000000000000000000000000000000000008D
:10136000000000000000000000000000000000007D
:10137000000000000000000000000000000000006D
:10138000000000000000000000000000000000005D
:101390000307070707070303014070383C1E3E3E62
:1013A0007C7CF8F8F9F1F0F0F0E1C34347070F0F48
:1013B0000F8F8F8FCFC7E3E3F37373230300000313
:1013C0000A2F552FDB6FBF5FFFBF5F7F3F1F0700F7
:1013D000000000000000000000000000000000000D
:1013E00000000000000000000000000000000000FD
:1013F00000000000000000000000000000000000ED
:1014000000000000000000000000000000000000DC
:1014100000000000000000000000000000000000CC
:1014200000000001010303010101000000000303AB
:101430000707070707070703000000000000000078
:10144000000000000000000000000000000000009C
:10145000000000000000000000000000000000008C
:10146000000000000000000000000000000000007C
:10147000000000000000000000000000000000006C
:10148000000000000000000000000000000000005C
:10149000000000000000000000000000000000004C
:1014A000000000000000000000000000000000003C
:1014B000000000000000000000000000000000002C
:1014C000000000000000000000000000000000001C
:1014D000000000000000000000000000000000000C
:1014E00000000000000000000000000000000000FC
:1014F00000000000000000000000000000000000EC
:1015000000000000000000000000000000000000DB
:1015100000000000000000000000000000000000CB
:10152000C0F0F0F0F0F000E0F0F0D0F0F070B0B00B
:10153000B0B03010D0F0F07010C0F0F07010C0F00B
:10154000F07010000000000000000000000000002B
:10155000000000000000000000000000000000008B
:10156000000000000000000000000000000000007B
:10157000000000000000000000000000000000006B
:10158000000000000000000000000000000000005B
:101590000000000000000000000000000000080E35
:1015A0000F0F01010F0F0F0F0F0E0F0F0D0D0D0D70
:1015B0000C0400020F0F0F0C0E0F0F0D0C0E0F0F6F
:1015C000010000000000000000000000000000001A
:1015D000000000000000000000000000000000000B
:1015E00000000000000000000000000000000000FB
:1015F000000000000080E0FCFF3F2F3130B0F0FE23
:10160000FF3F078582C3FBFFFF9F8383030331FCFA
:10161000FEFF8FC7A7F7F7F77793E1FCFF3F2F3166
:1016200030B0F0FEFF3F079DBEBFBFB7B7B7F7F7BB
:10163000E7030131FCFEFFCF87838383830303F13C
:10164000FCFEFE8F878783C7E7FFFF3E80E0FCFF3D
:101650003F6FF3F3F3B33F3F1F8EE0FCFFBFAFB329
:10166000B3B39393030361FC7F3F0F0100000000BD
:101670000000000000030303010000000203030355
:10168000020203030303030303030300000000003B
:10169000010303030303030300030303010000002A
:1016A000020303030002030303030303038383838F
:1016B0008100000000010303030303030100000095
:1016C00001030303030303030101000003030301F8
:1016D00000000001030303020203030303030303E7
:1016E00003030301000303030000000000000000E7
:1016F00000000000000000000000000000000000EA
:1017000000000000000000000000000000000000D9
:1017100000000000000000000000000080C0E0C0E9
:101720000000040C0E0E1E1E3C3C78F8F87F7F0F64
:101730008F8786040C084840C0CCECC4C00000C0B1
:10174000F0FCFCFE1EFFFFFFFFFEFEFCFCF8C000ED
:101750000000000000000000000000000000000089
:101760000000000000000000000000000000000079
:101770000000000000000000000000000000000069
:101780000000000000000000000000000000000059
:10179000000000000000000000010303030101003D
:1017A000000000020707070E1E5CDCDCF8F8F8F802
:1017B000F061212303878686C6C7C7E7631000034D
:1017C0000A2F552FDA6FBF5FFFBF5F7F3F1F0700F4
:1017D0000000000000000000000000000000000009
:1017E00000000000000000000000000000000000F9
:1017F00000000000000000000000000000000000E9
:1018000000000000000000000000000000000000D8
:1018100000000000000000000000000000000000C8
:1018200000000000000000000000000001010000B6
:10183000000000000001010303030100000000009C
:101840000000000000000000000000000000000098
:101850000000000000000000000000000000000088
:101860000000000000000000000000000000000078
:101870000000000000000000000000000000000068
:101880000000000000000000000000000000000058
:101890000000000000000000000000000000000048
:1018A0000000000000000000000000000000000038
:1018B0000000000000000000000000000000000028
:1018C0000000000000000000000000000000000018
:1018D0000000000000000000000000000000000008
:1018E00000000000000000000000000000000000F8
:1018F00000000000000000000000000000000000E8
:1019000000000000000000000000000000000000D7
:1019100000000000000000000000000000000000C7
:10192000C0F0F0F0F0F000E0F0F0D0F0F070B0B007
:10193000B0B03010D0F0F07010C0F0F07010C0F007
:10194000F070100000000000000000000000000027
:101950000000000000000000000000000000000087
:101960000000000000000000000000000000000077
:101970000000000000000000000000000000000067
:101980000000000000000000000000000000000057
:101990000000000000000000000000000000080E31
:1019A0000F0F01010F0F0F0F0F0E0F0F0D0D0D0D6C
:1019B0000C0400020F0F0F0C0E0F0F0D0C0E0F0F6B
:1019C0000100000000000000000000000000000016
:1019D0000000000000000000000000000000000007
:1019E00000000000000000000000000000000000F7
:1019F000000000000080E0FCFF3F2F3130B0F0FE1F
:101A0000FF3F078582C3FBFFFF9F8383030331FCF6
:101A1000FEFF8FC7A7F7F7F77793E1FCFF3F2F3162
:101A200030B0F0FEFF3F079DBEBFBFB7B7B7F7F7B7
:101A3000E7030131FCFEFFCF87838383830303F138
:101A4000FCFEFE8F878783C7E7FFFF3E80E0FCFF39
:101A50003F6FF3F3F3B33F3F1F8EE0FCFFBFAFB325
:101A6000B3B39393030361FC7F3F0F0100000000B9
:101A70000000000000030303010000000203030351
:101A80000202030303030303030303000000000037
:101A90000103030303030303000303030100000026
:101AA0000203038380C2C383838303030303C3C38B
:101AB000E1E0E0E0E0E1E3C3030303030100000031
:101AC00001030303030303030101000003030301F4
:101AD00000000001030303020203030303030303E3
:101AE00003030301000303030000000000000000E3
:101AF00000000000000000000000000000000000E6
:101B000000000000000000000000000000000000D5
:101B1000C0E0E0E0E0E0C0C080020E1C3C787C7CCD
:101B20003E3E1F1F9F8F0F0F0F87C3C26260703032
:101B300030317171F3E3C7C7CFCECEC4C00000C04F
:101B4000F0FCFCFEFEFFFFFFFFFEFEFCFCF8C00009
:101B50000000000000000000000000000000000085
:101B60000000000000000000000000000000000075
:101B70000000000000000000000000000000000065
:101B8000000000000000000000000000000203034D
:101B900003030101000103030100081818383C3C4D
:101BA0003C1E1E0F0F0FFFFFF8F8703010180808CA
:101BB0000000307070F3FFFFFFFF7F3F3F10000316
:101BC0000A2F552FDB6FBF5FFFBF5F7F3F1F0700EF
:101BD0000000000000000000000000000000000005
:101BE00000000000000000000000000000000000F5
:101BF00000000000000000000000000000000000E5
:101C000000000000000000000000000000000000D4
:101C100000000000000000000000000000000000C4
:101C200000000000000101010000000000000000B1
:101C300000000000000000010000000000000000A3
:101C40000000000000000000000000000000000094
:101C50000000000000000000000000000000000084
:101C60000000000000000000000000000000000074
:101C700011241FBECFEFD4E0DEBFCDBF11E0A0E046
:101C8000B1E0E4E6F0E302C005900D92AA3CB10792
:101C9000D9F722E0AAECB1E001C01D92AC31B20745
:101CA000E1F70E9431120C9430180C9400008091DE
:101CB000CA0108958BB780648BBF85B7826085BFEA
:101CC00085B78E7F85BF78948DE091E00E943115B5
:101CD0000895CF93C82F8FEF8C0F843068F01F9238
:101CE000CF938EE191E09F938F930E941D150F90EB
:101CF0000F900F900F900AC081E090E00E94570E65
:101D000083E08C0F80930014C0930601CF91089557
:101D10000E9444104FEF63E08BE20E942A104FEFC5
:101D200064E680E60E942A104FEF60E680E70E949A
:101D30002A1043E063EE8FE00E942A108FE391E0C7
:101D40000E9431150895CF92DF92EF92FF920F9388
:101D50001F93CF93DF93CDB7DEB72E970FB6F894CE
:101D6000DEBF0FBECDBFCA82DB82EC82FD820E8356
:101D70001F83288739874A875B876C877D878E8793
:101D8000EA80FB806E2D6295660F607E82E30E9482
:101D90005B0F82E30E94480F8983B70176956795B0
:101DA000769567957695679581E30E945B0F81E351
:101DB0000E94480F8983602F6F7085E30E945B0F3C
:101DC00085E30E94480F8983002379F07E0187E034
:101DD000E80EF11C0A5C16E3F70161917F01812F87
:101DE0000E945B0F1F5F1013F7CF85E30E94480F1F
:101DF000898380E00E9416102E960FB6F894DEBFFD
:101E00000FBECDBFDF91CF911F910F91FF90EF904B
:101E1000DF90CF9008951F93CF93DF93EC018CE276
:101E20000E94480F80FD0FC081FD0FC01F928F934D
:101E300080E591E09F938F930E941D150F900F9066
:101E40000F900F9003C010E001C011E0612FCE0190
:101E50000E946F0FCE01DF91CF911F9108958BB734
:101E600080688BBF85B7886085BF85B78B7F85BF4E
:101E700078948BE891E00E943115089582E090E01B
:101E80000E94690E089581E090E00E94690E089515
:101E9000CF93C82F0E94691383E00E9479138C2F7F
:101EA0000E9479138C2F0E947913C82F0E946B1304
:101EB0008C2FCF910895CF93DF93D82FC62F0E94F8
:101EC000691382E00E9479138D2F0E9479138C2F61
:101ED0000E9479130E946B13DF91CF910895EF92C6
:101EE000FF920F931F93CF93DF93CDB7DEB76A971F
:101EF0000FB6F894DEBF0FBECDBF7C018DE0FE01B2
:101F00003196DF01982F1D929A95E9F73D96DF01F2
:101F10001D928A95E9F761115BC00E94691383E005
:101F20000E94791381E60E94791300E010E081E6B7
:101F3000800F0E947913E1E0F0E0EC0FFD1FE00F4D
:101F4000F11F80830F5F1F4F0D30110581F70E9435
:101F50006B1329818A8190E0922B969587959295B3
:101F600082958F7089279F7089279A8389838D81B5
:101F70008F708D830E94691383E00E94791381E33F
:101F80000E94791300E010E080E00E947913EEE0F7
:101F9000F0E0EC0FFD1FE00FF11F80830F5F1F4F7C
:101FA0000D30110589F70E946B1360E08CE20E94EE
:101FB0005B0F2E858F8590E0922B96958795929555
:101FC00082958F7089279F7089279F878E8718C079
:101FD0006130B1F481E70E94480F182F82E70E9418
:101FE000480F829586958770282F30E0C901912B84
:101FF00097709A83898385E70E94480F8F708D833D
:102000008DE0FE013196D70101900D928A95E1F79E
:10201000C7016A960FB6F894DEBF0FBECDBFDF9141
:10202000CF911F910F91FF90EF900895CF93DF9381
:10203000C1E0D0E002C0CC0FDD1F8A95E2F70E941C
:1020400069138C2F80580E9479130E946B13DF91C3
:10205000CF9108951F93CF93DF93182FD62FC42FBE
:102060000E94691385E00E947913812F0E947913E1
:102070008D2F0E9479138C2F0E9479130E946B136D
:10208000DF91CF911F9108950E94691380EC0E9407
:1020900079130E946B1308958EB588608EBD89B741
:1020A000806489BF80E89EE39BBD8ABD8EB5836056
:1020B0008EBD0895E0910B01F0910C01E80FF11D28
:1020C0008083089581111EC040E050E016C0A091A9
:1020D0000701B0910801A80FB91FFC01E059F74EA4
:1020E000E491EC9301968217930789F7485F5F4F5D
:1020F000411584E0580709F4C3C09A01285F3F4F97
:10210000CA01E5CF8130F1F440E050E016C0A09163
:102110000701B0910801A80FB91FFC01E059FB4E5F
:10212000E491EC9301968217930789F7485F5F4F1C
:10213000411584E0580709F4A3C09A01285F3F4F76
:10214000CA01E5CF8230F1F440E050E016C0A09122
:102150000701B0910801A80FB91FFC01E059FF4E1B
:10216000E491EC9301968217930789F7485F5F4FDC
:10217000411584E0580709F483C09A01285F3F4F56
:10218000CA01E5CF8330F1F440E050E016C0A091E1
:102190000701B0910801A80FB91FFC01E059F34FE6
:1021A000E491EC9301962817390789F7485F5F4F50
:1021B000411584E0580709F463C09A01285F3F4F36
:1021C000CA01E5CF8430F1F440E050E016C0A091A0
:1021D0000701B0910801A80FB91FFC01E059F74FA2
:1021E000E491EC9301968217930789F7485F5F4F5C
:1021F000411584E0580709F443C09A01285F3F4F16
:10220000CA01E5CF8530E9F440E050E015C0A09167
:102210000701B0910801A80FB91FFC01E059FB4F5D
:10222000E491EC9301968217930789F7485F5F4F1B
:10223000411584E0580721F19A01285F3F4FCA01F8
:10224000E6CF8630E9F440E050E015C0A0910701E8
:10225000B0910801A80FB91FFC01E059FF4FE491AC
:10226000EC9301968217930789F7485F5F4F4115FA
:1022700084E0580729F09A01285F3F4FCA01E6CF52
:102280000895CF93DF93D82FC62F81E20E945A1072
:102290008D2F0E945A108C2F0E945A10DF91CF91DF
:1022A0000895CF93DF93D82FC62F82E20E945A1051
:1022B0008D2F0E945A108C2F0E945A10DF91CF91BF
:1022C00008951092D1011092D0016FE780E00E9432
:1022D000411167E080E00E94511108950F931F9310
:1022E000CF93DF930E9462100E946111C0E0D0E0A2
:1022F00000E010E08091D0018031A1F51092D00172
:102300008091D1018F5F883019F08093D10102C094
:102310001092D1016FE780E00E94411167E0809147
:10232000D1010E9451111EC09C012C0F3D1FE09154
:102330000701F0910801E20FF31F2081E0910901EC
:10234000F0910A01208301968830910569F7809108
:10235000D0018F5F8093D0012896C11584E0D80703
:1023600049F603C0802F912FDFCFDF91CF911F91CE
:102370000F9108958093D1011092D0016FE780E012
:102380000E94411167E08091D1010E94511180E8C3
:1023900090E0E0910901F0910A0110820197009705
:1023A000C1F76FE780E00E9441111092D0010895BB
:1023B000CF93DF93C0E0D0E0CE010E94BA11219606
:1023C000C830D105C9F7DF91CF9108958EEA0E94F8
:1023D0005A1081EA0E945A108AED0E945A1082E136
:1023E0000E945A1088EC0E945A1088EA0E945A10E3
:1023F0008FE30E945A1085ED0E945A1080E80E94D7
:102400005A1081E80E945A1080E50E945A1089ED06
:102410000E945A1081E20E945A1080E20E945A10D3
:1024200082E00E945A108BED0E945A1080E30E94B5
:102430005A108DEA0E945A1080E00E945A1084EAD5
:102440000E945A1086EA0E945A108FEA0E945A107F
:102450000E94D8110E94611188EA91E00E94311512
:102460000895CF93DF93CDB7DEB72D970FB6F894CD
:10247000DEBF0FBECDBFB89ABA980E946D138FE130
:1024800090E00E9489130E9498130E947E130E947C
:102490005A0E0E94E6110E944C100E942F0F0E94BB
:1024A000880E81E090E09093D3018093D20186E082
:1024B0008093D6011092D5011092D401812C912CD9
:1024C0000F2EFAEBAF2EF1E0BF2EF02D8091CD0153
:1024D000813011F51092CD01CE0101960E940B0FB3
:1024E000CE0101967C01082D192DF70181917F0104
:1024F0001F928F931F930F93BF92AF920E941D154F
:102500000F5F1F4F0F900F900F900F900F900F9035
:102510000D30110551F7DACF8091CC018130B1F641
:10252000C090D201D090D301E090D401F090D501B9
:102530000091D6011091D7012091D8013091D90195
:102540004091DA015091DB016091DC017091DD0175
:102550008091DE010E94A30E1092CC01B7CF1F9292
:102560000F920FB60F9211242F933F934F935F93C7
:102570006F937F938F939F93AF93BF93EF93FF934B
:1025800098B381E0892788BB8091CB010E946E11AE
:102590008091CB01823019F41092CB0105C080915B
:1025A000CB018F5F8093CB010E94570E81112AC00F
:1025B0008091CF01811103C00E94430F23C08091FD
:1025C000CF01813019F40E943E0F1CC08091CF01D1
:1025D000823019F40E94641315C01092CF018091CB
:1025E000CE018093DA01B29B04C081E08093DB01CD
:1025F00002C01092DB0181E08093DC011092CE01D9
:102600008093CC01FF91EF91BF91AF919F918F91FA
:102610007F916F915F914F913F912F910F900FBEDE
:102620000F901F9018951F920F920FB60F921124C2
:102630002F933F934F935F936F937F938F939F93CA
:10264000AF93BF93EF93FF93E091CF01F0E08091C0
:102650000314EE52FE4F85838091CF018F5F8093EC
:10266000CF0180E090E00E94570EFF91EF91BF9163
:10267000AF919F918F917F916F915F914F913F911A
:102680002F910F900FBE0F901F9018951F920F92D1
:102690000FB60F9211248F9381E08093CE018F911A
:1026A0000F900FBE0F901F9018951F920F920FB6AC
:1026B0000F9211248F9381E08093CD018F910F9021
:1026C0000FBE0F901F90189584E090E00E94690E55
:1026D0000895C4980895C49A08958BB780628BBFFB
:1026E000BC9A0E946B13BD9ABF9A6E9A6C9A689AB4
:1026F00008958FB9779BFECF8FB1089585B7806815
:1027000085BF08958091DF0108955D9BFECF8CB950
:10271000089590BD89B988E18AB986E880BD40E016
:1027200050E062E873E185E893E10E94D2140895D5
:10273000579A08951F920F920FB60F9211248F93FC
:102740008CB18A3011F08093DF018F910F900FBE12
:102750000F901F901895CF93DF938230910510F45E
:1027600082E090E0E0911402F091150220E030E068
:10277000A0E0B0E0309739F1408151814817590706
:10278000B8F04817590771F482819381109729F0A6
:1027900013969C938E9312972CC09093150280935E
:1027A000140227C02115310531F04217530718F0E4
:1027B000A901DB0101C0EF019A01BD01DF01028027
:1027C000F381E02DD7CF21153105F9F0281B390B06
:1027D0002430310580F48A819B816115710521F0D7
:1027E000FB019383828304C09093150280931402AB
:1027F000FE01329644C0FE01E20FF31F81939193D4
:1028000022503109398328833AC020911202309135
:102810001302232B41F420910201309103013093E4
:102820001302209312022091000130910101211521
:10283000310541F42DB73EB7409104015091050197
:10284000241B350BE0911202F0911302E217F307FB
:10285000A0F42E1B3F0B2817390778F0AC014E5F10
:102860005F4F2417350748F04E0F5F1F5093130238
:10287000409312028193919302C0E0E0F0E0CF0117
:10288000DF91CF910895CF93DF93009709F487C02C
:10289000FC01329713821282C0911402D09115026A
:1028A000209781F420813181280F391F80911202F5
:1028B000909113028217930779F5F0931302E09336
:1028C00012026DC0DE0120E030E0AE17BF0750F409
:1028D00012964D915C9113979D014115510509F197
:1028E000DA01F3CFB383A28340815181840F951F16
:1028F0008A179B0771F48D919C911197840F951FF6
:1029000002969183808312968D919C911397938365
:1029100082832115310529F4F0931502E093140206
:102920003EC0D9011396FC93EE9312974D915D91A1
:10293000A40FB51FEA17FB0779F480819181840FFA
:10294000951F0296D90111969C938E938281938153
:1029500013969C938E931297E0E0F0E08A819B811E
:10296000009719F0FE01EC01F9CFCE010296288103
:102970003981820F931F2091120230911302281780
:10298000390769F4309729F4109215021092140255
:1029900002C013821282D0931302C0931202DF91FD
:1029A000CF9108950F931F93CF93DF93EC018B0189
:1029B000009731F46115710519F480E090E038C09A
:1029C0006EE070E081E090E00E943017FC0100971B
:1029D000A1F380E883830115110571F01387028745
:1029E00081E883838091160290911702892B21F44C
:1029F000F0931702E09316022097C9F0D187C087A1
:102A00008381826083838091180290911902892BBF
:102A100071F4F0931902E093180280911A029091D8
:102A20001B02892B21F4F0931B02E0931A02CF01C1
:102A3000DF91CF911F910F910895A0E0B0E0E3E204
:102A4000F5E10C940918FE01359661917191AF0181
:102A500080911802909119020E945E15E2E00C9498
:102A600025180F931F93CF93DF93E0911802F091F5
:102A70001902238121FF1BC0EC0100E010E08991C5
:102A80006091180270911902DB011896ED91FC918A
:102A90001997882331F00995892B89F30FEF1FEFE0
:102AA000EECF8AE00995892B11F4C80102C08FEF9F
:102AB0009FEFDF91CF911F910F910895ACE0B0E0AF
:102AC000E4E6F5E10C94F9177C016B018A01FC0145
:102AD00017821682838181FFBDC1CE0101964C0110
:102AE000F7019381F60193FD859193FF81916F0129
:102AF000882309F4ABC1853239F493FD859193FFA6
:102B000081916F01853229F4B70190E00E94691725
:102B1000E7CF512C312C20E02032A0F48B3269F029
:102B200030F4803259F0833269F420612CC08D3248
:102B300039F0803339F4216026C02260246023C03C
:102B4000286021C027FD27C030ED380F3A3078F4D7
:102B500026FF06C0FAE05F9E300D1124532E13C0ED
:102B60008AE0389E300D1124332E20620CC08E3244
:102B700021F426FD6BC1206406C08C3611F4206858
:102B800002C0883641F4F60193FD859193FF81914F
:102B90006F018111C1CF982F9F7D9554933028F4F8
:102BA0000C5F1F4FFFE3F9830DC0833631F083378D
:102BB00071F0833509F05BC022C0F8018081898300
:102BC0000E5F1F4F44244394512C540115C038010B
:102BD000F2E06F0E711CF801A080B18026FF03C0E7
:102BE000652D70E002C06FEF7FEFC5012C870E945A
:102BF0005E172C0183012C852F77222E17C03801F8
:102C0000F2E06F0E711CF801A080B18026FF03C0B6
:102C1000652D70E002C06FEF7FEFC5012C870E9429
:102C20004C172C012C852068222E830123FC1BC00D
:102C3000832D90E048165906B0F4B70180E290E089
:102C40000E9469173A94F4CFF50127FC859127FE7D
:102C500081915F01B70190E00E94691731103A94A9
:102C6000F1E04F1A51084114510471F7E5C0843660
:102C700011F0893639F5F80127FF07C060817181AD
:102C8000828193810C5F1F4F08C06081718188270A
:102C900077FD8095982F0E5F1F4F2F76B22E97FFEE
:102CA00009C090958095709561957F4F8F4F9F4F8C
:102CB0002068B22E2AE030E0A4010E949B17A82EC3
:102CC000A81844C0853729F42F7EB22E2AE030E0C0
:102CD00025C0F22FF97FBF2E8F36C1F018F488354A
:102CE00079F0B4C0803719F0883721F0AFC02F2FAA
:102CF0002061B22EB4FE0DC08B2D8460B82E09C0A9
:102D000024FF0AC09F2F9660B92E06C028E030E04D
:102D100005C020E130E002C020E132E0F801B7FE5A
:102D200007C060817181828193810C5F1F4F06C053
:102D30006081718180E090E00E5F1F4FA4010E94CE
:102D40009B17A82EA818FB2DFF77BF2EB6FE0BC031
:102D50002B2D2E7FA51450F4B4FE0AC0B2FC08C07F
:102D60002B2D2E7E05C07A2C2B2D03C07A2C01C072
:102D7000752C24FF0DC0FE01EA0DF11D808180330A
:102D800011F4297E09C022FF06C07394739404C015
:102D9000822F867809F0739423FD13C020FF06C0AC
:102DA0005A2C731418F4530C5718732C731468F4BA
:102DB000B70180E290E02C870E94691773942C85FC
:102DC000F5CF731410F4371801C0312C24FF12C052
:102DD000B70180E390E02C870E9469172C8522FFC1
:102DE00017C021FF03C088E590E002C088E790E0AB
:102DF000B7010CC0822F867859F021FD02C080E215
:102E000001C08BE227FD8DE2B70190E00E946917B7
:102E1000A51438F4B70180E390E00E9469175A9432
:102E2000F7CFAA94F401EA0DF11D8081B70190E07B
:102E30000E946917A110F5CF332009F451CEB701D4
:102E400080E290E00E9469173A94F6CFF7018681FC
:102E5000978102C08FEF9FEF2C96E2E10C9415183A
:102E60000F931F93CF93DF93869F8001879F100D51
:102E7000969F100D1124C8010E94AB13EC0100971E
:102E800029F0A80160E070E00E945717CE01DF91A1
:102E9000CF911F910F910895FC01059061507040F2
:102EA0000110D8F7809590958E0F9F1F0895DC0133
:102EB00001C06D9341505040E0F70895FC0161500E
:102EC000704001900110D8F7809590958E0F9F1F4C
:102ED00008950F931F93CF93DF93182F092FEB01C2
:102EE0008B8181FD03C08FEF9FEF20C082FF10C058
:102EF0004E815F812C813D81421753077CF4E8812C
:102F0000F9819F012F5F3F4F39832883108306C0CB
:102F1000E885F985812F0995892B29F72E813F8135
:102F20002F5F3F4F3F832E83812F902FDF91CF91D3
:102F30001F910F910895FA01AA27283051F12031ED
:102F400081F1E8946F936E7F6E5F7F4F8F4F9F4F3D
:102F5000AF4FB1E03ED0B4E03CD0670F781F891F7F
:102F60009A1FA11D680F791F8A1F911DA11D6A0F4D
:102F7000711D811D911DA11D20D009F468943F9100
:102F80002AE0269F11243019305D3193DEF6CF01FF
:102F90000895462F4770405D4193B3E00FD0C9F7C5
:102FA000F6CF462F4F70405D4A3318F0495D31FD32
:102FB0004052419302D0A9F7EACFB4E0A695979585
:102FC000879577956795BA95C9F70097610571055B
:102FD00008959B01AC010A2E0694579547953795A5
:102FE0002795BA95C9F7620F731F841F951FA01DFF
:102FF00008952F923F924F925F926F927F928F929D
:103000009F92AF92BF92CF92DF92EF92FF920F9377
:103010001F93CF93DF93CDB7DEB7CA1BDB0B0FB681
:10302000F894DEBF0FBECDBF09942A88398848883E
:103030005F846E847D848C849B84AA84B984C884D4
:10304000DF80EE80FD800C811B81AA81B981CE0FCB
:10305000D11D0FB6F894DEBF0FBECDBFED010895B0
:04306000F894FFCF12
:1030640000001C022000010018001200104144431B
:1030740020696E697469616C697A6564200065729F
:10308400726F723A206E6F20737563682061646397
:10309400206368616E6E656C3A202569200A0043DE
:1030A400414E20696E697469616C697A65642000B7
:1030B4004572726F722C20494E54322C20696E670F
:1030C400656E20617620696E7420666C6167676541
:1030D4006E6520692043414E2076617220736174CD
:1030E40074203A532C202578200A004A6F7973748F
:1030F40069636B20627574746F6E20696E6974699C
:10310400616C697A656420006F6C656420696E691E
:103114007469616C697A65642000206C696E6A6503
:0A3124002025693A202569200A00E1
:00000001FF
