S00D000072733233322E737265639B
S11300000C94BC0D0C949E170C940A180C9447186D
S11300100C94D90D0C94D90D0C94D90D0C94D90DC4
S11300200C94D90D0C94D90D0C94D90D0C94D90DB4
S11300300C94D90D0C9418170C94D90D0C94D90D5B
S11300400C94D90D0C94D90D0C94D90D0C948C18D6
S11300500C94D90D0C94D90D0C94D90D0C94D90D84
S11300600C94D90D0C94D90D0C94D90D0C94D90D74
S1130070000000000000000000000000000000007C
S1130080000000000000000000000000000000006C
S1130090000000000000000000000000000000005C
S11300A0000000000000000000000000000000004C
S11300B0000000000000000000000000000000003C
S11300C0000000000000000000000000000000002C
S11300D0000000000000000000000000000000001C
S11300E0000000000000000000000000000000000C
S11300F0000000000000000000C0F0F03C0C0C0CFC
S11301000C3C3CF000000000C0FCFCFCC000000003
S113011000FCFCFCC0C00000000000C0FCFCFC00B3
S11301200000FCFC0C0C0C0C0C0C0C00000000007F
S1130130000000C0C0F03C0C0C0C3C3CF0C00000C3
S11301403CFCC0C00000C0C0FC3C0000FCFCFC0C3B
S11301500C0C0C0C0C000000FCFCFC0C0C0C0C0C2F
S1130160FCFCF000000000000000000000000000A3
S1130170000000000000000000FFFFFF000030301E
S113018030F0F0F0000000F0FF030303FFF0F00094
S113019000FFFFFF3F3FFCC0C0C0FC3FFFFFFF006C
S11301A00000FFFF0C0C0C0C0C0C00000000000005
S11301B0000000FFFFFF000000000000FFFF000040
S11301C0000FFFFFC0C0FFFF0F000000FFFFFF0C88
S11301D00C0C0C0C00000000FFFFFF3030303030FE
S11301E0FFFFCF000000000000000000000000003E
S11301F0000000000000000000030F0F3C3030300E
S1130200300F0F3F003C3C3F03030303033F3F3CDD
S1130210003F3F3F0000033F3F3F03003F3F3F009D
S113022000003F3F303030303030300000000000FC
S113023000000003030F3C3030303C3C0F0300004F
S1130240000003033F3F0303000000003F3F3F3033
S113025030303030300000003F3F3F0000000000ED
S11302600F0F3F30000000000000000000000000FD
S1130270000000008080808080808080000000007A
S1130280000000000000000000000000000000006A
S1130290000000000000000000000000000000005A
S11302A0000000000000808000000000000000004A
S11302B0000000000000000000000000000000003A
S11302C0000000000000000000000000000000002A
S11302D0000000000000000000000000000000001A
S11302E0000000008080800000000000000000008A
S11302F000000000000000FFFF00000000FCFC0CF8
S1130300040C3CF0C0C0F03C0C0000000000C8EC41
S11303103414FCF80000F8FC0404FCFC0000C8ECF5
S11303203414FCF80000FDFD0000FCFC0404FCF89F
S113033000000000000000000000000000000000B9
S113034000000000000000000000000000000000A9
S11303500000000000000000000000000000000099
S113036000000000FFFFFF0080000000000000000C
S11303700000000000000001010000000001010075
S11303800000080C0703000000000000000000014A
S1130390010101010000040D09090F07000000011B
S11303A0010101010000010100000101000001013F
S11303B00000000000000000000000000000000039
S11303C00000000000000000000000000000000029
S11303D00000000000000000000000000000000019
S11303E000000000E3E3E363800000081C08000051
S11303F000000000000000000000000000000000F9
S113040000000000000000000000000000000000E8
S113041000000000000000000000000000000000D8
S113042000000000000000000000000000000000C8
S113043000000000000000000000000000000000B8
S113044000000000000000000000000000000000A8
S11304500000000000000000000000000000000098
S1130460000000003F3F3F000000000000000000CB
S11304700000000000000000000000000000000078
S11304800000000000000000000000000000000068
S11304900000000000000000000000000000000058
S11304A00000000000000000000000000000000048
S11304B00000000000000000000000000000000038
S11304C00000000000000000000000000000000028
S11304D00000000000000000000000000000000018
S11304E00000000000000000000000000000000008
S11304F0000000000000000000C0F0F03C0C0C0CF8
S11305000C3C3CF000000000C0FCFCFCC0000000FF
S113051000FCFCFCC0C00000000000C0FCFCFC00AF
S11305200000FCFC0C0C0C0C0C0C0C00000000007B
S1130530000000C0C0F03C0C0C0C3C3CF0C00000BF
S11305403CFCC0C00000C0C0FC3C0000FCFCFC0C37
S11305500C0C0C0C0C000000FCFCFC0C0C0C0C0C2B
S1130560FCFCF0000000000000000000000000009F
S1130570000000000000000000FFFFFF000030301A
S113058030F0F0F0000000F0FF030303FFF0F00090
S113059000FFFFFF3F3FFCC0C0C0FC3FFFFFFF0068
S11305A00000FFFF0C0C0C0C0C0C00000000000001
S11305B0000000FFFFFF000000000000FFFF00003C
S11305C0000FFFFFC0C0FFFF0F000000FFFFFF0C84
S11305D00C0C0C0C00000000FFFFFF3030303030FA
S11305E0FFFFCF000000000000000000000000003A
S11305F0000000000000000000030F0F3C3030300A
S1130600300F0F3F003C3C3F03030303033F3F3CD9
S1130610003F3F3F0000033F3F3F03003F3F3F0099
S113062000003F3F303030303030300000000000F8
S113063000000003030F3C3030303C3C0F0300004B
S1130640000003033F3F0303000000003F3F3F302F
S113065030303030300000003F3F3F0000000000E9
S11306600F0F3F30000000000000000000000000F9
S11306700000000080808080808080800000000076
S11306800000000000000000000000000000000066
S11306900000000000000000000000000000000056
S11306A00000000000008080000000000000000046
S11306B00000000000000000000000000000000036
S11306C00000000000000000000000000000000026
S11306D00000000000000000000000000000000016
S11306E00000000080808000000000000000000086
S11306F000000000000000FFFF00000000FCFC0CF4
S1130700040C3CF0C0C0F03C0C0000000000C8EC3D
S11307103414FCF80000F8FC0404FCFC0000C8ECF1
S11307203414FCF80000FDFD0000FCFC0404FCF89B
S113073000000000000000000000000000000000B5
S113074000000000000000000000000000000000A5
S11307500000000000000000000000000000000095
S113076000000000FFFFFF00800000000000000008
S11307700000000000000001010000000001010071
S11307800000080C07030000000000000000000146
S1130790010101010000040D09090F070000000117
S11307A0010101010000010100000101000001013B
S11307B00000000000000000000000000000000035
S11307C00000000000000000000000000000000025
S11307D00000000000000000000000000000000015
S11307E000000000E3E3E36B9C080000000000004D
S11307F000000000000000000000000000000000F5
S113080000000000000000000000000000000000E4
S113081000000000000000000000000000000000D4
S113082000000000000000000000000000000000C4
S113083000000000000000000000000000000000B4
S113084000000000000000000000000000000000A4
S11308500000000000000000000000000000000094
S1130860000000003F3F3F000000000000000000C7
S11308700000000000000000000000000000000074
S11308800000000000000000000000000000000064
S11308900000000000000000000000000000000054
S11308A00000000000000000000000000000000044
S11308B00000000000000000000000000000000034
S11308C00000000000000000000000000000000024
S11308D00000000000000000000000000000000014
S11308E00000000000000000000000000000000004
S11308F0000000000000000000C0F0F03C0C0C0CF4
S11309000C3C3CF000000000C0FCFCFCC0000000FB
S113091000FCFCFCC0C00000000000C0FCFCFC00AB
S11309200000FCFC0C0C0C0C0C0C0C000000000077
S1130930000000C0C0F03C0C0C0C3C3CF0C00000BB
S11309403CFCC0C00000C0C0FC3C0000FCFCFC0C33
S11309500C0C0C0C0C000000FCFCFC0C0C0C0C0C27
S1130960FCFCF0000000000000000000000000009B
S1130970000000000000000000FFFFFF0000303016
S113098030F0F0F0000000F0FF030303FFF0F0008C
S113099000FFFFFF3F3FFCC0C0C0FC3FFFFFFF0064
S11309A00000FFFF0C0C0C0C0C0C000000000000FD
S11309B0000000FFFFFF000000000000FFFF000038
S11309C0000FFFFFC0C0FFFF0F000000FFFFFF0C80
S11309D00C0C0C0C00000000FFFFFF3030303030F6
S11309E0FFFFCF0000000000000000000000000036
S11309F0000000000000000000030F0F3C30303006
S1130A00300F0F3F003C3C3F03030303033F3F3CD5
S1130A10003F3F3F0000033F3F3F03003F3F3F0095
S1130A2000003F3F303030303030300000000000F4
S1130A3000000003030F3C3030303C3C0F03000047
S1130A40000003033F3F0303000000003F3F3F302B
S1130A5030303030300000003F3F3F0000000000E5
S1130A600F0F3F30000000000000000000000000F5
S1130A700000000080808080808080800000000072
S1130A800000000000000000000000000000000062
S1130A900000000000000000000000000000000052
S1130AA00000000000008080000000000000000042
S1130AB00000000000000000000000000000000032
S1130AC00000000000000000000000000000000022
S1130AD00000000000000000000000000000000012
S1130AE00000000080808000000000000000000082
S1130AF000000000000000FFFF00000000FCFC0CF0
S1130B00040C3CF0C0C0F03C0C0000000000C8EC39
S1130B103414FCF80000F8FC0404FCFC0000C8ECED
S1130B203414FCF80000FDFD0000FCFC0404FCF897
S1130B3000000000000000000000000000000000B1
S1130B4000000000000000000000000000000000A1
S1130B500000000000000000000000000000000091
S1130B6000000000FFFFFF00000000000000000084
S1130B70000000000000000101000000000101006D
S1130B800000080C07030000000000000000000142
S1130B90010101010000040D09090F070000000113
S1130BA00101010100000101000001010000010137
S1130BB00000000000000000000000000000000031
S1130BC00000000000000000000000000000000021
S1130BD0000000000000000000000000081C0800E5
S1130BE000000000FFFFFF00000000000000000004
S1130BF000000000000000000000000000000000F1
S1130C0000000000000000000000000000000000E0
S1130C1000000000000000000000000000000000D0
S1130C2000000000000000000000000000000000C0
S1130C3000000000000000000000000000000000B0
S1130C4000000000000000000000000000000000A0
S1130C500000000000000000000000000000000090
S1130C60000000003F3F3F000000000000000000C3
S1130C700000000000000000000000000000000070
S1130C800000000000000000000000000000000060
S1130C900000000000000000000000000000000050
S1130CA00000000000000000000000000000000040
S1130CB00000000000000000000000000000000030
S1130CC00000000000000000000000000000000020
S1130CD00000000000000000000000000000000010
S1130CE00000000000000000000000000000000000
S1130CF000000000000000000000000000000000F0
S1130D0000000000000000000000000000000000DF
S1130D1000000000000000000000000000000000CF
S1130D20C0F0F0F0F0F000E0F0F0D0F0F070B0B00F
S1130D30B0B03010D0F0F07010C0F0F07010C0F00F
S1130D40F07010000000000000000000000000002F
S1130D50000000000000000000000000000000008F
S1130D60000000000000000000000000000000007F
S1130D70000000000000000000000000000000006F
S1130D80000000000000000000000000000000005F
S1130D900000000000000000000000000000080E39
S1130DA00F0F01010F0F0F0F0F0E0F0F0D0D0D0D74
S1130DB00C0400020F0F0F0C0E0F0F0D0C0E0F0F73
S1130DC0010000000000000000000000000000001E
S1130DD0000000000000000000000000000000000F
S1130DE000000000000000000000000000000000FF
S1130DF0000000000080E0FCFF3F2F3130B0F0FE27
S1130E00FF3F078582C3FBFFFF9F8383030331FCFE
S1130E10FEFF8FC7A7F7F7F77793E1FCFF3F2F316A
S1130E2030B0F0FEFF3F079DBEBFBFB7B7B7F7F7BF
S1130E30E7030131FCFEFFCF87838383830303F140
S1130E40FCFEFE8F878783C7E7FFFF3E80E0FCFF41
S1130E503F6FF3F3F3B33F3F1F8EE0FCFFBFAFB32D
S1130E60B3B39393030361FC7F3F0F0100000000C1
S1130E700000000000030303010000000203030359
S1130E80020203030303030303030300000000003F
S1130E90010303030303030300030303010000002E
S1130EA002030303C0C2C3C3838383030303030393
S1130EB00100000000010383030303030100000099
S1130EC001030303030303030101000003030301FC
S1130ED000000001030303020203030303030303EB
S1130EE003030301000303030000000000000000EB
S1130EF000000000000000000000000000000000EE
S1130F000000000000000000004040606060E0E07D
S1130F10C0C080800080C0C080001018181C3C3CF9
S1130F203E7C7CFCFC793FBF9F9FCFCF8F9E1C10E3
S1130F3000000C8E8ECFFFFFFFFFFEFCFC0800C0FC
S1130F40F0FCFCFEFEFFFFFFFFFEFEFCFCF8C00011
S1130F50000000000000000000000000000000008D
S1130F60000000000000000000000000000000007D
S1130F70000000000000000000000000000000006D
S1130F80000000000000000000000000000000005D
S1130F900307070707070303014070383C1E3E3E62
S1130FA07C7CF8F8F9F1F0F0F0E1C34347070F0F48
S1130FB00F8F8F8FCFC7E3E3F37373230300000313
S1130FC00A2F552FDB6FBF5FFFBF5F7F3F1F0700F7
S1130FD0000000000000000000000000000000000D
S1130FE000000000000000000000000000000000FD
S1130FF000000000000000000000000000000000ED
S113100000000000000000000000000000000000DC
S113101000000000000000000000000000000000CC
S113102000000001010303010101000000000303AB
S11310300707070707070703000000000000000078
S1131040000000000000000000000000000000009C
S1131050000000000000000000000000000000008C
S1131060000000000000000000000000000000007C
S1131070000000000000000000000000000000006C
S1131080000000000000000000000000000000005C
S1131090000000000000000000000000000000004C
S11310A0000000000000000000000000000000003C
S11310B0000000000000000000000000000000002C
S11310C0000000000000000000000000000000001C
S11310D0000000000000000000000000000000000C
S11310E000000000000000000000000000000000FC
S11310F000000000000000000000000000000000EC
S113110000000000000000000000000000000000DB
S113111000000000000000000000000000000000CB
S1131120C0F0F0F0F0F000E0F0F0D0F0F070B0B00B
S1131130B0B03010D0F0F07010C0F0F07010C0F00B
S1131140F07010000000000000000000000000002B
S1131150000000000000000000000000000000008B
S1131160000000000000000000000000000000007B
S1131170000000000000000000000000000000006B
S1131180000000000000000000000000000000005B
S11311900000000000000000000000000000080E35
S11311A00F0F01010F0F0F0F0F0E0F0F0D0D0D0D70
S11311B00C0400020F0F0F0C0E0F0F0D0C0E0F0F6F
S11311C0010000000000000000000000000000001A
S11311D0000000000000000000000000000000000B
S11311E000000000000000000000000000000000FB
S11311F0000000000080E0FCFF3F2F3130B0F0FE23
S1131200FF3F078582C3FBFFFF9F8383030331FCFA
S1131210FEFF8FC7A7F7F7F77793E1FCFF3F2F3166
S113122030B0F0FEFF3F079DBEBFBFB7B7B7F7F7BB
S1131230E7030131FCFEFFCF87838383830303F13C
S1131240FCFEFE8F878783C7E7FFFF3E80E0FCFF3D
S11312503F6FF3F3F3B33F3F1F8EE0FCFFBFAFB329
S1131260B3B39393030361FC7F3F0F0100000000BD
S11312700000000000030303010000000203030355
S1131280020203030303030303030300000000003B
S1131290010303030303030300030303010000002A
S11312A0020303030002030303030303038383838F
S11312B08100000000010303030303030100000095
S11312C001030303030303030101000003030301F8
S11312D000000001030303020203030303030303E7
S11312E003030301000303030000000000000000E7
S11312F000000000000000000000000000000000EA
S113130000000000000000000000000000000000D9
S113131000000000000000000000000080C0E0C0E9
S11313200000040C0E0E1E1E3C3C78F8F87F7F0F64
S11313308F8786040C084840C0CCECC4C00000C0B1
S1131340F0FCFCFE1EFFFFFFFFFEFEFCFCF8C000ED
S11313500000000000000000000000000000000089
S11313600000000000000000000000000000000079
S11313700000000000000000000000000000000069
S11313800000000000000000000000000000000059
S1131390000000000000000000010303030101003D
S11313A0000000020707070E1E5CDCDCF8F8F8F802
S11313B0F061212303878686C6C7C7E7631000034D
S11313C00A2F552FDA6FBF5FFFBF5F7F3F1F0700F4
S11313D00000000000000000000000000000000009
S11313E000000000000000000000000000000000F9
S11313F000000000000000000000000000000000E9
S113140000000000000000000000000000000000D8
S113141000000000000000000000000000000000C8
S113142000000000000000000000000001010000B6
S1131430000000000001010303030100000000009C
S11314400000000000000000000000000000000098
S11314500000000000000000000000000000000088
S11314600000000000000000000000000000000078
S11314700000000000000000000000000000000068
S11314800000000000000000000000000000000058
S11314900000000000000000000000000000000048
S11314A00000000000000000000000000000000038
S11314B00000000000000000000000000000000028
S11314C00000000000000000000000000000000018
S11314D00000000000000000000000000000000008
S11314E000000000000000000000000000000000F8
S11314F000000000000000000000000000000000E8
S113150000000000000000000000000000000000D7
S113151000000000000000000000000000000000C7
S1131520C0F0F0F0F0F000E0F0F0D0F0F070B0B007
S1131530B0B03010D0F0F07010C0F0F07010C0F007
S1131540F070100000000000000000000000000027
S11315500000000000000000000000000000000087
S11315600000000000000000000000000000000077
S11315700000000000000000000000000000000067
S11315800000000000000000000000000000000057
S11315900000000000000000000000000000080E31
S11315A00F0F01010F0F0F0F0F0E0F0F0D0D0D0D6C
S11315B00C0400020F0F0F0C0E0F0F0D0C0E0F0F6B
S11315C00100000000000000000000000000000016
S11315D00000000000000000000000000000000007
S11315E000000000000000000000000000000000F7
S11315F0000000000080E0FCFF3F2F3130B0F0FE1F
S1131600FF3F078582C3FBFFFF9F8383030331FCF6
S1131610FEFF8FC7A7F7F7F77793E1FCFF3F2F3162
S113162030B0F0FEFF3F079DBEBFBFB7B7B7F7F7B7
S1131630E7030131FCFEFFCF87838383830303F138
S1131640FCFEFE8F878783C7E7FFFF3E80E0FCFF39
S11316503F6FF3F3F3B33F3F1F8EE0FCFFBFAFB325
S1131660B3B39393030361FC7F3F0F0100000000B9
S11316700000000000030303010000000203030351
S11316800202030303030303030303000000000037
S11316900103030303030303000303030100000026
S11316A00203038380C2C383838303030303C3C38B
S11316B0E1E0E0E0E0E1E3C3030303030100000031
S11316C001030303030303030101000003030301F4
S11316D000000001030303020203030303030303E3
S11316E003030301000303030000000000000000E3
S11316F000000000000000000000000000000000E6
S113170000000000000000000000000000000000D5
S1131710C0E0E0E0E0E0C0C080020E1C3C787C7CCD
S11317203E3E1F1F9F8F0F0F0F87C3C26260703032
S113173030317171F3E3C7C7CFCECEC4C00000C04F
S1131740F0FCFCFEFEFFFFFFFFFEFEFCFCF8C00009
S11317500000000000000000000000000000000085
S11317600000000000000000000000000000000075
S11317700000000000000000000000000000000065
S1131780000000000000000000000000000203034D
S113179003030101000103030100081818383C3C4D
S11317A03C1E1E0F0F0FFFFFF8F8703010180808CA
S11317B00000307070F3FFFFFFFF7F3F3F10000316
S11317C00A2F552FDB6FBF5FFFBF5F7F3F1F0700EF
S11317D00000000000000000000000000000000005
S11317E000000000000000000000000000000000F5
S11317F000000000000000000000000000000000E5
S113180000000000000000000000000000000000D4
S113181000000000000000000000000000000000C4
S113182000000000000101010000000000000000B1
S113183000000000000000010000000000000000A3
S11318400000000000000000000000000000000094
S11318500000000000000000000000000000000084
S11318600000000000000000000000000000000074
S113187000007F3E1C080000FFFF7E7E3C3C1818E1
S1131880000000000000000000065F5F060000008A
S11318900007070007070000147F7F147F7F1400F0
S11318A0242E6B6B3A120000466630180C666200F8
S11318B0307A4F5D377A48000407030000000000C7
S11318C0001C3E63410000000041633E1C00000018
S11318D0082A3E1C1C3E2A0808083E3E0808000050
S11318E000A0E060000000000808080808080000E4
S11318F000006060000000006030180C0603010066
S11319003E7F594D7F3E000042427F7F40400000B1
S1131910627359496F660000226349497F360000AB
S1131920181C16137F7F1000276745457D3900007A
S11319303C7E4B4979300000036371190F070000A6
S1131940367F49497F360000064F49693F1E000033
S113195000006C6C0000000000A0EC6C00000000B3
S1131960081C3663410000001414141414140000FD
S1131970004163361C080000020351590F060000A1
S11319803E7F415D5D1F1E007C7E13137E7C000044
S1131990417F7F49497F36001C3E634141632200F9
S11319A0417F7F41637F1C00417F7F495D4163002C
S11319B0417F7F491D0103001C3E63415173720046
S11319C07F7F08087F7F000000417F7F4100000087
S11319D0307040417F3F0100417F7F081C776300E6
S11319E0417F7F41406070007F7F060C067F7F004F
S11319F07F7F060C187F7F001C3E6341633E1C0002
S1131A00417F7F49090F06001E3F21717F5E000060
S1131A10417F7F19396F460026674D597B3200009C
S1131A2003417F7F410300007F7F40407F7F0000B0
S1131A301F3F60603F1F00007F7F3018307F7F00B2
S1131A4063771C081C776300074F78784F07000002
S1131A506773594D47637100007F7F414100000067
S1131A600103060C183060000041417F7F00000034
S1131A70080C0603060C080080808080808080802B
S1131A800000030704000000207454543C78400014
S1131A90413F7F44447C3800387C44446C28000037
S1131AA0307848493F7F4000387C54545C1800002B
S1131AB0487E7F490302000098BCA4A4F87C04007B
S1131AC0417F7F08047C780000447D7D4000000055
S1131AD040C484FD7D000000417F7F10386C4400C9
S1131AE000417F7F400000007C7C0C180C7C780057
S1131AF07C7C04047C780000387C44447C380000FE
S1131B0084FCF8A4243C1800183C24A4F8FC8400A9
S1131B10447C78441C180000485C5454742400002D
S1131B2000043E7F442400003C7C40403C7C400058
S1131B301C3C60603C1C00003C7C6030607C3C00D1
S1131B40446C3810386C44009CBCA0A0FC7C0000A1
S1131B504C64745C4C64000008083E77414100000A
S1131B6000000077770000004141773E080800003C
S1131B70020301030203010011241FBECFEFD4E0CE
S1131B80DEBFCDBF12E0A0E0B1E0EAE9FAE302C0B3
S1131B9005900D92AE3DB107D9F723E0AEEDB2E06A
S1131BA001C01D92AB34B207E1F70E94D0160C9429
S1131BB04B1D0C9400008091DE0208958BB7806465
S1131BC08BBF85B7826085BF85B78E7F85BF7894CC
S1131BD08FE391E00E942A1A0895CF93C82F8FEFC4
S1131BE08C0F843068F01F92CF9380E591E09F932F
S1131BF08F930E94161A0F900F900F900F900AC0A7
S1131C0081E090E00E94DB0D83E08C0F8093001450
S1131C10C0930601CF9108950E94FD0E4FEF63E03B
S1131C208BE20E94E30E4FEF64E680E60E94E30E2F
S1131C304FEF60E680E70E94E30E43E063EE8FE03F
S1131C400E94E30E81E791E00E942A1A0895CF9240
S1131C50DF92EF92FF920F931F93CF93DF93CDB751
S1131C60DEB72E970FB6F894DEBF0FBECDBFCA8283
S1131C70DB82EC82FD820E831F83288739874A87A3
S1131C805B876C877D878E87EA80FB806E2D6295EB
S1131C90660F607E82E30E94BB0E82E30E94A80E60
S1131CA08983B70176956795769567957695679557
S1131CB081E30E94BB0E81E30E94A80E8983602FFA
S1131CC06F7085E30E94BB0E85E30E94A80E898392
S1131CD0002379F07E0187E0E80EF11C0A5C16E32C
S1131CE0F70161917F01812F0E94BB0E1F5F1013CA
S1131CF0F7CF85E30E94A80E898380E00E94CF0E6F
S1131D002E960FB6F894DEBF0FBECDBFDF91CF91F4
S1131D101F910F91FF90EF90DF90CF9008958BB7B4
S1131D2080688BBF85B7886085BF85B78B7F85BF8B
S1131D3078948DEB91E00E942A1A089582E090E055
S1131D400E94ED0D089581E090E00E94ED0D08954C
S1131D50CF93C82F0E945B1883E00E946B188C2FCE
S1131D600E946B188C2F0E946B18C82F0E945D185C
S1131D708C2FCF910895CF93DF93D82FC62F0E9435
S1131D805B1882E00E946B188D2F0E946B188C2FB9
S1131D900E946B180E945D18DF91CF910895CF9334
S1131DA0DF93C1E0D0E002C0CC0FDD1F8A95E2F7DB
S1131DB00E945B188C2F80580E946B180E945D183B
S1131DC0DF91CF9108951F93CF93DF93182FD62FD0
S1131DD0C42F0E945B1885E00E946B18812F0E941B
S1131DE06B188D2F0E946B188C2F0E946B180E9409
S1131DF05D18DF91CF911F9108950E945B1880ECCC
S1131E000E946B180E945D1808958EB588608EBD7F
S1131E1089B7806489BF80E496E09BBD8ABD8EB596
S1131E2083608EBD0895E091EF02F091F002258564
S1131E30211145C02091E2023091E302820F931FE9
S1131E409093E3028093E20283859485892BD9F4ED
S1131E50828190E02091E2023091E3022817390751
S1131E602CF01092E3021092E2025BC02091E20295
S1131E703091E30233230CF054C001979093E302B2
S1131E808093E2024EC0828190E02091E202309180
S1131E90E302AC014F5F5F4F241735072CF010921B
S1131EA0E3021092E2023DC02091E2023091E3028B
S1131EB03323BCF59093E3028093E20232C02630D0
S1131EC081F52091080130910901820F931F9093AD
S1131ED009018093080180910801909109018034DF
S1131EE0910539F48AE590E0909309018093080103
S1131EF00DC080910801909109018B35910531F451
S1131F0081E490E09093090180930801E091DF025D
S1131F10F091E0028091080190910901ED50FD4F8C
S1131F20808381E08093E40208950E94BC150E949E
S1131F30451581E08093E4020E94CB16E091F10202
S1131F40F091F202228533852817390718F410928C
S1131F500B01089581E080930B0108957F928F9285
S1131F609F92AF92BF92CF92DF92EF92FF920F9324
S1131F701F93CF93DF93CDB7DEB72C970FB6F894AA
S1131F80DEBF0FBECDBFE091EF02F091F002858578
S1131F90813021F40E94BC150E9445158AED91E020
S1131FA00E947F168AE0E3E1F1E0DE0111960190E0
S1131FB00D928A95E1F7812C912C0F2EFAEECF2EFB
S1131FC0F1E0DF2EF02D5E018BE0A80EB11CCE01F6
S1131FD001967C010F2EFBE07F2EF02D84010F5F14
S1131FE01F4F1F930F93DF92CF92BF92AF920E9425
S1131FF0571A61E0C5010E94681662E08DEE91E017
S11320000E946816E091F102F091F202880C991C8A
S1132010880C991CE80DF91D63E0808191810E9470
S1132020681680E20E941F16E091F102F091F2021C
S1132030E80DF91D83818F9382818F93DF92CF9274
S1132040FF92EF920E94571A69E0C7010E94681636
S11320508AE00E941F16E3E1F1E0D701872D019089
S11320600D928A95E1F70FB6F894DEBF0FBECDBF8F
S11320700330110511F04801B1CFE091EF02F09166
S1132080F0028585813039F48EE10E941F1680EFBD
S113209091E00E947F162C960FB6F894DEBF0FBE17
S11320A0CDBFDF91CF911F910F91FF90EF90DF9003
S11320B0CF90BF90AF909F908F907F9008950F9393
S11320C01F93CF93DF93CDB7DEB760970FB6F89425
S11320D0DEBF0FBECDBF80910701813089F510921C
S11320E007010E94BC150E94451586EF91E00E94ED
S11320F07F1680E1EEE1F1E08E010F5F1F4FD80102
S113210001900D928A95E1F70E94C6169F938F93D2
S11321108AEE91E09F938F931F930F930E94571A17
S1132120C8010E947F160E94AE0F85E092E00E94D3
S11321302A1A0F900F900F900F900F900F9024C0B9
S113214081E00E949E158FE0EFE2F1E08E010F5FC7
S11321501F4FD80101900D928A95E1F70E94C6168F
S11321609F938F938AEE91E09F938F931F930F9386
S11321700E94571A6DE0C8010E9468160F900F90D4
S11321800F900F900F900F900E94C31681110FC0F3
S1132190E091EF02F091F002838194819093F00238
S11321A08093EF0281E0809307018093E4026096BC
S11321B00FB6F894DEBF0FBECDBFDF91CF911F9154
S11321C00F9108950E94BC150E94451584E192E088
S11321D00E947F166CE086E292E00E94681663E03B
S11321E083EF92E00E94681608950E94BC150E9435
S11321F0451583E392E00E947F168EE392E00E94ED
S11322007F1686E492E00E947F168EE492E00E949C
S11322107F1608950E94BC150E944515E091F102B5
S1132220F091F20282819381892B49F483E592E053
S11322300E947F168EE592E00E947F1608958DE637
S113224092E00E947F1689E792E00E947F1608952B
S1132250CF93DF930E94BC150E944515E091EF02D5
S1132260F091F002808191810E947F16E091EF024B
S1132270F091F00283859485892B41F48281883022
S113228028F41092E10280930A0132C082818730DF
S113229030F41092E1028F5F80930A0129C080918B
S11322A0E2029091E3022091E10230E08217930769
S11322B054F48091E2029091E3028093E102895FF9
S11322C080930A0115C08091E2029091E30220916B
S11322D00A0130E0821793075CF08091E20290914A
S11322E0E30291E0980F90930A0186508093E102F3
S11322F0C091E102D0E080910A0190E0C817D907AB
S113230094F58091E2029091E3028C179D0721F4E9
S11323108EE10E941F1603C080E20E941F16A09146
S1132320EF02B091F002FE01EE0FFF1FEA0FFB1F58
S11323300380F481E02D309759F41B968D919C9184
S11323401C97892B29F080EF91E00E947F1604C02E
S1132350808191810E947F16219680910A0190E0EC
S1132360C817D90774F2DF91CF910895E091EF0275
S1132370F091F0028585811103C00E94281108950F
S1132380823019F40E945F100895813019F40E947C
S1132390AE0F0895853019F40E94F5100895833026
S11323A019F40E940A110895843019F40E94950FBB
S11323B00895863011F40E94E2100895FF920F935D
S11323C01F93CF93DF938C01EB01F42E8EE090E00A
S11323D00E949D18FC01118300831282D487C38755
S11323E0F586209771F08A81A82FB0E0AA0FBB1F51
S11323F0AC0FBD1F1496FC93EE9313978F5F8A83E3
S113240004C09093F0028093EF02CF01DF91CF914B
S11324101F910F91FF900895CF93DF930E94CB16E5
S1132420E091F102F091F2022281338128173907F9
S113243058F5868197819387828764817581808529
S113244091850E94C419E091F102F091F202828117
S113245093819783868360817181848195810E94B1
S1132460C419C091F102D091F2020E94CB169B8351
S11324708A83E091F102F091F20263EF72E08081CD
S113248091810E94C4193FC00E94CB16E091F102D1
S1132490F091F2022681378128173907D8F433875F
S11324A0228764817581808591850E94C419C091B9
S11324B0F102D091F2020E94CB169F838E83E091A9
S11324C0F102F091F20263EF72E0848195810E943F
S11324D0C41919C00E94CB16C091F102D091F20226
S11324E02A853B852817390770F40E94CB169B87F1
S11324F08A87E091F102F091F20263EF72E0808545
S113250091850E94C4198FE58093F3028093F402AD
S11325108093F5021092F602DF91CF910895109204
S1132520E50282E080930B01E091EF02F091F0026A
S1132530858581113FC042818091E2029091E3023E
S1132540242F30E02817390739F483859485909334
S1132550F0028093EF0219C0442311F18091E2024A
S11325609091E302880F991FE80FF91F0380F4810B
S1132570E02DF093F002E093EF028585823029F498
S11325800E94901681E080930701E091EF02F091A0
S1132590F0024281473020F087E080930A0103C0B3
S11325A04F5F40930A011092E1021092E3021092ED
S11325B0E20282C0863009F045C0E091DF02F0916A
S11325C0E0028091080190910901ED50FD4F808354
S11325D08091DF029091E0020297C9F40E94CB1629
S11325E00E940C12E091EF02F091F0028385948531
S11325F09093F0028093EF021092E0021092DF02B7
S113260081E490E0909309018093080155C0809182
S1132610DF029091E00201969093E0028093DF0242
S113262081E490E09093090180930801E091DF0236
S1132630F091E0028091080190910901ED50FD4F65
S113264080833AC0843081F50E94CB16E091F10278
S1132650F091F2022285338528173907A0F4E0911E
S1132660EF02F091F0020384F485E02D0384F485F5
S1132670E02D0580F681E02D838194819093F00212
S11326808093EF0219C0E091EF02F091F00203840D
S1132690F485E02D0384F485E02D85819681909363
S11326A0F0028093EF0208C0823031F08385948574
S11326B09093F0028093EF0281E08093E402089506
S11326C020E030E08EE49FE2A1E4B0E0E091F1028A
S11326D0F091F202A901440F551F440F551FE40F56
S11326E0F51F138212820190F081E02D8083918383
S11326F0A283B3832F5F3F4F2330310539F7089509
S1132700EF92FF920F931F93CF93DF938CE090E0AF
S11327100E949D189093F2028093F102C0E0D0E0F1
S11327200091F1021091F20284E090E00E949D1861
S11327309E01220F331F220F331FF801E20FF31FF4
S1132740918380838091F1029091F202FC01E20F67
S1132750F31F0190F081E02D13822196C330D1053F
S1132760F9F60E9460138FE58093F3028093F402DC
S11327708093F50240E060E070E089E892E00E9416
S1132780DE118C0140E0BC0184E992E00E94DE117C
S1132790EC0142E0BC018FE992E00E94DE117C0171
S11327A041E0BE0183E592E00E94DE1146E0BC01F7
S11327B089EA92E00E94DE1144E0B7018FEA92E0D8
S11327C00E94DE1143E0BE018EEB92E00E94DE1116
S11327D045E0B8018FEC92E00E94DE1181E0809325
S11327E0E402DF91CF911F910F91FF90EF90089534
S11327F08091E402882321F01092E40281E008959C
S113280080E0089590910B0181E0923008F080E01F
S1132810089580910B01811127C081E08093E40227
S11328208091E502813021F480E00E94521516C0A7
S11328308091E5028B3021F481E00E9452150EC094
S11328408091E502853121F482E00E94521506C090
S11328508091E5028E3111F41092E5028091E50237
S11328608F5F8093E502089580910B01813029F5F3
S11328708093E4028091E502813021F483E00E9498
S1132880521516C08091E5028B3021F484E00E9439
S113289052150EC08091E502853121F485E00E9435
S11328A0521506C08091E5028E3111F41092E502B2
S11328B08091E5028F5F8093E5020895E091100115
S11328C0F0911101E80FF11D8083089581111EC05C
S11328D040E050E016C0A0910C01B0910D01A80F8A
S11328E0B91FFC01E059FB4EE491EC930196821769
S11328F0930789F7485F5F4F411584E0580709F44F
S1132900A3C09A01285F3F4FCA01E5CF8130F1F49B
S113291040E050E016C0A0910C01B0910D01A80F49
S1132920B91FFC01E059FF4EE491EC930196821724
S1132930930789F7485F5F4F411584E0580709F40E
S113294083C09A01285F3F4FCA01E5CF8230F1F47A
S113295040E050E016C0A0910C01B0910D01A80F09
S1132960B91FFC01E059F34FE491EC930196281749
S1132970390789F7485F5F4F411584E0580709F428
S113298063C09A01285F3F4FCA01E5CF8330F1F459
S113299040E050E016C0A0910C01B0910D01A80FC9
S11329A0B91FFC01E059F74FE491EC9301968217AB
S11329B0930789F7485F5F4F411584E0580709F48E
S11329C043C09A01285F3F4FCA01E5CF8430E9F440
S11329D040E050E015C0A0910C01B0910D01A80F8A
S11329E0B91FFC01E059FB4FE491EC9301962817C1
S11329F0390789F7485F5F4F411584E0580721F193
S1132A009A01285F3F4FCA01E6CF8530E9F440E0E0
S1132A1050E015C0A0910C01B0910D01A80FB91F91
S1132A20FC01E059FF4FE491EC9301968217930760
S1132A3089F7485F5F4F411584E0580729F09A01F0
S1132A40285F3F4FCA01E6CF0895CF93DF93D82F75
S1132A50C62F81E20E945E148D2F0E945E148C2F7B
S1132A600E945E14DF91CF910895CF93DF93D82F06
S1132A70C62F82E20E945E148D2F0E945E148C2F5A
S1132A800E945E14DF91CF9108951092F802109283
S1132A90F7026FE780E00E94251567E080E00E945E
S1132AA0351508950F931F93CF93DF930E946614F7
S1132AB00E944515C0E0D0E000E010E08091F702EC
S1132AC08031A1F51092F7028091F8028F5F88306F
S1132AD019F08093F80202C01092F8026FE780E0C8
S1132AE00E94251567E08091F8020E9435151EC0EA
S1132AF09C012C0F3D1FE0910C01F0910D01E20FA0
S1132B00F31F2081E0910E01F0910F0120830196C3
S1132B108830910569F78091F7028F5F8093F702FF
S1132B202896C11584E0D80749F603C0802F912F59
S1132B30DFCFDF91CF911F910F9108958093F80219
S1132B401092F7026FE780E00E94251567E08091FC
S1132B50F8020E94351580E890E0E0910E01F091B2
S1132B600F01108201970097C1F76FE780E00E9480
S1132B7025151092F7020895CF93C0E08C2F0E9480
S1132B809E15CF5FC830D1F7CF9108958EEA0E9489
S1132B905E1481EA0E945E148AED0E945E1482E152
S1132BA00E945E1488EC0E945E1488EA0E945E14FF
S1132BB08FE30E945E1485ED0E945E1480E80E94FB
S1132BC05E1481E80E945E1480E50E945E1489ED23
S1132BD00E945E1481E20E945E1480E20E945E14F0
S1132BE082E00E945E148BED0E945E1480E30E94DA
S1132BF05E148DEA0E945E1480E00E945E1484EAF2
S1132C000E945E1486EA0E945E148FEA0E945E149B
S1132C100E94BC150E94451586ED92E00E942A1A76
S1132C2008958093F8021092F7026FE780E00E9403
S1132C30251567E08091F8020E9435150895CF9319
S1132C40C82F8A3059F18091F702803191F51092A2
S1132C50F7028091F8028F5F883019F08093F802B0
S1132C6002C01092F8026FE780E00E94251567E029
S1132C708091F8020E9435151CC02491A0910E0188
S1132C80B0910F012C930196319688309105A9F7E4
S1132C908091F7028F5F8093F70218C08091F80249
S1132CA08F5F8093F8021092F70290E00E94111651
S1132CB00DC0EC2FF0E0EE0FFF1FEE0FFF1FEE0F25
S1132CC0FF1FE058F84E80E090E0D7CFCF910895F1
S1132CD00F931F93CF93DF93EC01062F662351F0DC
S1132CE010E0FE01E10FF11D80810E941F161F5F9D
S1132CF00113F7CFDF91CF911F910F910895CF93D7
S1132D00DF93EC0188818A3031F021960E941F16EE
S1132D1089918A30D9F70E941F16DF91CF910895C7
S1132D2081E08093E60208958091E602811109C052
S1132D301092FD021092FE021092FF021092000304
S1132D4008958130F9F48091FD029091FE02A091E2
S1132D50FF02B09100030196A11DB11D8093FD02F5
S1132D609093FE02A093FF02B0930003B2990AC0AD
S1132D701092E6028093F9029093FA02A093FB0268
S1132D80B093FC0208958091E60208958091FD02BB
S1132D909091FE0208958091F9029091FA020895AB
S1132DA0B89ABA980E945F188FE190E00E947B184D
S1132DB00E948A180E9470180E94DE0D0E94C61597
S1132DC00E94050F0E948F0E0E940C0E0E94801319
S1132DD081E090E0909302038093010386E0809366
S1132DE0050310920403109203038091EB028130D7
S1132DF0E1F7C0900103D0900203E0900303F09048
S1132E0004030091050310910603209107033091F8
S1132E1008034091090350910A0360910B037091D8
S1132E200C0380910D030E94270E1092EB02DDCF5C
S1132E301F920F920FB60F9211242F933F934F932B
S1132E405F936F937F938F939F93AF93BF93EF930E
S1132E50FF9398B381E0892788BB8091E702909122
S1132E60E802A091E902B091EA020196A11DB11D08
S1132E708093E7029093E802A093E902B093EA02F8
S1132E800E94941680911201813041F00E94C31671
S1132E90813021F00E94F813882379F08091120187
S1132EA0813011F4109212010E940214811103C0A6
S1132EB00E94B61102C00E9409140E94DB0D811108
S1132EC02CC08091EE02811103C00E94A30E25C084
S1132ED08091EE02813019F40E949E0E1EC08091F2
S1132EE0EE02823019F40E94561817C01092EE02B6
S1132EF08091ED0280930903B29B04C081E080932A
S1132F000A0302C010920A030E94C31680930B03A3
S1132F101092ED0281E08093EB02FF91EF91BF915B
S1132F20AF919F918F917F916F915F914F913F915D
S1132F302F910F900FBE0F901F9018951F920F9214
S1132F400FB60F9211242F933F934F935F936F9378
S1132F507F938F939F93AF93BF93CF93EF93FF93FD
S1132F60C09103148091EE02811133C00E94C316F4
S1132F7081112FC08091E7029091E802A091E902AB
S1132F80B091EA024097A105B10518F1C93C80F05F
S1132F908FEF9FEF0E94130F81E080931201109234
S1132FA0E7021092E8021092E9021092EA0211C0BC
S1132FB0C73378F481E090E00E94130F81E080939E
S1132FC012011092E7021092E8021092E9021092A4
S1132FD0EA02E091EE02F0E0EF5FFC4FC5838091DE
S1132FE0EE028F5F8093EE0280E090E00E94DB0DA2
S1132FF0FF91EF91CF91BF91AF919F918F917F916D
S11330006F915F914F913F912F910F900FBE0F9051
S11330101F9018951F920F920FB60F9211242F93A1
S11330203F934F935F936F937F938F939F93AF934C
S1133030BF93EF93FF938091E7029091E802A091F0
S1133040E902B091EA024097A105B10578F00E9427
S11330508F1281E08093ED02809312011092E702B7
S11330601092E8021092E9021092EA02FF91EF91A5
S1133070BF91AF919F918F917F916F915F914F918C
S11330803F912F910F900FBE0F901F9018951F9294
S11330900F920FB60F9211248F9381E08093EC026C
S11330A08F910F900FBE0F901F90189584E090E0C1
S11330B00E94ED0D0895C4980895C49A08958BB79D
S11330C080628BBFBC9A0E945D18BD9ABF9A6E9AAB
S11330D06C9A689A08958FB9779BFECF8FB1089543
S11330E085B7806885BF089580910E0308955D9B20
S11330F0FECF8CB9089590BD89B988E18AB986E874
S113310080BD40E050E064E778E187E798E10E9401
S1133110CB190895579A08951F920F920FB60F92E4
S113312011248F938CB18A3011F080930E038F9108
S11331300F900FBE0F901F901895CF93DF9382309E
S1133140910510F482E090E0E0914303F091440390
S113315020E030E0A0E0B0E0309739F140815181C7
S113316048175907B8F04817590771F482819381B9
S1133170109729F013969C938E9312972CC09093DA
S113318044038093430327C02115310531F04217CE
S1133190530718F0A901DB0101C0EF019A01BD0139
S11331A0DF010280F381E02DD7CF21153105F9F03D
S11331B0281B390B2430310580F48A819B816115E9
S11331C0710521F0FB019383828304C0909344032F
S11331D080934303FE01329644C0FE01E20FF31FC5
S11331E08193919322503109398328833AC02091E5
S11331F0410330914203232B41F420910201309189
S11332000301309342032093410320910001309144
S113321001012115310541F42DB73EB74091040158
S113322050910501241B350BE0914103F0914203B9
S1133230E217F307A0F42E1B3F0B2817390778F089
S1133240AC014E5F5F4F2417350748F04E0F5F1FE8
S113325050934203409341038193919302C0E0E071
S1133260F0E0CF01DF91CF910895CF93DF930097E2
S113327009F487C0FC01329713821282C091430380
S1133280D0914403209781F420813181280F391F84
S113329080914103909142038217930779F5F0934B
S11332A04203E09341036DC0DE0120E030E0AE173D
S11332B0BF0750F412964D915C9113979D014115EF
S11332C0510509F1DA01F3CFB383A283408151811F
S11332D0840F951F8A179B0771F48D919C91119708
S11332E0840F951F02969183808312968D919C91F1
S11332F01397938382832115310529F4F0934403B2
S1133300E09343033EC0D9011396FC93EE931297C6
S11333104D915D91A40FB51FEA17FB0779F48081E5
S11333209181840F951F0296D90111969C938E93D7
S11333308281938113969C938E931297E0E0F0E040
S11333408A819B81009719F0FE01EC01F9CFCE012F
S1133350029628813981820F931F20914103309175
S113336042032817390769F4309729F4109244036B
S11333701092430302C013821282D0934203C0937B
S11333804103DF91CF910895FB01DC0101900D927F
S11333900020E1F708950F931F93CF93DF93EC017F
S11333A08B01009731F46115710519F480E090E008
S11333B038C06EE070E081E090E00E944B1CFC019C
S11333C00097A1F380E883830115110571F0138739
S11333D0028781E883838091450390914603892B7A
S11333E021F4F0934603E09345032097C9F0D18775
S11333F0C0878381826083838091470390914803CF
S1133400892B71F4F0934803E093470380914903B7
S113341090914A03892B21F4F0934A03E0934903E2
S1133420CF01DF91CF911F910F910895A0E0B0E0FB
S1133430ECE1FAE10C94241DFE0135966191719141
S1133440AF0180914703909148030E94791AE2E00A
S11334500C94401D0F931F93CF93DF93E091470388
S1133460F0914803238121FF1BC0EC0100E010E030
S113347089916091470370914803DB011896ED919F
S1133480FC911997882331F00995892B89F30FEF63
S11334901FEFEECF8AE00995892B11F4C80102C011
S11334A08FEF9FEFDF91CF911F910F910895AEE0C1
S11334B0B0E0EDE5FAE10C94221D0D891E8986E049
S11334C08C831A8309838FEF9FE79E838D83AE01DC
S11334D0475E5F4F6F89788DCE0101960E94791AFD
S11334E0EF81F885E00FF11F10822E96E4E00C9432
S11334F03E1DACE0B0E0EFE7FAE10C94141D7C0152
S11335006B018A01FC0117821682838181FFBDC190
S1133510CE0101964C01F7019381F60193FD85914B
S113352093FF81916F01882309F4ABC1853239F48B
S113353093FD859193FF81916F01853229F4B70141
S113354090E00E94841CE7CF512C312C20E02032E3
S1133550A0F48B3269F030F4803259F0833269F48C
S113356020612CC08D3239F0803339F4216026C0BB
S11335702260246023C0286021C027FD27C030EDCD
S1133580380F3A3078F426FF06C0FAE05F9E300D1B
S11335901124532E13C08AE0389E300D1124332E8B
S11335A020620CC08E3221F426FD6BC1206406C05B
S11335B08C3611F4206802C0883641F4F60193FD7C
S11335C0859193FF81916F018111C1CF982F9F7DC8
S11335D09554933028F40C5F1F4FFFE3F9830DC01B
S11335E0833631F0833771F0833509F05BC022C034
S11335F0F801808189830E5F1F4F44244394512C2A
S1133600540115C03801F2E06F0E711CF801A0805E
S1133610B18026FF03C0652D70E002C06FEF7FEF1D
S1133620C5012C870E94791C2C0183012C852F77DE
S1133630222E17C03801F2E06F0E711CF801A08031
S1133640B18026FF03C0652D70E002C06FEF7FEFED
S1133650C5012C870E94671C2C012C852068222E12
S1133660830123FC1BC0832D90E048165906B0F457
S1133670B70180E290E00E94841C3A94F4CFF501F3
S113368027FC859127FE81915F01B70190E00E949C
S1133690841C31103A94F1E04F1A5108411451043A
S11336A071F7E5C0843611F0893639F5F80127FF42
S11336B007C060817181828193810C5F1F4F08C0B4
S11336C060817181882777FD8095982F0E5F1F4F49
S11336D02F76B22E97FF09C09095809570956195CD
S11336E07F4F8F4F9F4F2068B22E2AE030E0A40115
S11336F00E94B61CA82EA81844C0853729F42F7E32
S1133700B22E2AE030E025C0F22FF97FBF2E8F368B
S1133710C1F018F4883579F0B4C0803719F08837CF
S113372021F0AFC02F2F2061B22EB4FE0DC08B2D1F
S11337308460B82E09C024FF0AC09F2F9660B92E5A
S113374006C028E030E005C020E130E002C020E1FE
S113375032E0F801B7FE07C06081718182819381F4
S11337600C5F1F4F06C06081718180E090E00E5FA6
S11337701F4FA4010E94B61CA82EA818FB2DFF778A
S1133780BF2EB6FE0BC02B2D2E7FA51450F4B4FE15
S11337900AC0B2FC08C02B2D2E7E05C07A2C2B2D1E
S11337A003C07A2C01C0752C24FF0DC0FE01EA0D64
S11337B0F11D8081803311F4297E09C022FF06C0E7
S11337C07394739404C0822F867809F0739423FD54
S11337D013C020FF06C05A2C731418F4530C571846
S11337E0732C731468F4B70180E290E02C870E9474
S11337F0841C73942C85F5CF731410F4371801C00E
S1133800312C24FF12C0B70180E390E02C870E9482
S1133810841C2C8522FF17C021FF03C088E590E09B
S113382002C088E790E0B7010CC0822F867859F077
S113383021FD02C080E201C08BE227FD8DE2B701C9
S113384090E00E94841CA51438F4B70180E390E052
S11338500E94841C5A94F7CFAA94F401EA0DF11D36
S11338608081B70190E00E94841CA110F5CF332021
S113387009F451CEB70180E290E00E94841C3A948E
S1133880F6CFF7018681978102C08FEF9FEF2C96C8
S1133890E2E10C94301D0F931F93CF93DF93869F27
S11338A08001879F100D969F100D1124C8010E945E
S11338B09D18EC01009729F0A80160E070E00E94D7
S11338C0721CCE01DF91CF911F910F910895FC01DD
S11338D00590615070400110D8F7809590958E0F37
S11338E09F1F0895DC0101C06D9341505040E0F7E3
S11338F00895FC016150704001900110D8F7809543
S113390090958E0F9F1F08950F931F93CF93DF936E
S1133910182F092FEB018B8181FD03C08FEF9FEFDF
S113392020C082FF10C04E815F812C813D814217EF
S113393053077CF4E881F9819F012F5F3F4F39835E
S11339402883108306C0E885F985812F0995892B82
S113395029F72E813F812F5F3F4F3F832E83812F95
S1133960902FDF91CF911F910F910895FA01AA270B
S1133970283051F1203181F1E8946F936E7F6E5FAE
S11339807F4F8F4F9F4FAF4FB1E03ED0B4E03CD05C
S1133990670F781F891F9A1FA11D680F791F8A1F3F
S11339A0911DA11D6A0F711D811D911DA11D20D0A6
S11339B009F468943F912AE0269F11243019305D60
S11339C03193DEF6CF010895462F4770405D419351
S11339D0B3E00FD0C9F7F6CF462F4F70405D4A339E
S11339E018F0495D31FD4052419302D0A9F7EACF66
S11339F0B4E0A6959795879577956795BA95C9F795
S1133A0000976105710508959B01AC010A2E069487
S1133A105795479537952795BA95C9F7620F731F40
S1133A20841F951FA01D08952F923F924F925F927D
S1133A306F927F928F929F92AF92BF92CF92DF92BA
S1133A40EF92FF920F931F93CF93DF93CDB7DEB71F
S1133A50CA1BDB0B0FB6F894DEBF0FBECDBF0994B3
S1133A602A88398848885F846E847D848C849B840A
S1133A70AA84B984C884DF80EE80FD800C811B8118
S1133A80AA81B981CE0FD11D0FB6F894DEBF0FBE47
S10D3A90CDBFED010895F894FFCFB7
S1133A9A00004B0320000101410007020018001234
S1133AAA0010012020202020202020200A0020208D
S1133ABA202020202020202020202020200A00202E
S1133ACA202020202020202020202020200A0041FD
S1133ADA444320696E697469616C697A656420007B
S1133AEA6572726F723A206E6F2073756368206113
S1133AFA6463206368616E6E656C3A202569200AE6
S1133B0A0043414E20696E697469616C697A65641F
S1133B1A20004572726F722C20494E54322C20694F
S1133B2A6E67656E20617620696E7420666C6167C3
S1133B3A67656E6520692043414E20766172207361
S1133B4A617474203A532C202578200A004A6F792C
S1133B5A737469636B20627574746F6E20696E691D
S1133B6A7469616C697A6564200054696D652074AE
S1133B7A6F20626561743A200A002564002E2000D1
S1133B8A4261636B0A0043757272656E74207469CC
S1133B9A6D653A0A00666F72207072696E742068E5
S1133BAA69676800436F6E67726174756C617469E2
S1133BBA6F6E73210A00456E746572206E616D65BD
S1133BCA3A20004D6164652062793A200A00C5737F
S1133BDA6D756E640A0047756E6E61720A004A6FEB
S1133BEA6E0A004869676873636F72650A00616CDC
S1133BFA72656164792072657365740A004869673D
S1133C0A6873636F7265200A006861732062656570
S1133C1A6E2072657365740A004D61696E206D6564
S1133C2A6E750A0050696E6720506F6E670A004EFF
S1133C3A65772067616D650A006E616D650A0047E4
S1133C4A616D652066696E69736865640A00526508
S1133C5A736574206869676873636F72650A0041E3
S1113C6A626F75740A006F6C65642069000057
S90302E119
