S00D000072733233322E737265639B
S11300000C9438000C9418030C944B030C945A036E
S11300100C9455000C9455000C9455000C94550008
S11300200C9455000C9455000C9455000C945500F8
S11300300C9455000C94D5020C9455000C94550066
S11300400C9455000C9455000C9455000C949A0390
S11300500C9455000C9455000C9455000C945500C8
S11300600C9455000C9455000C9455000C945500B8
S113007011241FBECFEFD4E0DEBFCDBF11E0A0E05E
S1130080B1E0E4E6F0E102C005900D92A23BB107B5
S1130090D9F722E0A2EBB1E001C01D92A130B20772
S11300A0E1F70E945A020C9430080C9400008091ED
S11300B0B20108958BB780648BBF85B7826085BF1A
S11300C085B78E7F85BF789487E091E00E943105E3
S11300D00895CF93C82F8FEF8C0F843068F01F9250
S11300E0CF9388E191E09F938F930E941D050F9019
S11300F00F900F900F900AC081E090E00E9457008B
S113010083E08C0F80930014C0930601CF9108956F
S11301100E9444024FEF63E08BE20E942A024FEFF9
S113012064E680E60E942A024FEF60E680E70E94C0
S11301302A0243E063EE8FE00E942A0289E391E001
S11301400E9431050895CF92DF92EF92FF920F93B0
S11301501F93CF93DF93CDB7DEB72E970FB6F894E6
S1130160DEBF0FBECDBFCA82DB82EC82FD820E836E
S11301701F83288739874A875B876C877D878E87AB
S1130180EA80FB806E2D6295660F607E82E30E949A
S11301905B0182E30E9448018983B70176956795E4
S11301A0769567957695679581E30E945B0181E377
S11301B00E9448018983602F6F7085E30E945B0170
S11301C085E30E9448018983002379F07E0187E05A
S11301D0E80EF11C0A5C16E3F70161917F01812F9F
S11301E00E945B011F5F1013F7CF85E30E94480153
S11301F0898380E00E9416022E960FB6F894DEBF23
S11302000FBECDBFDF91CF911F910F91FF90EF9063
S1130210DF90CF9008951F93CF93DF93EC018CE28E
S11302200E94480180FD0FC081FD0FC01F928F9373
S11302308AE491E09F938F930E941D050F900F9085
S11302400F900F9003C010E001C011E0612FCE01A8
S11302500E946F01CE01DF91CF911F9108958BB75A
S113026080688BBF85B7886085BF85B78B7F85BF66
S1130270789485E891E00E943105089582E090E049
S11302800E946900089581E090E00E946900089549
S1130290CF93C82F0E94690383E00E9479038C2FB7
S11302A00E9479038C2F0E947903C82F0E946B034C
S11302B08C2FCF910895CF93DF93D82FC62F0E9410
S11302C0690382E00E9479038D2F0E9479038C2FA9
S11302D00E9479030E946B03DF91CF910895EF92FE
S11302E0FF920F931F93CF93DF93CDB7DEB76A9737
S11302F00FB6F894DEBF0FBECDBF7C018DE0FE01CA
S11303003196DF01982F1D929A95E9F73D96DF010A
S11303101D928A95E9F761115BC00E94690383E02D
S11303200E94790381E60E94790300E010E081E6EF
S1130330800F0E947903E1E0F0E0EC0FFD1FE00F75
S1130340F11F80830F5F1F4F0D30110581F70E944D
S11303506B0329818A8190E0922B969587959295DB
S113036082958F7089279F7089279A8389838D81CD
S11303708F708D830E94690383E00E94790381E377
S11303800E94790300E010E080E00E947903EEE02F
S1130390F0E0EC0FFD1FE00FF11F80830F5F1F4F94
S11303A00D30110589F70E946B0360E08CE20E9416
S11303B05B012E858F8590E0922B9695879592957B
S11303C082958F7089279F7089279F878E8718C091
S11303D06130B1F481E70E944801182F82E70E943E
S11303E04801829586958770282F30E0C901912BAA
S11303F097709A83898385E70E9448018F708D8363
S11304008DE0FE013196D70101900D928A95E1F7B6
S1130410C7016A960FB6F894DEBF0FBECDBFDF9159
S1130420CF911F910F91FF90EF900895CF93DF9399
S1130430C1E0D0E002C0CC0FDD1F8A95E2F70E9434
S113044069038C2F80580E9479030E946B03DF910B
S1130450CF9108951F93CF93DF93182FD62FC42FD6
S11304600E94690385E00E947903812F0E94790329
S11304708D2F0E9479038C2F0E9479030E946B03B5
S1130480DF91CF911F9108950E94690380EC0E942F
S113049079030E946B0308958EB588608EBD89B779
S11304A0806489BF80E496E09BBD8ABD8EB583607D
S11304B08EBD0895CF93DF93CDB7DEB72D970FB6DA
S11304C0F894DEBF0FBECDBFB89A0E946D038FE1D2
S11304D090E00E9489030E9498030E947E030E9478
S11304E05A000E944C020E942F010E94880081E061
S11304F090E09093B8018093B70183E08093BB01AF
S11305001092BA011092B901812C912C0F2EF2EAAB
S1130510AF2EF1E0BF2EF02D8091B401813011F5A2
S11305201092B401CE0101960E940B01CE010196F6
S11305307C01082D192DF70181917F011F928F9362
S11305401F930F93BF92AF920E941D050F5F1F4F21
S11305500F900F900F900F900F900F900D3011058A
S113056051F7DACF8091B3018130B1F6C090B70171
S1130570D090B801E090B901F090BA010091BB01AC
S11305801091BC012091BD013091BE014091BF0189
S11305905091C0016091C1017091C2018091C30169
S11305A00E94A3001092B301B7CF1F920F920FB60F
S11305B00F9211242F933F934F935F936F937F93E5
S11305C08F939F93AF93BF93EF93FF9398B381E07F
S11305D0892788BB0E945700811119C08091B601F8
S11305E0811103C00E94430112C08091B601813081
S11305F019F40E943E010BC01092B6018091B5011E
S11306008093BE011092B50181E08093B301FF9104
S1130610EF91BF91AF919F918F917F916F915F9176
S11306204F913F912F910F900FBE0F901F901895EF
S11306301F920F920FB60F9211242F933F934F9353
S11306405F936F937F938F939F93AF93BF93EF9336
S1130650FF93E091B601F0E080910314E954FE4F5A
S113066085838091B6018F5F8093B60180E090E02E
S11306700E945700FF91EF91BF91AF919F918F918D
S11306807F916F915F914F913F912F910F900FBE8A
S11306900F901F9018951F920F920FB60F9211246E
S11306A08F9381E08093B5018F910F900FBE0F90CF
S11306B01F9018951F920F920FB60F9211248F93CB
S11306C081E08093B4018F910F900FBE0F901F9023
S11306D01895C4980895C49A08958BB780628BBF07
S11306E0BC9A0E946B03BD9ABF9A6E9A6C9A689AE0
S11306F008958FB9779BFECF8FB1089585B7806831
S113070085BF08958091C40108955D9BFECF8CB987
S1130710089590BD89B988E18AB986E880BD40E032
S113072050E062E873E085E893E00E94D204089503
S1130730579A08951F920F920FB60F9211248F9318
S11307408CB18A3011F08093C4018F910F900FBE49
S11307500F901F901895CF93DF938230910510F47A
S113076082E090E0E091F901F091FA0120E030E0BC
S1130770A0E0B0E0309739F1408151814817590722
S1130780B8F04817590771F482819381109729F0C2
S113079013969C938E9312972CC09093FA01809396
S11307A0F90127C02115310531F04217530718F01C
S11307B0A901DB0101C0EF019A01BD01DF01028043
S11307C0F381E02DD7CF21153105F9F0281B390B22
S11307D02430310580F48A819B816115710521F0F3
S11307E0FB019383828304C09093FA018093F901FF
S11307F0FE01329644C0FE01E20FF31F81939193F0
S113080022503109398328833AC02091F70130916D
S1130810F801232B41F4209102013091030130931C
S1130820F8012093F7012091000130910101211575
S1130830310541F42DB73EB74091040150910501B3
S1130840241B350BE091F701F091F801E217F3074F
S1130850A0F42E1B3F0B2817390778F0AC014E5F2C
S11308605F4F2417350748F04E0F5F1F5093F80170
S11308704093F7018193919302C0E0E0F0E0CF014F
S1130880DF91CF910895CF93DF93009709F487C048
S1130890FC01329713821282C091F901D091FA01BE
S11308A0209781F420813181280F391F8091F7012D
S11308B09091F8018217930779F5F093F801E0938A
S11308C0F7016DC0DE0120E030E0AE17BF0750F441
S11308D012964D915C9113979D014115510509F1B3
S11308E0DA01F3CFB383A28340815181840F951F32
S11308F08A179B0771F48D919C911197840F951F12
S113090002969183808312968D919C911397938381
S113091082832115310529F4F093FA01E093F9015A
S11309203EC0D9011396FC93EE9312974D915D91BD
S1130930A40FB51FEA17FB0779F480819181840F16
S1130940951F0296D90111969C938E93828193816F
S113095013969C938E931297E0E0F0E08A819B813A
S1130960009719F0FE01EC01F9CFCE01029628811F
S11309703981820F931F2091F7013091F8012817D4
S1130980390769F4309729F41092FA011092F901A9
S113099002C013821282D093F801C093F701DF9151
S11309A0CF9108950F931F93CF93DF93EC018B01A5
S11309B0009731F46115710519F480E090E038C0B6
S11309C06EE070E081E090E00E943007FC01009747
S11309D0A1F380E883830115110571F01387028761
S11309E081E883838091FB019091FC01892B21F4A0
S11309F0F093FC01E093FB012097C9F0D187C087F5
S1130A008381826083838091FD019091FE01892B13
S1130A1071F4F093FE01E093FD018091FF01909148
S1130A200002892B21F4F0930002E093FF01CF012F
S1130A30DF91CF911F910F910895A0E0B0E0E3E220
S1130A40F5E00C940908FE01359661917191AF01AE
S1130A508091FD019091FE010E945E05E2E00C94FC
S1130A6025080F931F93CF93DF93E091FD01F0913D
S1130A70FE01238121FF1BC0EC0100E010E08991FD
S1130A806091FD017091FE01DB011896ED91FC91DE
S1130A901997882331F00995892B89F30FEF1FEFFC
S1130AA0EECF8AE00995892B11F4C80102C08FEFBB
S1130AB09FEFDF91CF911F910F910895ACE0B0E0CB
S1130AC0E4E6F5E00C94F9077C016B018A01FC0172
S1130AD017821682838181FFBDC1CE0101964C012C
S1130AE0F7019381F60193FD859193FF81916F0145
S1130AF0882309F4ABC1853239F493FD859193FFC2
S1130B0081916F01853229F4B70190E00E94690751
S1130B10E7CF512C312C20E02032A0F48B3269F045
S1130B2030F4803259F0833269F420612CC08D3264
S1130B3039F0803339F4216026C02260246023C058
S1130B40286021C027FD27C030ED380F3A3078F4F3
S1130B5026FF06C0FAE05F9E300D1124532E13C009
S1130B608AE0389E300D1124332E20620CC08E3260
S1130B7021F426FD6BC1206406C08C3611F4206874
S1130B8002C0883641F4F60193FD859193FF81916B
S1130B906F018111C1CF982F9F7D9554933028F414
S1130BA00C5F1F4FFFE3F9830DC0833631F08337A9
S1130BB071F0833509F05BC022C0F801808189831C
S1130BC00E5F1F4F44244394512C540115C0380127
S1130BD0F2E06F0E711CF801A080B18026FF03C003
S1130BE0652D70E002C06FEF7FEFC5012C870E9476
S1130BF05E072C0183012C852F77222E17C0380124
S1130C00F2E06F0E711CF801A080B18026FF03C0D2
S1130C10652D70E002C06FEF7FEFC5012C870E9445
S1130C204C072C012C852068222E830123FC1BC039
S1130C30832D90E048165906B0F4B70180E290E0A5
S1130C400E9469073A94F4CFF50127FC859127FEA9
S1130C5081915F01B70190E00E94690731103A94D5
S1130C60F1E04F1A51084114510471F7E5C084367C
S1130C7011F0893639F5F80127FF07C060817181C9
S1130C80828193810C5F1F4F08C060817181882726
S1130C9077FD8095982F0E5F1F4F2F76B22E97FF0A
S1130CA009C090958095709561957F4F8F4F9F4FA8
S1130CB02068B22E2AE030E0A4010E949B07A82EEF
S1130CC0A81844C0853729F42F7EB22E2AE030E0DC
S1130CD025C0F22FF97FBF2E8F36C1F018F4883566
S1130CE079F0B4C0803719F0883721F0AFC02F2FC6
S1130CF02061B22EB4FE0DC08B2D8460B82E09C0C5
S1130D0024FF0AC09F2F9660B92E06C028E030E069
S1130D1005C020E130E002C020E132E0F801B7FE76
S1130D2007C060817181828193810C5F1F4F06C06F
S1130D306081718180E090E00E5F1F4FA4010E94EA
S1130D409B07A82EA818FB2DFF77BF2EB6FE0BC05D
S1130D502B2D2E7FA51450F4B4FE0AC0B2FC08C09B
S1130D602B2D2E7E05C07A2C2B2D03C07A2C01C08E
S1130D70752C24FF0DC0FE01EA0DF11D8081803326
S1130D8011F4297E09C022FF06C07394739404C031
S1130D90822F867809F0739423FD13C020FF06C0C8
S1130DA05A2C731418F4530C5718732C731468F4D6
S1130DB0B70180E290E02C870E94690773942C8528
S1130DC0F5CF731410F4371801C0312C24FF12C06E
S1130DD0B70180E390E02C870E9469072C8522FFED
S1130DE017C021FF03C088E590E002C088E790E0C7
S1130DF0B7010CC0822F867859F021FD02C080E231
S1130E0001C08BE227FD8DE2B70190E00E946907E3
S1130E10A51438F4B70180E390E00E9469075A945E
S1130E20F7CFAA94F401EA0DF11D8081B70190E097
S1130E300E946907A110F5CF332009F451CEB70100
S1130E4080E290E00E9469073A94F6CFF701868128
S1130E50978102C08FEF9FEF2C96E2E10C94150866
S1130E600F931F93CF93DF93869F8001879F100D6D
S1130E70969F100D1124C8010E94AB03EC0100974A
S1130E8029F0A80160E070E00E945707CE01DF91CD
S1130E90CF911F910F910895FC010590615070400E
S1130EA00110D8F7809590958E0F9F1F0895DC014F
S1130EB001C06D9341505040E0F70895FC0161502A
S1130EC0704001900110D8F7809590958E0F9F1F68
S1130ED008950F931F93CF93DF93182F092FEB01DE
S1130EE08B8181FD03C08FEF9FEF20C082FF10C074
S1130EF04E815F812C813D81421753077CF4E88148
S1130F00F9819F012F5F3F4F39832883108306C0E7
S1130F10E885F985812F0995892B29F72E813F8151
S1130F202F5F3F4F3F832E83812F902FDF91CF91EF
S1130F301F910F910895FA01AA27283051F1203109
S1130F4081F1E8946F936E7F6E5F7F4F8F4F9F4F59
S1130F50AF4FB1E03ED0B4E03CD0670F781F891F9B
S1130F609A1FA11D680F791F8A1F911DA11D6A0F69
S1130F70711D811D911DA11D20D009F468943F911C
S1130F802AE0269F11243019305D3193DEF6CF011B
S1130F900895462F4770405D4193B3E00FD0C9F7E1
S1130FA0F6CF462F4F70405D4A3318F0495D31FD4E
S1130FB04052419302D0A9F7EACFB4E0A6959795A1
S1130FC0879577956795BA95C9F700976105710577
S1130FD008959B01AC010A2E0694579547953795C1
S1130FE02795BA95C9F7620F731F841F951FA01D1B
S1130FF008952F923F924F925F926F927F928F92B9
S11310009F92AF92BF92CF92DF92EF92FF920F9393
S11310101F93CF93DF93CDB7DEB7CA1BDB0B0FB69D
S1131020F894DEBF0FBECDBF09942A88398848885A
S11310305F846E847D848C849B84AA84B984C884F0
S1131040DF80EE80FD800C811B81AA81B981CE0FE7
S1131050D11D0FB6F894DEBF0FBECDBFED010895CC
S1071060F894FFCF2E
S11310640000010220000141444320696E6974694F
S1131074616C697A656420006572726F723A206EDD
S11310846F207375636820616463206368616E6EA6
S1131094656C3A202569200A0043414E20696E6933
S11310A47469616C697A656420004572726F722C8C
S11310B420494E54322C20696E67656E2061762077
S11310C4696E7420666C616767656E652069204388
S11310D4414E207661722073617474203A532C203B
S11310E42578200A004A6F79737469636B206275EA
S11310F474746F6E20696E697469616C697A65646D
S11311042000206C696E6A652025693A20256920CF
S10511140A00CB
S9030000FC
