:100000000C94BC010C9420060C9475060C94AA0662
:100010000C94D9010C94D9010C94D9010C94D901F8
:100020000C94D9010C94D9010C94D9010C94D901E8
:100030000C94D9010C94BE050C94D9010C94D901EF
:100040000C94D9010C94D9010C94D9010C94EA06B2
:100050000C94D9010C94D9010C94D9010C94D901B8
:100060000C94D9010C94D9010C94D9010C94D901A8
:1000700000007F3E1C080000FFFF7E7E3C3C1818FD
:10008000000000000000000000065F5F06000000A6
:100090000007070007070000147F7F147F7F14000C
:1000A000242E6B6B3A120000466630180C66620014
:1000B000307A4F5D377A48000407030000000000E3
:1000C000001C3E63410000000041633E1C00000034
:1000D000082A3E1C1C3E2A0808083E3E080800006C
:1000E00000A0E06000000000080808080808000000
:1000F00000006060000000006030180C0603010082
:100100003E7F594D7F3E000042427F7F40400000CD
:10011000627359496F660000226349497F360000C7
:10012000181C16137F7F1000276745457D39000096
:100130003C7E4B4979300000036371190F070000C2
:10014000367F49497F360000064F49693F1E00004F
:1001500000006C6C0000000000A0EC6C00000000CF
:10016000081C366341000000141414141414000019
:10017000004163361C080000020351590F060000BD
:100180003E7F415D5D1F1E007C7E13137E7C000060
:10019000417F7F49497F36001C3E63414163220015
:1001A000417F7F41637F1C00417F7F495D41630048
:1001B000417F7F491D0103001C3E63415173720062
:1001C0007F7F08087F7F000000417F7F41000000A3
:1001D000307040417F3F0100417F7F081C77630002
:1001E000417F7F41406070007F7F060C067F7F006B
:1001F0007F7F060C187F7F001C3E6341633E1C001E
:10020000417F7F49090F06001E3F21717F5E00007C
:10021000417F7F19396F460026674D597B320000B8
:1002200003417F7F410300007F7F40407F7F0000CC
:100230001F3F60603F1F00007F7F3018307F7F00CE
:1002400063771C081C776300074F78784F0700001E
:100250006773594D47637100007F7F414100000083
:100260000103060C183060000041417F7F00000050
:10027000080C0603060C0800808080808080808047
:100280000000030704000000207454543C78400030
:10029000413F7F44447C3800387C44446C28000053
:1002A000307848493F7F4000387C54545C18000047
:1002B000487E7F490302000098BCA4A4F87C040097
:1002C000417F7F08047C780000447D7D4000000071
:1002D00040C484FD7D000000417F7F10386C4400E5
:1002E00000417F7F400000007C7C0C180C7C780073
:1002F0007C7C04047C780000387C44447C3800001A
:1003000084FCF8A4243C1800183C24A4F8FC8400C5
:10031000447C78441C180000485C54547424000049
:1003200000043E7F442400003C7C40403C7C400074
:100330001C3C60603C1C00003C7C6030607C3C00ED
:10034000446C3810386C44009CBCA0A0FC7C0000BD
:100350004C64745C4C64000008083E774141000026
:1003600000000077770000004141773E0808000058
:10037000020301030203010011241FBECFEFD4E0EA
:10038000DEBFCDBF12E0A0E0B1E0E4E0F7E102C0E3
:1003900005900D92A036B107D9F722E0A0E6B2E0B1
:1003A00001C01D92AB3AB207E1F70E9483050C949D
:1003B000800B0C9400008091600208958BB78064DC
:1003C0008BBF85B7826085BF85B78E7F85BF7894E8
:1003D0008DE091E00E9481080895CF93DF93EC01B6
:1003E0000197049768F0DF93CF938EE191E09F939C
:1003F0008F930E946D080F900F900F900F900CC07C
:1004000081E090E00E94DB01FE01ED5FFB4E8C2F4E
:100410008D5F8083C0930601DF91CF9108950E9484
:10042000D4024FEF63E08BE20E94BA024FEF63E029
:1004300080E30E94BA024FEF64E680E60E94BA02AF
:100440004FEF60E680E70E94BA0240E460EE8FE082
:100450000E94BA028FE391E00E94810808951F93E1
:10046000CF93DF93EC018CE20E94670280FD0FC006
:1004700081FD0FC01F928F9380E591E09F938F9332
:100480000E946D080F900F900F900F9003C010E026
:1004900001C011E0612FCE010E947A02CE01DF91EE
:1004A000CF911F9108958BB780688BBF85B7886007
:1004B00085BF85B78B7F85BF78948BE891E00E94DC
:1004C0008108089581E090E00E94ED010895CF93A6
:1004D000C82F0E94B90683E00E94C9068C2F0E9493
:1004E000C9068C2F0E94C906C82F0E94BB068C2FFC
:1004F000CF910895CF92DF92EF92FF920F931F93C7
:10050000CF93DF93CDB7DEB72D970FB6F894DEBF4C
:100510000FBECDBF6C010E94B90684E90E94C906D6
:100520008E010F5F1F4F7E018EE0E80EF11C84E903
:100530000E94C906F80181938F01EE15FF05B9F7F6
:100540000E94BB068DE0FE013196D60101900D920E
:100550008A95E1F7C6012D960FB6F894DEBF0FBE5F
:10056000CDBFDF91CF911F910F91FF90EF90DF9062
:10057000CF9008951F93CF93DF93182FD62FC42FBA
:100580000E94B90685E00E94C906812F0E94C90613
:100590008D2F0E94C9068C2F0E94C9060E94BB069F
:1005A000DF91CF911F9108950E94B90680EC0E94BF
:1005B000C9060E94BB0608958EB588608EBD89B7B6
:1005C000806489BF80E496E09BBD8ABD8EB5836060
:1005D0008EBD08952091620230916302820F931FB5
:1005E0009093630280936202E0916A02F0916B0241
:1005F00081A192A1892BD1F4828190E020916202A5
:1006000030916302281739072CF010926302109280
:1006100062020895209162023091630233230CF547
:10062000019790936302809362020895828190E023
:100630002091620230916302AC014F5F5F4F24173B
:1006400035072CF0109263021092620208952091F7
:10065000620230916302332324F490936302809307
:1006600062020895CF93DF930E94C4040E9499040C
:10067000E0916A02F0916B02808191810E94720583
:10068000E0916A02F0916B0281A192A1892B41F461
:100690008281883028F4109261028093070132C071
:1006A0008281873030F4109261028F5F809307015E
:1006B00029C080916202909163022091610230E032
:1006C0008217930754F480916202909163028093A1
:1006D0006102895F8093070115C080916202909149
:1006E00063022091070130E0821793075CF080914C
:1006F00062029091630291E0980F909307018650F7
:1007000080936102C0916102D0E08091070190E086
:10071000C817D90794F580916202909163028C17F3
:100720009D0721F48EE10E942B0503C080E20E9408
:100730002B05A0916A02B0916B02FE01EE0FFF1F24
:10074000EA0FFB1F0380F481E02D309759F4919656
:100750008D919C919297892B29F088EA91E00E94D3
:10076000720504C0808191810E947205219680915A
:10077000070190E0C817D90774F2DF91CF9108956F
:10078000E0916A02F0916B02428180916202909145
:100790006302242F30E02817390739F481A192A190
:1007A00090936B0280936A0210C04423C9F0809139
:1007B000620290916302880F991FE80FF91F8381ED
:1007C000948190936B0280936A02E0916A02F091A7
:1007D0006B024281473020F087E08093070103C01D
:1007E0004F5F4093070110926102109263021092D2
:1007F000620208950F931F93CF93DF938C01EB0157
:1008000083E290E00E94FB06FC01118300831282C8
:10081000D2A3C1A3209771F08A81A82FB0E0AA0FBC
:10082000BB1FAC0FBD1F1496FC93EE9313978F5F05
:100830008A8304C090936B0280936A02CF01DF9198
:10084000CF911F910F9108950F931F93CF93DF9333
:1008500060E070E08EEA91E00E94FA03EC01BC01D6
:1008600089EB91E00E94FA038C01BC0189EC91E0D4
:100870000E94FA03BC0185ED91E00E94FA03B801E1
:100880008AED91E00E94FA03B8018AEE91E00E949D
:10089000FA03BE0189EF91E00E94FA03BE0189E0EC
:1008A00092E00E94FA03BE0188E192E00E94FA03FE
:1008B000BE0187E292E00E94FA03BE018CE292E060
:1008C0000E94FA03BE0183E392E00E94FA03BE0194
:1008D00081E492E00E94FA03DF91CF911F910F9182
:1008E0000895E0910A01F0910B01E80FF11D80835A
:1008F0000895CF93DF93D82FC62F81E20E94710411
:100900008D2F0E9471048C2F0E947104DF91CF9172
:100910000895CF93DF93D82FC62F82E20E947104EF
:100920008D2F0E9471048C2F0E947104DF91CF9152
:10093000089510926D0210926C026FE780E00E94A1
:10094000790467E080E00E948904089580936D0235
:1009500010926C026FE780E00E94790467E080915A
:100960006D020E94890480E890E0E0910801F09116
:100970000901108201970097C1F76FE780E00E949C
:10098000790410926C020895CF93DF93C0E0D0E019
:10099000CE010E94A6042196C830D105C9F7DF9187
:1009A000CF9108958EEA0E94710481EA0E94710439
:1009B0008AED0E94710482E10E94710488EC0E9419
:1009C000710488EA0E9471048FE30E94710485ED2E
:1009D0000E94710480E80E94710481E80E94710401
:1009E00080E50E94710489ED0E94710481E20E94F9
:1009F000710480E20E94710482E00E9471048BED18
:100A00000E94710480E30E9471048DEA0E947104C7
:100A100080E00E94710484EA0E94710486EA0E94C8
:100A200071048FEA0E9471040E94C4040E94990418
:100A30008EE492E00E948108089580936D021092E6
:100A40006C026FE780E00E94790467E080916D029C
:100A50000E9489040895CF93C82F8A3039F180917C
:100A60006C028F5F803169F510926C0280916D028B
:100A70008F5F883019F080936D0202C010926D0272
:100A80006FE780E00E94790467E080916D020E9428
:100A9000890419C02491A0910801B09109012C93F7
:100AA0000196319688309105A9F71AC080916D02A0
:100AB0008F5F80936D0210926C0290E00E941D0582
:100AC0000FC080936C02EC2FF0E0EE0FFF1FEE0FD3
:100AD000FF1FEE0FFF1FE058F04080E090E0DACFFC
:100AE000CF910895CF93DF93EC0188818A3031F064
:100AF00021960E942B0589918A30D9F70E942B05F7
:100B0000DF91CF910895CF93DF93CDB7DEB72D97C7
:100B10000FB6F894DEBF0FBECDBFB89A0E94BD06D7
:100B20008FE190E00E94D9060E94E8060E94CE065E
:100B30000E94DE010E9453020E94D2040E94DC0245
:100B40000E9424040E940F028FEF9FE20197F1F7A9
:100B500000C0000080916402813031F41092640280
:100B6000CE0101960E942F029FEF2FEF85E9915051
:100B700020408040E1F700C00000E6CF1F920F92B6
:100B80000FB60F9211242F933F934F935F936F9360
:100B90007F938F939F93AF93BF93EF93FF9398B3FC
:100BA00081E0892788BB80916502813001F58091C1
:100BB000660290916702A0916802B09169020C9759
:100BC000A105B105A4F48091660290916702A091FD
:100BD0006802B09169020196A11DB11D8093660261
:100BE00090936702A0936802B09369020AC01092C2
:100BF00066021092670210926802109269021092C7
:100C000065020E94DB0181110AC080910C018823DA
:100C100021F00E94320310920C010E946202FF91A7
:100C2000EF91BF91AF919F918F917F916F915F9164
:100C30004F913F912F910F900FBE0F901F901895DD
:100C40001F920F920FB60F9211242F933F934F9341
:100C50005F936F937F938F939F93AF93BF93EF9324
:100C6000FF938091650281112BC0809103148A301B
:100C700090F481E090E00E94EA0281E080936502B6
:100C80001092660210926702109268021092690236
:100C900080930C0115C080910314863F88F08FEF7C
:100CA0009FEF0E94EA0281E0809365021092660243
:100CB00010926702109268021092690280930C01F0
:100CC00080E090E00E94DB01FF91EF91BF91AF9136
:100CD0009F918F917F916F915F914F913F912F9154
:100CE0000F900FBE0F901F9018951F920F920FB686
:100CF0000F9211242F933F934F935F936F937F93A2
:100D00008F939F93AF93BF93EF93FF93809165026F
:100D100081110FC00E94C00381E080936502109290
:100D20006602109267021092680210926902809324
:100D30000C01FF91EF91BF91AF919F918F917F91A6
:100D40006F915F914F913F912F910F900FBE0F9038
:100D50001F9018951F920F920FB60F9211248F9328
:100D600081E0809364028F910F900FBE0F901F90CF
:100D70001895C4980895C49A08958BB780628BBF64
:100D8000BC9A0E94BB06BD9ABF9A6E9A6C9A689AEA
:100D900008958FB9779BFECF8FB1089585B780688E
:100DA00085BF089580916E0208955D9BFECF8CB93A
:100DB000089590BD89B988E18AB986E880BD40E090
:100DC00050E062ED76E085ED96E00E9422080895FD
:100DD000579A08951F920F920FB60F9211248F9376
:100DE0008CB18A3011F080936E028F910F900FBEFC
:100DF0000F901F901895CF93DF938230910510F4D8
:100E000082E090E0E091A302F091A40220E030E0C3
:100E1000A0E0B0E0309739F140815181481759077F
:100E2000B8F04817590771F482819381109729F01F
:100E300013969C938E9312972CC09093A402809348
:100E4000A30227C02115310531F04217530718F0CE
:100E5000A901DB0101C0EF019A01BD01DF010280A0
:100E6000F381E02DD7CF21153105F9F0281B390B7F
:100E70002430310580F48A819B816115710521F050
:100E8000FB019383828304C09093A4028093A30206
:100E9000FE01329644C0FE01E20FF31F819391934D
:100EA00022503109398328833AC02091A102309120
:100EB000A202232B41F420910201309103013093CF
:100EC000A2022093A102209100013091010121157D
:100ED000310541F42DB73EB7409104015091050111
:100EE000241B350BE091A102F091A202E217F30757
:100EF000A0F42E1B3F0B2817390778F0AC014E5F8A
:100F00005F4F2417350748F04E0F5F1F5093A20222
:100F10004093A1028193919302C0E0E0F0E0CF0101
:100F2000DF91CF910895CF93DF93009709F487C0A5
:100F3000FC01329713821282C091A302D091A402C5
:100F4000209781F420813181280F391F8091A102DF
:100F50009091A2028217930779F5F093A202E09391
:100F6000A1026DC0DE0120E030E0AE17BF0750F4F3
:100F700012964D915C9113979D014115510509F110
:100F8000DA01F3CFB383A28340815181840F951F8F
:100F90008A179B0771F48D919C911197840F951F6F
:100FA00002969183808312968D919C9113979383DF
:100FB00082832115310529F4F093A402E093A30262
:100FC0003EC0D9011396FC93EE9312974D915D911B
:100FD000A40FB51FEA17FB0779F480819181840F74
:100FE000951F0296D90111969C938E9382819381CD
:100FF00013969C938E931297E0E0F0E08A819B8198
:10100000009719F0FE01EC01F9CFCE01029628817C
:101010003981820F931F2091A1023091A2022817DB
:10102000390769F4309729F41092A4021092A302B0
:1010300002C013821282D093A202C093A102DF9158
:10104000CF9108950F931F93CF93DF93EC018B0102
:10105000009731F46115710519F480E090E038C013
:101060006EE070E081E090E00E94800AFC01009751
:10107000A1F380E883830115110571F013870287BE
:1010800081E883838091A5029091A602892B21F4A7
:10109000F093A602E093A5022097C9F0D187C087FC
:1010A0008381826083838091A7029091A802892B1B
:1010B00071F4F093A802E093A7028091A9029091A5
:1010C000AA02892B21F4F093AA02E093A902CF018E
:1010D000DF91CF911F910F910895A0E0B0E0E3E779
:1010E000F8E00C94590BFE01359661917191AF01B6
:1010F0008091A7029091A8020E94AE08E2E00C94B1
:10110000750B0F931F93CF93DF93E091A702F0919C
:10111000A802238121FF1BC0EC0100E010E08991AF
:101120006091A7027091A802DB011896ED91FC91E5
:101130001997882331F00995892B89F30FEF1FEF59
:10114000EECF8AE00995892B11F4C80102C08FEF18
:101150009FEFDF91CF911F910F910895ACE0B0E028
:10116000E4EBF8E00C94490B7C016B018A01FC0173
:1011700017821682838181FFBDC1CE0101964C0189
:10118000F7019381F60193FD859193FF81916F01A2
:10119000882309F4ABC1853239F493FD859193FF1F
:1011A00081916F01853229F4B70190E00E94B90A5C
:1011B000E7CF512C312C20E02032A0F48B3269F0A3
:1011C00030F4803259F0833269F420612CC08D32C2
:1011D00039F0803339F4216026C02260246023C0B6
:1011E000286021C027FD27C030ED380F3A3078F451
:1011F00026FF06C0FAE05F9E300D1124532E13C067
:101200008AE0389E300D1124332E20620CC08E32BD
:1012100021F426FD6BC1206406C08C3611F42068D1
:1012200002C0883641F4F60193FD859193FF8191C8
:101230006F018111C1CF982F9F7D9554933028F471
:101240000C5F1F4FFFE3F9830DC0833631F0833706
:1012500071F0833509F05BC022C0F8018081898379
:101260000E5F1F4F44244394512C540115C0380184
:10127000F2E06F0E711CF801A080B18026FF03C060
:10128000652D70E002C06FEF7FEFC5012C870E94D3
:10129000AE0A2C0183012C852F77222E17C038012E
:1012A000F2E06F0E711CF801A080B18026FF03C030
:1012B000652D70E002C06FEF7FEFC5012C870E94A3
:1012C0009C0A2C012C852068222E830123FC1BC044
:1012D000832D90E048165906B0F4B70180E290E003
:1012E0000E94B90A3A94F4CFF50127FC859127FEB4
:1012F00081915F01B70190E00E94B90A31103A94E0
:10130000F1E04F1A51084114510471F7E5C08436D9
:1013100011F0893639F5F80127FF07C06081718126
:10132000828193810C5F1F4F08C060817181882783
:1013300077FD8095982F0E5F1F4F2F76B22E97FF67
:1013400009C090958095709561957F4F8F4F9F4F05
:101350002068B22E2AE030E0A4010E94EB0AA82EF9
:10136000A81844C0853729F42F7EB22E2AE030E039
:1013700025C0F22FF97FBF2E8F36C1F018F48835C3
:1013800079F0B4C0803719F0883721F0AFC02F2F23
:101390002061B22EB4FE0DC08B2D8460B82E09C022
:1013A00024FF0AC09F2F9660B92E06C028E030E0C7
:1013B00005C020E130E002C020E132E0F801B7FED4
:1013C00007C060817181828193810C5F1F4F06C0CD
:1013D0006081718180E090E00E5F1F4FA4010E9448
:1013E000EB0AA82EA818FB2DFF77BF2EB6FE0BC068
:1013F0002B2D2E7FA51450F4B4FE0AC0B2FC08C0F9
:101400002B2D2E7E05C07A2C2B2D03C07A2C01C0EB
:10141000752C24FF0DC0FE01EA0DF11D8081803383
:1014200011F4297E09C022FF06C07394739404C08E
:10143000822F867809F0739423FD13C020FF06C025
:101440005A2C731418F4530C5718732C731468F433
:10145000B70180E290E02C870E94B90A73942C8532
:10146000F5CF731410F4371801C0312C24FF12C0CB
:10147000B70180E390E02C870E94B90A2C8522FFF7
:1014800017C021FF03C088E590E002C088E790E024
:10149000B7010CC0822F867859F021FD02C080E28E
:1014A00001C08BE227FD8DE2B70190E00E94B90AEE
:1014B000A51438F4B70180E390E00E94B90A5A9469
:1014C000F7CFAA94F401EA0DF11D8081B70190E0F5
:1014D0000E94B90AA110F5CF332009F451CEB7010B
:1014E00080E290E00E94B90A3A94F6CFF701868133
:1014F000978102C08FEF9FEF2C96E2E10C94650B71
:101500000F931F93CF93DF93869F8001879F100DCA
:10151000969F100D1124C8010E94FB06EC01009754
:1015200029F0A80160E070E00E94A70ACE01DF91D7
:10153000CF911F910F910895FC010590615070406B
:101540000110D8F7809590958E0F9F1F0895DC01AC
:1015500001C06D9341505040E0F70895FC01615087
:10156000704001900110D8F7809590958E0F9F1FC5
:1015700008950F931F93CF93DF93182F092FEB013B
:101580008B8181FD03C08FEF9FEF20C082FF10C0D1
:101590004E815F812C813D81421753077CF4E881A5
:1015A000F9819F012F5F3F4F39832883108306C045
:1015B000E885F985812F0995892B29F72E813F81AF
:1015C0002F5F3F4F3F832E83812F902FDF91CF914D
:1015D0001F910F910895FA01AA27283051F1203167
:1015E00081F1E8946F936E7F6E5F7F4F8F4F9F4FB7
:1015F000AF4FB1E03ED0B4E03CD0670F781F891FF9
:101600009A1FA11D680F791F8A1F911DA11D6A0FC6
:10161000711D811D911DA11D20D009F468943F9179
:101620002AE0269F11243019305D3193DEF6CF0178
:101630000895462F4770405D4193B3E00FD0C9F73E
:10164000F6CF462F4F70405D4A3318F0495D31FDAB
:101650004052419302D0A9F7EACFB4E0A6959795FE
:10166000879577956795BA95C9F7009761057105D4
:1016700008959B01AC010A2E06945795479537951E
:101680002795BA95C9F7620F731F841F951FA01D78
:1016900008952F923F924F925F926F927F928F9216
:1016A0009F92AF92BF92CF92DF92EF92FF920F93F1
:1016B0001F93CF93DF93CDB7DEB7CA1BDB0B0FB6FB
:1016C000F894DEBF0FBECDBF09942A8839884888B8
:1016D0005F846E847D848C849B84AA84B984C8844E
:1016E000DF80EE80FD800C811B81AA81B981CE0F45
:1016F000D11D0FB6F894DEBF0FBECDBFED0108952A
:04170000F894FFCF8B
:101704000000AB0220000107001200100141444315
:1017140020696E697469616C697A65642000657218
:10172400726F723A206E6F20737563682061646310
:10173400206368616E6E656C3A202569200A004357
:10174400414E20696E697469616C697A6564200030
:101754004572726F722C20494E54322C20696E6788
:10176400656E20617620696E7420666C61676765BA
:101774006E6520692043414E207661722073617446
:1017840074203A532C202578200A004A6F79737408
:1017940069636B20627574746F6E20696E69746915
:1017A400616C697A656420004261636B0A004D6173
:1017B400696E206D656E750A004161736D756E64A6
:1017C400206572206B756C0A004261726520747525
:1017D4006C6C610A006C6F6C0A0067756E6E6172E6
:1017E40065726B756C6572650A006A6F6E2065724E
:1017F400206B756C6573740A0047756E6E61726C4C
:10180400696B65722069730A004A6F6E6C696B6557
:101814007264756D6C650A004A6F6E7370697365E6
:10182400726669736B0A006865690A0068616C6CAA
:101834006F0A00617364666A6B6A66736167660A3D
:10184400006D656E75207363726F6C6C0A006F6C4B
:10185400656420696E697469616C697A65642000E5
:040000050080026114
:00000001FF
