:1000000004C100002FC100002DC100002BC1000061
:1000100029C1000027C1000025C1000023C1000044
:1000200021C100001FC100001DC100001BC1000054
:1000300019C1000017C1000015C1000013C1000064
:1000400011C100000C94C2090DC100000BC10000D9
:1000500009C1000007C1000005C100000C94D10ACD
:1000600001C100000C94F70C0C943B0EFBC0000087
:10007000F9C00000F7C00000F5C00000F3C00000A8
:100080000C949509EFC00000EDC00000EBC000002B
:100090000C94370D0C947A0EE5C0000054C100009A
:1000A000E1C00000DFC000000C946809DBC0000064
:1000B000D9C00000D7C00000D5C000000C943B0997
:1000C000D1C00000CFC00000CDC000000C94770D5F
:1000D0000C94B90EC7C000000C94B70D0C94F80E28
:1000E000C1C0000000002100240027002A002D00CC
:1000F0003000330001010000040107010A01000083
:100100002200250028002B002E00310034000201BF
:100110000000050108010B0100002000230026005B
:1001200029002C002F00320000010000030106010D
:10013000090105050505070508080808020202026D
:100140000A0A080804040404010101010101010173
:100150000303030303030303040707070C0C0C0C3E
:100160000C0C0C0C02020202060606060606060627
:100170000B0B0B0B0B0B0B0B0102102020080810B4
:100180002040102040800201020108040201010207
:1001900004081020408080402010080402018004E0
:1001A000020180402010080402010804020101023B
:1001B0000408102040800102040810204080000044
:1001C000090A02080B0C0D070603040100000000D9
:1001D000000000000000000000000000000000001F
:1001E0000000000000000000000011100F000000DF
:1001F00000000000000000000000000000000000FF
:1002000000000000B8063B0A671011241FBECFEFA4
:10021000D1E2DEBFCDBF00E00CBF12E0A0E0B2E053
:10022000E8E8F7E200E00BBF02C007900D92AE34A1
:10023000B107D9F71BBE16E0AEE4B2E001C01D92D3
:10024000AD36B107E1F712E0CAE0D2E004C0229770
:10025000FE010E94BE13C430D107C9F70E949D1150
:100260000C94C213CDCE0F931F93582F122F4132EF
:1002700010F081E04AC080914E028823E1F782E0CD
:1002800080934E02009350028FEF8093BB02109236
:10029000760240937702A6E5B2E0FB0102C08191AD
:1002A0008D938E2F861B8417D0F310924F0280916E
:1002B0004F02550F852B80934F0280915102813060
:1002C00041F41092510280914F028093BB0085EC63
:1002D00001C085EE8093BC00112321F080914E0275
:1002E0008230E1F38091BB028F3F11F480E00DC0BA
:1002F0008091BB02803211F482E007C08091BB0282
:10030000803311F084E001C083E01F910F910895C4
:10031000482F613210F081E0089580914E028430C0
:1003200011F082E0089560939902A8E7B2E0842F6B
:100330009C01F90102C081918D938E2F841B861739
:10034000D0F380E008951F920F920FB60F920BB674
:100350000F9211242F933F934F935F936F937F934B
:100360008F939F93AF93BF93EF93FF938091B900C7
:1003700090E0887F90708036910509F4F2C0813654
:100380009105CCF58832910509F47BC0893291053D
:10039000B4F48031910509F46FC0813191053CF4CA
:1003A000009709F447C1089709F04FC165C088312B
:1003B000910509F466C0809709F047C182C0803476
:1003C000910509F4A4C08134910544F4803391056A
:1003D00009F482C0C89709F038C189C080359105F9
:1003E00009F489C08835910509F496C088349105CF
:1003F00009F02BC1AEC08839910509F413C18939C0
:100400009105ECF48837910509F4ABC08937910563
:100410004CF48836910509F4A4C08037910509F0A1
:1004200014C19FC08838910509F4FCC0803991053A
:1004300009F49DC08038910509F007C198C0803B40
:10044000910509F4C6C0813B91054CF4803A9105B1
:1004500009F49FC0883A910509F0F7C0BAC0803C02
:10046000910509F4E3C0883C910509F4DFC0883B9D
:10047000910509F0EAC0C2C080914F028093BB0091
:10048000CFC09091760280917702981768F490918E
:100490007602E92FF0E0EA5AFD4F80818093BB009D
:1004A0009F5F90937602BCC080915002882309F42C
:1004B0004BC085ED8093BC008091BC0084FDFCCFD7
:1004C000C2C080E28093BB0285ED8093BC00809126
:1004D000BC0084FDFCCFB7C080E38093BB0285EDF8
:1004E0008093BC008091BC0084FDFCCFACC088E34D
:1004F0008093BB029BC0809176029091BB00E82F55
:10050000F0E0EA5AFD4F90838F5F809376029091DE
:1005100076028091770282C0809176029091BB0032
:10052000E82FF0E0EA5AFD4F90838F5F80937602C8
:1005300080915002882341F085ED8093BC0080912A
:10054000BC0084FDFCCF7FC081E08093510284EA2F
:100550006EC085ED8093BC008091BC0084FDFCCF13
:1005600072C083E080934E021092BA0259C080910B
:10057000BA02803208F056C08091BA029091BB0056
:10058000E82FF0E0E656FD4F90838F5F8093BA022C
:1005900047C08091BA02803230F4E091BA02F0E0B4
:1005A000E656FD4F108285ED8093BC008091BC0023
:1005B00084FDFCCF10924E026091BA02E091540289
:1005C000F09155028AE992E070E019951092BA0212
:1005D0002DC084E080934E021092980210929902EE
:1005E000E0915202F091530219958091990288236B
:1005F00029F481E0809399021092780290919802F8
:10060000E92FF0E0E858FD4F80818093BB009F5FA9
:10061000909398029091980280919902981710F403
:1006200085EC01C085E88093BC000FC085EC809309
:10063000BC0009C01092BB0285ED8093BC00809184
:10064000BC0084FDFCCF10924E02FF91EF91BF9150
:10065000AF919F918F917F916F915F914F913F915A
:100660002F910F900BBE0F900FBE0F901F901895FB
:1006700010924E0281E0809350021092510284E168
:1006800061E00E94950C85E161E00E94950CE9EB28
:10069000F0E080818E7F808380818D7F808388E4FD
:1006A0008093B80085E48093BC0008952F923F9218
:1006B0004F925F926F927F928F929F92AF92BF9272
:1006C000CF92DF92EF92FF920F931F93DF93CF931E
:1006D00000D00F92CDB7DEB788E360E00E94950CA2
:1006E0008AE361E00E94950C1A8219821E01089427
:1006F000211C311CCE0103969C838B838EE30E94C8
:10070000C70C182F8FE30E94C70C2C0180E40E94B5
:10071000C70C3C0181E40E94C70C4C0182E40E949A
:10072000C70C5C0183E40E94C70C6C0184E40E9446
:10073000C70C7C0185E40E94C70C440C551C14298D
:10074000660C771C660C771C162963E0880C991CD4
:100750006A95E1F7182954E0AA0CBB1C5A95E1F7F9
:100760001A2945E0CC0CDD1C4A95E1F71C2936E03E
:10077000EE0CFF1C3A95E1F71E299695982F8827D5
:1007800097958795182BF10111931F018AE360E07B
:100790000E94950C8B819C812816390609F0AECFFA
:1007A00089E360E00E94950C89E361E00E94950C6A
:1007B00088E361E00E94950C9A8180E02981022FF4
:1007C00010E0082B192B85EE95E060E072E00E94A6
:1007D000D31285EE95E0B8014AE050E00E94C112C4
:1007E00085EE95E061E172E00E94D3124091BE0275
:1007F0005091BF026091C0027091C10285EE95E0F8
:100800002AE030E00E94AF12C801805D9A48209132
:10081000BE023091BF024091C0025091C102895C7A
:100820009F4AD8F08091BC029091BD02AA2797FD03
:10083000A095BA2F280F391F4A1F5B1F2093BE02B5
:100840003093BF024093C0025093C10285EE95E001
:100850006FE172E00E94D51215C0C801AA2797FD6A
:10086000A095BA2F280F391F4A1F5B1F2093BE0285
:100870003093BF024093C0025093C1021093BD0257
:100880000093BC02C8010F900F900F900F90CF9172
:10089000DF911F910F91FF90EF90DF90CF90BF906D
:1008A000AF909F908F907F906F905F904F903F9010
:1008B0002F900895FF920F931F93F82E00EB13E0F3
:1008C000C80168E270E09DD5C80160E01CD6C8018F
:1008D0006F2D19D6C8015AD61F910F91FF90089518
:1008E0000F931F9386E361E06DD787E361E06AD7DA
:1008F00088E361E067D789E361E064D78AE361E078
:1009000061D78BE361E05ED78CE361E05BD78DE379
:1009100061E058D78EE360E055D78FE360E052D7AF
:1009200080E460E04FD781E460E04CD782E460E08F
:1009300049D783E460E046D784E460E043D785E4A8
:1009400060E040D78BE361E0F0D789E360E0EDD76A
:1009500089E361E0EAD788E361E0E7D78AE361E011
:10096000E4D78CE361E0E1D700EB13E0C80110D6D7
:10097000C80168E270E045D5C80161E0C4D5C8018E
:100980006FE7C1D5C80102D61F910F9108951F933B
:10099000182F85E360E0C9D783E08EBD0DB407FE54
:1009A000FDCF8EB51EBD0DB407FEFDCF8EB51EBCAE
:1009B0000DB407FEFDCF1EB585E361E0B6D7812FEC
:1009C0001F910895FF920F931F93182F062FF42E57
:1009D00085E360E0AAD785E08EBD0DB407FEFDCFAC
:1009E0008EB51EBD0DB407FEFDCF8EB581E090E043
:1009F00002C0880F991F0A95E2F78EBD0DB407FE5D
:100A0000FDCF8EB5FF2031F08FEF8EBD0DB407FE08
:100A1000FDCF04C01EBC0DB407FEFDCF8EB585E32F
:100A200061E083D71F910F91FF9008950F931F935B
:100A3000182F062F85E360E078D782E08EBD0DB4D5
:100A400007FEFDCF8EB51EBD0DB407FEFDCF8EB5E2
:100A50000EBD0DB407FEFDCF8EB585E361E065D711
:100A60001F910F9108951F93182F8BE263E0DEDF33
:100A7000110F110F110F17608FE0612FD7DF8EE07C
:100A800086DF20E090E045E0959587954A95E1F76F
:100A9000882309F421E0822F1F910895AF92BF921D
:100AA000CF92DF92EF92FF920F931F93CF93DF933A
:100AB000EC017A018B01BDD55B016C01AE0CBF1C52
:100AC000C01ED11E06C08CE262DF80FD0AC081FD1F
:100AD000D7C0AFD56A157B058C059D05A0F380E0D6
:100AE000C4C080E654DF00E010E090E023E096957B
:100AF00087952A95E1F781708D830115110529F4F9
:100B000081E645DFE82E82E604C081E740DFE82E7B
:100B100082E73DDFE82F90E0AC01B5E055954795C1
:100B2000BA95E1F72E2D30E0A3E0220F331FAA95EE
:100B3000E1F7422B532B60E070E049835A836B83CB
:100B40007C83F3E096958795FA95E1F78170888329
:100B5000882309F441C08E2F90E0A0E0B0E08370BC
:100B60009070A070B070E2E0440F551F661F771FB1
:100B7000EA95D1F7842B952BA62BB72B89839A83E3
:100B8000AB83BC8383E603DF90E0A0E0B0E0298183
:100B90003A814B815C81542F432F322F2227822BA5
:100BA000932BA42BB52B89839A83AB83BC8384E6D8
:100BB000EEDE90E0A0E0B0E029813A814B815C81DB
:100BC000542F432F322F2227822B932BA42BB52B6C
:100BD00089839A83AB83BC8389819A81AB81BC81F1
:100BE000BF7189839A83AB83BC830115110511F40E
:100BF00085E601C085E7CBDE8F708E8385E360E0FC
:100C000094D683E08EBD0DB407FEFDCF8EB50115E1
:100C1000110551F486E68EBD0DB407FEFDCF8EB5ED
:100C2000FE0120E030E00FC086E78EBD0DB407FE68
:100C3000FDCFF5CF1EBC0DB407FEFDCF8EB587836B
:100C40002F5F3F4F31968E8190E02817390794F33C
:100C500085E361E06AD6012B19F48CE260E002C002
:100C60008CE261E040E0AEDE81E0DF91CF911F9148
:100C70000F91FF90EF90DF90CF90BF90AF900895CD
:100C800080E785DE01E010E030CFA9D385E361E0A5
:100C900099D585E360E049D680EC8EBD0DB407FEA2
:100CA000FDCF8EB585E361E040D664E670E080E07C
:100CB00090E0CDD48EE06BDE20E090E035E09595BD
:100CC00087953A95E1F7843009F421E0822F089561
:100CD00083E15DD6892B19F43CD06FD0E7CC089521
:100CE00085EE95E040E052EC61E070E00E94370F45
:100CF00082D036C08091CE020895AC01FC01EE5343
:100D0000FD4F8781282F30E041155105B9F484E269
:100D100090E0AC01249FC001259F900D349F900D61
:100D2000112463E370E00E9458139B01CB018855A6
:100D30009040059760F42AE530E009C04230510543
:100D400031F48FEF90E0AC01421B530B9A01C901C3
:100D5000089582EC92E048EE53E060E070E09ECEB1
:100D600086E090E092DF81E07EDE83E160E02AC5EC
:100D700081ED92E04FC0892B19F08FE060E002C056
:100D80008FE061E0D2C5CF93DF93C82FD0E087FD1D
:100D900008C08CE360E0C9D58FE790E08C1B9D0B09
:100DA00006C08CE361E0C1D5CE0180589040880F29
:100DB000991F80DDDF91CF9108959CDF8093D4024D
:100DC000813079F482E090E098DFBC0181ED92E01F
:100DD00077D081E090E091DFD6DF83E090E08DDF97
:100DE00009C08FE7D0DF81ED92E06AE570E068D05E
:100DF00080E090E0C0CF81ED92E069E070E076D1D4
:100E00006FDD8FE061E0DED48FE061E08ED510927F
:100E1000D4020895FC018091D502803390F4808340
:100E20008F5F8093D502815090E0FC01EE0FFF1F91
:100E3000E80FF91FEA52FD4F88EB9BE09283818314
:100E400008958FEF80830895FC0120812033B8F549
:100E50008181992787FD90954AEF50E0481B590BF7
:100E6000440F551F440F551F6417750784F0828186
:100E7000992787FD90954FE352E0481B590B440F8B
:100E8000551F440F551F641775070CF4AB014250F2
:100E90005040CA01AA2797FDA095BA2F880F991F25
:100EA000AA1FBB1F4FB7F89430E0F901EE0FFF1FE8
:100EB000E20FF31FEA52FD4F928381834FBF0895E3
:100EC000AF92BF92CF92DF92EF92FF920F931F9358
:100ED000CF93DF93EC019B0183E0683E78070CF031
:100EE00048C077FF03C020E030E005C0653B7105D6
:100EF00014F024EB30E000D00F92B901882777FD81
:100F00008095982F2981332727FD3095EAEFAE2E63
:100F1000B12CA21AB30AAA0CBB1CAA0CBB1CCC2471
:100F2000B7FCC094DC2CEA81FF27E7FDF0952FE3A6
:100F300032E02E1B3F0B220F331F220F331F44279B
:100F400037FD4095542FEDB7FEB72183328343839D
:100F5000548320E030E040E050E004EBE02EF12C40
:100F6000012D112D0E94E6129B010F900F900F9002
:100F70000F90CE01B90168DFDF91CF911F910F91E2
:100F8000FF90EF90DF90CF90BF90AF900895CF92F9
:100F9000DF92EF92FF921F93CF93DF93EC01162F16
:100FA0007A0169018881803308F092C0862F61E060
:100FB00009D4888190E0FC01EE0FFF1FE80FF91FB4
:100FC000EA52FD4F1F738081807C812B808388EEE5
:100FD00093E08E199F0964E070E00E9458136983C2
:100FE0008CEF98E08C199D0964E070E00E94581322
:100FF0006A83A8818A2F6CE00E944C13682F70E0EE
:10100000AB01440F551F460F571F440F551F440F88
:10101000551F20E030E0C901840F951FFC01EE0F41
:10102000FF1FE80FF91FEA52FD4F808186FD44C083
:101030002F5F3F4F2C30310571F753C01092800065
:1010400082E0809381001092850010928400B19A12
:1010500080916F00826080936F002EC062307105B6
:1010600069F41092900082E08093910010929500B4
:101070001092940088BB809371001EC0633071058C
:1010800069F41092A00082E08093A1001092A50064
:101090001092A40089BB809372000EC0672B61F48C
:1010A0001092200182E0809321011092250110927C
:1010B00024018ABB809373008A2F90E0FC01EE0F1D
:1010C000FF1FE80FF91FEA52FD4F80818064808383
:1010D0008881DF91CF911F91FF90EF90DF90CF90AB
:1010E00008956130710509F0B9CFA8CF48EE53E0FB
:1010F0002CEF38E04CCFEF92FF920F931F93CF93DA
:10110000DF938B017A01EC01DC01AA59BC4F8C9171
:1011100087FF04C0FB011182108236C0AE01440F6C
:10112000551F4C0F5D1F440F551F440F551F2C9129
:10113000332727FD3095240F351F8091D50290E08D
:10114000281739070CF58C91992787FD9095840F06
:10115000951FFC01EE0FFF1FE80FF91FEA52FD4F2C
:10116000808186FF11C08C91992787FD9095840F0F
:10117000951FFC01EE0FFF1FE80FF91FEA52FD4F0C
:1011800080818F7360E0D1D3DE01AA59BC4F8C916E
:101190008F5F8C93AE01440F551F4C0F5D1F440FA2
:1011A000551F440F551F2C91332727FD3095240FD1
:1011B000351F8091D50290E0281739070CF04CC0FC
:1011C0008C918C300CF048C0F801208131818C91D9
:1011D000992787FD9095840F951FFC01EE0FFF1F47
:1011E000E80FF91FEA52FD4F81819281280F391FC4
:1011F000F701318320838C91992787FD9095840F87
:10120000951FFC01EE0FFF1FE80FF91FEA52FD4F7B
:10121000808186FF29C08C91992787FD9095840F46
:10122000951FFC01EE0FFF1FE80FF91FEA52FD4F5B
:1012300080818F7361E079D317C080E49CE904C09A
:10124000F801808191810496F70191838083CA59C6
:10125000DC4F8FEF888308C0F8018081918104966C
:1012600080549C4950F3ECCFDF91CF911F910F91A7
:10127000FF90EF9008951F920F920FB60F920BB64A
:101280000F9211242F933F934F935F936F937F930C
:101290008F939F93AF93BF93EF93FF9380E090E082
:1012A00064E271E048E251E026DFFF91EF91BF91E7
:1012B000AF919F918F917F916F915F914F913F91EE
:1012C0002F910F900BBE0F900FBE0F901F9018958F
:1012D0001F920F920FB60F920BB60F9211242F93FD
:1012E0003F934F935F936F937F938F939F93AF93AE
:1012F000BF93EF93FF9383E090E064EA70E048EAE5
:1013000050E0F9DEFF91EF91BF91AF919F918F91E6
:101310007F916F915F914F913F912F910F900BBEF5
:101320000F900FBE0F901F9018951F920F920FB63F
:101330000F920BB60F9211242F933F934F935F930D
:101340006F937F938F939F93AF93BF93EF93FF938D
:1013500082E090E064E970E048E950E0CCDEFF9183
:10136000EF91BF91AF919F918F917F916F915F911D
:101370004F913F912F910F900BBE0F900FBE0F908A
:101380001F9018951F920F920FB60F920BB60F92E7
:1013900011242F933F934F935F936F937F938F937A
:1013A0009F93AF93BF93EF93FF9381E090E064E846
:1013B00070E048E850E09FDEFF91EF91BF91AF9160
:1013C0009F918F917F916F915F914F913F912F915D
:1013D0000F900BBE0F900FBE0F901F90189585E3D6
:1013E00061E0A3D285E361E0EDD18CB580618CBD75
:1013F0008CB580648CBD84E361E0E4D183E361E07B
:10140000E1C181E08093AF0360938C031092AD0340
:101410001092AE03089520918B0330E080918A03EF
:10142000281B3109C901089540918A0380918B03DB
:10143000481718F02FEF3FEF0AC0E42FF0E0E6590D
:10144000FC4F8081282F30E04F5F40938A03C90111
:101450000895E0918A0380918B03E81718F0EFEF6D
:10146000FFEF06C0F0E0E659FC4F8081E82FF0E086
:10147000CF01089508951092B3031092B20388EE3D
:1014800093E0A0E0B0E08093B4039093B503A09301
:10149000B603B093B70382E392E09093B1038093D5
:1014A000B0030895CF92DF92EF92FF920F931F93B4
:1014B000CF93DF937C016B018A018091AF03882376
:1014C000A1F0C0E0D0E00DC0D701ED91FC91D601B4
:1014D000AC0FBD1F0190F081E02DC7016C911995F3
:1014E0002196C017D10780F304C0CB01642F0E945E
:1014F0008801C801DF91CF911F910F91FF90EF906C
:10150000DF90CF900895DF93CF930F92CDB7DEB7E2
:10151000FC0169838091AF038823C9F08091AE03F9
:10152000803238F081E090E09383828320E030E0E5
:1015300015C08091AD03E82FF0E0E357FC4F99818F
:1015400090838F5F8093AD038093AE0305C0CE017F
:10155000019661E00E94880121E030E0C9010F900E
:10156000CF91DF9108950F93062F80918C036DE842
:1015700073E04091AE0321E00E9433011092AD036D
:101580001092AE031092AF030F91089561E0EBCF7C
:1015900010928A0310928B031092AD031092AE0347
:1015A00067C81F920F920FB60F9211242F933F938B
:1015B0008F939F93AF93BF938091C0039091C1038A
:1015C000A091C203B091C3033091C4030196A11D41
:1015D000B11D232F2D5F2D3720F02D570196A11D12
:1015E000B11D2093C4038093C0039093C103A093C3
:1015F000C203B093C3038091BC039091BD03A0913B
:10160000BE03B091BF030196A11DB11D8093BC0321
:101610009093BD03A093BE03B093BF03BF91AF915E
:101620009F918F913F912F910F900FBE0F901F9020
:1016300018958FB7F8942091C0033091C103409161
:10164000C2035091C3038FBFB901CA0108959B0122
:10165000AC017FB7F8948091BC039091BD03A09139
:10166000BE03B091BF0366B5A89B05C06F3F19F0DC
:101670000196A11DB11D7FBFBA2FA92F982F8827D2
:10168000860F911DA11DB11D62E0880F991FAA1F31
:10169000BB1F6A95D1F7BC012DC0FFB7F8948091AC
:1016A000BC039091BD03A091BE03B091BF03E6B50A
:1016B000A89B05C0EF3F19F00196A11DB11DFFBF0A
:1016C000BA2FA92F982F88278E0F911DA11DB11D0C
:1016D000E2E0880F991FAA1FBB1FEA95D1F7861B6E
:1016E000970B885E9340C8F22150304040405040F4
:1016F00068517C4F211531054105510571F608955A
:10170000789484B5826084BD84B5816084BD85B5DC
:10171000826085BD85B5816085BDEEE6F0E08081A3
:1017200081608083E1E8F0E01082808182608083C4
:10173000808181608083E0E8F0E080818160808347
:10174000E1EBF0E0808184608083E0EBF0E0808179
:1017500081608083E1E9F0E0808182608083808124
:1017600081608083E0E9F0E0808181608083E1EA4C
:10177000F0E0808182608083808181608083E0EA04
:10178000F0E0808181608083E1E2F1E0808182602D
:101790008083808181608083E0E2F1E080818160EC
:1017A0008083EAE7F0E080818460808380818260CA
:1017B00080838081816080838081806880831092B3
:1017C000C1000895CF93DF93482F50E0CA01885895
:1017D0009E4FFC0134914E5C5E4FFA018491882348
:1017E00069F190E0880F991FFC01EC51FF4FA59122
:1017F000B491FC01E250FF4FC591D491662351F49E
:101800002FB7F8948C91932F909589238C9388818E
:1018100089230BC0623061F42FB7F8948C91932F19
:10182000909589238C938881832B88832FBF06C052
:101830009FB7F8948C91832B8C939FBFDF91CF91AE
:101840000895893009F449C08A30A0F4843051F1F8
:10185000853040F4823079F1833000F5813009F031
:1018600063C026C0873079F1883098F5863009F05A
:101870005BC025C08D3009F442C08E3028F48B3017
:10188000B1F18C30C0F52DC0803109F442C08131F6
:1018900009F445C08F3009F047C037C080918000FF
:1018A0008F7703C0809180008F7D809380000895A2
:1018B00084B58F7702C084B58F7D84BD08958091F3
:1018C000B0008F7703C08091B0008F7D8093B0000F
:1018D0000895809190008F7707C0809190008F7D50
:1018E00003C080919000877F80939000089580913D
:1018F000A0008F7707C08091A0008F7D03C08091EA
:10190000A000877F8093A0000895809120018F77A9
:1019100003C0809120018F7D8093200108958091E4
:101920002001877F809320010895FF920F931F93DA
:10193000F62E482F50E0CA0182549E4FFC0124919C
:10194000CA0188589E4FFC0114914E5C5E4FFA010B
:1019500004910023C1F0222311F0822F72DFE02FC7
:10196000F0E0EE0FFF1FE250FF4FA591B4919FB73B
:10197000F894FF2021F48C911095812302C08C9162
:10198000812B8C939FBF1F910F91FF9008950F9310
:101990001F93482F50E0CA0182549E4FFC012491AE
:1019A000CA0188589E4FFC0104914E5C5E4FFA01BB
:1019B0001491112319F420E030E014C0222311F017
:1019C000822F3FDF812F90E0880F991F885E9E4F06
:1019D000FC01A591B4918C9120E030E0802311F0BE
:1019E00021E030E0C9011F910F91089508951F92E1
:1019F0000F920FB60F920BB60F9211242F933F93B5
:101A00004F938F939F93EF93FF938091C00082FD3C
:101A10001DC04091C60020910504309106042F5F3F
:101A20003F4F2F733070809107049091080428175E
:101A3000390771F0E0910504F0910604EB53FC4F77
:101A40004083309306042093050402C08091C600B1
:101A5000FF91EF919F918F914F913F912F910F9017
:101A60000BBE0F900FBE0F901F90189508951F92F8
:101A70000F920FB60F920BB60F9211242F933F9334
:101A80004F938F939F93EF93FF938091C80082FDB4
:101A90001DC04091CE0020918D0430918E042F5FA7
:101AA0003F4F2F73307080918F04909190042817CE
:101AB000390771F0E0918D04F0918E04E35BFB4FE8
:101AC000408330938E0420938D0402C08091CE0019
:101AD000FF91EF919F918F914F913F912F910F9097
:101AE0000BBE0F900FBE0F901F90189508951F9278
:101AF0000F920FB60F920BB60F9211242F933F93B4
:101B00004F938F939F93EF93FF938091D00082FD2B
:101B10001DC04091D60020911505309116052F5F0C
:101B20003F4F2F733070809117059091180528173B
:101B3000390771F0E0911505F0911605EB52FB4F56
:101B40004083309316052093150502C08091D6007E
:101B5000FF91EF919F918F914F913F912F910F9016
:101B60000BBE0F900FBE0F901F90189508951F92F7
:101B70000F920FB60F920BB60F9211242F933F9333
:101B80004F938F939F93EF93FF938091300182FD4A
:101B90001DC04091360120919D0530919E052F5F1B
:101BA0003F4F2F73307080919F059091A0052817AB
:101BB000390771F0E0919D05F0919E05E35AFA4FC7
:101BC000408330939E0520939D0502C0809136018D
:101BD000FF91EF919F918F914F913F912F910F9096
:101BE0000BBE0F900FBE0F901F901895E091F1055E
:101BF000F091F205E05CFF4F81919191208131815C
:101C0000821B930B8F739070892B09F0EFDEE091AC
:101C10001306F0911406E05CFF4F819191912081B1
:101C20003181821B930B8F739070892B09F01EDF1B
:101C3000E0913506F0913606E05CFF4F819191917D
:101C400020813181821B930B8F739070892B09F057
:101C50004DDFE0915706F0915806E05CFF4F81910F
:101C6000919120813181821B930B8F739070892B0E
:101C700009F07CCF08951F920F920FB60F920BB60A
:101C80000F9211242F933F938F939F93EF93FF9382
:101C90002091490430914A0480914B0490914C0466
:101CA0002817390731F48091C1008F7D8093C100DE
:101CB00014C0E0914B04F0914C04E75FFB4F20818E
:101CC00080914B0490914C0401968F739070909387
:101CD0004C0480934B042093C600FF91EF919F9199
:101CE0008F913F912F910F900BBE0F900FBE0F90D1
:101CF0001F9018951F920F920FB60F920BB60F926E
:101D000011242F933F938F939F93EF93FF932091F1
:101D1000D1043091D2048091D3049091D404281737
:101D2000390731F48091C9008F7D8093C90014C0B8
:101D3000E091D304F091D404EF56FB4F20818091C1
:101D4000D3049091D40401968F7390709093D4042F
:101D50008093D3042093CE00FF91EF919F918F91B8
:101D60003F912F910F900BBE0F900FBE0F901F90C1
:101D700018951F920F920FB60F920BB60F92112467
:101D80002F933F938F939F93EF93FF932091590548
:101D900030915A0580915B0590915C0528173907B1
:101DA00031F48091D1008F7D8093D10014C0E091F7
:101DB0005B05F0915C05E75EFA4F208180915B0541
:101DC00090915C0501968F73907090935C05809361
:101DD0005B052093D600FF91EF919F918F913F91EA
:101DE0002F910F900BBE0F900FBE0F901F90189564
:101DF0001F920F920FB60F920BB60F9211242F93D2
:101E00003F938F939F93EF93FF932091E105309140
:101E1000E2058091E3059091E4052817390731F434
:101E2000809131018F7D8093310114C0E091E305F1
:101E3000F091E405EF55FA4F20818091E3059091F0
:101E4000E40501968F7390709093E4058093E30509
:101E500020933601FF91EF919F918F913F912F91A8
:101E60000F900BBE0F900FBE0F901F901895AF9262
:101E7000BF92DF92EF92FF920F931F93CF93DF9366
:101E8000EC017A018B01DD24403081EE580780E0BF
:101E9000680780E0780711F0DD24D39491E0A92E43
:101EA000B12CEC89FD89DD2069F0C50108A002C0D4
:101EB000880F991F0A94E2F7808360E079E08DE350
:101EC00090E005C0108260E874E88EE190E0A8011F
:101ED000970101D4215030404040504056954795DD
:101EE0003795279580E12030380720F0DD2011F06C
:101EF000DD24D7CFE889F9893083EA89FB892083FB
:101F000019A2EE89FF89408121E030E0C9010C8CE3
:101F100002C0880F991F0A94E2F7482B4083EE898C
:101F2000FF894081C9010D8C02C0880F991F0A9456
:101F3000E2F7482B4083EE89FF894081C9010E8C6E
:101F400002C0880F991F0A94E2F7482B4083EE895C
:101F5000FF8980810F8C02C0220F331F0A94E2F7A1
:101F6000209528232083DF91CF911F910F91FF901F
:101F7000EF90DF90BF90AF900895DC011C96ED913B
:101F8000FC911D97E05CFF4F2191319180819181FF
:101F9000281B390B2F733070C9010895DC011C9682
:101FA000ED91FC911D97E05CFF4F20813181E05461
:101FB000F040DF01AE5BBF4F8D919C9111972817C8
:101FC000390719F42FEF3FEF07C08D919C91E80F6F
:101FD000F91F8081282F30E0C9010895DC011C968B
:101FE000ED91FC911D97E05CFF4F20813181E05421
:101FF000F040DF01AE5BBF4F8D919C911197281788
:10200000390719F42FEF3FEF10C08D919C91119774
:10201000E80FF91F20818D919C91119701968F7384
:10202000907011969C938E9330E0C9010895DC0165
:1020300091968C919197882339F05496ED91FC916B
:102040005597808186FFF9CF91961C920895CF9382
:10205000DF93EC01EE85FF85E05CFF4F208131814D
:10206000E054F0402F5F3F4F2F733070DF01AE5BC5
:10207000BF4F8D919C91119728173907D1F3E05CE0
:10208000FF4F80819181E054F040E80FF91F608399
:10209000EE85FF85E05CFF4F31832083EE89FF8969
:1020A000208181E090E00F8C02C0880F991F0A9474
:1020B000E2F7282B208381E089A3EC89FD898081C8
:1020C0008064808381E090E0DF91CF9108951F9339
:1020D0001092E8051092E70528EE33E040E050E06A
:1020E0002093E9053093EA054093EB055093EC0506
:1020F00062E472E07093E6056093E50585EC93E099
:102100009093F2058093F10589E094E09093F405B3
:102110008093F30585EC90E09093F6058093F505A8
:1021200084EC90E09093F8058093F70580EC90E0C4
:102130009093FA058093F90581EC90E09093FC056B
:102140008093FB0582EC90E09093FE058093FD0563
:1021500086EC90E0909300068093FF0514E01093C6
:102160000106B3E0B0930206A7E0A0930306F5E0F2
:10217000F0930406E1E0E093050610920A0610923F
:10218000090620930B0630930C0640930D065093DE
:102190000E0670930806609307068DE494E0909312
:1021A00014068093130681E994E0909316068093B9
:1021B00015068DEC90E090931806809317068CEC32
:1021C00090E090931A068093190688EC90E0909323
:1021D0001C0680931B0689EC90E090931E0680936A
:1021E0001D068AEC90E09093200680931F068EECEB
:1021F00090E0909322068093210610932306B093DB
:102200002406A0932506F0932606E0932706109255
:102210002C0610922B0620932D0630932E06409309
:102220002F065093300670932A066093290685ED99
:1022300094E0909336068093350689E195E090937B
:1022400038068093370685ED90E090933A068093A8
:10225000390684ED90E090933C0680933B0680ED38
:1022600090E090933E0680933D0681ED90E0909340
:10227000400680933F0682ED90E090934206809363
:10228000410686ED90E090934406809343061093B8
:102290004506B0934606A0934706F0934806E093A0
:1022A000490610924E0610924D0620934F06309329
:1022B0005006409351065093520670934C0660931B
:1022C0004B068DE595E0909358068093570681EA7A
:1022D00095E090935A068093590685E391E0909398
:1022E0005C0680935B0684E391E090935E068093A6
:1022F0005D0680E391E09093600680935F0681E342
:1023000091E0909362068093610682E391E090935E
:1023100064068093630686E391E09093660680935B
:10232000650610936706B0936806A0936906F0935C
:102330006A06E0936B061F910895CF93DF93E0D96F
:102340000E947006C6EFDDE00E9468062097E1F368
:102350004DDCFACFCF92DF92EF92FF920F931F9353
:10236000CF93DF937C016B018A01C0E0D0E00FC006
:10237000D6016D916D01D701ED91FC910190F08135
:10238000E02DC7011995C80FD91F01501040011544
:10239000110571F7CE01DF91CF911F910F91FF9041
:1023A000EF90DF90CF900895EF92FF920F931F93DD
:1023B0008C01DC01ED91FC910190F081E02D6DE04C
:1023C00019957C01D801ED91FC910190F081E02DEF
:1023D000C8016AE019959C012E0D3F1DC9011F918E
:1023E0000F91FF90EF900895CF93DF93EC0161156B
:1023F000710519F420E030E00FC0DB010D900020E2
:10240000E9F71197A61BB70BE881F9810280F381E8
:10241000E02DAD0119959C01C901DF91CF9108957F
:102420004F925F927F928F929F92AF92BF92CF9284
:10243000DF92EF92FF920F931F93DF93CF93CDB76D
:10244000DEB7A1970FB6F894DEBF0FBECDBF2C014B
:10245000742ECB01223008F42AE019A231E2C32EF7
:10246000D12CCC0EDD1E822E9924AA24BB24672DEC
:10247000752FA50194012FD179018A01C801B701F7
:10248000A5019401EAD0472D461B0894C108D10844
:102490004A3014F4405D01C0495CF6014083E11408
:1024A000F1040105110521F07E2C5F2DC801DFCF5D
:1024B000C201B60199DFA1960FB6F894DEBF0FBE38
:1024C000CDBFCF91DF911F910F91FF90EF90DF90E3
:1024D000CF90BF90AF909F908F907F905F904F90E4
:1024E0000895CF92DF92EF92FF920F931F93CF93B5
:1024F000DF93EC016A017B012115310541F4E8818C
:10250000F9810190F081E02D642F19951DC02A30CA
:102510003105C9F477FF16C0E881F9810190F08197
:10252000E02D6DE219958C0144275527BA014C190D
:102530005D096E097F09CE012AE072DF9801280F3C
:10254000391F03C02AE06CDF9C01C901DF91CF91E4
:102550001F910F91FF90EF90DF90CF900895EF9231
:10256000FF920F931F937C01BCDF8C01C7011CDF1E
:102570009C01200F311FC9011F910F91FF90EF9017
:102580000895EF92FF920F931F937B019A0100270A
:10259000F7FC0095102FB801A701A3DF1F910F9141
:1025A000FF90EF90089520CF0895EF92FF920F9340
:1025B0001F937C0119DF8C01C701F6DE080F191F7C
:1025C000C8011F910F91FF90EF9008952F923F92B5
:1025D0004F925F926F927F928F929F92AF92BF9233
:1025E000CF92DF92EF92FF920F931F93DF93CF93DF
:1025F000CDB7DEB73B014C0119012A016E897F89F5
:10260000888D998D6A197B098C099D09621A730A54
:10261000840A950AA401930120D0E218F308040962
:102620001509A801970179D02A0D3B1D4C1D5D1D90
:10263000B901CA01CF91DF911F910F91FF90EF90E7
:10264000DF90CF90BF90AF909F908F907F906F90D2
:102650005F904F903F902F900895629FD001739F9D
:10266000F001829FE00DF11D649FE00DF11D929F2E
:10267000F00D839FF00D749FF00D659FF00D99276D
:10268000729FB00DE11DF91F639FB00DE11DF91F91
:10269000BD01CF0111240895991B79E004C0991F51
:1026A000961708F0961B881F7A95C9F780950895AC
:1026B00097FB092E07260AD077FD04D049D006D013
:1026C00000201AF4709561957F4F0895F6F7909564
:1026D00081959F4F0895A1E21A2EAA1BBB1BFD01F5
:1026E0000DC0AA1FBB1FEE1FFF1FA217B307E407F1
:1026F000F50720F0A21BB30BE40BF50B661F771F49
:10270000881F991F1A9469F7609570958095909528
:102710009B01AC01BD01CF01089597FB092E052651
:102720000ED057FD04D0D7DF0AD0001C38F45095E6
:102730004095309521953F4F4F4F5F4F0895F6F7E5
:1027400090958095709561957F4F8F4F9F4F08951D
:10275000AA1BBB1B51E107C0AA1FBB1FA617B707C7
:1027600010F0A61BB70B881F991F5A95A9F78095E3
:102770009095BC01CD010895EE0FFF1F0590F491D7
:08278000E02D1994F894FFCF3D
:10278800456E636F646572206F75747075743A2056
:1027980000202C20696E74656772616C3A200075A0
:1027A8006E6C696B656C792076616C7565000000EC
:1027B8000000830A520A0B0A140A290A3A0A00007E
:0E27C80000002710AA11BD0FEE0FCE0F171044
:00000001FF
