:1000000002C100002DC100002BC1000029C1000069
:1000100027C1000025C1000023C1000021C100004C
:100020001FC100001DC100001BC1000019C100005C
:1000300017C1000015C1000013C1000011C100006C
:100040000FC100000DC100000BC1000009C100007C
:1000500007C1000005C1000003C1000049C4000041
:10006000FFC000003CC600007EC70000F9C00000D1
:10007000F7C00000F5C00000F3C00000F1C00000B0
:10008000EFC00000EDC00000EBC00000E9C00000C0
:1000900066C60000A7C70000E3C00000E1C0000082
:1000A000DFC00000DDC00000DBC00000D9C00000E0
:1000B000D7C00000D5C00000D3C00000D1C00000F0
:1000C000CFC00000CDC00000CBC0000088C600003B
:1000D000C8C70000C5C00000C2C600000C9470086C
:1000E000BFC0000000002100240027002A002D00CE
:1000F0003000330001010000040107010A01000083
:100100002200250028002B002E00310034000201BF
:100110000000050108010B0100002000230026005B
:1001200029002C002F00320000010000030106010D
:10013000090105050505070508080808020202026D
:100140000A0A080804040404010101010101010173
:100150000303030303030303040707070C0C0C0C3E
:100160000C0C0C0C02020202060606060606060627
:100170000B0B0B0B0B0B0B0B0102102020080810B4
:100180002040102040800201020108040201010207
:1001900004081020408080402010080402018004E0
:1001A000020180402010080402010804020101023B
:1001B0000408102040800102040810204080000044
:1001C000090A02080B0C0D070603040100000000D9
:1001D000000000000000000000000000000000001F
:1001E0000000000000000000000011100F000000DF
:1001F00000000000000000000000000000000000FF
:1002000000000000DF0911241FBECFEFD1E2DEBFE6
:10021000CDBF00E00CBF12E0A0E0B2E0E0E6F8E104
:1002200000E00BBF02C007900D92A832B107D9F7CA
:100230001BBE14E0A8E2B2E001C01D92A73FB107C7
:10024000E1F712E0C6E0D2E004C02297FE010E946E
:100250002A0CC430D107C9F70E94150B0C942E0C40
:10026000CFCE1F93182F85E360E006D583E08EBDC7
:100270000DB407FEFDCF8EB51EBD0DB407FEFDCF3C
:100280008EB51EBC0DB407FEFDCF1EB585E361E043
:10029000F3D4812F1F910895FF920F931F93182F6E
:1002A000062FF42E85E360E0E7D485E08EBD0DB423
:1002B00007FEFDCF8EB51EBD0DB407FEFDCF8EB57A
:1002C00081E090E002C0880F991F0A95E2F78EBD89
:1002D0000DB407FEFDCF8EB5FF2031F08FEF8EBD40
:1002E0000DB407FEFDCF04C01EBC0DB407FEFDCF4C
:1002F0008EB585E361E0C0D41F910F91FF90089502
:100300000F931F93182F062F85E360E0B5D482E08A
:100310008EBD0DB407FEFDCF8EB51EBD0DB407FE1C
:10032000FDCF8EB50EBD0DB407FEFDCF8EB585E3B6
:1003300061E0A2D41F910F9108958FE067E4E0DFA0
:1003400081E008951F938430910589F085309105EF
:100350001CF4039731F40DC08530910521F0069708
:1003600021F080E050C011E005C010E003C013E0B0
:1003700001C014E085E360E07FD482E08EBD0DB45F
:1003800007FEFDCF8EB58AE28EBD0DB407FEFDCF10
:100390008EB51F731EBD0DB407FEFDCF8EB585E370
:1003A00061E06AD485E360E067D482E08EBD0DB47D
:1003B00007FEFDCF8EB589E28EBD0DB407FEFDCFE1
:1003C0008EB581EB8EBD0DB407FEFDCF8EB585E3F6
:1003D00061E052D485E360E04FD482E08EBD0DB47D
:1003E00007FEFDCF8EB588E28EBD0DB407FEFDCFB2
:1003F0008EB585E08EBD0DB407FEFDCF8EB585E3CD
:1004000061E03AD481E01F910895AF92BF92CF92FC
:10041000DF92EF92FF920F931F93CF93DF93EC0144
:100420007A018B01ADD25B016C01AE0CBF1CC01E0A
:10043000D11E04C08CE215DF80FD08C0A1D26A1570
:100440007B058C059D05B0F380E0A6C080E609DF42
:1004500090E013E0969587951A95E1F781708D836A
:1004600081E6FFDE082F82E6FCDE682F90E09C012B
:10047000B5E035952795BA95E1F710E0A3E0000FB8
:10048000111FAA95E1F7202B312B40E050E0298382
:100490003A834B835C83F3E096958795FA95E1F771
:1004A00081708883882309F441C0862F90E0A0E002
:1004B000B0E083709070A070B070E2E0220F331F44
:1004C000441F551FEA95D1F7822B932BA42BB52BF4
:1004D00089839A83AB83BC8383E6C3DE90E0A0E08C
:1004E000B0E029813A814B815C81542F432F322F18
:1004F0002227822B932BA42BB52B89839A83AB8342
:10050000BC8384E6AEDE90E0A0E0B0E029813A81D1
:100510004B815C81542F432F322F2227822B932B28
:10052000A42BB52B89839A83AB83BC8389819A8161
:10053000AB81BC81BF7189839A83AB83BC8385E621
:1005400090DE8F708E8385E360E096D383E08EBD6E
:100550000DB407FEFDCF8EB586E68EBD0DB407FE49
:10056000FDCF8EB5FE0120E030E009C01EBC0DB409
:1005700007FEFDCF8EB587832F5F3F4F31968E816B
:1005800090E02817390794F385E361E075D38CE296
:1005900060E040E081DE81E0DF91CF911F910F911B
:1005A000FF90EF90DF90CF90BF90AF9008957F9233
:1005B0008F929F92AF92BF92CF92DF92EF92FF9273
:1005C0000F931F93DF93CF93CDB7DEB72F970FB65F
:1005D000F894DEBF0FBECDBF9A2CA982BA82CB821F
:1005E000DC82ED82EF2DFE82902F0F831887298702
:1005F0003A874B875C876D877E878F87EA80FB8091
:100600000C811D81792E8E2EBBD15B016C0188A1DE
:1006100099A1AAA1BBA1A80EB91ECA1EDB1E9920D2
:1006200079F48701B701E3E076956795EA95E1F7FC
:1006300081E366DE0295000F007E82E3602F28C012
:10064000A801970165E156954795379527956A95D5
:10065000D1F781E3622F54DE980144275527237098
:10066000D801C7013DE0B695A795979587953A952E
:10067000D1F7807E282B286082E3622F41DE552748
:10068000412F302F2F2D83E3622F3ADE84E36E2D2E
:1006900037DE672D6F708110606885E331DE85E39A
:1006A00060E0EAD282E08EBD0DB407FEFDCF8EB5CC
:1006B00086E38EBD0DB407FEFDCF8EB5FE013896E4
:1006C0009E01270D311D285F3F4F07C080818EBDE1
:1006D0000DB407FEFDCF8EB53196E217F307B1F7E3
:1006E00085E361E0C9D280E363E041E0D5DD06C087
:1006F0008CE2B7DD82FF02C011E007C041D16A156C
:100700007B058C059D05A0F310E080E363E040E0ED
:10071000C3DD8FE694E060E072E00E94E50B8CE2BE
:1007200062E040E0B9DD80E69CDD682F8FE694E072
:100730004AE050E00E94D40B812F2F960FB6F89418
:10074000DEBF0FBECDBFCF91DF911F910F91FF9004
:10075000EF90DF90CF90BF90AF909F908F907F9061
:100760000895CF93DF93EC01B1D085E361E0D1D15F
:1007700085E360E081D280EC8EBD0DB407FEFDCF35
:100780008EB585E361E078D264E670E080E090E0C9
:1007900005D18BE263E0B4DD80E666E041E07CDD1C
:1007A00080E665E041E078DD8EE05BDD90E0F5E03D
:1007B00095958795FA95E1F7843011F080E002C0B5
:1007C000CE01C0DDDF91CF910895AF92BF92CF925D
:1007D000DF92EF92FF920F931F9300D00F9288EE5B
:1007E00093E0A0E0B0E0EDB7FEB781839283A383EE
:1007F000B483A0902802B0902902C0902A02D09021
:100800002B02E0902C02F0902D0200912E0210910C
:100810002F022091300230913102409132025091EA
:100820003302609134027091350280913602BFDE4E
:100830000F900F900F900F900FE614E0C80162E048
:1008400072E0C3D787E392E048EE53E060E070E0E7
:10085000DCDDC80160913E024AE050E0A5D71F915F
:100860000F91FF90EF90DF90CF90BF90AF900895E1
:100870008FE694E040E855E260E070E070D483E0F9
:1008800090E06FDF81E059DD1092280285E690E06C
:10089000A0E0B0E08093290290932A02A0932B025B
:1008A000B0932C0288E080932E0210922D0285E0F6
:1008B00080933E028FE694E06EE072E086D7EFE22E
:1008C000F2E087E081938150E8F7089585E361E0E5
:1008D000D3D185E361E01DD18CB580618CBD8CB531
:1008E00080648CBD84E361E014D183E361E011C1D5
:1008F0001F920F920FB60F9211242F933F938F9355
:100900009F93AF93BF9380914A0290914B02A09125
:100910004C02B0914D0230914E020196A11DB11DC5
:10092000232F2D5F2D3720F02D570196A11DB11DCE
:1009300020934E0280934A0290934B02A0934C0264
:10094000B0934D028091460290914702A0914802D7
:10095000B09149020196A11DB11D8093460290936A
:100960004702A0934802B0934902BF91AF919F9173
:100970008F913F912F910F900FBE0F901F90189560
:100980008FB7F89420914A0230914B0240914C026B
:1009900050914D028FBFB901CA0108959B01AC016E
:1009A0007FB7F8948091460290914702A091480247
:1009B000B091490266B5A89B05C06F3F19F001963A
:1009C000A11DB11D7FBFBA2FA92F982F8827860F91
:1009D000911DA11DB11D62E0880F991FAA1FBB1FA9
:1009E0006A95D1F7BC012DC0FFB7F89480914602FB
:1009F00090914702A0914802B0914902E6B5A89BA8
:100A000005C0EF3F19F00196A11DB11DFFBFBA2F20
:100A1000A92F982F88278E0F911DA11DB11DE2E0EF
:100A2000880F991FAA1FBB1FEA95D1F7861B970B4A
:100A3000885E9340C8F22150304040405040685199
:100A40007C4F211531054105510571F608957894C3
:100A500084B5826084BD84B5816084BD85B58260C3
:100A600085BD85B5816085BDEEE6F0E08081816061
:100A70008083E1E8F0E01082808182608083808161
:100A800081608083E0E8F0E0808181608083E1EB39
:100A9000F0E0808184608083E0EBF0E08081816021
:100AA0008083E1E9F0E080818260808380818160E1
:100AB0008083E0E9F0E0808181608083E1EAF0E01A
:100AC000808182608083808181608083E0EAF0E0C1
:100AD000808181608083E1E2F1E0808182608083B7
:100AE000808181608083E0E2F1E0808181608083A9
:100AF000EAE7F0E080818460808380818260808387
:100B00008081816080838081806880831092C100B1
:100B10000895CF93DF93482F50E0CA0188589E4F25
:100B2000FC0134914E5C5E4FFA018491882369F197
:100B300090E0880F991FFC01EC51FF4FA591B491F3
:100B4000FC01E250FF4FC591D491662351F42FB7B9
:100B5000F8948C91932F909589238C938881892385
:100B60000BC0623061F42FB7F8948C91932F90955D
:100B700089238C938881832B88832FBF06C09FB7DE
:100B8000F8948C91832B8C939FBFDF91CF91089524
:100B9000893009F449C08A30A0F4843051F185309D
:100BA00040F4823079F1833000F5813009F063C080
:100BB00026C0873079F1883098F5863009F05BC01F
:100BC00025C08D3009F442C08E3028F48B30B1F14D
:100BD0008C30C0F52DC0803109F442C0813109F458
:100BE00045C08F3009F047C037C0809180008F77B3
:100BF00003C0809180008F7D80938000089584B52C
:100C00008F7702C084B58F7D84BD08958091B00038
:100C10008F7703C08091B0008F7D8093B0000895DE
:100C2000809190008F7707C0809190008F7D03C0E6
:100C300080919000877F8093900008958091A0001C
:100C40008F7707C08091A0008F7D03C08091A000A6
:100C5000877F8093A0000895809120018F7703C043
:100C6000809120018F7D8093200108958091200143
:100C7000877F809320010895FF920F931F93F62E94
:100C8000482F50E0CA0182549E4FFC012491CA01B2
:100C900088589E4FFC0114914E5C5E4FFA010491FE
:100CA0000023C1F0222311F0822F72DFE02FF0E049
:100CB000EE0FFF1FE250FF4FA591B4919FB7F8943C
:100CC000FF2021F48C911095812302C08C91812BFF
:100CD0008C939FBF1F910F91FF90089508951F92CD
:100CE0000F920FB60F920BB60F9211242F933F93D2
:100CF0004F938F939F93EF93FF938091C00082FD5A
:100D00001DC04091C60020918F02309190022F5F4C
:100D10003F4F2F733070809191029091920228176B
:100D2000390771F0E0918F02F0919002E15BFD4F85
:100D300040833093900220938F0202C08091C600BE
:100D4000FF91EF919F918F914F913F912F910F9034
:100D50000BBE0F900FBE0F901F90189508951F9215
:100D60000F920FB60F920BB60F9211242F933F9351
:100D70004F938F939F93EF93FF938091C80082FDD1
:100D80001DC04091CE0020911703309118032F5FB2
:100D90003F4F2F7330708091190390911A032817D9
:100DA000390771F0E0911703F0911803E952FD4FF4
:100DB0004083309318032093170302C08091CE0024
:100DC000FF91EF919F918F914F913F912F910F90B4
:100DD0000BBE0F900FBE0F901F90189508951F9295
:100DE0000F920FB60F920BB60F9211242F933F93D1
:100DF0004F938F939F93EF93FF938091D00082FD49
:100E00001DC04091D60020919F033091A0032F5F19
:100E10003F4F2F7330708091A1039091A203281748
:100E2000390771F0E0919F03F091A003E15AFC4F64
:100E300040833093A00320939F0302C08091D6008B
:100E4000FF91EF919F918F914F913F912F910F9033
:100E50000BBE0F900FBE0F901F90189508951F9214
:100E60000F920FB60F920BB60F9211242F933F9350
:100E70004F938F939F93EF93FF938091300182FD67
:100E80001DC04091360120912704309128042F5F26
:100E90003F4F2F7330708091290490912A042817B6
:100EA000390771F0E0912704F0912804E951FC4FD3
:100EB0004083309328042093270402C08091360198
:100EC000FF91EF919F918F914F913F912F910F90B3
:100ED0000BBE0F900FBE0F901F901895E0917B04F2
:100EE000F0917C04E05CFF4F8191919120813181F0
:100EF000821B930B8F739070892B09F0EFDEE091CA
:100F00009D04F0919E04E05CFF4F819191912081BE
:100F10003181821B930B8F739070892B09F01EDF38
:100F2000E091BF04F091C004E05CFF4F819191918A
:100F300020813181821B930B8F739070892B09F074
:100F40004DDFE091E104F091E204E05CFF4F81911C
:100F5000919120813181821B930B8F739070892B2B
:100F600009F07CCF08951F920F920FB60F920BB627
:100F70000F9211242F933F938F939F93EF93FF939F
:100F80002091D3023091D4028091D5029091D60263
:100F90002817390731F48091C1008F7D8093C100FB
:100FA00014C0E091D502F091D602ED56FD4F20819C
:100FB0008091D5029091D60201968F739070909394
:100FC000D6028093D5022093C600FF91EF919F91A6
:100FD0008F913F912F910F900BBE0F900FBE0F90EE
:100FE0001F9018951F920F920FB60F920BB60F928B
:100FF00011242F933F938F939F93EF93FF9320910F
:101000005B0330915C0380915D0390915E03281730
:10101000390731F48091C9008F7D8093C90014C0D5
:10102000E0915D03F0915E03E55EFC4F20818091CD
:101030005D0390915E0301968F73907090935E03B1
:1010400080935D032093CE00FF91EF919F918F914C
:101050003F912F910F900BBE0F900FBE0F901F90DE
:1010600018951F920F920FB60F920BB60F92112484
:101070002F933F938F939F93EF93FF932091E303DD
:101080003091E4038091E5039091E6032817390736
:1010900031F48091D1008F7D8093D10014C0E09114
:1010A000E503F091E603ED55FC4F20818091E503C7
:1010B0009091E60301968F7390709093E60380936E
:1010C000E5032093D600FF91EF919F918F913F917F
:1010D0002F910F900BBE0F900FBE0F901F90189581
:1010E0001F920F920FB60F920BB60F9211242F93EF
:1010F0003F938F939F93EF93FF9320916B043091D5
:101100006C0480916D0490916E042817390731F4B6
:10111000809131018F7D8093310114C0E0916D0485
:10112000F0916E04E55DFB4F208180916D049091FC
:101130006E0401968F73907090936E0480936D048B
:1011400020933601FF91EF919F918F913F912F91C5
:101150000F900BBE0F900FBE0F901F901895AF927F
:10116000BF92DF92EF92FF920F931F93CF93DF9383
:10117000EC017A018B01DD24403081EE580780E0DC
:10118000680780E0780711F0DD24D39491E0A92E60
:10119000B12CEC89FD89DD2069F0C50108A002C0F1
:1011A000880F991F0A94E2F7808360E079E08DE36D
:1011B00090E005C0108260E874E88EE190E0A8013C
:1011C000970124D3215030404040504056954795D8
:1011D0003795279580E12030380720F0DD2011F089
:1011E000DD24D7CFE889F9893083EA89FB89208318
:1011F00019A2EE89FF89408121E030E0C9010C8C01
:1012000002C0880F991F0A94E2F7482B4083EE89A9
:10121000FF894081C9010D8C02C0880F991F0A9473
:10122000E2F7482B4083EE89FF894081C9010E8C8B
:1012300002C0880F991F0A94E2F7482B4083EE8979
:10124000FF8980810F8C02C0220F331F0A94E2F7BE
:10125000209528232083DF91CF911F910F91FF903C
:10126000EF90DF90BF90AF900895DC011C96ED9158
:10127000FC911D97E05CFF4F21913191808191811C
:10128000281B390B2F733070C9010895DC011C969F
:10129000ED91FC911D97E05CFF4F20813181E0547E
:1012A000F040DF01AE5BBF4F8D919C9111972817E5
:1012B000390719F42FEF3FEF07C08D919C91E80F8C
:1012C000F91F8081282F30E0C9010895DC011C96A8
:1012D000ED91FC911D97E05CFF4F20813181E0543E
:1012E000F040DF01AE5BBF4F8D919C9111972817A5
:1012F000390719F42FEF3FEF10C08D919C91119792
:10130000E80FF91F20818D919C91119701968F73A1
:10131000907011969C938E9330E0C9010895DC0182
:1013200091968C919197882339F05496ED91FC9188
:101330005597808186FFF9CF91961C920895CF939F
:10134000DF93EC01EE85FF85E05CFF4F208131816A
:10135000E054F0402F5F3F4F2F733070DF01AE5BE2
:10136000BF4F8D919C91119728173907D1F3E05CFD
:10137000FF4F80819181E054F040E80FF91F6083B6
:10138000EE85FF85E05CFF4F31832083EE89FF8986
:10139000208181E090E00F8C02C0880F991F0A9491
:1013A000E2F7282B208381E089A3EC89FD898081E5
:1013B0008064808381E090E0DF91CF9108951F9356
:1013C000109272041092710428EE33E040E050E075
:1013D00020937304309374044093750450937604FF
:1013E0006BE172E07093700460936F048FE492E09D
:1013F00090937C0480937B0483E992E090937E0435
:1014000080937D0485EC90E09093800480937F042A
:1014100084EC90E0909382048093810480EC90E0CF
:10142000909384048093830481EC90E090938604ED
:101430008093850482EC90E09093880480938704E5
:1014400086EC90E090938A048093890414E01093D2
:101450008B04B3E0B0938C04A7E0A0938D04F5E077
:10146000F0938E04E1E0E0938F04109294041092C4
:1014700093042093950430939604409397045093DB
:101480009804709392046093910487ED92E0909396
:101490009E0480939D048BE193E09093A00480933D
:1014A0009F048DEC90E09093A2048093A1048CECB7
:1014B00090E09093A4048093A30488EC90E0909330
:1014C000A6048093A50489EC90E09093A8048093EF
:1014D000A7048AEC90E09093AA048093A9048EEC70
:1014E00090E09093AC048093AB041093AD04B09360
:1014F000AE04A093AF04F093B004E093B104109253
:10150000B6041092B5042093B7043093B804409306
:10151000B9045093BA047093B4046093B3048FE594
:1015200093E09093C0048093BF0483EA93E0909388
:10153000C2048093C10485ED90E09093C40480932D
:10154000C30484ED90E09093C6048093C50480EDBD
:1015500090E09093C8048093C70481ED90E090934D
:10156000CA048093C90482ED90E09093CC048093E8
:10157000CB0486ED90E09093CE048093CD0410933D
:10158000CF04B093D004A093D104F093D204E0939D
:10159000D3041092D8041092D7042093D904309326
:1015A000DA044093DB045093DC047093D604609318
:1015B000D50487EE93E09093E2048093E1048BE2FC
:1015C00094E09093E4048093E30485E391E09093A6
:1015D000E6048093E50484E391E09093E80480932B
:1015E000E70480E391E09093EA048093E90481E3C7
:1015F00091E09093EC048093EB0482E391E090936C
:10160000EE048093ED0486E391E09093F0048093E0
:10161000EF041093F104B093F204A093F304F09359
:10162000F404E093F5041F910895CF93DF930FDA4C
:101630001FD9CEE6D7E0C9D82097E9F34FDCFBCF1E
:10164000CF92DF92EF92FF920F931F93CF93DF938E
:101650007C016B018A01C0E0D0E00FC0D6016D9122
:101660006D01D701ED91FC910190F081E02DC70152
:101670001995C80FD91F015010400115110571F7B8
:10168000CE01DF91CF911F910F91FF90EF90DF90EE
:10169000CF900895CF93DF93EC016115710519F494
:1016A00020E030E00FC0DB010D900020E9F711973A
:1016B000A61BB70BE881F9810280F381E02DAD0113
:1016C00019959C01C901DF91CF9108954F925F92C6
:1016D0007F928F929F92AF92BF92CF92DF92EF92C2
:1016E000FF920F931F93DF93CF93CDB7DEB7A197F0
:1016F0000FB6F894DEBF0FBECDBF2C01742ECB0108
:10170000223008F42AE019A231E2C32ED12CCC0EEB
:10171000DD1E822E9924AA24BB24672D752FA501D6
:10172000940174D079018A01C801B701A50194011F
:101730004ED0472D461B0894C108D1084A3014F4F6
:10174000405D01C0495CF6014083E114F1040105EC
:10175000110521F07E2C5F2DC801DFCFC201B6013B
:1017600099DFA1960FB6F894DEBF0FBECDBFCF9123
:10177000DF911F910F91FF90EF90DF90CF90BF907E
:10178000AF909F908F907F905F904F900895DC0175
:101790002115310541F4ED91FC910190F081E02D8E
:1017A000642F1995089592CFEF92FF920F931F9394
:1017B0009A01E62EFF2400E010E0B801A701E7DF60
:1017C0001F910F91FF90EF90089564CF0895629F4D
:1017D000D001739FF001829FE00DF11D649FE00D29
:1017E000F11D929FF00D839FF00D749FF00D659F8A
:1017F000F00D9927729FB00DE11DF91F639FB00D89
:10180000E11DF91FBD01CF0111240895A1E21A2E97
:10181000AA1BBB1BFD010DC0AA1FBB1FEE1FFF1F94
:10182000A217B307E407F50720F0A21BB30BE40BE4
:10183000F50B661F771F881F991F1A9469F760952B
:101840007095809590959B01AC01BD01CF010895E5
:10185000EE0FFF1F0590F491E02D1994F894FFCF3F
:1018600020006D6F747461723A20202020006D6F2B
:10187000747461723A2000000000009F09200B354B
:0818800009660946098F090001
:00000001FF
