:1000000004C100002FC100002DC100002BC1000061
:1000100029C1000027C1000025C1000023C1000044
:1000200021C100001FC100001DC100001BC1000054
:1000300019C1000017C1000015C1000013C1000064
:1000400011C100000C94C5080DC100000BC10000D7
:1000500009C1000007C1000005C100000C94D309CC
:1000600001C100000C94F90B0C943D0DFBC0000085
:10007000F9C00000F7C00000F5C00000F3C00000A8
:100080000C949808EFC00000EDC00000EBC0000029
:100090000C94390C0C947C0DE5C0000054C1000098
:1000A000E1C00000DFC000000C946B08DBC0000062
:1000B000D9C00000D7C00000D5C00000DFC70000D5
:1000C000D1C00000CFC00000CDC000000C94790C5E
:1000D0000C94BB0DC7C000000C94B90C0C94FA0D25
:1000E000C1C0000000002100240027002A002D00CC
:1000F0003000330001010000040107010A01000083
:100100002200250028002B002E00310034000201BF
:100110000000050108010B0100002000230026005B
:1001200029002C002F00320000010000030106010D
:10013000090105050505070508080808020202026D
:100140000A0A080804040404010101010101010173
:100150000303030303030303040707070C0C0C0C3E
:100160000C0C0C0C02020202060606060606060627
:100170000B0B0B0B0B0B0B0B0102102020080810B4
:100180002040102040800201020108040201010207
:1001900004081020408080402010080402018004E0
:1001A000020180402010080402010804020101023B
:1001B0000408102040800102040810204080000044
:1001C000090A02080B0C0D070603040100000000D9
:1001D000000000000000000000000000000000001F
:1001E0000000000000000000000011100F000000DF
:1001F00000000000000000000000000000000000FF
:100200000000000047053E09690F11241FBECFEF13
:10021000D1E2DEBFCDBF00E00CBF12E0A0E0B2E053
:10022000EAE1F5E200E00BBF02C007900D92A036B4
:10023000B107D9F71BBE16E0A0E6B2E001C01D92DF
:10024000AE38B107E1F712E0CAE0D2E004C022976D
:10025000FE010E948712C430D107C9F70E949F1087
:100260000C948B12CDCE0F931F93582F122F413227
:1002700010F081E04AC0809160028823E1F782E0BB
:1002800080936002009362028FEF8093CD02109200
:10029000880240938902A8E6B2E0FB0102C0819186
:1002A0008D938E2F861B8417D0F31092610280915C
:1002B0006102550F852B809361028091630281302A
:1002C00041F410926302809161028093BB0085EC3F
:1002D00001C085EE8093BC00112321F08091600263
:1002E0008230E1F38091CD028F3F11F480E00DC0A8
:1002F0008091CD02803211F482E007C08091CD025E
:10030000803311F084E001C083E01F910F910895C4
:10031000482F613210F081E00895809160028430AE
:1003200011F082E008956093AB02AAE8B2E0842F56
:100330009C01F90102C081918D938E2F841B861739
:10034000D0F380E008951F920F920FB60F920BB674
:100350000F9211242F933F934F935F936F937F934B
:100360008F939F93AF93BF93EF93FF938091B900C7
:1003700090E0887F90708036910509F4F2C0813654
:100380009105CCF58832910509F47BC0893291053D
:10039000B4F48031910509F46FC0813191053CF4CA
:1003A000009709F447C1089709F04FC165C088312B
:1003B000910509F466C0809709F047C182C0803476
:1003C000910509F4A4C08134910544F4803391056A
:1003D00009F482C0C89709F038C189C080359105F9
:1003E00009F489C08835910509F496C088349105CF
:1003F00009F02BC1AEC08839910509F413C18939C0
:100400009105ECF48837910509F4ABC08937910563
:100410004CF48836910509F4A4C08037910509F0A1
:1004200014C19FC08838910509F4FCC0803991053A
:1004300009F49DC08038910509F007C198C0803B40
:10044000910509F4C6C0813B91054CF4803A9105B1
:1004500009F49FC0883A910509F0F7C0BAC0803C02
:10046000910509F4E3C0883C910509F4DFC0883B9D
:10047000910509F0EAC0C2C0809161028093BB007F
:10048000CFC09091880280918902981768F490916A
:100490008802E92FF0E0E859FD4F80818093BB008E
:1004A0009F5F90938802BCC080916202882309F408
:1004B0004BC085ED8093BC008091BC0084FDFCCFD7
:1004C000C2C080E28093CD0285ED8093BC00809114
:1004D000BC0084FDFCCFB7C080E38093CD0285EDE6
:1004E0008093BC008091BC0084FDFCCFACC088E34D
:1004F0008093CD029BC0809188029091BB00E82F31
:10050000F0E0E859FD4F90838F5F809388029091CF
:1005100088028091890282C0809188029091BB00FC
:10052000E82FF0E0E859FD4F90838F5F80938802B9
:1005300080916202882341F085ED8093BC00809118
:10054000BC0084FDFCCF7FC081E08093630284EA1D
:100550006EC085ED8093BC008091BC0084FDFCCF13
:1005600072C083E0809360021092CC0259C08091E7
:10057000CC02803208F056C08091CC029091BB0032
:10058000E82FF0E0E455FD4F90838F5F8093CC021D
:1005900047C08091CC02803230F4E091CC02F0E090
:1005A000E455FD4F108285ED8093BC008091BC0026
:1005B00084FDFCCF109260026091CC02E091660253
:1005C000F09167028CEA92E070E019951092CC02EB
:1005D0002DC084E0809360021092AA021092AB02B8
:1005E000E0916402F091650219958091AB02882335
:1005F00029F481E08093AB0210928A029091AA02C2
:10060000E92FF0E0E657FD4F80818093BB009F5FAC
:100610009093AA029091AA028091AB02981710F4CD
:1006200085EC01C085E88093BC000FC085EC809309
:10063000BC0009C01092CD0285ED8093BC00809172
:10064000BC0084FDFCCF10926002FF91EF91BF913E
:10065000AF919F918F917F916F915F914F913F915A
:100660002F910F900BBE0F900FBE0F901F901895FB
:100670001092600281E0809362021092630284E132
:1006800061E00E94970B85E161E00E94970BE9EB26
:10069000F0E080818E7F808380818D7F808388E4FD
:1006A0008093B80085E48093BC000895FF920F9377
:1006B0001F93F82E01ED13E0C80168E270E0A4D5A5
:1006C000C80160E022D6C8016F2D1FD6C80160D6D0
:1006D0001F910F91FF9008950F931F9386E361E0A0
:1006E00073D787E361E070D788E361E06DD789E372
:1006F00061E06AD78AE361E067D78BE361E064D7A2
:100700008CE361E061D78DE361E05ED78EE361E069
:100710005BD78FE361E058D780E461E055D78BE386
:1007200061E00E94970B01ED13E0C80133D6C801C8
:1007300068E270E069D5C80161E0E7D5C8016FE7FC
:10074000E4D5C80125D61F910F9108951F93182F46
:1007500085E360E0ECD783E08EBD0DB407FEFDCFEE
:100760008EB51EBD0DB407FEFDCF8EB51EBC0DB4FB
:1007700007FEFDCF1EB585E361E0D9D7812F1F911C
:100780000895FF920F931F93182F062FF42E85E3E1
:1007900060E0CDD785E08EBD0DB407FEFDCF8EB5F0
:1007A0001EBD0DB407FEFDCF8EB581E090E002C006
:1007B000880F991F0A95E2F78EBD0DB407FEFDCF95
:1007C0008EB5FF2031F08FEF8EBD0DB407FEFDCF4B
:1007D00004C01EBC0DB407FEFDCF8EB585E361E0FD
:1007E000A6D71F910F91FF9008950F931F93182F75
:1007F000062F85E360E09BD782E08EBD0DB407FE37
:10080000FDCF8EB51EBD0DB407FEFDCF8EB50EBD5E
:100810000DB407FEFDCF8EB585E361E088D71F914B
:100820000F9108951F93182F8BE263E0DEDF110F05
:10083000110F110F17608FE0612FD7DF8EE086DF79
:1008400020E090E045E0959587954A95E1F788236B
:1008500009F421E0822F1F910895AF92BF92CF92A9
:10086000DF92EF92FF920F931F93CF93DF93EC01F0
:100870007A018B01E0D55B016C01AE0CBF1CC01E80
:10088000D11E06C08CE262DF80FD0AC081FDD7C0A8
:10089000D2D56A157B058C059D05A0F380E0C4C008
:1008A00080E654DF00E010E090E023E09695879525
:1008B0002A95E1F781708D830115110529F481E6F0
:1008C00045DFE82E82E604C081E740DFE82E82E7BC
:1008D0003DDFE82F90E0AC01B5E055954795BA951E
:1008E000E1F72E2D30E0A3E0220F331FAA95E1F7A8
:1008F000422B532B60E070E049835A836B837C83E7
:10090000F3E096958795FA95E1F7817088838823BF
:1009100009F441C08E2F90E0A0E0B0E083709070A9
:10092000A070B070E2E0440F551F661F771FEA9574
:10093000D1F7842B952BA62BB72B89839A83AB8376
:10094000BC8383E603DF90E0A0E0B0E029813A8138
:100950004B815C81542F432F322F2227822B932BE4
:10096000A42BB52B89839A83AB83BC8384E6EEDE0C
:1009700090E0A0E0B0E029813A814B815C81542F66
:10098000432F322F2227822B932BA42BB52B898325
:100990009A83AB83BC8389819A81AB81BC81BF710F
:1009A00089839A83AB83BC830115110511F485E615
:1009B00001C085E7CBDE8F708E8385E360E0B7D61C
:1009C00083E08EBD0DB407FEFDCF8EB50115110578
:1009D00051F486E68EBD0DB407FEFDCF8EB5FE0147
:1009E00020E030E00FC086E78EBD0DB407FEFDCFDE
:1009F000F5CF1EBC0DB407FEFDCF8EB587832F5FEC
:100A00003F4F31968E8190E02817390794F385E3A4
:100A100061E08DD6012B19F48CE260E002C08CE21B
:100A200061E040E0AEDE81E0DF91CF911F910F9158
:100A3000FF90EF90DF90CF90BF90AF90089580E748
:100A400085DE01E010E030CFCDD385E361E0BCD599
:100A500085E360E06CD680EC8EBD0DB407FEFDCF63
:100A60008EB585E361E063D664E670E080E090E0F7
:100A7000F0D48EE06BDE20E090E035E09595879530
:100A80003A95E1F7843009F421E0822F08958EEE43
:100A900092E0C3C086E096E040E052EC61E070E096
:100AA0000E94390E86E090E0CFDF81E0BBDE83E17B
:100AB00060E08AD51092CE0285E690E0A0E0B0E03A
:100AC0008093CF029093D002A093D102B093D20230
:100AD00088E08093D4021092D30285E08093E402F0
:100AE000E5EDF2E087E081938150E8F78EEE92E049
:100AF00069E070E0FED1F0CD8EEC92E048EE53E07C
:100B000060E070E0AADE8091D60290E024E230E05E
:100B1000AC01429FC001439F900D529F900D112444
:100B200063E370E00E9421129B01CB018855904045
:100B3000059710F42AE530E0C90108958091D802A4
:100B40008823A1F48091F2029091F302A091F40223
:100B5000B091F5020196A11DB11D8093F202909310
:100B6000F302A093F402B093F50208C01092F202CF
:100B70001092F3021092F4021092F5028091F202A8
:100B80009091F302A091F402B091F5024997A1056A
:100B9000B10559F46091F1026F5F6093F10286E054
:100BA00096E04AE050E00C94911108951F93182F9D
:100BB00086E096E0612F4AE050E00E94801117FD28
:100BC00005C08CE361E0B3D5109503C08CE360E011
:100BD000AED5110F86E096E06DE372E00E94AD1194
:100BE00086E096E0612F4AE050E00E949111812F4B
:100BF0005DDD1F91089583E1CCD5892B69F47CDFFD
:100C0000BC019093ED028093EC028EEE92E05BD0FB
:100C100095DF8091D502CACF0895FC018091F6023C
:100C2000803390F480838F5F8093F602815090E050
:100C3000FC01EE0FFF1FE80FF91FE950FD4F88EB95
:100C40009BE09283818308958FEF80830895FC0158
:100C500020812033B8F58181992787FD90954AEF4F
:100C600050E0481B590B440F551F440F551F641784
:100C7000750784F08281992787FD90954FE352E0B4
:100C8000481B590B440F551F440F551F6417750718
:100C90000CF4AB0142505040CA01AA2797FDA09521
:100CA000BA2F880F991FAA1FBB1F4FB7F89430E0C7
:100CB000F901EE0FFF1FE20FF31FE950FD4F928382
:100CC00081834FBF0895AF92BF92CF92DF92EF9290
:100CD000FF920F931F93CF93DF93EC019B0183E06F
:100CE000683E78070CF048C077FF03C020E030E092
:100CF00005C0653B710514F024EB30E000D00F9285
:100D0000B901882777FD8095982F2981332727FD02
:100D10003095EAEFAE2EB12CA21AB30AAA0CBB1C76
:100D2000AA0CBB1CCC24B7FCC094DC2CEA81FF27A6
:100D3000E7FDF0952FE332E02E1B3F0B220F331F10
:100D4000220F331F442737FD4095542FEDB7FEB7D0
:100D5000218332834383548320E030E040E050E03D
:100D600004EBE02EF12C012D112D0E94AF119B01FF
:100D70000F900F900F900F90CE01B90168DFDF91B7
:100D8000CF911F910F91FF90EF90DF90CF90BF9088
:100D9000AF900895CF92DF92EF92FF921F93CF937F
:100DA000DF93EC01162F7A0169018881803308F006
:100DB00092C0862F61E008D4888190E0FC01EE0F9C
:100DC000FF1FE80FF91FE950FD4F1F738081807CE2
:100DD000812B808388EE93E08E199F0964E070E098
:100DE0000E94211269838CEF98E08C199D0964E0C0
:100DF00070E00E9421126A83A8818A2F6CE00E9411
:100E00001512682F70E0AB01440F551F460F571F96
:100E1000440F551F440F551F20E030E0C901840FD7
:100E2000951FFC01EE0FFF1FE80FF91FE950FD4F62
:100E3000808186FD44C02F5F3F4F2C30310571F714
:100E400053C01092800082E0809381001092850050
:100E500010928400B19A80916F00826080936F003D
:100E60002EC06230710569F41092900082E0809388
:100E70009100109295001092940088BB80937100AD
:100E80001EC06330710569F41092A00082E0809367
:100E9000A1001092A5001092A40089BB809372005B
:100EA0000EC0672B61F41092200182E08093210133
:100EB00010922501109224018ABB809373008A2F1F
:100EC00090E0FC01EE0FFF1FE80FF91FE950FD4F06
:100ED0008081806480838881DF91CF911F91FF9012
:100EE000EF90DF90CF9008956130710509F0B9CF90
:100EF000A8CF48EE53E02CEF38E04CCFEF92FF92B2
:100F00000F931F93CF93DF938B017A01EC01DC01E8
:100F1000A957BC4F8C9187FF04C0FB01118210823E
:100F200036C0AE01440F551F4C0F5D1F440F551FB7
:100F3000440F551F2C91332727FD3095240F351F63
:100F40008091F60290E0281739070CF58C919927CB
:100F500087FD9095840F951FFC01EE0FFF1FE80F92
:100F6000F91FE950FD4F808186FF11C08C919927B0
:100F700087FD9095840F951FFC01EE0FFF1FE80F72
:100F8000F91FE950FD4F80818F7360E0D0D3DE01FF
:100F9000A957BC4F8C918F5F8C93AE01440F551FA6
:100FA0004C0F5D1F440F551F440F551F2C913327C5
:100FB00027FD3095240F351F8091F60290E0281709
:100FC00039070CF04CC08C918C300CF048C0F80103
:100FD000208131818C91992787FD9095840F951FF1
:100FE000FC01EE0FFF1FE80FF91FE950FD4F818153
:100FF0009281280F391FF701318320838C91992723
:1010000087FD9095840F951FFC01EE0FFF1FE80FE1
:10101000F91FE950FD4F808186FF29C08C919927E7
:1010200087FD9095840F951FFC01EE0FFF1FE80FC1
:10103000F91FE950FD4F80818F7361E078D317C0AD
:1010400080E49CE904C0F801808191810496F70155
:1010500091838083C957DC4F8FEF888308C0F801E4
:1010600080819181049680549C4950F3ECCFDF91AC
:10107000CF911F910F91FF90EF9008951F920F92C3
:101080000FB60F920BB60F9211242F933F934F93ED
:101090005F936F937F938F939F93AF93BF93EF93E0
:1010A000FF9380E090E064E271E048E251E026DFE7
:1010B000FF91EF91BF91AF919F918F917F916F9130
:1010C0005F914F913F912F910F900BBE0F900FBEEC
:1010D0000F901F9018951F920F920FB60F920BB69C
:1010E0000F9211242F933F934F935F936F937F93AE
:1010F0008F939F93AF93BF93EF93FF9383E090E021
:1011000064EA70E048EA50E0F9DEFF91EF91BF91A8
:10111000AF919F918F917F916F915F914F913F918F
:101120002F910F900BBE0F900FBE0F901F90189530
:101130001F920F920FB60F920BB60F9211242F939E
:101140003F934F935F936F937F938F939F93AF934F
:10115000BF93EF93FF9382E090E064E970E048E989
:1011600050E0CCDEFF91EF91BF91AF919F918F91B5
:101170007F916F915F914F913F912F910F900BBE97
:101180000F900FBE0F901F9018951F920F920FB6E1
:101190000F920BB60F9211242F933F934F935F93AF
:1011A0006F937F938F939F93AF93BF93EF93FF932F
:1011B00081E090E064E870E048E850E09FDEFF9155
:1011C000EF91BF91AF919F918F917F916F915F91BF
:1011D0004F913F912F910F900BBE0F900FBE0F902C
:1011E0001F90189585E361E0A2D285E361E0ECD120
:1011F0008CB580618CBD8CB580648CBD84E361E06E
:10120000E3D183E361E0E0C181E08093D0036093A8
:10121000AD031092CE031092CF0308952091AC033A
:1012200030E08091AB03281B3109C901089540913A
:10123000AB038091AC03481718F02FEF3FEF0AC0C3
:10124000E42FF0E0E557FC4F8081282F30E04F5F1E
:101250004093AB03C9010895E091AB038091AC03C7
:10126000E81718F0EFEFFFEF06C0F0E0E557FC4F8E
:101270008081E82FF0E0CF01089508951092D40303
:101280001092D30388EE93E0A0E0B0E08093D50302
:101290009093D603A093D703B093D80384E492E04D
:1012A0009093D2038093D1030895CF92DF92EF926F
:1012B000FF920F931F93CF93DF937C016B018A0101
:1012C0008091D0038823A1F0C0E0D0E00DC0D70109
:1012D000ED91FC91D601AC0FBD1F0190F081E02D86
:1012E000C7016C9119952196C017D10780F303C0EF
:1012F000CB01642F0DD8C801DF91CF911F910F91C1
:10130000FF90EF90DF90CF900895DF93CF930F92EF
:10131000CDB7DEB7FC0169838091D0038823C9F083
:101320008091CF03803238F081E090E09383828314
:1013300020E030E015C08091CE03E82FF0E0E255C8
:10134000FC4F998190838F5F8093CE038093CF036E
:1013500005C0CE01019661E00E94880121E030E0E5
:10136000C9010F90CF91DF9108950F93062F8091BF
:10137000AD036EEA73E04091CF0321E00E94330198
:101380001092CE031092CF031092D0030F910895C4
:1013900061E0EBCF1092AB031092AC031092CE033E
:1013A0001092CF0365C91F920F920FB60F921124AE
:1013B0002F933F938F939F93AF93BF938091E103BC
:1013C0009091E203A091E303B091E4033091E5032F
:1013D0000196A11DB11D232F2D5F2D3720F02D5714
:1013E0000196A11DB11D2093E5038093E103909325
:1013F000E203A093E303B093E4038091DD039091B3
:10140000DE03A091DF03B091E0030196A11DB11DA1
:101410008093DD039093DE03A093DF03B093E0039A
:10142000BF91AF919F918F913F912F910F900FBEE0
:101430000F901F9018958FB7F8942091E103309189
:10144000E2034091E3035091E4038FBFB901CA0165
:1014500008959B01AC017FB7F8948091DD039091D2
:10146000DE03A091DF03B091E00366B5A89B05C041
:101470006F3F19F00196A11DB11D7FBFBA2FA92F93
:10148000982F8827860F911DA11DB11D62E0880F3E
:10149000991FAA1FBB1F6A95D1F7BC012DC0FFB7CA
:1014A000F8948091DD039091DE03A091DF03B09169
:1014B000E003E6B5A89B05C0EF3F19F00196A11D1A
:1014C000B11DFFBFBA2FA92F982F88278E0F911D0E
:1014D000A11DB11DE2E0880F991FAA1FBB1FEA954D
:1014E000D1F7861B970B885E9340C8F2215030409D
:1014F0004040504068517C4F211531054105510550
:1015000071F60895789484B5826084BD84B5816055
:1015100084BD85B5826085BD85B5816085BDEEE6FB
:10152000F0E0808181608083E1E8F0E010828081DA
:1015300082608083808181608083E0E8F0E0808148
:1015400081608083E1EBF0E0808184608083E0EB68
:10155000F0E0808181608083E1E9F0E08081826059
:101560008083808181608083E0E9F0E08081816018
:101570008083E1EAF0E08081826080838081816005
:101580008083E0EAF0E0808181608083E1E2F1E045
:10159000808182608083808181608083E0E2F1E0ED
:1015A000808181608083EAE7F0E0808184608083CD
:1015B0008081826080838081816080838081806877
:1015C00080831092C1000895CF93DF93482F50E09D
:1015D000CA0188589E4FFC0134914E5C5E4FFA015F
:1015E0008491882369F190E0880F991FFC01EC51E8
:1015F000FF4FA591B491FC01E250FF4FC591D491EA
:10160000662351F42FB7F8948C91932F90958923EA
:101610008C93888189230BC0623061F42FB7F894D2
:101620008C91932F909589238C938881832B888329
:101630002FBF06C09FB7F8948C91832B8C939FBFCC
:10164000DF91CF910895893009F449C08A30A0F420
:10165000843051F1853040F4823079F1833000F5E7
:10166000813009F063C026C0873079F1883098F561
:10167000863009F05BC025C08D3009F442C08E3041
:1016800028F48B30B1F18C30C0F52DC0803109F4D5
:1016900042C0813109F445C08F3009F047C037C0DE
:1016A000809180008F7703C0809180008F7D809330
:1016B0008000089584B58F7702C084B58F7D84BD86
:1016C00008958091B0008F7703C08091B0008F7D26
:1016D0008093B0000895809190008F7707C080912B
:1016E00090008F7D03C080919000877F8093900051
:1016F00008958091A0008F7707C08091A0008F7D12
:1017000003C08091A000877F8093A00008958091FE
:1017100020018F7703C0809120018F7D809320016D
:10172000089580912001877F809320010895FF9282
:101730000F931F93F62E482F50E0CA0182549E4FFC
:10174000FC012491CA0188589E4FFC0114914E5C03
:101750005E4FFA0104910023C1F0222311F0822F81
:1017600072DFE02FF0E0EE0FFF1FE250FF4FA59178
:10177000B4919FB7F894FF2021F48C9110958123A8
:1017800002C08C91812B8C939FBF1F910F91FF9072
:1017900008950F931F93482F50E0CA0182549E4F23
:1017A000FC012491CA0188589E4FFC0104914E5CB3
:1017B0005E4FFA011491112319F420E030E014C0B7
:1017C000222311F0822F3FDF812F90E0880F991F95
:1017D000885E9E4FFC01A591B4918C9120E030E091
:1017E000802311F021E030E0C9011F910F9108958D
:1017F00008951F920F920FB60F920BB60F921124FD
:101800002F933F934F938F939F93EF93FF938091E9
:10181000C00082FD1DC04091C60020912604309179
:1018200027042F5F3F4F2F733070809128049091D1
:1018300029042817390771F0E0912604F091270454
:10184000EA51FC4F4083309327042093260402C0C2
:101850008091C600FF91EF919F918F914F913F91A1
:101860002F910F900BBE0F900FBE0F901F901895E9
:1018700008951F920F920FB60F920BB60F9211247C
:101880002F933F934F938F939F93EF93FF93809169
:10189000C80082FD1DC04091CE002091AE04309161
:1018A000AF042F5F3F4F2F7330708091B004909141
:1018B000B1042817390771F0E091AE04F091AF043C
:1018C000E259FB4F40833093AF042093AE0402C033
:1018D0008091CE00FF91EF919F918F914F913F9119
:1018E0002F910F900BBE0F900FBE0F901F90189569
:1018F00008951F920F920FB60F920BB60F921124FC
:101900002F933F934F938F939F93EF93FF938091E8
:10191000D00082FD1DC04091D60020913605309147
:1019200037052F5F3F4F2F733070809138059091AE
:1019300039052817390771F0E0913605F091370520
:10194000EA50FB4F4083309337052093360502C0A1
:101950008091D600FF91EF919F918F914F913F9190
:101960002F910F900BBE0F900FBE0F901F901895E8
:1019700008951F920F920FB60F920BB60F9211247B
:101980002F933F934F938F939F93EF93FF93809168
:10199000300182FD1DC0409136012091BE0530917D
:1019A000BF052F5F3F4F2F7330708091C00590911E
:1019B000C1052817390771F0E091BE05F091BF0508
:1019C000E258FA4F40833093BF052093BE0502C012
:1019D00080913601FF91EF919F918F914F913F91AF
:1019E0002F910F900BBE0F900FBE0F901F90189568
:1019F000E0911206F0911306E05CFF4F8191919106
:101A000020813181821B930B8F739070892B09F099
:101A1000EFDEE0913406F0913506E05CFF4F8191F6
:101A2000919120813181821B930B8F739070892B50
:101A300009F01EDFE0915606F0915706E05CFF4F7B
:101A40008191919120813181821B930B8F739070D2
:101A5000892B09F04DDFE0917806F0917906E05C82
:101A6000FF4F8191919120813181821B930B8F7364
:101A70009070892B09F07CCF08951F920F920FB6BA
:101A80000F920BB60F9211242F933F938F939F9336
:101A9000EF93FF9320916A0430916B0480916C0462
:101AA00090916D042817390731F48091C1008F7D22
:101AB0008093C10014C0E0916C04F0916D04E65D68
:101AC000FB4F208180916C0490916D0401968F737F
:101AD000907090936D0480936C042093C600FF91E6
:101AE000EF919F918F913F912F910F900BBE0F908F
:101AF0000FBE0F901F9018951F920F920FB60F9266
:101B00000BB60F9211242F933F938F939F93EF93D4
:101B1000FF932091F2043091F3048091F4049091AA
:101B2000F5042817390731F48091C9008F7D80931F
:101B3000C90014C0E091F404F091F504EE54FB4F99
:101B400020818091F4049091F50401968F73907038
:101B50009093F5048093F4042093CE00FF91EF91CD
:101B60009F918F913F912F910F900BBE0F900FBEC1
:101B70000F901F9018951F920F920FB60F920BB6F1
:101B80000F9211242F933F938F939F93EF93FF9383
:101B900020917A0530917B0580917C0590917D059F
:101BA0002817390731F48091D1008F7D8093D100BF
:101BB00014C0E0917C05F0917D05E65CFA4F208130
:101BC00080917C0590917D0501968F739070909324
:101BD0007D0580937C052093D600FF91EF919F9126
:101BE0008F913F912F910F900BBE0F900FBE0F90D2
:101BF0001F9018951F920F920FB60F920BB60F926F
:101C000011242F933F938F939F93EF93FF932091F2
:101C1000020630910306809104069091050628176C
:101C2000390731F4809131018F7D8093310114C0E7
:101C3000E0910406F0910506EE53FA4F2081809161
:101C400004069091050601968F7390709093050697
:101C50008093040620933601FF91EF919F918F911D
:101C60003F912F910F900BBE0F900FBE0F901F90C2
:101C70001895AF92BF92DF92EF92FF920F931F934E
:101C8000CF93DF93EC017A018B01DD24403081EEAC
:101C9000580780E0680780E0780711F0DD24D394CE
:101CA00091E0A92EB12CEC89FD89DD2069F0C501F8
:101CB00008A002C0880F991F0A94E2F7808360E0B1
:101CC00079E08DE390E005C0108260E874E88EE171
:101CD00090E0A8019701C8D32150304040405040C7
:101CE000569547953795279580E12030380720F0A5
:101CF000DD2011F0DD24D7CFE889F9893083EA8926
:101D0000FB89208319A2EE89FF89408121E030E020
:101D1000C9010C8C02C0880F991F0A94E2F7482B66
:101D20004083EE89FF894081C9010D8C02C0880F74
:101D3000991F0A94E2F7482B4083EE89FF8940817E
:101D4000C9010E8C02C0880F991F0A94E2F7482B34
:101D50004083EE89FF8980810F8C02C0220F331FE0
:101D60000A94E2F7209528232083DF91CF911F91D9
:101D70000F91FF90EF90DF90BF90AF900895DC013E
:101D80001C96ED91FC911D97E05CFF4F21913191E4
:101D900080819181281B390B2F733070C901089500
:101DA000DC011C96ED91FC911D97E05CFF4F2081BA
:101DB0003181E054F040DF01AE5BBF4F8D919C91CB
:101DC00011972817390719F42FEF3FEF07C08D91AE
:101DD0009C91E80FF91F8081282F30E0C9010895F8
:101DE000DC011C96ED91FC911D97E05CFF4F20817A
:101DF0003181E054F040DF01AE5BBF4F8D919C918B
:101E000011972817390719F42FEF3FEF10C08D9164
:101E10009C911197E80FF91F20818D919C9111974A
:101E200001968F73907011969C938E9330E0C90148
:101E30000895DC0191968C919197882339F05496FE
:101E4000ED91FC915597808186FFF9CF91961C9278
:101E50000895CF93DF93EC01EE85FF85E05CFF4FA3
:101E600020813181E054F0402F5F3F4F2F7330705D
:101E7000DF01AE5BBF4F8D919C91119728173907F9
:101E8000D1F3E05CFF4F80819181E054F040E80F96
:101E9000F91F6083EE85FF85E05CFF4F318320836F
:101EA000EE89FF89208181E090E00F8C02C0880FCD
:101EB000991F0A94E2F7282B208381E089A3EC89FB
:101EC000FD8980818064808381E090E0DF91CF9103
:101ED00008951F93109209061092080628EE33E029
:101EE00040E050E020930A0630930B0640930C0626
:101EF00050930D0664E572E0709307066093060642
:101F000086EE93E090931306809312068AE294E0A3
:101F1000909315068093140685EC90E09093170635
:101F20008093160684EC90E090931906809318062F
:101F300080EC90E090931B0680931A0681EC90E071
:101F400090931D0680931C0682EC90E090931F06F0
:101F500080931E0686EC90E09093210680932006E5
:101F600014E010932206B3E0B0932306A7E0A093F9
:101F70002406F5E0F0932506E1E0E09326061092B2
:101F80002B0610922A0620932C0630932D064093A0
:101F90002E0650932F0670932906609328068EE62E
:101FA00094E0909335068093340682EB94E090930E
:101FB0003706809336068DEC90E090933906809337
:101FC00038068CEC90E090933B0680933A0688ECC0
:101FD00090E090933D0680933C0689EC90E09093CE
:101FE0003F0680933E068AEC90E0909341068093F2
:101FF00040068EEC90E09093430680934206109347
:102000004406B0934506A0934606F0934706E09336
:10201000480610924D0610924C0620934E063093BF
:102020004F06409350065093510670934B066093B1
:102030004A0686EF94E090935706809356068AE30B
:1020400095E0909359068093580685ED90E0909323
:102050005B0680935A0684ED90E090935D06809332
:102060005C0680ED90E090935F0680935E0681EDC4
:1020700090E0909361068093600682ED90E09093EB
:1020800063068093620686ED90E0909365068093E8
:10209000640610936606B0936706A0936806F093F3
:1020A0006906E0936A0610926F0610926E062093FE
:1020B00070063093710640937206509373067093C6
:1020C0006D0660936C068EE795E090937906809399
:1020D000780682EC95E090937B0680937A0685E300
:1020E00091E090937D0680937C0684E391E0909349
:1020F0007F0680937E0680E391E090938106809333
:10210000800681E391E0909383068093820682E3C8
:1021100091E0909385068093840686E391E0909306
:1021200087068093860610938806B0938906A0934D
:102130008A06F0938B06E0938C061F910895CF9347
:10214000DF93E0D90E944A05C8EFDCE00E94FB055E
:102150002097E1F34DDCFACFCF92DF92EF92FF921E
:102160000F931F93CF93DF937C016B018A01C0E033
:10217000D0E00FC0D6016D916D01D701ED91FC91BA
:102180000190F081E02DC7011995C80FD91F0150AA
:1021900010400115110571F7CE01DF91CF911F910C
:1021A0000F91FF90EF90DF90CF900895EF92FF9204
:1021B0000F931F938C01DC01ED91FC910190F08154
:1021C000E02D6DE019957C01D801ED91FC91019015
:1021D000F081E02DC8016AE019959C012E0D3F1D8C
:1021E000C9011F910F91FF90EF900895CF93DF9356
:1021F000EC016115710519F420E030E00FC0DB013E
:102200000D900020E9F71197A61BB70BE881F98123
:102210000280F381E02DAD0119959C01C901DF9188
:10222000CF9108954F925F927F928F929F92AF923B
:10223000BF92CF92DF92EF92FF920F931F93DF93A3
:10224000CF93CDB7DEB7A1970FB6F894DEBF0FBE20
:10225000CDBF2C01742ECB01223008F42AE019A244
:1022600031E2C32ED12CCC0EDD1E822E9924AA245D
:10227000BB24672D752FA5019401F6D079018A0141
:10228000C801B701A5019401B1D0472D461B0894A0
:10229000C108D1084A3014F4405D01C0495CF60120
:1022A0004083E114F1040105110521F07E2C5F2D1E
:1022B000C801DFCFC201B60199DFA1960FB6F8942D
:1022C000DEBF0FBECDBFCF91DF911F910F91FF9069
:1022D000EF90DF90CF90BF90AF909F908F907F90C6
:1022E0005F904F900895DC012115310541F4ED9187
:1022F000FC910190F081E02D642F1995089592CF03
:10230000EF92FF920F931F939A01E62EFF2400E0B5
:1023100010E0B801A701E7DF1F910F91FF90EF9048
:102320000895CF92DF92EF92FF920F931F936C016B
:10233000E62E9A01FF2400E010E0B801A701D3DFE8
:102340008C01C60133DF080F191FC8011F910F91BF
:10235000FF90EF90DF90CF90089548CF08952F928F
:102360003F924F925F926F927F928F929F92AF9225
:10237000BF92CF92DF92EF92FF920F931F93DF9362
:10238000CF93CDB7DEB73B014C0119012A016E890D
:102390007F89888D998D6A197B098C099D09621A3C
:1023A000730A840A950AA401930120D0E218F30865
:1023B00004091509A801970179D02A0D3B1D4C1D70
:1023C0005D1DB901CA01CF91DF911F910F91FF905F
:1023D000EF90DF90CF90BF90AF909F908F907F90C5
:1023E0006F905F904F903F902F900895629FD00123
:1023F000739FF001829FE00DF11D649FE00DF11DC0
:10240000929FF00D839FF00D749FF00D659FF00D6E
:102410009927729FB00DE11DF91F639FB00DE11D5B
:10242000F91FBD01CF0111240895991B79E004C063
:10243000991F961708F0961B881F7A95C9F7809503
:10244000089597FB092E07260AD077FD04D049D0BE
:1024500006D000201AF4709561957F4F0895F6F725
:10246000909581959F4F0895A1E21A2EAA1BBB1B40
:10247000FD010DC0AA1FBB1FEE1FFF1FA217B30750
:10248000E407F50720F0A21BB30BE40BF50B661F66
:10249000771F881F991F1A9469F76095709580952A
:1024A00090959B01AC01BD01CF01089597FB092ECA
:1024B00005260ED057FD04D0D7DF0AD0001C38F413
:1024C00050954095309521953F4F4F4F5F4F089560
:1024D000F6F790958095709561957F4F8F4F9F4F40
:1024E0000895AA1BBB1B51E107C0AA1FBB1FA6175B
:1024F000B70710F0A61BB70B881F991F5A95A9F7AD
:1025000080959095BC01CD010895EE0FFF1F0590B9
:0A251000F491E02D1994F894FFCF28
:10251A00793A20002C20783A20005452594B4B210A
:10252A000044617461206D6F74746174743A200A96
:10253A0000616472657373653A2000646174616C4A
:10254A00656E6764653A200044003A20002C20003A
:10255A0000000000850955090E0917092C093D09D3
:10256A0000000000290FAC10BF0EF00ED00E190F9C
:00000001FF
