:1000000002C100002DC100002BC1000029C1000069
:1000100027C1000025C1000023C1000021C100004C
:100020001FC100001DC100001BC1000019C100005C
:1000300017C1000015C1000013C1000011C100006C
:100040000FC100000DC100000BC1000009C100007C
:1000500007C1000005C1000003C10000E2C40000A8
:10006000FFC0000004C700000C947B08F9C000002A
:10007000F7C00000F5C00000F3C00000F1C00000B0
:10008000EFC00000EDC00000EBC00000E9C00000C0
:100090002EC700000C94BA08E3C00000E1C00000C5
:1000A000DFC00000DDC00000DBC00000D9C00000E0
:1000B000D7C00000D5C00000D3C00000D1C00000F0
:1000C000CFC00000CDC00000CBC0000050C7000072
:1000D0000C94F908C5C000008AC700000C943809C8
:1000E000BFC0000000002100240027002A002D00CE
:1000F0003000330001010000040107010A01000083
:100100002200250028002B002E00310034000201BF
:100110000000050108010B0100002000230026005B
:1001200029002C002F00320000010000030106010D
:10013000090105050505070508080808020202026D
:100140000A0A080804040404010101010101010173
:100150000303030303030303040707070C0C0C0C3E
:100160000C0C0C0C02020202060606060606060627
:100170000B0B0B0B0B0B0B0B0102102020080810B4
:100180002040102040800201020108040201010207
:1001900004081020408080402010080402018004E0
:1001A000020180402010080402010804020101023B
:1001B0000408102040800102040810204080000044
:1001C000090A02080B0C0D070603040100000000D9
:1001D000000000000000000000000000000000001F
:1001E0000000000000000000000011100F000000DF
:1001F00000000000000000000000000000000000FF
:1002000000000000A70A11241FBECFEFD1E2DEBF1D
:10021000CDBF00E00CBF12E0A0E0B2E0E0EDFAE1FB
:1002200000E00BBF02C007900D92AC33B107D9F7C5
:100230001BBE15E0ACE3B2E001C01D92AB30B107CC
:10024000E1F712E0C6E0D2E004C02297FE010E946E
:10025000620DC430D107C9F70E94DD0B0C94660D06
:10026000CFCE1F93182F85E360E09FD583E08EBD2E
:100270000DB407FEFDCF8EB51EBD0DB407FEFDCF3C
:100280008EB51EBC0DB407FEFDCF1EB585E361E043
:100290008CD5812F1F910895FF920F931F93182FD4
:1002A000062FF42E85E360E080D585E08EBD0DB489
:1002B00007FEFDCF8EB51EBD0DB407FEFDCF8EB57A
:1002C00081E090E002C0880F991F0A95E2F78EBD89
:1002D0000DB407FEFDCF8EB5FF2031F08FEF8EBD40
:1002E0000DB407FEFDCF04C01EBC0DB407FEFDCF4C
:1002F0008EB585E361E059D51F910F91FF90089568
:100300000F931F93182F062F85E360E04ED582E0F0
:100310008EBD0DB407FEFDCF8EB51EBD0DB407FE1C
:10032000FDCF8EB50EBD0DB407FEFDCF8EB585E3B6
:1003300061E03BD51F910F910895682F660F660FFE
:10034000660F67608FE0DCDF8EE08BDF20E090E0FF
:1003500045E0959587954A95E1F7882309F421E0D2
:10036000822F08951F938430910589F0853091057F
:100370001CF4039731F40DC08530910521F00697E8
:1003800021F080E050C011E005C010E003C013E090
:1003900001C014E085E360E008D582E08EBD0DB4B5
:1003A00007FEFDCF8EB58AE28EBD0DB407FEFDCFF0
:1003B0008EB51F731EBD0DB407FEFDCF8EB585E350
:1003C00061E0F3D485E360E0F0D482E08EBD0DB44B
:1003D00007FEFDCF8EB589E28EBD0DB407FEFDCFC1
:1003E0008EB581EB8EBD0DB407FEFDCF8EB585E3D6
:1003F00061E0DBD485E360E0D8D482E08EBD0DB44B
:1004000007FEFDCF8EB588E28EBD0DB407FEFDCF91
:100410008EB585E08EBD0DB407FEFDCF8EB585E3AC
:1004200061E0C3D481E01F910895AF92BF92CF9253
:10043000DF92EF92FF920F931F93CF93DF93EC0124
:100440007A018B0136D35B016C01AE0CBF1CC01E60
:10045000D11E04C08CE205DF80FD08C02AD36A15D6
:100460007B058C059D05B0F380E0A6C080E6F9DE33
:1004700090E013E0969587951A95E1F781708D834A
:1004800081E6EFDE082F82E6ECDE682F90E09C012B
:10049000B5E035952795BA95E1F710E0A3E0000F98
:1004A000111FAA95E1F7202B312B40E050E0298362
:1004B0003A834B835C83F3E096958795FA95E1F751
:1004C00081708883882309F441C0862F90E0A0E0E2
:1004D000B0E083709070A070B070E2E0220F331F24
:1004E000441F551FEA95D1F7822B932BA42BB52BD4
:1004F00089839A83AB83BC8383E6B3DE90E0A0E07C
:10050000B0E029813A814B815C81542F432F322FF7
:100510002227822B932BA42BB52B89839A83AB8321
:10052000BC8384E69EDE90E0A0E0B0E029813A81C1
:100530004B815C81542F432F322F2227822B932B08
:10054000A42BB52B89839A83AB83BC8389819A8141
:10055000AB81BC81BF7189839A83AB83BC8385E601
:1005600080DE8F708E8385E360E01FD483E08EBDD4
:100570000DB407FEFDCF8EB586E68EBD0DB407FE29
:10058000FDCF8EB5FE0120E030E009C01EBC0DB4E9
:1005900007FEFDCF8EB587832F5F3F4F31968E814B
:1005A00090E02817390794F385E361E0FED38CE2ED
:1005B00060E040E071DE81E0DF91CF911F910F910B
:1005C000FF90EF90DF90CF90BF90AF9008957F9213
:1005D0008F929F92AF92BF92CF92DF92EF92FF9253
:1005E0000F931F93DF93CF93CDB7DEB72F970FB63F
:1005F000F894DEBF0FBECDBF9A2CA982BA82CB82FF
:10060000DC82ED82EF2DFE82902F0F8318872987E1
:100610003A874B875C876D877E878F87EA80FB8070
:100620000C811D81892E7E2E44D25B016C0188A134
:1006300099A1AAA1BBA1A80EB91ECA1EDB1E9920B2
:1006400089F48701B701E3E076956795EA95E1F7CC
:1006500081E356DE75E0000F111F7A95E1F782E322
:10066000602F2BC0A801970165E1569547953795F6
:1006700027956A95D1F781E3622F42DE98014427DE
:10068000552723703070D801C7014DE0B695A79566
:10069000979587954A95D1F7807E9070282B392BB6
:1006A000286082E3622F2CDE5527412F302F2F2D1B
:1006B00083E3622F25DE84E36E2D22DE082D10E019
:1006C000B8016F7070707110606885E319DE85E3A2
:1006D00060E06BD382E08EBD0DB407FEFDCF8EB51A
:1006E00086E38EBD0DB407FEFDCF8EB5FE013896B4
:1006F0009E01200F311F285F3F4F07C080818EBDB4
:100700000DB407FEFDCF8EB53196E217F307B1F7B2
:1007100085E361E04AD380E363E041E0BDDD06C0EC
:100720008CE29FDD82FF02C011E007C0C2D16A15D2
:100730007B058C059D05A0F310E08DE292DD682F0E
:1007400083E894E04AE050E00E94BC0C80E363E060
:1007500040E0A2DD8CE262E040E09EDD812F2F963A
:100760000FB6F894DEBF0FBECDBFCF91DF911F91C2
:100770000F91FF90EF90DF90CF90BF90AF909F9040
:100780008F907F900895CF93DF93EC0138D185E36C
:1007900061E058D285E360E008D380EC8EBD0DB4F3
:1007A00007FEFDCF8EB585E361E0FFD264E670E021
:1007B00080E090E08CD18EE054DD90E0F5E09595FE
:1007C0008795FA95E1F7843011F080E002C0CE0100
:1007D000C9DDDF91CF910895AF92BF92CF92DF92A2
:1007E000EF92FF920F931F93CF93DF9383E10FD389
:1007F000892B09F05FC083E894E060E072E00E941A
:100800001D0D8BE492E048EE53E060E070E00DDEF9
:1008100083E894E060E172E00E941D0D40914C027B
:1008200050914D0260914E0270914F0283E894E026
:100830002AE030E00E94AF0C83E894E0F3D783E82D
:1008400094E06AE172E00E941D0D83E894E06091FB
:1008500051024AE050E00E94BC0C83E894E0E2D7E9
:10086000C2E5D2E000E010E01FC083E894E067E258
:1008700072E00E941D0D83E894E0B8014AE050E068
:100880000E940B0D83E894E069E272E00E941D0D66
:1008900083E894E069914AE050E00E94BC0C83E850
:1008A00094E0C0D70F5F1F4F8091510290E008176E
:1008B0001907DCF200D00F9288EE93E0A0E0B0E0E0
:1008C000EDB7FEB781839283A383B483A0903C02EB
:1008D000B0903D02C0903E02D0903F02E0904002B6
:1008E000F090410200914202109143022091440293
:1008F0003091450240914602509147026091480272
:100900007091490280914A0262DE0F900F900F9021
:100910000F90DF91CF911F910F91FF90EF90DF909B
:10092000CF90BF90AF900895AF92BF92CF92DF92D9
:10093000EF92FF920F931F9383E894E040E855E213
:1009400060E070E0D4D483E090E01DDF81E0F5DC6E
:1009500083E160E077D110923C0285E690E0A0E070
:10096000B0E080933D0290933E02A0933F02B0938B
:10097000400288E0809342021092410285E0809319
:100980005202E3E4F2E087E081938150E8F700D07F
:100990000F9288EE93E0A0E0B0E0EDB7FEB7818360
:1009A0009283A383B483A0903C02B0903D02C09098
:1009B0003E02D0903F02E0904002F0904102009150
:1009C000420210914302209144023091450240912D
:1009D000460250914702609148027091490280910D
:1009E0004A02F5DD0F900F900F900F901F910F911D
:1009F000FF90EF90DF90CF90BF90AF90089585E388
:100A000061E0D3D185E361E01DD18CB580618CBDFF
:100A10008CB580648CBD84E361E014D183E361E034
:100A200011C11F920F920FB60F9211242F933F9373
:100A30008F939F93AF93BF9380915E0290915F02DB
:100A4000A0916002B0916102309162020196A11DF5
:100A5000B11D232F2D5F2D3720F02D570196A11D9D
:100A6000B11D2093620280935E0290935F02A09377
:100A70006002B093610280915A0290915B02A09152
:100A80005C02B0915D020196A11DB11D80935A02D6
:100A900090935B02A0935C02B0935D02BF91AF9113
:100AA0009F918F913F912F910F900FBE0F901F90AC
:100AB00018958FB7F89420915E0230915F024091B3
:100AC0006002509161028FBFB901CA0108959B0174
:100AD000AC017FB7F89480915A0290915B02A0918B
:100AE0005C02B0915D0266B5A89B05C06F3F19F02E
:100AF0000196A11DB11D7FBFBA2FA92F982F88275E
:100B0000860F911DA11DB11D62E0880F991FAA1FBC
:100B1000BB1F6A95D1F7BC012DC0FFB7F894809137
:100B20005A0290915B02A0915C02B0915D02E6B521
:100B3000A89B05C0EF3F19F00196A11DB11DFFBF95
:100B4000BA2FA92F982F88278E0F911DA11DB11D97
:100B5000E2E0880F991FAA1FBB1FEA95D1F7861BF9
:100B6000970B885E9340C8F221503040404050407F
:100B700068517C4F211531054105510571F60895E5
:100B8000789484B5826084BD84B5816084BD85B568
:100B9000826085BD85B5816085BDEEE6F0E080812F
:100BA00081608083E1E8F0E0108280818260808350
:100BB000808181608083E0E8F0E0808181608083D3
:100BC000E1EBF0E0808184608083E0EBF0E0808105
:100BD00081608083E1E9F0E08081826080838081B0
:100BE00081608083E0E9F0E0808181608083E1EAD8
:100BF000F0E0808182608083808181608083E0EA90
:100C0000F0E0808181608083E1E2F1E080818260B8
:100C10008083808181608083E0E2F1E08081816077
:100C20008083EAE7F0E08081846080838081826055
:100C3000808380818160808380818068808310923E
:100C4000C1000895CF93DF93482F50E0CA01885820
:100C50009E4FFC0134914E5C5E4FFA0184918823D3
:100C600069F190E0880F991FFC01EC51FF4FA591AD
:100C7000B491FC01E250FF4FC591D491662351F429
:100C80002FB7F8948C91932F909589238C9388811A
:100C900089230BC0623061F42FB7F8948C91932FA5
:100CA000909589238C938881832B88832FBF06C0DE
:100CB0009FB7F8948C91832B8C939FBFDF91CF913A
:100CC0000895893009F449C08A30A0F4843051F184
:100CD000853040F4823079F1833000F5813009F0BD
:100CE00063C026C0873079F1883098F5863009F0E6
:100CF0005BC025C08D3009F442C08E3028F48B30A3
:100D0000B1F18C30C0F52DC0803109F442C0813181
:100D100009F445C08F3009F047C037C0809180008A
:100D20008F7703C0809180008F7D8093800008952D
:100D300084B58F7702C084B58F7D84BD089580917E
:100D4000B0008F7703C08091B0008F7D8093B0009A
:100D50000895809190008F7707C0809190008F7DDB
:100D600003C080919000877F8093900008958091C8
:100D7000A0008F7707C08091A0008F7D03C0809175
:100D8000A000877F8093A0000895809120018F7735
:100D900003C0809120018F7D809320010895809170
:100DA0002001877F809320010895FF920F931F9366
:100DB000F62E482F50E0CA0182549E4FFC01249128
:100DC000CA0188589E4FFC0114914E5C5E4FFA0197
:100DD00004910023C1F0222311F0822F72DFE02F53
:100DE000F0E0EE0FFF1FE250FF4FA591B4919FB7C7
:100DF000F894FF2021F48C911095812302C08C91EE
:100E0000812B8C939FBF1F910F91FF9008950F939B
:100E10001F93482F50E0CA0182549E4FFC01249139
:100E2000CA0188589E4FFC0104914E5C5E4FFA0146
:100E30001491112319F420E030E014C0222311F0A2
:100E4000822F3FDF812F90E0880F991F885E9E4F91
:100E5000FC01A591B4918C9120E030E0802311F049
:100E600021E030E0C9011F910F91089508951F926C
:100E70000F920FB60F920BB60F9211242F933F9340
:100E80004F938F939F93EF93FF938091C00082FDC8
:100E90001DC04091C6002091A3023091A4022F5F93
:100EA0003F4F2F7330708091A5029091A6022817B2
:100EB000390771F0E091A302F091A402ED59FD4FC2
:100EC00040833093A4022093A30202C08091C60005
:100ED000FF91EF919F918F914F913F912F910F90A3
:100EE0000BBE0F900FBE0F901F90189508951F9284
:100EF0000F920FB60F920BB60F9211242F933F93C0
:100F00004F938F939F93EF93FF938091C80082FD3F
:100F10001DC04091CE0020912B0330912C032F5FF8
:100F20003F4F2F73307080912D0390912E0328171F
:100F3000390771F0E0912B03F0912C03E551FD4F3F
:100F4000408330932C0320932B0302C08091CE006A
:100F5000FF91EF919F918F914F913F912F910F9022
:100F60000BBE0F900FBE0F901F90189508951F9203
:100F70000F920FB60F920BB60F9211242F933F933F
:100F80004F938F939F93EF93FF938091D00082FDB7
:100F90001DC04091D6002091B3033091B4032F5F60
:100FA0003F4F2F7330708091B5039091B60328178F
:100FB000390771F0E091B303F091B403ED58FC4FA1
:100FC00040833093B4032093B30302C08091D600D2
:100FD000FF91EF919F918F914F913F912F910F90A2
:100FE0000BBE0F900FBE0F901F90189508951F9283
:100FF0000F920FB60F920BB60F9211242F933F93BF
:101000004F938F939F93EF93FF938091300182FDD5
:101010001DC04091360120913B0430913C042F5F6C
:101020003F4F2F73307080913D0490913E042817FC
:10103000390771F0E0913B04F0913C04E550FC4F1E
:10104000408330933C0420933B0402C080913601DE
:10105000FF91EF919F918F914F913F912F910F9021
:101060000BBE0F900FBE0F901F901895E0918F044C
:10107000F0919004E05CFF4F81919191208131814A
:10108000821B930B8F739070892B09F0EFDEE09138
:10109000B104F091B204E05CFF4F81919191208105
:1010A0003181821B930B8F739070892B09F01EDFA7
:1010B000E091D304F091D404E05CFF4F81919191D1
:1010C00020813181821B930B8F739070892B09F0E3
:1010D0004DDFE091F504F091F604E05CFF4F819163
:1010E000919120813181821B930B8F739070892B9A
:1010F00009F07CCF08951F920F920FB60F920BB696
:101100000F9211242F933F938F939F93EF93FF930D
:101110002091E7023091E8028091E9029091EA0281
:101120002817390731F48091C1008F7D8093C10069
:1011300014C0E091E902F091EA02E955FD4F2081E7
:101140008091E9029091EA0201968F7390709093DA
:10115000EA028093E9022093C600FF91EF919F91EC
:101160008F913F912F910F900BBE0F900FBE0F905C
:101170001F9018951F920F920FB60F920BB60F92F9
:1011800011242F933F938F939F93EF93FF9320917D
:101190006F0330917003809171039091720328174F
:1011A000390731F48091C9008F7D8093C90014C044
:1011B000E0917103F0917203E15DFC4F2081809119
:1011C00071039091720301968F73907090937203E4
:1011D000809371032093CE00FF91EF919F918F91A7
:1011E0003F912F910F900BBE0F900FBE0F901F904D
:1011F00018951F920F920FB60F920BB60F921124F3
:101200002F933F938F939F93EF93FF932091F70337
:101210003091F8038091F9039091FA032817390768
:1012200031F48091D1008F7D8093D10014C0E09182
:10123000F903F091FA03E954FC4F20818091F903FE
:101240009091FA0301968F7390709093FA038093B4
:10125000F9032093D600FF91EF919F918F913F91D9
:101260002F910F900BBE0F900FBE0F901F901895EF
:101270001F920F920FB60F920BB60F9211242F935D
:101280003F938F939F93EF93FF9320917F0430912F
:10129000800480918104909182042817390731F4E9
:1012A000809131018F7D8093310114C0E0918104E0
:1012B000F0918204E15CFB4F208180918104909148
:1012C000820401968F7390709093820480938104BE
:1012D00020933601FF91EF919F918F913F912F9134
:1012E0000F900BBE0F900FBE0F901F901895AF92EE
:1012F000BF92DF92EF92FF920F931F93CF93DF93F2
:10130000EC017A018B01DD24403081EE580780E04A
:10131000680780E0780711F0DD24D39491E0A92ECE
:10132000B12CEC89FD89DD2069F0C50108A002C05F
:10133000880F991F0A94E2F7808360E079E08DE3DB
:1013400090E005C0108260E874E88EE190E0A801AA
:10135000970194D3215030404040504056954795D6
:101360003795279580E12030380720F0DD2011F0F7
:10137000DD24D7CFE889F9893083EA89FB89208386
:1013800019A2EE89FF89408121E030E0C9010C8C6F
:1013900002C0880F991F0A94E2F7482B4083EE8918
:1013A000FF894081C9010D8C02C0880F991F0A94E2
:1013B000E2F7482B4083EE89FF894081C9010E8CFA
:1013C00002C0880F991F0A94E2F7482B4083EE89E8
:1013D000FF8980810F8C02C0220F331F0A94E2F72D
:1013E000209528232083DF91CF911F910F91FF90AB
:1013F000EF90DF90BF90AF900895DC011C96ED91C7
:10140000FC911D97E05CFF4F21913191808191818A
:10141000281B390B2F733070C9010895DC011C960D
:10142000ED91FC911D97E05CFF4F20813181E054EC
:10143000F040DF01AE5BBF4F8D919C911197281753
:10144000390719F42FEF3FEF07C08D919C91E80FFA
:10145000F91F8081282F30E0C9010895DC011C9616
:10146000ED91FC911D97E05CFF4F20813181E054AC
:10147000F040DF01AE5BBF4F8D919C911197281713
:10148000390719F42FEF3FEF10C08D919C91119700
:10149000E80FF91F20818D919C91119701968F7310
:1014A000907011969C938E9330E0C9010895DC01F1
:1014B00091968C919197882339F05496ED91FC91F7
:1014C0005597808186FFF9CF91961C920895CF930E
:1014D000DF93EC01EE85FF85E05CFF4F20813181D9
:1014E000E054F0402F5F3F4F2F733070DF01AE5B51
:1014F000BF4F8D919C91119728173907D1F3E05C6C
:10150000FF4F80819181E054F040E80FF91F608324
:10151000EE85FF85E05CFF4F31832083EE89FF89F4
:10152000208181E090E00F8C02C0880F991F0A94FF
:10153000E2F7282B208381E089A3EC89FD89808153
:101540008064808381E090E0DF91CF9108951F93C4
:10155000109286041092850428EE33E040E050E0BB
:1015600020938704309388044093890450938A041D
:1015700060E372E0709384046093830483E692E0F6
:101580009093900480938F0487EA92E09093920462
:101590008093910485EC90E090939404809393045D
:1015A00084EC90E0909396048093950480EC90E016
:1015B000909398048093970481EC90E090939A0420
:1015C0008093990482EC90E090939C0480939B0418
:1015D00086EC90E090939E0480939D0414E0109319
:1015E0009F04B3E0B093A004A7E0A093A104F5E0AA
:1015F000F093A204E1E0E093A3041092A8041092F7
:10160000A7042093A9043093AA044093AB045093F9
:10161000AC047093A6046093A5048BEE92E09093C3
:10162000B2048093B1048FE293E09093B40480936A
:10163000B3048DEC90E09093B6048093B5048CECE9
:1016400090E09093B8048093B70488EC90E0909376
:10165000BA048093B90489EC90E09093BC04809321
:10166000BB048AEC90E09093BE048093BD048EECA2
:1016700090E09093C0048093BF041093C104B09392
:10168000C204A093C304F093C404E093C504109271
:10169000CA041092C9042093CB043093CC04409325
:1016A000CD045093CE047093C8046093C70483E7BD
:1016B00093E09093D4048093D30487EB93E09093CA
:1016C000D6048093D50485ED90E09093D804809360
:1016D000D70484ED90E09093DA048093D90480EDF0
:1016E00090E09093DC048093DB0481ED90E0909394
:1016F000DE048093DD0482ED90E09093E00480931B
:10170000DF0486ED90E09093E2048093E10410936F
:10171000E304B093E404A093E504F093E604E093BB
:10172000E7041092EC041092EB042093ED04309344
:10173000EE044093EF045093F0047093EA04609336
:10174000E9048BEF93E09093F6048093F5048FE324
:1017500094E09093F8048093F70485E391E09093EC
:10176000FA048093F90484E391E09093FC0480935D
:10177000FB0480E391E09093FE048093FD0481E3F9
:1017800091E0909300058093FF0482E391E09093B1
:1017900002058093010586E391E090930405809310
:1017A000030510930505B0930605A0930705F09374
:1017B0000805E09309051F910895CF93DF93E0D9C1
:1017C000B3D8C6E3D8E008D82097E9F34FDCFBCFC5
:1017D000CF92DF92EF92FF920F931F93CF93DF93FD
:1017E0007C016B018A01C0E0D0E00FC0D6016D9191
:1017F0006D01D701ED91FC910190F081E02DC701C1
:101800001995C80FD91F015010400115110571F726
:10181000CE01DF91CF911F910F91FF90EF90DF905C
:10182000CF900895EF92FF920F931F938C01DC01EC
:10183000ED91FC910190F081E02D6DE019957C0116
:10184000D801ED91FC910190F081E02DC8016AE092
:1018500019959C012E0D3F1DC9011F910F91FF90FD
:10186000EF900895CF93DF93EC016115710519F4A2
:1018700020E030E00FC0DB010D900020E9F7119768
:10188000A61BB70BE881F9810280F381E02DAD0141
:1018900019959C01C901DF91CF9108954F925F92F4
:1018A0007F928F929F92AF92BF92CF92DF92EF92F0
:1018B000FF920F931F93DF93CF93CDB7DEB7A1971E
:1018C0000FB6F894DEBF0FBECDBF2C01742ECB0136
:1018D000223008F42AE019A231E2C32ED12CCC0E1A
:1018E000DD1E822E9924AA24BB24672D752FA50105
:1018F0009401C4D079018A01C801B701A5019401FE
:101900009ED0472D461B0894C108D1084A3014F4D4
:10191000405D01C0495CF6014083E114F10401051A
:10192000110521F07E2C5F2DC801DFCFC201B60169
:1019300099DFA1960FB6F894DEBF0FBECDBFCF9151
:10194000DF911F910F91FF90EF90DF90CF90BF90AC
:10195000AF909F908F907F905F904F900895DC01A3
:101960002115310541F4ED91FC910190F081E02DBC
:10197000642F1995089592CFEF92FF920F931F93C2
:101980009A01E62EFF2400E010E0B801A701E7DF8E
:101990001F910F91FF90EF900895CF92DF92EF92F9
:1019A000FF920F931F93CF93DF93EC016A017B01AA
:1019B0002115310541F4E881F9810190F081E02D94
:1019C000642F19951DC02A303105C9F477FF16C060
:1019D000E881F9810190F081E02D6DE219958C018B
:1019E00044275527BA014C195D096E097F09CE01BC
:1019F0002AE054DF9801280F391F03C02AE04EDF88
:101A00009C01C901DF91CF911F910F91FF90EF9041
:101A1000DF90CF900895EF92FF920F931F937B0179
:101A20009A010027F7FC0095102FB801A701B5DF38
:101A30001F910F91FF90EF90089514CF0895629F2A
:101A4000D001739FF001829FE00DF11D649FE00DB6
:101A5000F11D929FF00D839FF00D749FF00D659F17
:101A6000F00D9927729FB00DE11DF91F639FB00D16
:101A7000E11DF91FBD01CF0111240895A1E21A2E25
:101A8000AA1BBB1BFD010DC0AA1FBB1FEE1FFF1F22
:101A9000A217B307E407F50720F0A21BB30BE40B72
:101AA000F50B661F771F881F991F1A9469F76095B9
:101AB0007095809590959B01AC01BD01CF01089573
:101AC000EE0FFF1F0590F491E02D1994F894FFCFCD
:101AD00044617461206D6F74746174743A200A00FB
:101AE000616472657373653A2000646174616C654A
:101AF0006E6764653A200044003A20000000000050
:0C1B0000670AE80BFD092E0A0E0A570ABE
:00000001FF
