:1000000002C100002DC100002BC1000029C1000069
:1000100027C1000025C1000023C1000021C100004C
:100020001FC100001DC100001BC1000019C100005C
:1000300017C1000015C1000013C1000011C100006C
:100040000FC100000DC100000BC1000009C100007C
:1000500007C1000005C1000003C1000012C3000079
:10006000FFC0000034C5000076C60000F9C00000E3
:10007000F7C00000F5C00000F3C00000F1C00000B0
:10008000EFC00000EDC00000EBC00000E9C00000C0
:100090005EC500009FC60000E3C00000E1C0000094
:1000A000DFC00000DDC00000DBC00000D9C00000E0
:1000B000D7C00000D5C00000D3C00000D1C00000F0
:1000C000CFC00000CDC00000CBC0000080C5000044
:1000D000C0C60000C5C00000BAC50000F9C60000D7
:1000E000BFC0000000002100240027002A002D00CE
:1000F0003000330001010000040107010A01000083
:100100002200250028002B002E00310034000201BF
:100110000000050108010B0100002000230026005B
:1001200029002C002F00320000010000030106010D
:10013000090105050505070508080808020202026D
:100140000A0A080804040404010101010101010173
:100150000303030303030303040707070C0C0C0C3E
:100160000C0C0C0C02020202060606060606060627
:100170000B0B0B0B0B0B0B0B0102102020080810B4
:100180002040102040800201020108040201010207
:1001900004081020408080402010080402018004E0
:1001A000020180402010080402010804020101023B
:1001B0000408102040800102040810204080000044
:1001C000090A02080B0C0D070603040100000000D9
:1001D000000000000000000000000000000000001F
:1001E0000000000000000000000011100F000000DF
:1001F00000000000000000000000000000000000FF
:1002000000000000D70811241FBECFEFD1E2DEBFEF
:10021000CDBF00E00CBF12E0A0E0B2E0E0E9F6E103
:1002200000E00BBF02C007900D92AE34B107D9F7C2
:100230001BBE15E0AEE4B2E001C01D92AD31B107C6
:10024000E1F712E0C6E0D2E004C02297FE010E946E
:10025000420BC430D107C9F70E940D0A0C94460B1B
:10026000CFCE1F93182F85E360E0CFD383E08EBD00
:100270000DB407FEFDCF8EB51EBD0DB407FEFDCF3C
:100280008EB51EBC0DB407FEFDCF1EB585E361E043
:10029000BCD3812F1F910895FF920F931F93182FA6
:1002A000062FF42E85E360E0B0D385E08EBD0DB45B
:1002B00007FEFDCF8EB51EBD0DB407FEFDCF8EB57A
:1002C00081E090E002C0880F991F0A95E2F78EBD89
:1002D0000DB407FEFDCF8EB5FF2031F08FEF8EBD40
:1002E0000DB407FEFDCF04C01EBC0DB407FEFDCF4C
:1002F0008EB585E361E089D31F910F91FF9008953A
:100300000F931F93182F062F85E360E07ED382E0C2
:100310008EBD0DB407FEFDCF8EB51EBD0DB407FE1C
:10032000FDCF8EB50EBD0DB407FEFDCF8EB585E3B6
:1003300061E06BD31F910F9108951F93182F8BE2EB
:1003400063E0DEDF110F110F110F17608FE0612FD7
:10035000D7DF8EE086DF20E090E045E09595879539
:100360004A95E1F7882309F421E0822F1F9108952F
:10037000AF92BF92CF92DF92EF92FF920F931F93B3
:10038000CF93DF93EC017A018B01C3D15B016C0148
:10039000AE0CBF1CC01ED11E06C08CE262DF80FD09
:1003A0000AC081FDD7C0B5D16A157B058C059D05B6
:1003B000A0F380E0C4C080E654DF00E010E090E0ED
:1003C00023E0969587952A95E1F781708D83011535
:1003D000110529F481E645DFE82E82E604C081E7B5
:1003E00040DFE82E82E73DDFE82F90E0AC01B5E08A
:1003F00055954795BA95E1F72E2D30E0A3E0220FF1
:10040000331FAA95E1F7422B532B60E070E049833C
:100410005A836B837C83F3E096958795FA95E1F791
:1004200081708883882309F441C08E2F90E0A0E07A
:10043000B0E083709070A070B070E2E0440F551F80
:10044000661F771FEA95D1F7842B952BA62BB72B28
:1004500089839A83AB83BC8383E603DF90E0A0E0CB
:10046000B0E029813A814B815C81542F432F322F98
:100470002227822B932BA42BB52B89839A83AB83C2
:10048000BC8384E6EEDE90E0A0E0B0E029813A8112
:100490004B815C81542F432F322F2227822B932BA9
:1004A000A42BB52B89839A83AB83BC8389819A81E2
:1004B000AB81BC81BF7189839A83AB83BC830115F7
:1004C000110511F485E601C085E7CBDE8F708E83C0
:1004D00085E360E09AD283E08EBD0DB407FEFDCFC8
:1004E0008EB50115110551F486E68EBD0DB407FEDB
:1004F000FDCF8EB5FE0120E030E00FC086E78EBD57
:100500000DB407FEFDCFF5CF1EBC0DB407FEFDCF29
:100510008EB587832F5F3F4F31968E8190E02817ED
:10052000390794F385E361E070D2012B19F48CE272
:1005300060E002C08CE261E040E0AEDE81E0DF918D
:10054000CF911F910F91FF90EF90DF90CF90BF90D0
:10055000AF90089580E785DE01E010E030CF7FD0D6
:1005600085E361E09FD185E360E04FD280EC8EBDF2
:100570000DB407FEFDCF8EB585E361E046D264E69B
:1005800070E080E090E0D3D08EE06BDE20E090E081
:1005900035E0959587953A95E1F7843009F421E0A7
:1005A000822F089585E994E040E052EC61E070E02C
:1005B000CED486E090E0D3DF81E0BFDE83E160E06F
:1005C00071D110924E0285E690E0A0E0B0E08093F9
:1005D0004F0290935002A0935102B093520288E0D0
:1005E000809354021092530285E080936402E5E503
:1005F000F2E087E081938150E8F708958EE492E07D
:1006000048EE53E060E070E0B3DE85E994E060E03E
:1006100072E0F3D785E994E0609155024AE050E03A
:10062000DBD785E994E064E072E0E7D785E994E000
:10063000609156024AE050E0CFD780915702813056
:1006400029F485E994E06AE072E0D7D785E994E07F
:1006500019C783E10CD2892B09F4D0CF089585E323
:1006600061E0D3D185E361E01DD18CB580618CBDA3
:100670008CB580648CBD84E361E014D183E361E0D8
:1006800011C11F920F920FB60F9211242F933F9317
:100690008F939F93AF93BF9380917002909171025B
:1006A000A0917202B0917302309174020196A11D63
:1006B000B11D232F2D5F2D3720F02D570196A11D41
:1006C000B11D209374028093700290937102A093E5
:1006D0007202B093730280916C0290916D02A091AE
:1006E0006E02B0916F020196A11DB11D80936C0244
:1006F00090936D02A0936E02B0936F02BF91AF9181
:100700009F918F913F912F910F900FBE0F901F904F
:1007100018958FB7F8942091700230917102409132
:100720007202509173028FBFB901CA0108959B01F3
:10073000AC017FB7F89480916C0290916D02A0910A
:100740006E02B0916F0266B5A89B05C06F3F19F0AD
:100750000196A11DB11D7FBFBA2FA92F982F882701
:10076000860F911DA11DB11D62E0880F991FAA1F60
:10077000BB1F6A95D1F7BC012DC0FFB7F8948091DB
:100780006C0290916D02A0916E02B0916F02E6B57D
:10079000A89B05C0EF3F19F00196A11DB11DFFBF39
:1007A000BA2FA92F982F88278E0F911DA11DB11D3B
:1007B000E2E0880F991FAA1FBB1FEA95D1F7861B9D
:1007C000970B885E9340C8F2215030404040504023
:1007D00068517C4F211531054105510571F6089589
:1007E000789484B5826084BD84B5816084BD85B50C
:1007F000826085BD85B5816085BDEEE6F0E08081D3
:1008000081608083E1E8F0E01082808182608083F3
:10081000808181608083E0E8F0E080818160808376
:10082000E1EBF0E0808184608083E0EBF0E08081A8
:1008300081608083E1E9F0E0808182608083808153
:1008400081608083E0E9F0E0808181608083E1EA7B
:10085000F0E0808182608083808181608083E0EA33
:10086000F0E0808181608083E1E2F1E0808182605C
:100870008083808181608083E0E2F1E0808181601B
:100880008083EAE7F0E080818460808380818260F9
:1008900080838081816080838081806880831092E2
:1008A000C1000895CF93DF93482F50E0CA018858C4
:1008B0009E4FFC0134914E5C5E4FFA018491882377
:1008C00069F190E0880F991FFC01EC51FF4FA59151
:1008D000B491FC01E250FF4FC591D491662351F4CD
:1008E0002FB7F8948C91932F909589238C938881BE
:1008F00089230BC0623061F42FB7F8948C91932F49
:10090000909589238C938881832B88832FBF06C081
:100910009FB7F8948C91832B8C939FBFDF91CF91DD
:100920000895893009F449C08A30A0F4843051F127
:10093000853040F4823079F1833000F5813009F060
:1009400063C026C0873079F1883098F5863009F089
:100950005BC025C08D3009F442C08E3028F48B3046
:10096000B1F18C30C0F52DC0803109F442C0813125
:1009700009F445C08F3009F047C037C0809180002E
:100980008F7703C0809180008F7D809380000895D1
:1009900084B58F7702C084B58F7D84BD0895809122
:1009A000B0008F7703C08091B0008F7D8093B0003E
:1009B0000895809190008F7707C0809190008F7D7F
:1009C00003C080919000877F80939000089580916C
:1009D000A0008F7707C08091A0008F7D03C0809119
:1009E000A000877F8093A0000895809120018F77D9
:1009F00003C0809120018F7D809320010895809114
:100A00002001877F809320010895FF920F931F9309
:100A1000F62E482F50E0CA0182549E4FFC012491CB
:100A2000CA0188589E4FFC0114914E5C5E4FFA013A
:100A300004910023C1F0222311F0822F72DFE02FF6
:100A4000F0E0EE0FFF1FE250FF4FA591B4919FB76A
:100A5000F894FF2021F48C911095812302C08C9191
:100A6000812B8C939FBF1F910F91FF9008950F933F
:100A70001F93482F50E0CA0182549E4FFC012491DD
:100A8000CA0188589E4FFC0104914E5C5E4FFA01EA
:100A90001491112319F420E030E014C0222311F046
:100AA000822F3FDF812F90E0880F991F885E9E4F35
:100AB000FC01A591B4918C9120E030E0802311F0ED
:100AC00021E030E0C9011F910F91089508951F9210
:100AD0000F920FB60F920BB60F9211242F933F93E4
:100AE0004F938F939F93EF93FF938091C00082FD6C
:100AF0001DC04091C6002091B5023091B6022F5F13
:100B00003F4F2F7330708091B7029091B802281731
:100B1000390771F0E091B502F091B602EB58FD4F44
:100B200040833093B6022093B50202C08091C60084
:100B3000FF91EF919F918F914F913F912F910F9046
:100B40000BBE0F900FBE0F901F90189508951F9227
:100B50000F920FB60F920BB60F9211242F933F9363
:100B60004F938F939F93EF93FF938091C80082FDE3
:100B70001DC04091CE0020913D0330913E032F5F78
:100B80003F4F2F73307080913F039091400328179F
:100B9000390771F0E0913D03F0913E03E350FD4FC2
:100BA000408330933E0320933D0302C08091CE00EA
:100BB000FF91EF919F918F914F913F912F910F90C6
:100BC0000BBE0F900FBE0F901F90189508951F92A7
:100BD0000F920FB60F920BB60F9211242F933F93E3
:100BE0004F938F939F93EF93FF938091D00082FD5B
:100BF0001DC04091D6002091C5033091C6032F5FE0
:100C00003F4F2F7330708091C7039091C80328170E
:100C1000390771F0E091C503F091C603EB57FC4F23
:100C200040833093C6032093C50302C08091D60051
:100C3000FF91EF919F918F914F913F912F910F9045
:100C40000BBE0F900FBE0F901F90189508951F9226
:100C50000F920FB60F920BB60F9211242F933F9362
:100C60004F938F939F93EF93FF938091300182FD79
:100C70001DC04091360120914D0430914E042F5FEC
:100C80003F4F2F73307080914F049091500428177C
:100C9000390771F0E0914D04F0914E04E35FFB4F92
:100CA000408330934E0420934D0402C0809136015E
:100CB000FF91EF919F918F914F913F912F910F90C5
:100CC0000BBE0F900FBE0F901F901895E091A104DE
:100CD000F091A204E05CFF4F8191919120813181DC
:100CE000821B930B8F739070892B09F0EFDEE091DC
:100CF000C304F091C404E05CFF4F81919191208185
:100D00003181821B930B8F739070892B09F01EDF4A
:100D1000E091E504F091E604E05CFF4F8191919150
:100D200020813181821B930B8F739070892B09F086
:100D30004DDFE0910705F0910805E05CFF4F8191E0
:100D4000919120813181821B930B8F739070892B3D
:100D500009F07CCF08951F920F920FB60F920BB639
:100D60000F9211242F933F938F939F93EF93FF93B1
:100D70002091F9023091FA028091FB029091FC02DD
:100D80002817390731F48091C1008F7D8093C1000D
:100D900014C0E091FB02F091FC02E754FD4F20816A
:100DA0008091FB029091FC0201968F73907090935A
:100DB000FC028093FB022093C600FF91EF919F916C
:100DC0008F913F912F910F900BBE0F900FBE0F9000
:100DD0001F9018951F920F920FB60F920BB60F929D
:100DE00011242F933F938F939F93EF93FF93209121
:100DF00081033091820380918303909184032817AB
:100E0000390731F48091C9008F7D8093C90014C0E7
:100E1000E0918303F0918403EF5BFC4F208180918C
:100E200083039091840301968F7390709093840351
:100E3000809383032093CE00FF91EF919F918F9138
:100E40003F912F910F900BBE0F900FBE0F901F90F0
:100E500018951F920F920FB60F920BB60F92112496
:100E60002F933F938F939F93EF93FF9320910904C8
:100E700030910A0480910B0490910C0428173907D3
:100E800031F48091D1008F7D8093D10014C0E09126
:100E90000B04F0910C04E753FC4F208180910B046C
:100EA00090910C0401968F73907090930C04809332
:100EB0000B042093D600FF91EF919F918F913F916A
:100EC0002F910F900BBE0F900FBE0F901F90189593
:100ED0001F920F920FB60F920BB60F9211242F9301
:100EE0003F938F939F93EF93FF93209191043091C1
:100EF000920480919304909194042817390731F457
:100F0000809131018F7D8093310114C0E091930471
:100F1000F0919404EF5AFB4F2081809193049091BB
:100F2000940401968F73907090939404809393042B
:100F300020933601FF91EF919F918F913F912F91D7
:100F40000F900BBE0F900FBE0F901F901895AF9291
:100F5000BF92DF92EF92FF920F931F93CF93DF9395
:100F6000EC017A018B01DD24403081EE580780E0EE
:100F7000680780E0780711F0DD24D39491E0A92E72
:100F8000B12CEC89FD89DD2069F0C50108A002C003
:100F9000880F991F0A94E2F7808360E079E08DE37F
:100FA00090E005C0108260E874E88EE190E0A8014E
:100FB000970144D3215030404040504056954795CA
:100FC0003795279580E12030380720F0DD2011F09B
:100FD000DD24D7CFE889F9893083EA89FB8920832A
:100FE00019A2EE89FF89408121E030E0C9010C8C13
:100FF00002C0880F991F0A94E2F7482B4083EE89BC
:10100000FF894081C9010D8C02C0880F991F0A9485
:10101000E2F7482B4083EE89FF894081C9010E8C9D
:1010200002C0880F991F0A94E2F7482B4083EE898B
:10103000FF8980810F8C02C0220F331F0A94E2F7D0
:10104000209528232083DF91CF911F910F91FF904E
:10105000EF90DF90BF90AF900895DC011C96ED916A
:10106000FC911D97E05CFF4F21913191808191812E
:10107000281B390B2F733070C9010895DC011C96B1
:10108000ED91FC911D97E05CFF4F20813181E05490
:10109000F040DF01AE5BBF4F8D919C9111972817F7
:1010A000390719F42FEF3FEF07C08D919C91E80F9E
:1010B000F91F8081282F30E0C9010895DC011C96BA
:1010C000ED91FC911D97E05CFF4F20813181E05450
:1010D000F040DF01AE5BBF4F8D919C9111972817B7
:1010E000390719F42FEF3FEF10C08D919C911197A4
:1010F000E80FF91F20818D919C91119701968F73B4
:10110000907011969C938E9330E0C9010895DC0194
:1011100091968C919197882339F05496ED91FC919A
:101120005597808186FFF9CF91961C920895CF93B1
:10113000DF93EC01EE85FF85E05CFF4F208131817C
:10114000E054F0402F5F3F4F2F733070DF01AE5BF4
:10115000BF4F8D919C91119728173907D1F3E05C0F
:10116000FF4F80819181E054F040E80FF91F6083C8
:10117000EE85FF85E05CFF4F31832083EE89FF8998
:10118000208181E090E00F8C02C0880F991F0A94A3
:10119000E2F7282B208381E089A3EC89FD898081F7
:1011A0008064808381E090E0DF91CF9108951F9368
:1011B000109298041092970428EE33E040E050E03B
:1011C0002093990430939A0440939B0450939C0479
:1011D00061E472E0709396046093950485E792E071
:1011E0009093A2048093A10489EB92E09093A404CD
:1011F0008093A30485EC90E09093A6048093A504CB
:1012000084EC90E09093A8048093A70480EC90E095
:101210009093AA048093A90481EC90E09093AC048D
:101220008093AB0482EC90E09093AE048093AD0485
:1012300086EC90E09093B0048093AF0414E0109398
:10124000B104B3E0B093B204A7E0A093B304F5E017
:10125000F093B404E1E0E093B5041092BA04109264
:10126000B9042093BB043093BC044093BD04509355
:10127000BE047093B8046093B7048DEF92E090932E
:10128000C4048093C30481E493E09093C6048093E4
:10129000C5048DEC90E09093C8048093C7048CEC57
:1012A00090E09093CA048093C90488EC90E09093F6
:1012B000CC048093CB0489EC90E09093CE0480938F
:1012C000CD048AEC90E09093D0048093CF048EEC10
:1012D00090E09093D2048093D1041093D304B09300
:1012E000D404A093D504F093D604E093D7041092CD
:1012F000DC041092DB042093DD043093DE04409381
:10130000DF045093E0047093DA046093D90485E815
:1013100093E09093E6048093E50489EC93E0909346
:10132000E8048093E70485ED90E09093EA048093CD
:10133000E90484ED90E09093EC048093EB0480ED5D
:1013400090E09093EE048093ED0481ED90E0909313
:10135000F0048093EF0482ED90E09093F204809388
:10136000F10486ED90E09093F4048093F3041093DD
:10137000F504B093F604A093F704F093F804E09317
:10138000F9041092FE041092FD042093FF043093A0
:10139000000540930105509302057093FC0460938F
:1013A000FB048DE094E0909308058093070581E5A8
:1013B00094E090930A058093090585E391E090936A
:1013C0000C0580930B0584E391E090930E058093C8
:1013D0000D0580E391E09093100580930F0581E364
:1013E00091E0909312058093110582E391E0909330
:1013F00014058093130586E391E09093160580937E
:10140000150510931705B0931805A0931905F093CF
:101410001A05E0931B051F910895CF93DF93E0D940
:10142000C1D8C6E6D6E015D92097E9F34FDCFBCF4B
:10143000CF92DF92EF92FF920F931F93CF93DF93A0
:101440007C016B018A01C0E0D0E00FC0D6016D9134
:101450006D01D701ED91FC910190F081E02DC70164
:101460001995C80FD91F015010400115110571F7CA
:10147000CE01DF91CF911F910F91FF90EF90DF9000
:10148000CF900895EF92FF920F931F938C01DC0190
:10149000ED91FC910190F081E02D6DE019957C01BA
:1014A000D801ED91FC910190F081E02DC8016AE036
:1014B00019959C012E0D3F1DC9011F910F91FF90A1
:1014C000EF900895CF93DF93EC016115710519F446
:1014D00020E030E00FC0DB010D900020E9F711970C
:1014E000A61BB70BE881F9810280F381E02DAD01E5
:1014F00019959C01C901DF91CF9108954F925F9298
:101500007F928F929F92AF92BF92CF92DF92EF9293
:10151000FF920F931F93DF93CF93CDB7DEB7A197C1
:101520000FB6F894DEBF0FBECDBF2C01742ECB01D9
:10153000223008F42AE019A231E2C32ED12CCC0EBD
:10154000DD1E822E9924AA24BB24672D752FA501A8
:10155000940174D079018A01C801B701A5019401F1
:101560004ED0472D461B0894C108D1084A3014F4C8
:10157000405D01C0495CF6014083E114F1040105BE
:10158000110521F07E2C5F2DC801DFCFC201B6010D
:1015900099DFA1960FB6F894DEBF0FBECDBFCF91F5
:1015A000DF911F910F91FF90EF90DF90CF90BF9050
:1015B000AF909F908F907F905F904F900895DC0147
:1015C0002115310541F4ED91FC910190F081E02D60
:1015D000642F1995089592CFEF92FF920F931F9366
:1015E0009A01E62EFF2400E010E0B801A701E7DF32
:1015F0001F910F91FF90EF90089564CF0895629F1F
:10160000D001739FF001829FE00DF11D649FE00DFA
:10161000F11D929FF00D839FF00D749FF00D659F5B
:10162000F00D9927729FB00DE11DF91F639FB00D5A
:10163000E11DF91FBD01CF0111240895A1E21A2E69
:10164000AA1BBB1BFD010DC0AA1FBB1FEE1FFF1F66
:10165000A217B307E407F50720F0A21BB30BE40BB6
:10166000F50B661F771F881F991F1A9469F76095FD
:101670007095809590959B01AC01BD01CF010895B7
:10168000EE0FFF1F0590F491E02D1994F894FFCF11
:10169000793A20002C20783A20005452594B4B21A3
:1016A0000044617461206D6F74746174743A200A2F
:1016B00000616472657373653A2000646174616CE3
:1016C000656E6764653A200044003A20000000001F
:0E16D000009708180A2D085E083E08870800DB
:00000001FF
