:1000000003C100002EC100002CC100002AC1000065
:1000100028C1000026C1000024C1000022C1000048
:1000200020C100001EC100001CC100001AC1000058
:1000300018C1000016C1000014C1000012C1000068
:1000400010C1000004C600000CC100000AC100007D
:1000500008C1000006C1000004C1000037C600004E
:1000600000C100000C948C080C94D009FAC0000068
:10007000F8C00000F6C00000F4C00000F2C00000AC
:10008000B9C50000EEC00000ECC00000EAC00000EE
:100090000C94CC080C940F0AE4C00000E2C00000ED
:1000A000E0C00000DEC0000078C50000DAC000003B
:1000B000D8C00000D6C00000D4C0000041C5000078
:1000C000D0C00000CEC00000CCC000000C940C09D1
:1000D0000C944E0AC6C000000C944C090C948D0A76
:1000E000C0C0000000002100240027002A002D00CD
:1000F0003000330001010000040107010A01000083
:100100002200250028002B002E00310034000201BF
:100110000000050108010B0100002000230026005B
:1001200029002C002F00320000010000030106010D
:10013000090105050505070508080808020202026D
:100140000A0A080804040404010101010101010173
:100150000303030303030303040707070C0C0C0C3E
:100160000C0C0C0C02020202060606060606060627
:100170000B0B0B0B0B0B0B0B0102102020080810B4
:100180002040102040800201020108040201010207
:1001900004081020408080402010080402018004E0
:1001A000020180402010080402010804020101023B
:1001B0000408102040800102040810204080000044
:1001C000090A02080B0C0D070603040100000000D9
:1001D000000000000000000000000000000000001F
:1001E0000000000000000000000011100F000000DF
:1001F00000000000000000000000000000000000FF
:1002000000000000D302FC0B11241FBECFEFD1E28F
:10021000DEBFCDBF00E00CBF12E0A0E0B2E0EAE13B
:10022000FEE100E00BBF02C007900D92A031B107C4
:10023000D9F71BBE15E0A0E1B2E001C01D92AE37B8
:10024000B107E1F712E0C8E0D2E004C02297FE0156
:100250000E94070FC430D107C9F70E94320D0C94D9
:100260000B0FCECE1F93182F85E360E0F3D683E00B
:100270008EBD0DB407FEFDCF8EB51EBD0DB407FEBD
:10028000FDCF8EB51EBC0DB407FEFDCF1EB585E3B8
:1002900061E0E0D6812F1F910895FF920F931F9385
:1002A000182F062FF42E85E360E0D4D685E08EBDAE
:1002B0000DB407FEFDCF8EB51EBD0DB407FEFDCFFC
:1002C0008EB581E090E002C0880F991F0A95E2F791
:1002D0008EBD0DB407FEFDCF8EB5FF2031F08FEF40
:1002E0008EBD0DB407FEFDCF04C01EBC0DB407FECD
:1002F000FDCF8EB585E361E0ADD61F910F91FF90E4
:1003000008950F931F93182F062F85E360E0A2D660
:1003100082E08EBD0DB407FEFDCF8EB51EBD0DB4BF
:1003200007FEFDCF8EB50EBD0DB407FEFDCF8EB519
:1003300085E361E08FD61F910F9108951F93182FC9
:100340008BE263E0DEDF110F110F110F17608FE0FA
:10035000612FD7DF8EE086DF20E090E045E09595C5
:1003600087954A95E1F7882309F421E0822F1F91B0
:100370000895AF92BF92CF92DF92EF92FF920F93C8
:100380001F93CF93DF93EC017A018B01E7D45B01DC
:100390006C01AE0CBF1CC01ED11E06C08CE262DF19
:1003A00080FD0AC081FDD7C0D9D46A157B058C05B4
:1003B0009D05A0F380E0C4C080E654DF00E010E0BB
:1003C00090E023E0969587952A95E1F781708D83DB
:1003D0000115110529F481E645DFE82E82E604C007
:1003E00081E740DFE82E82E73DDFE82F90E0AC01B7
:1003F000B5E055954795BA95E1F72E2D30E0A3E08D
:10040000220F331FAA95E1F7422B532B60E070E0D7
:1004100049835A836B837C83F3E096958795FA959D
:10042000E1F781708883882309F441C08E2F90E022
:10043000A0E0B0E083709070A070B070E2E0440F74
:10044000551F661F771FEA95D1F7842B952BA62B96
:10045000B72B89839A83AB83BC8383E603DF90E069
:10046000A0E0B0E029813A814B815C81542F432F79
:10047000322F2227822B932BA42BB52B89839A838F
:10048000AB83BC8384E6EEDE90E0A0E0B0E029819F
:100490003A814B815C81542F432F322F2227822BAC
:1004A000932BA42BB52B89839A83AB83BC8389813F
:1004B0009A81AB81BC81BF7189839A83AB83BC83F2
:1004C0000115110511F485E601C085E7CBDE8F70BB
:1004D0008E8385E360E0BED583E08EBD0DB407FE5C
:1004E000FDCF8EB50115110551F486E68EBD0DB414
:1004F00007FEFDCF8EB5FE0120E030E00FC086E79D
:100500008EBD0DB407FEFDCFF5CF1EBC0DB407FEAA
:10051000FDCF8EB587832F5F3F4F31968E8190E060
:100520002817390794F385E361E094D5012B19F47A
:100530008CE260E002C08CE261E040E0AEDE81E08F
:10054000DF91CF911F910F91FF90EF90DF90CF90AF
:10055000BF90AF90089580E785DE01E010E030CFD6
:10056000A3D385E361E0C3D485E360E073D580EC79
:100570008EBD0DB407FEFDCF8EB585E361E06AD573
:1005800064E670E080E090E0F7D38EE06BDE20E080
:1005900090E035E0959587953A95E1F7843009F438
:1005A00021E0822F089580E392E099C086EF94E0E5
:1005B00040E052EC61E070E0EFD786E090E0D0DF01
:1005C00081E0BCDE83E160E092D41092100285E607
:1005D00090E0A0E0B0E08093110290931202A0930B
:1005E0001302B093140288E0809316021092150251
:1005F00085E080932602E7E1F2E087E08193815075
:10060000E8F780E392E069E070E0D5C180E192E034
:1006100048EE53E060E070E0ACDE8091180290E0BC
:1006200024E230E0AC01429FC001439F900D529FF5
:10063000900D112463E370E00E94A10E9B01CB0199
:1006400088559040059710F42AE530E0C9010895D7
:1006500080911A028823A1F480913402909135028E
:10066000A0913602B09137020196A11DB11D809371
:10067000340290933502A0933602B093370208C03B
:100680001092340210923502109236021092370204
:100690008091340290913502A0913602B0913702D8
:1006A0004997A105B10559F4609133026F5F6093DA
:1006B000330286EF94E04AE050E00C94130E089564
:1006C00083E1FAD4892B51F4A1DFBC0190932F026E
:1006D00080932E0280E392E058D0BACF0895FC01B7
:1006E00080913802803390F480838F5F809338024A
:1006F000815090E0FC01EE0FFF1FE80FF91FE75C4F
:10070000FD4F88EB9BE09283818308958FEF808378
:100710000895FC0120812033B8F58181992787FD58
:1007200090954AEF50E0481B590B440F551F440F5A
:10073000551F6417750784F08281992787FD90956E
:100740004FE352E0481B590B440F551F440F551FF0
:10075000641775070CF4AB0142505040CA01AA2738
:1007600097FDA095BA2F880F991FAA1FBB1F4FB7DF
:10077000F89430E0F901EE0FFF1FE20FF31FE75C82
:10078000FD4F928381834FBF0895AF92BF92CF9266
:10079000DF92EF92FF920F931F93CF93DF93EC01C1
:1007A0009B0183E0683E78070CF048C077FF03C0E8
:1007B00020E030E005C0653B710514F024EB30E02B
:1007C00000D00F92B901882777FD8095982F298155
:1007D000332727FD3095EAEFAE2EB12CA21AB30ACB
:1007E000AA0CBB1CAA0CBB1CCC24B7FCC094DC2CF0
:1007F000EA81FF27E7FDF0952FE332E02E1B3F0B48
:10080000220F331F220F331F442737FD4095542FEB
:10081000EDB7FEB7218332834383548320E030E079
:1008200040E050E004EBE02EF12C012D112D0E9450
:100830002F0E9B010F900F900F900F90CE01B901DA
:1008400068DFDF91CF911F910F91FF90EF90DF90C4
:10085000CF90BF90AF900895CF92DF92EF92FF922A
:100860001F93CF93DF93EC01162F7A0169018881E2
:10087000803308F092C0862F61E039D3888190E000
:10088000FC01EE0FFF1FE80FF91FE75CFD4F1F7320
:100890008081807C812B808388EE93E08E199F0974
:1008A00064E070E00E94A10E69838CEF98E08C19DF
:1008B0009D0964E070E00E94A10E6A83A8818A2FDE
:1008C0006CE00E94950E682F70E0AB01440F551F3D
:1008D000460F571F440F551F440F551F20E030E0AF
:1008E000C901840F951FFC01EE0FFF1FE80FF91FD0
:1008F000E75CFD4F808186FD44C02F5F3F4F2C3069
:10090000310571F753C01092800082E0809381001E
:100910001092850010928400B19A80916F008260DD
:1009200080936F002EC06230710569F410929000C0
:1009300082E080939100109295001092940088BB01
:10094000809371001EC06330710569F41092A0009D
:1009500082E08093A1001092A5001092A40089BBB0
:10096000809372000EC0672B61F41092200182E028
:100970008093210110922501109224018ABB80935B
:1009800073008A2F90E0FC01EE0FFF1FE80FF91FA4
:10099000E75CFD4F8081806480838881DF91CF9107
:1009A0001F91FF90EF90DF90CF9008956130710517
:1009B00009F0B9CFA8CF48EE53E02CEF38E04CCF88
:1009C000EF92FF920F931F93CF93DF938B017A01E6
:1009D000EC01DC01A753BD4F8C9187FF04C0FB01E4
:1009E0001182108236C0AE01440F551F4C0F5D1F9F
:1009F000440F551F440F551F2C91332727FD309569
:100A0000240F351F8091380290E0281739070CF524
:100A10008C91992787FD9095840F951FFC01EE0F0F
:100A2000FF1FE80FF91FE75CFD4F808186FF11C0B3
:100A30008C91992787FD9095840F951FFC01EE0FEF
:100A4000FF1FE80FF91FE75CFD4F80818F7360E0A7
:100A500001D3DE01A753BD4F8C918F5F8C93AE0104
:100A6000440F551F4C0F5D1F440F551F440F551F5A
:100A70002C91332727FD3095240F351F80913802A4
:100A800090E0281739070CF04CC08C918C300CF09A
:100A900048C0F801208131818C91992787FD90957C
:100AA000840F951FFC01EE0FFF1FE80FF91FE75C95
:100AB000FD4F81819281280F391FF70131832083F7
:100AC0008C91992787FD9095840F951FFC01EE0F5F
:100AD000FF1FE80FF91FE75CFD4F808186FF29C0EB
:100AE0008C91992787FD9095840F951FFC01EE0F3F
:100AF000FF1FE80FF91FE75CFD4F80818F7361E0F6
:100B0000A9D217C080E49CE904C0F80180819181DA
:100B10000496F70191838083C753DD4F8FEF88835D
:100B200008C0F80180819181049680549C4950F35B
:100B3000ECCFDF91CF911F910F91FF90EF9008952F
:100B40001F920F920FB60F920BB60F9211242F9394
:100B50003F934F935F936F937F938F939F93AF9345
:100B6000BF93EF93FF9380E090E064E271E048E28E
:100B700051E026DFFF91EF91BF91AF919F918F914F
:100B80007F916F915F914F913F912F910F900BBE8D
:100B90000F900FBE0F901F9018951F920F920FB6D7
:100BA0000F920BB60F9211242F933F934F935F93A5
:100BB0006F937F938F939F93AF93BF93EF93FF9325
:100BC00083E090E064EA70E048EA50E0F9DEFF91EB
:100BD000EF91BF91AF919F918F917F916F915F91B5
:100BE0004F913F912F910F900BBE0F900FBE0F9022
:100BF0001F9018951F920F920FB60F920BB60F927F
:100C000011242F933F934F935F936F937F938F9311
:100C10009F93AF93BF93EF93FF9382E090E064E9DB
:100C200070E048E950E0CCDEFF91EF91BF91AF91C9
:100C30009F918F917F916F915F914F913F912F91F4
:100C40000F900BBE0F900FBE0F901F9018951F9224
:100C50000F920FB60F920BB60F9211242F933F9362
:100C60004F935F936F937F938F939F93AF93BF93B4
:100C7000EF93FF9381E090E064E870E048E850E093
:100C80009FDEFF91EF91BF91AF919F918F917F91E7
:100C90006F915F914F913F912F910F900BBE0F90ED
:100CA0000FBE0F901F90189585E361E0D3D185E3C7
:100CB00061E01DD18CB580618CBD8CB580648CBD2C
:100CC00084E361E014D183E361E011C11F920F92CC
:100CD0000FB60F9211242F933F938F939F93AF934F
:100CE000BF938091D1029091D202A091D302B09192
:100CF000D4023091D5020196A11DB11D232F2D5F85
:100D00002D3720F02D570196A11DB11D2093D5023E
:100D10008093D1029093D202A093D302B093D402D5
:100D20008091CD029091CE02A091CF02B091D002DD
:100D30000196A11DB11D8093CD029093CE02A09388
:100D4000CF02B093D002BF91AF919F918F913F910D
:100D50002F910F900FBE0F901F9018958FB7F8949A
:100D60002091D1023091D2024091D3025091D4020D
:100D70008FBFB901CA0108959B01AC017FB7F894F8
:100D80008091CD029091CE02A091CF02B091D0027D
:100D900066B5A89B05C06F3F19F00196A11DB11D56
:100DA0007FBFBA2FA92F982F8827860F911DA11DCD
:100DB000B11D62E0880F991FAA1FBB1F6A95D1F76A
:100DC000BC012DC0FFB7F8948091CD029091CE0266
:100DD000A091CF02B091D002E6B5A89B05C0EF3F2D
:100DE00019F00196A11DB11DFFBFBA2FA92F982F91
:100DF00088278E0F911DA11DB11DE2E0880F991F5C
:100E0000AA1FBB1FEA95D1F7861B970B885E9340FC
:100E1000C8F2215030404040504068517C4F21156D
:100E200031054105510571F60895789484B58260C5
:100E300084BD84B5816084BD85B5826085BD85B57E
:100E4000816085BDEEE6F0E0808181608083E1E82D
:100E5000F0E0108280818260808380818160808365
:100E6000E0E8F0E0808181608083E1EBF0E0808168
:100E700084608083E0EBF0E0808181608083E1E941
:100E8000F0E0808182608083808181608083E0E9FE
:100E9000F0E0808181608083E1EAF0E0808182601F
:100EA0008083808181608083E0EAF0E080818160DE
:100EB0008083E1E2F1E080818260808380818160D3
:100EC0008083E0E2F1E0808181608083EAE7F0E006
:100ED0008081846080838081826080838081816062
:100EE00080838081806880831092C1000895CF93B1
:100EF000DF93482F50E0CA0188589E4FFC0134917F
:100F00004E5C5E4FFA018491882369F190E0880F6E
:100F1000991FFC01EC51FF4FA591B491FC01E250E7
:100F2000FF4FC591D491662351F42FB7F8948C915B
:100F3000932F909589238C93888189230BC06230ED
:100F400061F42FB7F8948C91932F909589238C930B
:100F50008881832B88832FBF06C09FB7F8948C911C
:100F6000832B8C939FBFDF91CF910895893009F433
:100F700049C08A30A0F4843051F1853040F4823089
:100F800079F1833000F5813009F063C026C08730E5
:100F900079F1883098F5863009F05BC025C08D3036
:100FA00009F442C08E3028F48B30B1F18C30C0F59A
:100FB0002DC0803109F442C0813109F445C08F3021
:100FC00009F047C037C0809180008F7703C08091BF
:100FD00080008F7D80938000089584B58F7702C054
:100FE00084B58F7D84BD08958091B0008F7703C054
:100FF0008091B0008F7D8093B00008958091900023
:101000008F7707C0809190008F7D03C08091900002
:10101000877F8093900008958091A0008F7707C00C
:101020008091A0008F7D03C08091A000877F809376
:10103000A0000895809120018F7703C08091200146
:101040008F7D80932001089580912001877F809378
:1010500020010895FF920F931F93F62E482F50E022
:10106000CA0182549E4FFC012491CA0188589E4FA8
:10107000FC0114914E5C5E4FFA0104910023C1F013
:10108000222311F0822F72DFE02FF0E0EE0FFF1F1E
:10109000E250FF4FA591B4919FB7F894FF2021F43F
:1010A0008C911095812302C08C91812B8C939FBFD2
:1010B0001F910F91FF9008950F931F93482F50E0B9
:1010C000CA0182549E4FFC012491CA0188589E4F48
:1010D000FC0104914E5C5E4FFA011491112319F446
:1010E00020E030E014C0222311F0822F3FDF812F57
:1010F00090E0880F991F885E9E4FFC01A591B491E6
:101100008C9120E030E0802311F021E030E0C90133
:101110001F910F91089508951F920F920FB60F928D
:101120000BB60F9211242F933F934F938F939F935E
:10113000EF93FF938091C00082FD1DC04091C600D7
:1011400020911603309117032F5F3F4F2F7330709C
:1011500080911803909119032817390771F0E091D5
:101160001603F0911703EA52FD4F408330931703A3
:101170002093160302C08091C600FF91EF919F91CA
:101180008F914F913F912F910F900BBE0F900FBEFB
:101190000F901F90189508951F920F920FB60F92FF
:1011A0000BB60F9211242F933F934F938F939F93DE
:1011B000EF93FF938091C80082FD1DC04091CE0047
:1011C00020919E0330919F032F5F3F4F2F7330700C
:1011D0008091A0039091A1032817390771F0E09145
:1011E0009E03F0919F03E25AFC4F408330939F038C
:1011F00020939E0302C08091CE00FF91EF919F91BA
:101200008F914F913F912F910F900BBE0F900FBE7A
:101210000F901F90189508951F920F920FB60F927E
:101220000BB60F9211242F933F934F938F939F935D
:10123000EF93FF938091D00082FD1DC04091D600B6
:1012400020912604309127042F5F3F4F2F73307079
:1012500080912804909129042817390771F0E091B2
:101260002604F0912704EA51FC4F40833093270471
:101270002093260402C08091D600FF91EF919F91A8
:101280008F914F913F912F910F900BBE0F900FBEFA
:101290000F901F90189508951F920F920FB60F92FE
:1012A0000BB60F9211242F933F934F938F939F93DD
:1012B000EF93FF938091300182FD1DC04091360174
:1012C0002091AE043091AF042F5F3F4F2F733070E9
:1012D0008091B0049091B1042817390771F0E09122
:1012E000AE04F091AF04E259FB4F40833093AF045A
:1012F0002093AE0402C080913601FF91EF919F913F
:101300008F914F913F912F910F900BBE0F900FBE79
:101310000F901F901895E0910205F0910305E05C95
:10132000FF4F8191919120813181821B930B8F73AB
:101330009070892B09F0EFDEE0912405F0912505EE
:10134000E05CFF4F8191919120813181821B930B51
:101350008F739070892B09F01EDFE0914605F091A4
:101360004705E05CFF4F8191919120813181821B83
:10137000930B8F739070892B09F04DDFE091680516
:10138000F0916905E05CFF4F81919191208131815D
:10139000821B930B8F739070892B09F07CCF08957B
:1013A0001F920F920FB60F920BB60F9211242F932C
:1013B0003F938F939F93EF93FF9320915A03309124
:1013C0005B0380915C0390915D032817390731F42A
:1013D0008091C1008F7D8093C10014C0E0915C03B7
:1013E000F0915D03E65EFC4F208180915C0390915B
:1013F0005D0301968F73907090935D0380935C03FF
:101400002093C600FF91EF919F918F913F912F9173
:101410000F900BBE0F900FBE0F901F9018951F924C
:101420000F920FB60F920BB60F9211242F933F938A
:101430008F939F93EF93FF932091E2033091E30307
:101440008091E4039091E5032817390731F48091E6
:10145000C9008F7D8093C90014C0E091E403F0912E
:10146000E503EE55FC4F20818091E4039091E50364
:1014700001968F7390709093E5038093E40320931B
:10148000CE00FF91EF919F918F913F912F910F90FF
:101490000BBE0F900FBE0F901F9018951F920F92CA
:1014A0000FB60F920BB60F9211242F933F938F9389
:1014B0009F93EF93FF9320916A0430916B04809186
:1014C0006C0490916D042817390731F48091D10094
:1014D0008F7D8093D10014C0E0916C04F0916D0475
:1014E000E65DFB4F208180916C0490916D04019624
:1014F0008F73907090936D0480936C042093D6004A
:10150000FF91EF919F918F913F912F910F900BBE83
:101510000F900FBE0F901F9018951F920F920FB64D
:101520000F920BB60F9211242F933F938F939F939B
:10153000EF93FF932091F2043091F3048091F4042F
:101540009091F5042817390731F4809131018F7D8E
:101550008093310114C0E091F404F091F504EE544D
:10156000FB4F20818091F4049091F50401968F73D4
:1015700090709093F5048093F40420933601FF91CA
:10158000EF919F918F913F912F910F900BBE0F90F4
:101590000FBE0F901F901895AF92BF92DF92EF92FF
:1015A000FF920F931F93CF93DF93EC017A018B018E
:1015B000DD24403081EE580780E0680780E078073E
:1015C00011F0DD24D39491E0A92EB12CEC89FD8992
:1015D000DD2069F0C50108A002C0880F991F0A9498
:1015E000E2F7808360E079E08DE390E005C010824F
:1015F00060E874E88EE190E0A8019701B5D321502E
:10160000304040405040569547953795279580E1AA
:101610002030380720F0DD2011F0DD24D7CFE88915
:10162000F9893083EA89FB89208319A2EE89FF8931
:10163000408121E030E0C9010C8C02C0880F991F65
:101640000A94E2F7482B4083EE89FF894081C90163
:101650000D8C02C0880F991F0A94E2F7482B408333
:10166000EE89FF894081C9010E8C02C0880F991F45
:101670000A94E2F7482B4083EE89FF8980810F8C22
:1016800002C0220F331F0A94E2F7209528232083FB
:10169000DF91CF911F910F91FF90EF90DF90BF905E
:1016A000AF900895DC011C96ED91FC911D97E05CD4
:1016B000FF4F2191319180819181281B390B2F732C
:1016C0003070C9010895DC011C96ED91FC911D97C5
:1016D000E05CFF4F20813181E054F040DF01AE5BE0
:1016E000BF4F8D919C9111972817390719F42FEF4F
:1016F0003FEF07C08D919C91E80FF91F8081282F43
:1017000030E0C9010895DC011C96ED91FC911D9714
:10171000E05CFF4F20813181E054F040DF01AE5B9F
:10172000BF4F8D919C9111972817390719F42FEF0E
:101730003FEF10C08D919C911197E80FF91F208108
:101740008D919C91119701968F73907011969C9337
:101750008E9330E0C9010895DC0191968C919197A8
:10176000882339F05496ED91FC915597808186FF3E
:10177000F9CF91961C920895CF93DF93EC01EE85FB
:10178000FF85E05CFF4F20813181E054F0402F5F06
:101790003F4F2F733070DF01AE5BBF4F8D919C9137
:1017A000119728173907D1F3E05CFF4F80819181B1
:1017B000E054F040E80FF91F6083EE85FF85E05CA0
:1017C000FF4F31832083EE89FF89208181E090E003
:1017D0000F8C02C0880F991F0A94E2F7282B2083F0
:1017E00081E089A3EC89FD8980818064808381E028
:1017F00090E0DF91CF9108951F931092F904109219
:10180000F80428EE33E040E050E02093FA043093EF
:10181000FB044093FC045093FD0464E072E0709379
:10182000F7046093F60486ED92E0909303058093AD
:1018300002058AE193E0909305058093040585EC09
:1018400090E0909307058093060584EC90E09093D8
:1018500009058093080580EC90E090930B05809338
:101860000A0581EC90E090930D0580930C0582ECC5
:1018700090E090930F0580930E0586EC90E0909396
:1018800011058093100514E010931205B3E0B09396
:101890001305A7E0A0931405F5E0F0931505E1E02A
:1018A000E093160510921B0510921A0520931C0553
:1018B00030931D0540931E0550931F057093190525
:1018C000609318058EE593E0909325058093240599
:1018D00082EA93E090932705809326058DEC90E0B3
:1018E00090932905809328058CEC90E090932B052C
:1018F00080932A0588EC90E090932D0580932C0529
:1019000089EC90E090932F0580932E058AEC90E06F
:1019100090933105809330058EEC90E090933305E1
:101920008093320510933405B0933505A0933605A6
:10193000F0933705E093380510923D0510923C0571
:1019400020933E0530933F05409340055093410559
:1019500070933B0560933A0586EE93E090934705BC
:10196000809346058AE294E0909349058093480568
:1019700085ED90E090934B0580934A0584ED90E0CF
:1019800090934D0580934C0580ED90E090934F052A
:1019900080934E0581ED90E0909351058093500522
:1019A00082ED90E0909353058093520586ED90E090
:1019B000909355058093540510935605B0935705A1
:1019C000A0935805F0935905E0935A0510925F05CE
:1019D00010925E0520936005309361054093620587
:1019E0005093630570935D0560935C058EE694E00B
:1019F000909369058093680582EB94E090936B0562
:101A000080936A0585E391E090936D0580936C0562
:101A100084E391E090936F0580936E0580E391E0FD
:101A2000909371058093700581E391E09093730525
:101A30008093720582E391E090937505809374051D
:101A400086E391E09093770580937605109378056F
:101A5000B0937905A0937A05F0937B05E0937C051C
:101A60001F910895CF93DF93E0D90E94D602CBE86F
:101A7000D9E00E9460032097E1F34DDCFACFCF92CA
:101A8000DF92EF92FF920F931F93CF93DF937C012E
:101A90006B018A01C0E0D0E00FC0D6016D916D01ED
:101AA000D701ED91FC910190F081E02DC7011995CE
:101AB000C80FD91F015010400115110571F7CE0153
:101AC000DF91CF911F910F91FF90EF90DF90CF901A
:101AD0000895EF92FF920F931F938C01DC01ED911B
:101AE000FC910190F081E02D6DE019957C01D80109
:101AF000ED91FC910190F081E02DC8016AE019950B
:101B00009C012E0D3F1DC9011F910F91FF90EF9079
:101B10000895CF93DF93EC016115710519F420E06E
:101B200030E00FC0DB010D900020E9F71197A61BF4
:101B3000B70BE881F9810280F381E02DAD011995A1
:101B40009C01C901DF91CF9108954F925F927F92DE
:101B50008F929F92AF92BF92CF92DF92EF92FF92BD
:101B60000F931F93DF93CF93CDB7DEB7A1970FB637
:101B7000F894DEBF0FBECDBF2C01742ECB012230F6
:101B800008F42AE019A231E2C32ED12CCC0EDD1EBE
:101B9000822E9924AA24BB24672D752FA5019401B8
:101BA000E3D079018A01C801B701A50194019ED053
:101BB000472D461B0894C108D1084A3014F4405DF3
:101BC00001C0495CF6014083E114F10401051105EF
:101BD00021F07E2C5F2DC801DFCFC201B60199DF55
:101BE000A1960FB6F894DEBF0FBECDBFCF91DF91A7
:101BF0001F910F91FF90EF90DF90CF90BF90AF902B
:101C00009F908F907F905F904F900895DC012115F9
:101C1000310541F4ED91FC910190F081E02D642FAC
:101C20001995089592CFCF92DF92EF92FF920F9382
:101C30001F936C01E62E9A01FF2400E010E0B8012A
:101C4000A701E4DF8C01C60144DF080F191FC8019A
:101C50001F910F91FF90EF90DF90CF9008952F92FA
:101C60003F924F925F926F927F928F929F92AF922C
:101C7000BF92CF92DF92EF92FF920F931F93DF9369
:101C8000CF93CDB7DEB73B014C0119012A016E8914
:101C90007F89888D998D6A197B098C099D09621A43
:101CA000730A840A950AA401930120D0E218F3086C
:101CB00004091509A801970179D02A0D3B1D4C1D77
:101CC0005D1DB901CA01CF91DF911F910F91FF9066
:101CD000EF90DF90CF90BF90AF909F908F907F90CC
:101CE0006F905F904F903F902F900895629FD0012A
:101CF000739FF001829FE00DF11D649FE00DF11DC7
:101D0000929FF00D839FF00D749FF00D659FF00D75
:101D10009927729FB00DE11DF91F639FB00DE11D62
:101D2000F91FBD01CF0111240895991B79E004C06A
:101D3000991F961708F0961B881F7A95C9F780950A
:101D4000089597FB092E07260AD077FD04D049D0C5
:101D500006D000201AF4709561957F4F0895F6F72C
:101D6000909581959F4F0895A1E21A2EAA1BBB1B47
:101D7000FD010DC0AA1FBB1FEE1FFF1FA217B30757
:101D8000E407F50720F0A21BB30BE40BF50B661F6D
:101D9000771F881F991F1A9469F760957095809531
:101DA00090959B01AC01BD01CF01089597FB092ED1
:101DB00005260ED057FD04D0D7DF0AD0001C38F41A
:101DC00050954095309521953F4F4F4F5F4F089567
:101DD000F6F790958095709561957F4F8F4F9F4F47
:101DE0000895AA1BBB1B51E107C0AA1FBB1FA61762
:101DF000B70710F0A61BB70B881F991F5A95A9F7B4
:101E000080959095BC01CD010895EE0FFF1F0590C0
:0A1E1000F491E02D1994F894FFCF2F
:101E1A0000000000BC0B3F0D520B830B630BAC0B95
:00000001FF
