:1000000004C100002FC100002DC100002BC1000061
:1000100029C1000027C1000025C1000023C1000044
:1000200021C100001FC100001DC100001BC1000054
:1000300019C1000017C1000015C1000013C1000064
:1000400011C100000C942B090DC100000BC1000070
:1000500009C1000007C1000005C100000C943A0A64
:1000600001C100000C94600C0C94A40DFBC00000B6
:10007000F9C00000F7C00000F5C00000F3C00000A8
:100080000C94FE08EFC00000EDC00000EBC00000C3
:100090000C94A00C0C94E30DE5C0000054C10000CA
:1000A000E1C00000DFC000000C94D108DBC00000FC
:1000B000D9C00000D7C00000D5C000000C94A4082F
:1000C000D1C00000CFC00000CDC000000C94E00CF7
:1000D0000C94220EC7C000000C94200D0C94610EED
:1000E000C1C0000000002100240027002A002D00CC
:1000F0003000330001010000040107010A01000083
:100100002200250028002B002E00310034000201BF
:100110000000050108010B0100002000230026005B
:1001200029002C002F00320000010000030106010D
:10013000090105050505070508080808020202026D
:100140000A0A080804040404010101010101010173
:100150000303030303030303040707070C0C0C0C3E
:100160000C0C0C0C02020202060606060606060627
:100170000B0B0B0B0B0B0B0B0102102020080810B4
:100180002040102040800201020108040201010207
:1001900004081020408080402010080402018004E0
:1001A000020180402010080402010804020101023B
:1001B0000408102040800102040810204080000044
:1001C000090A02080B0C0D070603040100000000D9
:1001D000000000000000000000000000000000001F
:1001E0000000000000000000000011100F000000DF
:1001F00000000000000000000000000000000000FF
:10020000000000001B06A409D00F11241FBECFEF71
:10021000D1E2DEBFCDBF00E00CBF12E0A0E0B2E053
:10022000EAE8F8E200E00BBF02C007900D92AE359D
:10023000B107D9F71BBE16E0AEE5B2E001C01D92D2
:10024000A737B107E1F712E0CAE0D2E004C0229775
:10025000FE010E943F14C430D107C9F70E94061165
:100260000C944314CDCE0F931F93582F122F41326D
:1002700010F081E04AC080915E028823E1F782E0BD
:1002800080935E02009360028FEF8093CB02109206
:10029000860240938702A6E6B2E0FB0102C081918C
:1002A0008D938E2F861B8417D0F310925F0280915E
:1002B0005F02550F852B80935F0280916102813030
:1002C00041F41092610280915F028093BB0085EC43
:1002D00001C085EE8093BC00112321F080915E0265
:1002E0008230E1F38091CB028F3F11F480E00DC0AA
:1002F0008091CB02803211F482E007C08091CB0262
:10030000803311F084E001C083E01F910F910895C4
:10031000482F613210F081E0089580915E028430B0
:1003200011F082E008956093A902A8E8B2E0842F5A
:100330009C01F90102C081918D938E2F841B861739
:10034000D0F380E008951F920F920FB60F920BB674
:100350000F9211242F933F934F935F936F937F934B
:100360008F939F93AF93BF93EF93FF938091B900C7
:1003700090E0887F90708036910509F4F2C0813654
:100380009105CCF58832910509F47BC0893291053D
:10039000B4F48031910509F46FC0813191053CF4CA
:1003A000009709F447C1089709F04FC165C088312B
:1003B000910509F466C0809709F047C182C0803476
:1003C000910509F4A4C08134910544F4803391056A
:1003D00009F482C0C89709F038C189C080359105F9
:1003E00009F489C08835910509F496C088349105CF
:1003F00009F02BC1AEC08839910509F413C18939C0
:100400009105ECF48837910509F4ABC08937910563
:100410004CF48836910509F4A4C08037910509F0A1
:1004200014C19FC08838910509F4FCC0803991053A
:1004300009F49DC08038910509F007C198C0803B40
:10044000910509F4C6C0813B91054CF4803A9105B1
:1004500009F49FC0883A910509F0F7C0BAC0803C02
:10046000910509F4E3C0883C910509F4DFC0883B9D
:10047000910509F0EAC0C2C080915F028093BB0081
:10048000CFC09091860280918702981768F490916E
:100490008602E92FF0E0EA59FD4F80818093BB008E
:1004A0009F5F90938602BCC080916002882309F40C
:1004B0004BC085ED8093BC008091BC0084FDFCCFD7
:1004C000C2C080E28093CB0285ED8093BC00809116
:1004D000BC0084FDFCCFB7C080E38093CB0285EDE8
:1004E0008093BC008091BC0084FDFCCFACC088E34D
:1004F0008093CB029BC0809186029091BB00E82F35
:10050000F0E0EA59FD4F90838F5F809386029091CF
:1005100086028091870282C0809186029091BB0002
:10052000E82FF0E0EA59FD4F90838F5F80938602B9
:1005300080916002882341F085ED8093BC0080911A
:10054000BC0084FDFCCF7FC081E08093610284EA1F
:100550006EC085ED8093BC008091BC0084FDFCCF13
:1005600072C083E080935E021092CA0259C08091EB
:10057000CA02803208F056C08091CA029091BB0036
:10058000E82FF0E0E655FD4F90838F5F8093CA021D
:1005900047C08091CA02803230F4E091CA02F0E094
:1005A000E655FD4F108285ED8093BC008091BC0024
:1005B00084FDFCCF10925E026091CA02E091640259
:1005C000F09165028AEA92E070E019951092CA02F1
:1005D0002DC084E080935E021092A8021092A902BE
:1005E000E0916202F091630219958091A90288233B
:1005F00029F481E08093A902109288029091A802C8
:10060000E92FF0E0E857FD4F80818093BB009F5FAA
:100610009093A8029091A8028091A902981710F4D3
:1006200085EC01C085E88093BC000FC085EC809309
:10063000BC0009C01092CB0285ED8093BC00809174
:10064000BC0084FDFCCF10925E02FF91EF91BF9140
:10065000AF919F918F917F916F915F914F913F915A
:100660002F910F900BBE0F900FBE0F901F901895FB
:1006700010925E0281E0809360021092610284E138
:1006800061E00E94FE0B85E161E00E94FE0BE9EB58
:10069000F0E080818E7F808380818D7F808388E4FD
:1006A0008093B80085E48093BC000895FF920F9377
:1006B0001F93F82E0AEB13E0C80168E270E00AD637
:1006C000C80160E089D6C8016F2D86D6C801C7D69B
:1006D0001F910F91FF9008950F931F9386E361E0A0
:1006E000DAD787E361E0D7D788E361E0D4D789E33D
:1006F00061E0D1D78AE361E0CED78BE361E0CBD76D
:100700008CE361E0C8D78DE361E0C5D78EE360E09C
:10071000C2D78FE360E0BFD780E460E0BCD781E45C
:1007200060E0B9D782E460E0B6D783E460E0B3D795
:1007300084E460E0B0D785E460E0ADD78BE361E0AE
:100740000E94FE0B89E360E00E94FE0B89E361E0FA
:100750000E94FE0B88E361E00E94FE0B8AE361E0E9
:100760000E94FE0B8CE361E00E94FE0B0AEB13E09B
:10077000C80177D6C80168E270E0ACD5C80161E075
:100780002BD6C8016FE728D6C80169D61F910F91F3
:1007900008951F93182F85E360E00E94FE0B83E00D
:1007A0008EBD0DB407FEFDCF8EB51EBD0DB407FE88
:1007B000FDCF8EB51EBC0DB407FEFDCF1EB585E383
:1007C00061E00E94FE0B812F1F910895FF920F930D
:1007D0001F93182F062FF42E85E360E00E94FE0B76
:1007E00085E08EBD0DB407FEFDCF8EB51EBD0DB4E8
:1007F00007FEFDCF8EB581E090E002C0880F991F03
:100800000A95E2F78EBD0DB407FEFDCF8EB5FF2031
:1008100031F08FEF8EBD0DB407FEFDCF04C01EBCBE
:100820000DB407FEFDCF8EB585E361E0E7D71F91DC
:100830000F91FF9008950F931F93182F062F85E3B4
:1008400060E0DCD782E08EBD0DB407FEFDCF8EB533
:100850001EBD0DB407FEFDCF8EB50EBD0DB407FE57
:10086000FDCF8EB585E361E0C9D71F910F91089543
:100870001F93182F8BE263E0DEDF110F110F110FB2
:1008800017608FE0612FD7DF8EE083DF20E090E0FC
:1008900045E0959587954A95E1F7882309F421E08D
:1008A000822F1F910895AF92BF92CF92DF92EF9265
:1008B000FF920F931F93CF93DF93EC017A018B018B
:1008C00021D65B016C01AE0CBF1CC01ED11E06C040
:1008D0008CE25FDF80FD0AC081FDD7C013D66A15A8
:1008E0007B058C059D05A0F380E0C4C080E651DF48
:1008F00000E010E090E023E0969587952A95E1F7D7
:1009000081708D830115110529F481E642DFE82EFF
:1009100082E604C081E73DDFE82E82E73ADFE82F78
:1009200090E0AC01B5E055954795BA95E1F72E2DCD
:1009300030E0A3E0220F331FAA95E1F7422B532B9F
:1009400060E070E049835A836B837C83F3E0969583
:100950008795FA95E1F781708883882309F441C06F
:100960008E2F90E0A0E0B0E083709070A070B07027
:10097000E2E0440F551F661F771FEA95D1F7842BDD
:10098000952BA62BB72B89839A83AB83BC8383E6F5
:1009900000DF90E0A0E0B0E029813A814B815C81EA
:1009A000542F432F322F2227822B932BA42BB52B8E
:1009B00089839A83AB83BC8384E6EBDE90E0A0E07E
:1009C000B0E029813A814B815C81542F432F322F33
:1009D0002227822B932BA42BB52B89839A83AB835D
:1009E000BC8389819A81AB81BC81BF7189839A83E1
:1009F000AB83BC830115110511F485E601C085E7C1
:100A0000C8DE8F708E8385E360E0F8D683E08EBD0C
:100A10000DB407FEFDCF8EB50115110551F486E624
:100A20008EBD0DB407FEFDCF8EB5FE0120E030E097
:100A30000FC086E78EBD0DB407FEFDCFF5CF1EBCFF
:100A40000DB407FEFDCF8EB587832F5F3F4F3196E4
:100A50008E8190E02817390794F385E361E0CED6C4
:100A6000012B19F48CE260E002C08CE261E040E00E
:100A7000ADDE81E0DF91CF911F910F91FF90EF905C
:100A8000DF90CF90BF90AF90089580E782DE01E0C5
:100A900010E030CF0DD485E361E0FDD585E360E063
:100AA000ADD680EC8EBD0DB407FEFDCF8EB585E3CF
:100AB00061E0A4D664E670E080E090E031D58EE09D
:100AC00068DE20E090E035E0959587953A95E1F76E
:100AD000843009F421E0822F089583E1C1D6892B67
:100AE00009F42ED0D6D033C08FEE95E040E052EC22
:100AF00061E070E00E94A00EEAD095C08091D8021B
:100B00000895FC01E453FD4F278130E00297B4F4CF
:100B100084E290E0AC01249FC001259F900D349F9A
:100B2000900D112463E370E00E94D9139B01CB0167
:100B300088559040059710F42AE530E0C9010895E2
:100B40008CEC92E048EE53E060E070E0ACCE0F93A6
:100B50001F93CF93DF938FEE95E061E172E00E94E7
:100B600048128CEC92E048EE53E060E070E09BDECF
:100B70008FEE95E061E272E00E9448124091CD0252
:100B80005091CE026091CF027091D0028FEE95E02D
:100B90002AE030E00E94DA118FEE95E00E943D11CC
:100BA0008FEE95E06BE272E00E9448128FEE95E0C6
:100BB0006091D2024AE050E00E94E7118FEE95E08A
:100BC0000E943D1103ED12E0C0E0D0E021C08FEEA5
:100BD00095E068E372E00E9448128FEE95E0BE0156
:100BE0004AE050E00E9436128FEE95E06AE372E030
:100BF0000E9448128FEE95E0F80161918F014AE062
:100C000050E00E94E7118FEE95E00E943D11219681
:100C10008091D20290E0C817D907CCF2DF91CF9132
:100C20001F910F91089586E090E034DF81E020DE8F
:100C300083E160E030C58BED92E055C0892B19F05F
:100C40008FE061E002C08FE060E0D8C51F93182FED
:100C500087FD06C08CE361E0D1D5612F609504C0AB
:100C60008CE360E0CBD5612F660F70E0882777FDBD
:100C70008095982F0E94BF1223E333E343E35FE3A1
:100C80000E944B130E949112DC01CB010FDD1F91DA
:100C9000089534DF8093DE02813079F482E090E0C1
:100CA00030DFBC018BED92E074D081E090E029DF71
:100CB000CDDF83E090E025DF09C08FE7C7DF8BED54
:100CC00092E06AE570E065D080E090E0B7CF8BED10
:100CD00092E069E070E073D1FFDC8FE061E0DBD48B
:100CE0001092DE020895FC018091DF02803390F4BF
:100CF00080838F5F8093DF02815090E0FC01EE0FD4
:100D0000FF1FE80FF91FE052FD4F88EB9BE0928335
:100D1000818308958FEF80830895FC012081203323
:100D2000B8F58181992787FD90954AEF50E0481BDF
:100D3000590B440F551F440F551F6417750784F056
:100D40008281992787FD90954FE352E0481B590B0C
:100D5000440F551F440F551F641775070CF4AB0162
:100D600042505040CA01AA2797FDA095BA2F880F7C
:100D7000991FAA1FBB1F4FB7F89430E0F901EE0F7F
:100D8000FF1FE20FF31FE052FD4F928381834FBF9D
:100D90000895AF92BF92CF92DF92EF92FF920F939E
:100DA0001F93CF93DF93EC019B0183E0683E7807AC
:100DB0000CF048C077FF03C020E030E005C0653B81
:100DC000710514F024EB30E000D00F92B9018827B0
:100DD00077FD8095982F2981332727FD3095EAEFFD
:100DE000AE2EB12CA21AB30AAA0CBB1CAA0CBB1CB7
:100DF000CC24B7FCC094DC2CEA81FF27E7FDF095FA
:100E00002FE332E02E1B3F0B220F331F220F331F25
:100E1000442737FD4095542FEDB7FEB72183328329
:100E20004383548320E030E040E050E004EBE02EC8
:100E3000F12C012D112D0E944A129B010F900F9051
:100E40000F900F90CE01B90168DFDF91CF911F9114
:100E50000F91FF90EF90DF90CF90BF90AF900895EB
:100E6000CF92DF92EF92FF921F93CF93DF93EC012B
:100E7000162F7A0169018881803308F092C0862F8D
:100E800061E009D4888190E0FC01EE0FFF1FE80FBC
:100E9000F91FE052FD4F1F738081807C812B80837E
:100EA00088EE93E08E199F0964E070E00E94D913E8
:100EB00069838CEF98E08C199D0964E070E00E94D2
:100EC000D9136A83A8818A2F6CE00E94CD13682F02
:100ED00070E0AB01440F551F460F571F440F551FBD
:100EE000440F551F20E030E0C901840F951FFC011D
:100EF000EE0FFF1FE80FF91FE052FD4F808186FDC6
:100F000044C02F5F3F4F2C30310571F753C0109212
:100F1000800082E08093810010928500109284000E
:100F2000B19A80916F00826080936F002EC0623012
:100F3000710569F41092900082E080939100109204
:100F400095001092940088BB809371001EC063309E
:100F5000710569F41092A00082E08093A1001092C4
:100F6000A5001092A40089BB809372000EC0672B6D
:100F700061F41092200182E08093210110922501FA
:100F8000109224018ABB809373008A2F90E0FC01A9
:100F9000EE0FFF1FE80FF91FE052FD4F80818064C4
:100FA00080838881DF91CF911F91FF90EF90DF9038
:100FB000CF9008956130710509F0B9CFA8CF48EE00
:100FC00053E02CEF38E04CCFEF92FF920F931F933A
:100FD000CF93DF938B017A01EC01DC01A059BC4F68
:100FE0008C9187FF04C0FB011182108236C0AE01D4
:100FF000440F551F4C0F5D1F440F551F440F551FC5
:101000002C91332727FD3095240F351F8091DF0267
:1010100090E0281739070CF58C91992787FD90955A
:10102000840F951FFC01EE0FFF1FE80FF91FE05220
:10103000FD4F808186FF11C08C91992787FD909587
:10104000840F951FFC01EE0FFF1FE80FF91FE05200
:10105000FD4F80818F7360E0D1D3DE01A059BC4F7A
:101060008C918F5F8C93AE01440F551F4C0F5D1F09
:10107000440F551F440F551F2C91332727FD3095E2
:10108000240F351F8091DF0290E0281739070CF0FC
:101090004CC08C918C300CF048C0F801208131811B
:1010A0008C91992787FD9095840F951FFC01EE0F79
:1010B000FF1FE80FF91FE052FD4F81819281280F39
:1010C000391FF701318320838C91992787FD9095F3
:1010D000840F951FFC01EE0FFF1FE80FF91FE05270
:1010E000FD4F808186FF29C08C91992787FD9095BF
:1010F000840F951FFC01EE0FFF1FE80FF91FE05250
:10110000FD4F80818F7361E079D317C080E49CE943
:1011100004C0F801808191810496F7019183808356
:10112000C059DC4F8FEF888308C0F801808191811E
:10113000049680549C4950F3ECCFDF91CF911F91DE
:101140000F91FF90EF9008951F920F920FB60F929C
:101150000BB60F9211242F933F934F935F936F938E
:101160007F938F939F93AF93BF93EF93FF9380E011
:1011700090E064E271E048E251E026DFFF91EF91F8
:10118000BF91AF919F918F917F916F915F914F919F
:101190003F912F910F900BBE0F900FBE0F901F909D
:1011A00018951F920F920FB60F920BB60F92112443
:1011B0002F933F934F935F936F937F938F939F935F
:1011C000AF93BF93EF93FF9383E090E064EA70E006
:1011D00048EA50E0F9DEFF91EF91BF91AF919F9106
:1011E0008F917F916F915F914F913F912F910F90D0
:1011F0000BBE0F900FBE0F901F9018951F920F926D
:101200000FB60F920BB60F9211242F933F934F936B
:101210005F936F937F938F939F93AF93BF93EF935E
:10122000FF9382E090E064E970E048E950E0CCDEB2
:10123000FF91EF91BF91AF919F918F917F916F91AE
:101240005F914F913F912F910F900BBE0F900FBE6A
:101250000F901F9018951F920F920FB60F920BB61A
:101260000F9211242F933F934F935F936F937F932C
:101270008F939F93AF93BF93EF93FF9381E090E0A1
:1012800064E870E048E850E09FDEFF91EF91BF9185
:10129000AF919F918F917F916F915F914F913F910E
:1012A0002F910F900BBE0F900FBE0F901F901895AF
:1012B00085E361E0A3D285E361E0EDD18CB5806187
:1012C0008CBD8CB580648CBD84E361E0E4D183E3A4
:1012D00061E0E1C181E08093B903609396031092CD
:1012E000B7031092B80308952091950330E08091E0
:1012F0009403281B3109C9010895409194038091FA
:101300009503481718F02FEF3FEF0AC0E42FF0E0E5
:10131000EC58FC4F8081282F30E04F5F40939403BE
:10132000C9010895E091940380919503E81718F09E
:10133000EFEFFFEF06C0F0E0EC58FC4F8081E82FA4
:10134000F0E0CF01089508951092BD031092BC0300
:1013500088EE93E0A0E0B0E08093BE039093BF03DB
:10136000A093C003B093C10381E492E09093BB03C8
:101370008093BA030895CF92DF92EF92FF920F937A
:101380001F93CF93DF937C016B018A018091B90396
:101390008823A1F0C0E0D0E00DC0D701ED91FC9111
:1013A000D601AC0FBD1F0190F081E02DC7016C91FB
:1013B00019952196C017D10780F304C0CB01642F83
:1013C0000E948801C801DF91CF911F910F91FF907A
:1013D000EF90DF90CF900895DF93CF930F92CDB72A
:1013E000DEB7FC0169838091B9038823C9F080913D
:1013F000B803803238F081E090E09383828320E06C
:1014000030E015C08091B703E82FF0E0E956FC4FBB
:10141000998190838F5F8093B7038093B80305C051
:10142000CE01019661E00E94880121E030E0C9010F
:101430000F90CF91DF9108950F93062F809196031F
:1014400067E973E04091B80321E00E9433011092F4
:10145000B7031092B8031092B9030F91089561E099
:10146000EBCF10929403109295031092B703109251
:10147000B803FEC81F920F920FB60F9211242F933C
:101480003F938F939F93AF93BF938091CA039091A3
:10149000CB03A091CC03B091CD033091CE03019644
:1014A000A11DB11D232F2D5F2D3720F02D57019643
:1014B000A11DB11D2093CE038093CA039093CB034B
:1014C000A093CC03B093CD038091C6039091C70342
:1014D000A091C803B091C9030196A11DB11D8093CD
:1014E000C6039093C703A093C803B093C903BF91E9
:1014F000AF919F918F913F912F910F900FBE0F90C1
:101500001F9018958FB7F8942091CA033091CB03A0
:101510004091CC035091CD038FBFB901CA0108950A
:101520009B01AC017FB7F8948091C6039091C703EB
:10153000A091C803B091C90366B5A89B05C06F3FD1
:1015400019F00196A11DB11D7FBFBA2FA92F982FA9
:101550008827860F911DA11DB11D62E0880F991F7C
:10156000AA1FBB1F6A95D1F7BC012DC0FFB7F89425
:101570008091C6039091C703A091C803B091C9039D
:10158000E6B5A89B05C0EF3F19F00196A11DB11D5E
:10159000FFBFBA2FA92F982F88278E0F911DA11D4D
:1015A000B11DE2E0880F991FAA1FBB1FEA95D1F772
:1015B000861B970B885E9340C8F221503040404014
:1015C000504068517C4F211531054105510571F698
:1015D0000895789484B5826084BD84B5816084BDAB
:1015E00085B5826085BD85B5816085BDEEE6F0E09C
:1015F000808181608083E1E8F0E0108280818260F8
:101600008083808181608083E0E8F0E08081816078
:101610008083E1EBF0E0808184608083E0EBF0E0A8
:10162000808181608083E1E9F0E080818260808355
:10163000808181608083E0E9F0E080818160808347
:10164000E1EAF0E080818260808380818160808334
:10165000E0EAF0E0808181608083E1E2F1E0808176
:1016600082608083808181608083E0E2F1E080811C
:1016700081608083EAE7F0E08081846080838081FC
:1016800082608083808181608083808180688083A4
:101690001092C1000895CF93DF93482F50E0CA0104
:1016A00088589E4FFC0134914E5C5E4FFA01849144
:1016B000882369F190E0880F991FFC01EC51FF4FDE
:1016C000A591B491FC01E250FF4FC591D4916623DE
:1016D00051F42FB7F8948C91932F909589238C9384
:1016E000888189230BC0623061F42FB7F8948C9104
:1016F000932F909589238C938881832B88832FBF88
:1017000006C09FB7F8948C91832B8C939FBFDF9179
:10171000CF910895893009F449C08A30A0F484300B
:1017200051F1853040F4823079F1833000F5813019
:1017300009F063C026C0873079F1883098F586308B
:1017400009F05BC025C08D3009F442C08E3028F40A
:101750008B30B1F18C30C0F52DC0803109F442C01E
:10176000813109F445C08F3009F047C037C08091FE
:1017700080008F7703C0809180008F7D80938000F0
:10178000089584B58F7702C084B58F7D84BD089598
:101790008091B0008F7703C08091B0008F7D8093DF
:1017A000B0000895809190008F7707C080919000DD
:1017B0008F7D03C080919000877F80939000089573
:1017C0008091A0008F7707C08091A0008F7D03C01B
:1017D0008091A000877F8093A000089580912001D0
:1017E0008F7703C0809120018F7D80932001089521
:1017F00080912001877F809320010895FF920F93AD
:101800001F93F62E482F50E0CA0182549E4FFC01D0
:101810002491CA0188589E4FFC0114914E5C5E4F82
:10182000FA0104910023C1F0222311F0822F72DF0C
:10183000E02FF0E0EE0FFF1FE250FF4FA591B491B3
:101840009FB7F894FF2021F48C911095812302C05A
:101850008C91812B8C939FBF1F910F91FF900895C6
:101860000F931F93482F50E0CA0182549E4FFC01F2
:101870002491CA0188589E4FFC0104914E5C5E4F32
:10188000FA011491112319F420E030E014C022234E
:1018900011F0822F3FDF812F90E0880F991F885E23
:1018A0009E4FFC01A591B4918C9120E030E0802303
:1018B00011F021E030E0C9011F910F9108950895C2
:1018C0001F920F920FB60F920BB60F9211242F9307
:1018D0003F934F938F939F93EF93FF938091C0001B
:1018E00082FD1DC04091C60020910F04309110046C
:1018F0002F5F3F4F2F73307080911104909112042D
:101900002817390771F0E0910F04F0911004E153AA
:10191000FC4F40833093100420930F0402C0809149
:10192000C600FF91EF919F918F914F913F912F9121
:101930000F900BBE0F900FBE0F901F90189508953B
:101940001F920F920FB60F920BB60F9211242F9386
:101950003F934F938F939F93EF93FF938091C80092
:1019600082FD1DC04091CE002091970430919804D3
:101970002F5F3F4F2F7330708091990490919A049C
:101980002817390771F0E0919704F0919804E95A0B
:10199000FB4F4083309398042093970402C08091BA
:1019A000CE00FF91EF919F918F914F913F912F9199
:1019B0000F900BBE0F900FBE0F901F9018950895BB
:1019C0001F920F920FB60F920BB60F9211242F9306
:1019D0003F934F938F939F93EF93FF938091D0000A
:1019E00082FD1DC04091D60020911F053091200539
:1019F0002F5F3F4F2F73307080912105909122050A
:101A00002817390771F0E0911F05F0912005E15288
:101A1000FB4F40833093200520931F0502C0809127
:101A2000D600FF91EF919F918F914F913F912F9110
:101A30000F900BBE0F900FBE0F901F90189508953A
:101A40001F920F920FB60F920BB60F9211242F9385
:101A50003F934F938F939F93EF93FF938091300128
:101A600082FD1DC0409136012091A7053091A80547
:101A70002F5F3F4F2F7330708091A9059091AA0579
:101A80002817390771F0E091A705F091A805E959E9
:101A9000FA4F40833093A8052093A70502C0809198
:101AA0003601FF91EF919F918F914F913F912F912F
:101AB0000F900BBE0F900FBE0F901F901895E091E6
:101AC000FB05F091FC05E05CFF4F81919191208135
:101AD0003181821B930B8F739070892B09F0EFDE9D
:101AE000E0911D06F0911E06E05CFF4F81919191FF
:101AF00020813181821B930B8F739070892B09F0A9
:101B00001EDFE0913F06F0914006E05CFF4F8191BF
:101B1000919120813181821B930B8F739070892B5F
:101B200009F04DDFE0916106F0916206E05CFF4F45
:101B30008191919120813181821B930B8F739070E1
:101B4000892B09F07CCF08951F920F920FB60F9248
:101B50000BB60F9211242F933F938F939F93EF9384
:101B6000FF93209153043091540480915504909137
:101B700056042817390731F48091C1008F7D809376
:101B8000C10014C0E0915504F0915604ED5EFB4F86
:101B90002081809155049091560401968F73907026
:101BA00090935604809355042093C600FF91EF91C3
:101BB0009F918F913F912F910F900BBE0F900FBE71
:101BC0000F901F9018951F920F920FB60F920BB6A1
:101BD0000F9211242F933F938F939F93EF93FF9333
:101BE0002091DB043091DC048091DD049091DE04CF
:101BF0002817390731F48091C9008F7D8093C9007F
:101C000014C0E091DD04F091DE04E556FB4F208125
:101C10008091DD049091DE0401968F739070909313
:101C2000DE048093DD042093CE00FF91EF919F911D
:101C30008F913F912F910F900BBE0F900FBE0F9081
:101C40001F9018951F920F920FB60F920BB60F921E
:101C500011242F933F938F939F93EF93FF932091A2
:101C6000630530916405809165059091660528179C
:101C7000390731F48091D1008F7D8093D10014C059
:101C8000E0916505F0916605ED5DFA4F2081809148
:101C900065059091660501968F7390709093660527
:101CA000809365052093D600FF91EF919F918F91CE
:101CB0003F912F910F900BBE0F900FBE0F901F9072
:101CC00018951F920F920FB60F920BB60F92112418
:101CD0002F933F938F939F93EF93FF932091EB0567
:101CE0003091EC058091ED059091EE0528173907AC
:101CF00031F4809131018F7D8093310114C0E091E6
:101D0000ED05F091EE05E555FA4F20818091ED0546
:101D10009091EE0501968F7390709093EE058093ED
:101D2000ED0520933601FF91EF919F918F913F91A7
:101D30002F910F900BBE0F900FBE0F901F90189514
:101D4000AF92BF92DF92EF92FF920F931F93CF93C8
:101D5000DF93EC017A018B01DD24403081EE5807DE
:101D600080E0680780E0780711F0DD24D39491E0EB
:101D7000A92EB12CEC89FD89DD2069F0C50108A0F0
:101D800002C0880F991F0A94E2F7808360E079E02F
:101D90008DE390E005C0108260E874E88EE190E089
:101DA000A801970119D52150304040405040569528
:101DB00047953795279580E12030380720F0DD20C2
:101DC00011F0DD24D7CFE889F9893083EA89FB89CE
:101DD000208319A2EE89FF89408121E030E0C9010A
:101DE0000C8C02C0880F991F0A94E2F7482B40839D
:101DF000EE89FF894081C9010D8C02C0880F991FAF
:101E00000A94E2F7482B4083EE89FF894081C9019B
:101E10000E8C02C0880F991F0A94E2F7482B40836A
:101E2000EE89FF8980810F8C02C0220F331F0A9434
:101E3000E2F7209528232083DF91CF911F910F9106
:101E4000FF90EF90DF90BF90AF900895DC011C965B
:101E5000ED91FC911D97E05CFF4F219131918081C4
:101E60009181281B390B2F733070C9010895DC0153
:101E70001C96ED91FC911D97E05CFF4F2081318114
:101E8000E054F040DF01AE5BBF4F8D919C91119704
:101E90002817390719F42FEF3FEF07C08D919C9158
:101EA000E80FF91F8081282F30E0C9010895DC0177
:101EB0001C96ED91FC911D97E05CFF4F20813181D4
:101EC000E054F040DF01AE5BBF4F8D919C911197C4
:101ED0002817390719F42FEF3FEF10C08D919C910F
:101EE0001197E80FF91F20818D919C911197019610
:101EF0008F73907011969C938E9330E0C901089572
:101F0000DC0191968C919197882339F05496ED914C
:101F1000FC915597808186FFF9CF91961C92089588
:101F2000CF93DF93EC01EE85FF85E05CFF4F2081CE
:101F30003181E054F0402F5F3F4F2F733070DF014D
:101F4000AE5BBF4F8D919C91119728173907D1F344
:101F5000E05CFF4F80819181E054F040E80FF91F71
:101F60006083EE85FF85E05CFF4F31832083EE893F
:101F7000FF89208181E090E00F8C02C0880F991FBB
:101F80000A94E2F7282B208381E089A3EC89FD895C
:101F900080818064808381E090E0DF91CF9108951B
:101FA0001F931092F2051092F10528EE33E040E005
:101FB00050E02093F3053093F4054093F5055093DA
:101FC000F60561E572E07093F0056093EF058FEC24
:101FD00093E09093FC058093FB0583E194E090935C
:101FE000FE058093FD0585EC90E0909300068093BC
:101FF000FF0584EC90E0909302068093010680EC4C
:1020000090E0909304068093030681EC90E0909317
:1020100006068093050682EC90E090930806809374
:10202000070686EC90E090930A068093090614E078
:1020300010930B06B3E0B0930C06A7E0A0930D0637
:10204000F5E0F0930E06E1E0E0930F06109214061F
:102050001092130620931506309316064093170628
:1020600050931806709312066093110687E594E06A
:1020700090931E0680931D068BE994E090932006B2
:1020800080931F068DEC90E09093220680932106AA
:102090008CEC90E0909324068093230688EC90E0EB
:1020A000909326068093250689EC90E0909328066D
:1020B000809327068AEC90E090932A068093290665
:1020C0008EEC90E090932C0680932B0610932D06B7
:1020D000B0932E06A0932F06F0933006E0933106BE
:1020E0001092360610923506209337063093380644
:1020F0004093390650933A06709334066093330642
:102100008FED94E09093400680933F0683E295E044
:10211000909342068093410685ED90E090934406AB
:102120008093430684ED90E09093460680934506A5
:1021300080ED90E0909348068093470681ED90E013
:1021400090934A068093490682ED90E090934C0666
:1021500080934B0686ED90E090934E0680934D065B
:1021600010934F06B0935006A0935106F093520679
:10217000E093530610925806109257062093590682
:1021800030935A0640935B0650935C067093560654
:102190006093550687E695E090936206809361060A
:1021A0008BEA95E0909364068093630685E391E063
:1021B000909366068093650684E391E090936806A9
:1021C0008093670680E391E090936A0680936906A6
:1021D00081E391E090936C0680936B0682E391E03B
:1021E00090936E0680936D0686E391E0909370065F
:1021F00080936F0610937106B0937206A0937306D6
:10220000F0937406E09375061F910895CF93DF93C2
:10221000E0D90E947405CFE5DDE00E946D052097AE
:10222000E1F34DDCFACFCF92DF92EF92FF920F9362
:102230001F93CF93DF937C016B018A01C0E0D0E054
:102240000FC0D6016D916D01D701ED91FC91019008
:10225000F081E02DC7011995C80FD91F015010401A
:102260000115110571F7CE01DF91CF911F910F91EB
:10227000FF90EF90DF90CF900895EF92FF920F9331
:102280001F938C01DC01ED91FC910190F081E02D18
:102290006DE019957C01D801ED91FC910190F081E0
:1022A000E02DC8016AE019959C012E0D3F1DC90162
:1022B0001F910F91FF90EF900895CF93DF93EC0162
:1022C0006115710519F420E030E00FC0DB010D90BD
:1022D0000020E9F71197A61BB70BE881F98102806E
:1022E000F381E02DAD0119959C01C901DF91CF91DA
:1022F00008954F925F927F928F929F92AF92BF927A
:10230000CF92DF92EF92FF920F931F93DF93CF93C1
:10231000CDB7DEB7A1970FB6F894DEBF0FBECDBF25
:102320002C01742ECB01223008F42AE019A231E2EC
:10233000C32ED12CCC0EDD1E822E9924AA24BB24C0
:10234000672D752FA501940147D279018A01C80133
:10235000B701A501940102D2472D461B0894C1087C
:10236000D1084A3014F4405D01C0495CF601408355
:10237000E114F1040105110521F07E2C5F2DC80147
:10238000DFCFC201B60199DFA1960FB6F894DEBF88
:102390000FBECDBFCF91DF911F910F91FF90EF90B6
:1023A000DF90CF90BF90AF909F908F907F905F9085
:1023B0004F900895DC012115310541F4ED91FC9118
:1023C0000190F081E02D642F1995089592CFEF923E
:1023D000FF920F931F939A01E62EFF2400E010E076
:1023E000B801A701E7DF1F910F91FF90EF900895CB
:1023F000CF92DF92EF92FF920F931F93CF93DF93D1
:10240000EC016A017B012115310541F4E881F98174
:102410000190F081E02D642F19951DC02A303105FF
:10242000C9F477FF16C0E881F9810190F081E02DB1
:102430006DE219958C0144275527BA014C195D09A5
:102440006E097F09CE012AE054DF9801280F391F59
:1024500003C02AE04EDF9C01C901DF91CF911F919B
:102460000F91FF90EF90DF90CF900895EF92FF9241
:102470000F931F937B019A010027F7FC0095102F03
:10248000B801A701B5DF1F910F91FF90EF9008955C
:1024900014CF08952F923F924F925F926F927F9246
:1024A0008F929F92AF92BF92CF92DF92EF92FF9264
:1024B0000F931F93DF93CF93CDB7DEB73B014C0152
:1024C00019012A016E897F89888D998D6A197B0986
:1024D0008C099D09621A730A840A950AA401930162
:1024E0003DD1E218F30804091509A801970196D116
:1024F0002A0D3B1D4C1D5D1DB901CA01CF91DF9115
:102500001F910F91FF90EF90DF90CF90BF90AF9011
:102510009F908F907F906F905F904F903F902F9003
:10252000089598D088F09F5790F0B92F9927B75108
:10253000A0F0D1F0660F771F881F991F1AF0BA9587
:10254000C9F712C0B13081F09FD0B1E008959CC0AE
:10255000672F782F8827B85F39F0B93FCCF386957D
:1025600077956795B395D9F73EF4909580957095DA
:1025700061957F4F8F4F9F4F0895E89409C097FB57
:102580003EF490958095709561957F4F8F4F9F4F4A
:102590009923A9F0F92F96E9BB279395F69587958E
:1025A00077956795B795F111F8CFFAF4BB0F11F451
:1025B00060FF1BC06F5F7F4F8F4F9F4F16C08823F8
:1025C00011F096E911C0772321F09EE8872F762F2E
:1025D00005C0662371F096E8862F70E060E02AF06F
:1025E0009A95660F771F881FDAF7880F969587955B
:1025F00097F9089597F99F6780E870E060E0089583
:102600009FEF80EC089500240A941616170618060A
:102610000906089500240A941216130614060506E6
:102620000895092E0394000C11F4882352F0BB0F77
:1026300040F4BF2B11F460FF04C06F5F7F4F8F4FDA
:102640009F4F089557FD9058440F551F59F05F3F15
:1026500071F04795880F97FB991F61F09F3F79F0C4
:1026600087950895121613061406551FF2CF469546
:10267000F1DF08C0161617061806991FF1CF8695C8
:102680007105610508940895E894BB2766277727AC
:10269000CB0197F908950BD0C4CFB5DF28F0BADF8E
:1026A00018F0952309F0A6CFABCF1124EECFCADFE7
:1026B000A0F3959FD1F3950F50E0551F629FF00155
:1026C000729FBB27F00DB11D639FAA27F00DB11DAE
:1026D000AA1F649F6627B00DA11D661F829F222737
:1026E000B00DA11D621F739FB00DA11D621F839FBE
:1026F000A00D611D221F749F3327A00D611D231F94
:10270000849F600D211D822F762F6A2F11249F57E1
:1027100050408AF0E1F088234AF0EE0FFF1FBB1F04
:10272000661F771F881F91505040A9F79E3F5105A3
:1027300070F060CFAACF5F3FECF3983EDCF3869554
:1027400077956795B795F795E7959F5FC1F7FE2B4E
:10275000880F911D9695879597F90895629FD001EE
:10276000739FF001829FE00DF11D649FE00DF11D4C
:10277000929FF00D839FF00D749FF00D659FF00DFB
:102780009927729FB00DE11DF91F639FB00DE11DE8
:10279000F91FBD01CF0111240895991B79E004C0F0
:1027A000991F961708F0961B881F7A95C9F7809590
:1027B000089597FB092E07260AD077FD04D049D04B
:1027C00006D000201AF4709561957F4F0895F6F7B2
:1027D000909581959F4F0895A1E21A2EAA1BBB1BCD
:1027E000FD010DC0AA1FBB1FEE1FFF1FA217B307DD
:1027F000E407F50720F0A21BB30BE40BF50B661FF3
:10280000771F881F991F1A9469F7609570958095B6
:1028100090959B01AC01BD01CF01089597FB092E56
:1028200005260ED057FD04D0D7DF0AD0001C38F49F
:1028300050954095309521953F4F4F4F5F4F0895EC
:10284000F6F790958095709561957F4F8F4F9F4FCC
:102850000895AA1BBB1B51E107C0AA1FBB1FA617E7
:10286000B70710F0A61BB70B881F991F5A95A9F739
:1028700080959095BC01CD010895EE0FFF1F059046
:0A288000F491E02D1994F894FFCFB5
:10288A00793A20002C20783A20005452594B4B2197
:10289A000044617461206D6F74746174743A200A23
:1028AA0000616472657373653A2000646174616CD7
:1028BA00656E6764653A200044003A200000000013
:1028CA0000EC09BB0974097D099209A309000000FB
:0E28DA0000900F1311260F570F370F800F00BD
:00000001FF
