:100000000C9438060C9496080C94EB080C94200978
:100010000C9455060C9455060C9455060C945506F4
:100020000C9455060C9455060C9455060C945506E4
:100030000C9455060C9419080C9455060C9455060E
:100040000C9455060C9455060C9455060C945A09BC
:100050000C9455060C9455060C9455060C945506B4
:100060000C9455060C9455060C9455060C945506A4
:100070000000000000000000000000000000000080
:100080000000000000000000000000000000000070
:100090000000000000000000000000000000000060
:1000A0000000000000000000000000000000000050
:1000B0000000000000000000000000000000000040
:1000C0000000000000000000000000000000000030
:1000D0000000000000000000000000000000000020
:1000E0000000000000000000000000000000000010
:1000F0000000000000000000000000000000000000
:1001000000000000000000000000000000000000EF
:1001100000000000000000000000000000000000DF
:10012000C0F0F0F0F0F000E0F0F0D0F0F070B0B01F
:10013000B0B03010D0F0F07010C0F0F07010C0F01F
:10014000F07010000000000000000000000000003F
:10015000000000000000000000000000000000009F
:10016000000000000000000000000000000000008F
:10017000000000000000000000000000000000007F
:10018000000000000000000000000000000000006F
:100190000000000000000000000000000000080E49
:1001A0000F0F01010F0F0F0F0F0E0F0F0D0D0D0D84
:1001B0000C0400020F0F0F0C0E0F0F0D0C0E0F0F83
:1001C000010000000000000000000000000000002E
:1001D000000000000000000000000000000000001F
:1001E000000000000000000000000000000000000F
:1001F000000000000080E0FCFF3F2F3130B0F0FE37
:10020000FF3F078582C3FBFFFF9F8383030331FC0E
:10021000FEFF8FC7A7F7F7F77793E1FCFF3F2F317A
:1002200030B0F0FEFF3F079DBEBFBFB7B7B7F7F7CF
:10023000E7030131FCFEFFCF87838383830303F150
:10024000FCFEFE8F878783C7E7FFFF3E80E0FCFF51
:100250003F6FF3F3F3B33F3F1F8EE0FCFFBFAFB33D
:10026000B3B39393030361FC7F3F0F0100000000D1
:100270000000000000030303010000000203030369
:10028000020203030303030303030300000000004F
:10029000010303030303030300030303010000003E
:1002A0000203038380C2C383838303030303C3C3A3
:1002B000E1E0E0E0E0E1E3C3030303030100000049
:1002C000010303030303030301010000030303010C
:1002D00000000001030303020203030303030303FB
:1002E00003030301000303030000000000000000FB
:1002F00000000000000000000000000000000000FE
:1003000000000000000000000000000000000000ED
:10031000C0E0E0E0E0E0C0C080020E1C3C787C7CE5
:100320003E3E1F1F9F8F0F0F0F87C3C2626070304A
:1003300030317171F3E3C7C7CFCECEC4C00000C067
:10034000F0FCFCFEFEFFFFFFFFFEFEFCFCF8C00021
:10035000000000000000000000000000000000009D
:10036000000000000000000000000000000000008D
:10037000000000000000000000000000000000007D
:100380000000000000000000000000000002030365
:1003900003030101000103030100081818383C3C65
:1003A0003C1E1E0F0F0FFFFFF8F8703010180808E2
:1003B0000000307070F3FFFFFFFF7F3F3F1000032E
:1003C0000A2F552FDB6FBF5FFFBF5F7F3F1F070007
:1003D000000000000000000000000000000000001D
:1003E000000000000000000000000000000000000D
:1003F00000000000000000000000000000000000FD
:1004000000000000000000000000000000000000EC
:1004100000000000000000000000000000000000DC
:1004200000000000000101010000000000000000C9
:1004300000000000000000010000000000000000BB
:1004400000000000000000000000000000000000AC
:10045000000000000000000000000000000000009C
:10046000000000000000000000000000000000008C
:10047000000000000000000000000000000000007C
:10048000000000000000000000000000000000006C
:10049000000000000000000000000000000000005C
:1004A000000000000000000000000000000000004C
:1004B000000000000000000000000000000000003C
:1004C000000000000000000000000000000000002C
:1004D000000000000000000000000000000000001C
:1004E000000000000000000000000000000000000C
:1004F00000000000000000000000000000000000FC
:1005000000000000000000000000000000000000EB
:1005100000000000000000000000000000000000DB
:10052000C0F0F0F0F0F000E0F0F0D0F0F070B0B01B
:10053000B0B03010D0F0F07010C0F0F07010C0F01B
:10054000F07010000000000000000000000000003B
:10055000000000000000000000000000000000009B
:10056000000000000000000000000000000000008B
:10057000000000000000000000000000000000007B
:10058000000000000000000000000000000000006B
:100590000000000000000000000000000000080E45
:1005A0000F0F01010F0F0F0F0F0E0F0F0D0D0D0D80
:1005B0000C0400020F0F0F0C0E0F0F0D0C0E0F0F7F
:1005C000010000000000000000000000000000002A
:1005D000000000000000000000000000000000001B
:1005E000000000000000000000000000000000000B
:1005F000000000000080E0FCFF3F2F3130B0F0FE33
:10060000FF3F078582C3FBFFFF9F8383030331FC0A
:10061000FEFF8FC7A7F7F7F77793E1FCFF3F2F3176
:1006200030B0F0FEFF3F079DBEBFBFB7B7B7F7F7CB
:10063000E7030131FCFEFFCF87838383830303F14C
:10064000FCFEFE8F878783C7E7FFFF3E80E0FCFF4D
:100650003F6FF3F3F3B33F3F1F8EE0FCFFBFAFB339
:10066000B3B39393030361FC7F3F0F0100000000CD
:100670000000000000030303010000000203030365
:10068000020203030303030303030300000000004B
:10069000010303030303030300030303010000003A
:1006A000020303030002030303030303038383839F
:1006B00081000000000103030303030301000000A5
:1006C0000103030303030303010100000303030108
:1006D00000000001030303020203030303030303F7
:1006E00003030301000303030000000000000000F7
:1006F00000000000000000000000000000000000FA
:1007000000000000000000000000000000000000E9
:1007100000000000000000000000000080C0E0C0F9
:100720000000040C0E0E1E1E3C3C78F8F87F7F0F74
:100730008F8786040C084840C0CCECC4C00000C0C1
:10074000F0FCFCFE1EFFFFFFFFFEFEFCFCF8C000FD
:100750000000000000000000000000000000000099
:100760000000000000000000000000000000000089
:100770000000000000000000000000000000000079
:100780000000000000000000000000000000000069
:10079000000000000000000000010303030101004D
:1007A000000000020707070E1E5CDCDCF8F8F8F812
:1007B000F061212303878686C6C7C7E7631000035D
:1007C0000A2F552FDA6FBF5FFFBF5F7F3F1F070004
:1007D0000000000000000000000000000000000019
:1007E0000000000000000000000000000000000009
:1007F00000000000000000000000000000000000F9
:1008000000000000000000000000000000000000E8
:1008100000000000000000000000000000000000D8
:1008200000000000000000000000000001010000C6
:1008300000000000000101030303010000000000AC
:1008400000000000000000000000000000000000A8
:100850000000000000000000000000000000000098
:100860000000000000000000000000000000000088
:100870000000000000000000000000000000000078
:100880000000000000000000000000000000000068
:100890000000000000000000000000000000000058
:1008A0000000000000000000000000000000000048
:1008B0000000000000000000000000000000000038
:1008C0000000000000000000000000000000000028
:1008D0000000000000000000000000000000000018
:1008E0000000000000000000000000000000000008
:1008F00000000000000000000000000000000000F8
:1009000000000000000000000000000000000000E7
:1009100000000000000000000000000000000000D7
:10092000C0F0F0F0F0F000E0F0F0D0F0F070B0B017
:10093000B0B03010D0F0F07010C0F0F07010C0F017
:10094000F070100000000000000000000000000037
:100950000000000000000000000000000000000097
:100960000000000000000000000000000000000087
:100970000000000000000000000000000000000077
:100980000000000000000000000000000000000067
:100990000000000000000000000000000000080E41
:1009A0000F0F01010F0F0F0F0F0E0F0F0D0D0D0D7C
:1009B0000C0400020F0F0F0C0E0F0F0D0C0E0F0F7B
:1009C0000100000000000000000000000000000026
:1009D0000000000000000000000000000000000017
:1009E0000000000000000000000000000000000007
:1009F000000000000080E0FCFF3F2F3130B0F0FE2F
:100A0000FF3F078582C3FBFFFF9F8383030331FC06
:100A1000FEFF8FC7A7F7F7F77793E1FCFF3F2F3172
:100A200030B0F0FEFF3F079DBEBFBFB7B7B7F7F7C7
:100A3000E7030131FCFEFFCF87838383830303F148
:100A4000FCFEFE8F878783C7E7FFFF3E80E0FCFF49
:100A50003F6FF3F3F3B33F3F1F8EE0FCFFBFAFB335
:100A6000B3B39393030361FC7F3F0F0100000000C9
:100A70000000000000030303010000000203030361
:100A80000202030303030303030303000000000047
:100A90000103030303030303000303030100000036
:100AA00002030303C0C2C3C383838303030303039B
:100AB00001000000000103830303030301000000A1
:100AC0000103030303030303010100000303030104
:100AD00000000001030303020203030303030303F3
:100AE00003030301000303030000000000000000F3
:100AF00000000000000000000000000000000000F6
:100B00000000000000000000004040606060E0E085
:100B1000C0C080800080C0C080001018181C3C3C01
:100B20003E7C7CFCFC793FBF9F9FCFCF8F9E1C10EB
:100B300000000C8E8ECFFFFFFFFFFEFCFC0800C004
:100B4000F0FCFCFEFEFFFFFFFFFEFEFCFCF8C00019
:100B50000000000000000000000000000000000095
:100B60000000000000000000000000000000000085
:100B70000000000000000000000000000000000075
:100B80000000000000000000000000000000000065
:100B90000307070707070303014070383C1E3E3E6A
:100BA0007C7CF8F8F9F1F0F0F0E1C34347070F0F50
:100BB0000F8F8F8FCFC7E3E3F3737323030000031B
:100BC0000A2F552FDB6FBF5FFFBF5F7F3F1F0700FF
:100BD0000000000000000000000000000000000015
:100BE0000000000000000000000000000000000005
:100BF00000000000000000000000000000000000F5
:100C000000000000000000000000000000000000E4
:100C100000000000000000000000000000000000D4
:100C200000000001010303010101000000000303B3
:100C30000707070707070703000000000000000080
:100C400000000000000000000000000000000000A4
:100C50000000000000000000000000000000000094
:100C60000000000000000000000000000000000084
:100C700011241FBECFEFD4E0DEBFCDBF11E0A0E056
:100C8000B1E0E4EEFBE102C005900D92AE36B10793
:100C9000D9F721E0AEE6B1E001C01D92A73BB20753
:100CA000E1F70E9402080C94F00D0C940000809172
:100CB0006E0108958BB780648BBF85B7826085BF56
:100CC00085B78E7F85BF78948EE091E00E94F10A0F
:100CD0000895CF93DF93EC010197049768F0DF93B9
:100CE000CF938FE191E09F938F930E94DD0A0F9045
:100CF0000F900F900F900CC081E090E00E9457067B
:100D0000FE01ED5FFB4E8C2F8D5F8083C09306014B
:100D1000DF91CF9108958BB780688BBF85B78860CE
:100D200085BF85B78B7F85BF789480E491E00E9472
:100D3000F10A089581E090E00E9469060895CF933A
:100D4000C82F0E94350983E00E9439098C2F0E9428
:100D500039098C2F0E943909C82F0E9437098C2F1E
:100D6000CF9108958EB588608EBD89B7806489BFA4
:100D700080E49CE99BBD8ABD8EB583608EBD0895DD
:100D800090910801890F809308012091080130E0BB
:100D9000E0917601F09177018281938128173907DC
:100DA00014F01092080108950F931F93CF93DF93CF
:100DB000082F0E943A07079500270795C0E0D0E06A
:100DC00010E0CE01800F911F0E94C2072196C0380B
:100DD000D105B9F7DF91CF911F910F910895E0915F
:100DE00008018091760190917701F0E03296EE0F44
:100DF000FF1FE80FF91F0190F081E02DF0937701BC
:100E0000E0937601828193818830910524F087E018
:100E10008093070102C08093070110926F01109226
:100E200008010895E0910B01F0910C01E80FF11D0C
:100E300080830895CF93DF93D82FC62F81E20E943D
:100E400012078D2F0E9412078C2F0E941207DF912C
:100E5000CF910895CF93DF93D82FC62F82E20E94BF
:100E600012078D2F0E9412078C2F0E941207DF910C
:100E7000CF91089510927901109278016FE780E088
:100E80000E941A0767E080E00E942A070895809375
:100E90007901109278016FE780E00E941A0767E0FD
:100EA000809179010E942A0780E890E0E091090191
:100EB000F0910A01108201970097C1F76FE780E077
:100EC0000E941A07109278010895CF93DF93C0E033
:100ED000D0E0CE010E9447072196C830D105C9F75E
:100EE000DF91CF9108958EEA0E94120781EA0E9455
:100EF00012078AED0E94120782E10E94120788EC15
:100F00000E94120788EA0E9412078FE30E941207CC
:100F100085ED0E94120780E80E94120781E80E9476
:100F2000120780E50E94120789ED0E94120781E2F4
:100F30000E94120780E20E94120782E00E941207BC
:100F40008BED0E94120780E30E9412078DEA0E9437
:100F5000120780E00E94120784EA0E94120786EAC4
:100F60000E9412078FEA0E9412070E9465070E94E2
:100F70003A078DE591E09F938F930E94DD0A0F90D1
:100F80000F900895CF93DF93EC0180917801803129
:100F900051F510927801809179018F5F883019F0B6
:100FA0008093790102C0109279016FE780E00E947E
:100FB0001A0767E0809179010E942A0714C0FC019A
:100FC000E20FF31FE491A0910901B0910A01EC93A3
:100FD0002F5F3F4F2830310591F7809178018F5F67
:100FE000809378010CC0CE01880F991F880F991F3C
:100FF000880F991F20E030E080599F4FE0CFDF91AC
:10100000CF910895B89A0E942A098FE190E00E943A
:1010100049090E9458090E943E090E945A060E94EE
:101020008B060E9473070E94B2068FE10E949F0602
:10103000FCCF1F920F920FB60F9211242F933F9364
:101040004F935F936F937F938F939F93AF93BF93D0
:10105000EF93FF9398B381E0892788BB809170015B
:101060000E94D406809170011F928F938BE391E0D0
:101070009F938F930E94DD0A809170010F900F90D3
:101080000F900F90813019F41092700105C080917B
:1010900070018F5F8093700180917101813001F543
:1010A0008091720190917301A0917401B0917501CA
:1010B0000F97A105B105A4F480917201909173017D
:1010C000A0917401B09175010196A11DB11D80938D
:1010D000720190937301A0937401B09375010AC0DB
:1010E00010927201109273011092740110927501A6
:1010F000109271010E945706811107C080910D0165
:10110000811110920D010E949A06FF91EF91BF91FB
:10111000AF919F918F917F916F915F914F913F918F
:101120002F910F900FBE0F901F9018951F920F9246
:101130000FB60F9211242F933F934F935F936F93AA
:101140007F938F939F93AF93BF93EF93FF93809180
:10115000710181112BC0809103148A3090F481E0D9
:1011600090E00E94C00681E08093710110927201AC
:1011700010927301109274011092750180930D0109
:1011800015C080910314863F88F08FEF9FEF0E9477
:10119000C00681E080937101109272011092730178
:1011A000109274011092750180930D0180E090E01F
:1011B0000E945706FF91EF91BF91AF919F918F9140
:1011C0007F916F915F914F913F912F910F900FBE43
:1011D0000F901F9018951F920F920FB60F92112427
:1011E0002F933F934F935F936F937F938F939F932F
:1011F000AF93BF93EF93FF938091710181110FC063
:101200000E94EF0681E080937101109272011092AA
:101210007301109274011092750180930D01FF917A
:10122000EF91BF91AF919F918F917F916F915F915E
:101230004F913F912F910F900FBE0F901F901895D7
:101240001F920F920FB60F9211240F900FBE0F90A6
:101250001F9018958BB780628BBFBC9AC49ABD9AB9
:10126000BF9A6E9A6C9A689A0895C4980895C49A21
:1012700008958FB9779BFECF8FB1089585B78068A9
:1012800085BF089580917A0108955D9BFECF8CB94A
:10129000089590BD89B988E18AB986E880BD40E0AB
:1012A00050E062E479E085E499E00E94920A0895B2
:1012B000579A08951F920F920FB60F9211248F9391
:1012C0008CB18A3011F080937A018F910F900FBE0C
:1012D0000F901F901895CF93DF938230910510F4F3
:1012E00082E090E0E091AF01F091B00120E030E0C9
:1012F000A0E0B0E0309739F140815181481759079B
:10130000B8F04817590771F482819381109729F03A
:1013100013969C938E9312972CC09093B001809358
:10132000AF0127C02115310531F04217530718F0DE
:10133000A901DB0101C0EF019A01BD01DF010280BB
:10134000F381E02DD7CF21153105F9F0281B390B9A
:101350002430310580F48A819B816115710521F06B
:10136000FB019383828304C09093B0018093AF010B
:10137000FE01329644C0FE01E20FF31F8193919368
:1013800022503109398328833AC02091AD01309130
:10139000AE01232B41F420910201309103013093DF
:1013A000AE012093AD012091000130910101211582
:1013B000310541F42DB73EB740910401509105012C
:1013C000241B350BE091AD01F091AE01E217F3075C
:1013D000A0F42E1B3F0B2817390778F0AC014E5FA5
:1013E0005F4F2417350748F04E0F5F1F5093AE0133
:1013F0004093AD018193919302C0E0E0F0E0CF0112
:10140000DF91CF910895CF93DF93009709F487C0C0
:10141000FC01329713821282C091AF01D091B001CA
:10142000209781F420813181280F391F8091AD01EF
:101430009091AE018217930779F5F093AE01E09396
:10144000AD016DC0DE0120E030E0AE17BF0750F403
:1014500012964D915C9113979D014115510509F12B
:10146000DA01F3CFB383A28340815181840F951FAA
:101470008A179B0771F48D919C911197840F951F8A
:1014800002969183808312968D919C9113979383FA
:1014900082832115310529F4F093B001E093AF0167
:1014A0003EC0D9011396FC93EE9312974D915D9136
:1014B000A40FB51FEA17FB0779F480819181840F8F
:1014C000951F0296D90111969C938E9382819381E8
:1014D00013969C938E931297E0E0F0E08A819B81B3
:1014E000009719F0FE01EC01F9CFCE010296288198
:1014F0003981820F931F2091AD013091AE012817E1
:10150000390769F4309729F41092B0011092AF01B5
:1015100002C013821282D093AE01C093AD01DF915D
:10152000CF9108950F931F93CF93DF93EC018B011D
:10153000009731F46115710519F480E090E038C02E
:101540006EE070E081E090E00E94F00CFC010097FA
:10155000A1F380E883830115110571F013870287D9
:1015600081E883838091B1019091B201892B21F4AC
:10157000F093B201E093B1012097C9F0D187C08701
:101580008381826083838091B3019091B401892B20
:1015900071F4F093B401E093B3018091B50190919F
:1015A000B601892B21F4F093B601E093B501CF0188
:1015B000DF91CF911F910F910895A0E0B0E0E3EE8D
:1015C000FAE00C94C90DFE01359661917191AF015D
:1015D0008091B3019091B4010E941E0BE2E00C9443
:1015E000E50D0F931F93CF93DF93E091B301F0913B
:1015F000B401238121FF1BC0EC0100E010E08991C0
:101600006091B3017091B401DB011896ED91FC91EA
:101610001997882331F00995892B89F30FEF1FEF74
:10162000EECF8AE00995892B11F4C80102C08FEF33
:101630009FEFDF91CF911F910F910895ACE0B0E043
:10164000E4E2FBE00C94B90D7C016B018A01FC0122
:1016500017821682838181FFBDC1CE0101964C01A4
:10166000F7019381F60193FD859193FF81916F01BD
:10167000882309F4ABC1853239F493FD859193FF3A
:1016800081916F01853229F4B70190E00E94290D04
:10169000E7CF512C312C20E02032A0F48B3269F0BE
:1016A00030F4803259F0833269F420612CC08D32DD
:1016B00039F0803339F4216026C02260246023C0D1
:1016C000286021C027FD27C030ED380F3A3078F46C
:1016D00026FF06C0FAE05F9E300D1124532E13C082
:1016E0008AE0389E300D1124332E20620CC08E32D9
:1016F00021F426FD6BC1206406C08C3611F42068ED
:1017000002C0883641F4F60193FD859193FF8191E3
:101710006F018111C1CF982F9F7D9554933028F48C
:101720000C5F1F4FFFE3F9830DC0833631F0833721
:1017300071F0833509F05BC022C0F8018081898394
:101740000E5F1F4F44244394512C540115C038019F
:10175000F2E06F0E711CF801A080B18026FF03C07B
:10176000652D70E002C06FEF7FEFC5012C870E94EE
:101770001E0D2C0183012C852F77222E17C03801D6
:10178000F2E06F0E711CF801A080B18026FF03C04B
:10179000652D70E002C06FEF7FEFC5012C870E94BE
:1017A0000C0D2C012C852068222E830123FC1BC0EC
:1017B000832D90E048165906B0F4B70180E290E01E
:1017C0000E94290D3A94F4CFF50127FC859127FE5C
:1017D00081915F01B70190E00E94290D31103A9488
:1017E000F1E04F1A51084114510471F7E5C08436F5
:1017F00011F0893639F5F80127FF07C06081718142
:10180000828193810C5F1F4F08C06081718188279E
:1018100077FD8095982F0E5F1F4F2F76B22E97FF82
:1018200009C090958095709561957F4F8F4F9F4F20
:101830002068B22E2AE030E0A4010E945B0DA82EA1
:10184000A81844C0853729F42F7EB22E2AE030E054
:1018500025C0F22FF97FBF2E8F36C1F018F48835DE
:1018600079F0B4C0803719F0883721F0AFC02F2F3E
:101870002061B22EB4FE0DC08B2D8460B82E09C03D
:1018800024FF0AC09F2F9660B92E06C028E030E0E2
:1018900005C020E130E002C020E132E0F801B7FEEF
:1018A00007C060817181828193810C5F1F4F06C0E8
:1018B0006081718180E090E00E5F1F4FA4010E9463
:1018C0005B0DA82EA818FB2DFF77BF2EB6FE0BC010
:1018D0002B2D2E7FA51450F4B4FE0AC0B2FC08C014
:1018E0002B2D2E7E05C07A2C2B2D03C07A2C01C007
:1018F000752C24FF0DC0FE01EA0DF11D808180339F
:1019000011F4297E09C022FF06C07394739404C0A9
:10191000822F867809F0739423FD13C020FF06C040
:101920005A2C731418F4530C5718732C731468F44E
:10193000B70180E290E02C870E94290D73942C85DA
:10194000F5CF731410F4371801C0312C24FF12C0E6
:10195000B70180E390E02C870E94290D2C8522FF9F
:1019600017C021FF03C088E590E002C088E790E03F
:10197000B7010CC0822F867859F021FD02C080E2A9
:1019800001C08BE227FD8DE2B70190E00E94290D96
:10199000A51438F4B70180E390E00E94290D5A9411
:1019A000F7CFAA94F401EA0DF11D8081B70190E010
:1019B0000E94290DA110F5CF332009F451CEB701B3
:1019C00080E290E00E94290D3A94F6CFF7018681DB
:1019D000978102C08FEF9FEF2C96E2E10C94D50D1A
:1019E0000F931F93CF93DF93869F8001879F100DE6
:1019F000969F100D1124C8010E946B09EC010097FD
:101A000029F0A80160E070E00E94170DCE01DF917F
:101A1000CF911F910F910895FC0105906150704086
:101A20000110D8F7809590958E0F9F1F0895DC01C7
:101A300001C06D9341505040E0F70895FC016150A2
:101A4000704001900110D8F7809590958E0F9F1FE0
:101A500008950F931F93CF93DF93182F092FEB0156
:101A60008B8181FD03C08FEF9FEF20C082FF10C0EC
:101A70004E815F812C813D81421753077CF4E881C0
:101A8000F9819F012F5F3F4F39832883108306C060
:101A9000E885F985812F0995892B29F72E813F81CA
:101AA0002F5F3F4F3F832E83812F902FDF91CF9168
:101AB0001F910F910895FA01AA27283051F1203182
:101AC00081F1E8946F936E7F6E5F7F4F8F4F9F4FD2
:101AD000AF4FB1E03ED0B4E03CD0670F781F891F14
:101AE0009A1FA11D680F791F8A1F911DA11D6A0FE2
:101AF000711D811D911DA11D20D009F468943F9195
:101B00002AE0269F11243019305D3193DEF6CF0193
:101B10000895462F4770405D4193B3E00FD0C9F759
:101B2000F6CF462F4F70405D4A3318F0495D31FDC6
:101B30004052419302D0A9F7EACFB4E0A695979519
:101B4000879577956795BA95C9F7009761057105EF
:101B500008959B01AC010A2E069457954795379539
:101B60002795BA95C9F7620F731F841F951FA01D93
:101B700008952F923F924F925F926F927F928F9231
:101B80009F92AF92BF92CF92DF92EF92FF920F930C
:101B90001F93CF93DF93CDB7DEB7CA1BDB0B0FB616
:101BA000F894DEBF0FBECDBF09942A8839884888D3
:101BB0005F846E847D848C849B84AA84B984C88469
:101BC000DF80EE80FD800C811B81AA81B981CE0F60
:101BD000D11D0FB6F894DEBF0FBECDBFED01089545
:041BE000F894FFCFA7
:101BE4000000B70120000107010012001001414468
:101BF4004320696E697469616C697A656420006563
:101C040072726F723A206E6F20737563682061641C
:101C140063206368616E6E656C3A202569200A0052
:101C24004A6F79737469636B20627574746F6E2084
:101C3400696E697469616C697A656420006F6C65AA
:0E1C44006420696E697469616C697A65640078
:040000050080016F07
:00000001FF
