S00D000072733233322E737265639B
S11300000C9438060C947A080C94CF080C940409C8
S11300100C9455060C9455060C9455060C945506F0
S11300200C9455060C9455060C9455060C945506E0
S11300300C9455060C9417080C9455060C9455060C
S11300400C9455060C9455060C9455060C943E09D4
S11300500C9455060C9455060C9455060C945506B0
S11300600C9455060C9455060C9455060C945506A0
S1130070000000000000000000000000000000007C
S1130080000000000000000000000000000000006C
S1130090000000000000000000000000000000005C
S11300A0000000000000000000000000000000004C
S11300B0000000000000000000000000000000003C
S11300C0000000000000000000000000000000002C
S11300D0000000000000000000000000000000001C
S11300E0000000000000000000000000000000000C
S11300F000000000000000000000000000000000FC
S113010000000000000000000000000000000000EB
S113011000000000000000000000000000000000DB
S1130120000000007C7DFDFD00000000FFDFFCFB03
S113013000000000FFE70FCE00000000BD397B7314
S113014000000000E0C0C0800000000000000000CB
S1130150000000000000000000000000000000009B
S1130160000000000000000000000000000000008B
S1130170000000000000000000000000000000007B
S1130180000000000000000000000000000000006B
S11301900000000000000000000101030000000056
S11301A0FFCFCFCF00000000BFF0FFFF0000000032
S11301B00E1ECF8F0000000073E7FFFF0000000059
S11301C080000000000000000000000000000000AB
S11301D0000000000000000000000000000000001B
S11301E0000000000000000000000000000000000B
S11301F00000010101030307F0E1E1E1DFFF838770
S1130200F7EFF1C3C3C3879FFEFCC1C1C38381F170
S11302107FFFFFE0C7CFD7FFEFCE9E1EDDBFB878CC
S11302200F1E1F1DFDFC38797FFFFFE0FFFF03FF5A
S1130230F3C78F0F1E9E8F8FFFFE8000010101F90F
S11302401F7FFDF0E0E0E1FFE1F1F37373F7E7EF07
S1130250FFFFC3C3BFFF783C8FCFDEDE9D3F387FF7
S1130260FEFC0101F1C303F1F0E0E0E0C0C0800056
S11302700707000000000000870F000000000000D6
S11302803FFF000000000000E0E00000000000006C
S1130290FF7F0000000000007870000000000000F4
S11302A073F700000000061FFFFF0000000003C3F7
S11302B08703000000FEFFFFF8F0000000000000CC
S11302C0FF7F000000000000CF0E000000000000CF
S11302D01E0F0000000000007FFF0000000000006F
S11302E0F7E700000000000000000000000000002C
S11302F000000000000000000000000000000000FA
S113030000000000000000000000000000000000E9
S113031000000000007CFFFF00603B3F1F0F0780D0
S11303203FFFFFFFF8C0000CE0F8C080030F3E70F1
S11303307F0F0300F8FC3F0F80E0F0E00000F9F9C4
S1130340071F7F7FFFFFFFFF80E0F8FCFCFCFEFE41
S11303500000000000000000000000000000000099
S11303600000000000000000000000000000000089
S11303700000000000000000000000000000000079
S1130380000000000000000003070000000000005F
S1130390F7C30000000000008000033F1F070000B7
S11303A01F7FFFFFE3830303000000C7FCF0E0C0EE
S11303B0070703033F3F1F07F9F9F8F8FCF8E0C00B
S11303C07FDF77DF2B562D0AFEFEFEFCFCD8B0C083
S11303D00000000000000000000000000000000019
S11303E00000000000000000000000000000000009
S11303F000000000000000000000000000000000F9
S113040000000000000000000000000000000000E8
S113041000000000000000000000000000000000D8
S113042007000000000000000000000000000000C1
S113043001000000000000000000000000000000B7
S113044000000000000000000000000000000000A8
S11304500000000000000000000000000000000098
S11304600000000000000000000000000000000088
S11304700000000000000000000000000000000078
S11304800000000000000000000000000000000068
S11304900000000000000000000000000000000058
S11304A00000000000000000000000000000000048
S11304B00000000000000000000000000000000038
S11304C00000000000000000000000000000000028
S11304D00000000000000000000000000000000018
S11304E00000000000000000000000000000000008
S11304F000000000000000000000000000000000F8
S113050000000000000000000000000000000000E7
S113051000000000000000000000000000000000D7
S1130520000000007C7DFDFD00000000FFDFFCFBFF
S113053000000000FFE70FCE00000000BD397B7310
S113054000000000E0C0C0800000000000000000C7
S11305500000000000000000000000000000000097
S11305600000000000000000000000000000000087
S11305700000000000000000000000000000000077
S11305800000000000000000000000000000000067
S11305900000000000000000000101030000000052
S11305A0FFCFCFCF00000000BFF0FFFF000000002E
S11305B00E1ECF8F0000000073E7FFFF0000000055
S11305C080000000000000000000000000000000A7
S11305D00000000000000000000000000000000017
S11305E00000000000000000000000000000000007
S11305F00000010101030307F0E1E1E1DFFF83876C
S1130600F7EFF1C3C3C3879FFEFCC1C1C38381F16C
S11306107FFFFFE0C7CFD7FFEFCE9E1EDDBFB878C8
S11306200F1E1F1DFDFC38797FFFFFE0FFFF03FF56
S1130630F3C78F0F1E9E8F8FFFFE8000010101F90B
S11306401F7FFDF0E0E0E1FFE1F1F37373F7E7EF03
S1130650FFFFC3C3BFFF783C8FCFDEDE9D3F387FF3
S1130660FEFC0101F1C303F1F0E0E0E0C0C0800052
S11306700707000000000000870F000000000000D2
S11306803FFF000000000000E0E000000000000068
S1130690FF7F0000000000007870000000000000F0
S11306A073F7000000000000FFFF000000000007D7
S11306B08703000000000080F8F000000000000044
S11306C0FF7F000000000000CF0E000000000000CB
S11306D01E0F0000000000007FFF0000000000006B
S11306E0F7E7000000000000000000000000000028
S11306F000000000000000000000000000000000F6
S113070000000000000000000000000000000000E5
S11307100000000000000000000000000002070FBD
S1130720000F3F1F030000000707C7FFFEFE3E182F
S1130730C0E0F88E000003E0000070600020F9F9CA
S1130740071F7F7FFFF7F7F780E0F8FCFCFCFEFE55
S11307500000000000000000000000000000000095
S11307600000000000000000000000000000000085
S11307700000000000000000000000000000000075
S11307800000000000000000000000000000000065
S113079000000000000000007E380000000000009F
S11307A00E1F0F01000000000080F0FFFF0F7F3FCD
S11307B07C1F070080F0C08779F9F0000418F8F076
S11307C077DF77DF2B562D0AFEFEFEFCFCD8B0C087
S11307D00000000000000000000000000000000015
S11307E00000000000000000000000000000000005
S11307F000000000000000000000000000000000F5
S113080000000000000000000000000000000000E4
S113081000000000000000000000000000000000D4
S113082000000000000000000C00000000000000B8
S11308300701000000000000E0C00000000000000C
S113084000000000000000000000000000000000A4
S11308500000000000000000000000000000000094
S11308600000000000000000000000000000000084
S11308700000000000000000000000000000000074
S11308800000000000000000000000000000000064
S11308900000000000000000000000000000000054
S11308A00000000000000000000000000000000044
S11308B00000000000000000000000000000000034
S11308C00000000000000000000000000000000024
S11308D00000000000000000000000000000000014
S11308E00000000000000000000000000000000004
S11308F000000000000000000000000000000000F4
S113090000000000000000000000000000000000E3
S113091000000000000000000000000000000000D3
S1130920000000007C7DFDFD00000000FFDFFCFBFB
S113093000000000FFE70FCE00000000BD397B730C
S113094000000000E0C0C0800000000000000000C3
S11309500000000000000000000000000000000093
S11309600000000000000000000000000000000083
S11309700000000000000000000000000000000073
S11309800000000000000000000000000000000063
S1130990000000000000000000010103000000004E
S11309A0FFCFCFCF00000000BFF0FFFF000000002A
S11309B00E1ECF8F0000000073E7FFFF0000000051
S11309C080000000000000000000000000000000A3
S11309D00000000000000000000000000000000013
S11309E00000000000000000000000000000000003
S11309F00000010101030307F0E1E1E1DFFF838768
S1130A00F7EFF1C3C3C3879FFEFCC1C1C38381F168
S1130A107FFFFFE0C7CFD7FFEFCE9E1EDDBFB878C4
S1130A200F1E1F1DFDFC38797FFFFFE0FFFF03FF52
S1130A30F3C78F0F1E9E8F8FFFFE8000010101F907
S1130A401F7FFDF0E0E0E1FFE1F1F37373F7E7EFFF
S1130A50FFFFC3C3BFFF783C8FCFDEDE9D3F387FEF
S1130A60FEFC0101F1C303F1F0E0E0E0C0C080004E
S1130A700707000000000000870F000000000000CE
S1130A803FFF000000000000E0E000000000000064
S1130A90FF7F0000000000007870000000000000EC
S1130AA073F7000000000F0FFFFF0000000000E0DC
S1130AB08703000000000001F8F0000000000000BF
S1130AC0FF7F000000000000CF0E000000000000C7
S1130AD01E0F0000000000007FFF00000000000067
S1130AE0F7E7000000000000000000000000000024
S1130AF000000000000000000000000000000000F2
S1130B00000000000000000000000000001F7F0340
S1130B10000000000000C3F70000071F3F0300802F
S1130B200783FBFFFFFF7C19F8FCFEFEC70030FCC7
S1130B30071F3F3F0303071FC0E0F8FCF8F8F9F96B
S1130B40071F7F7FFFFFFFFF80E0F8FCFCFCFEFE39
S1130B500000000000000000000000000000000091
S1130B600000000000000000000000000000000081
S1130B700000000000000000000000000000000071
S1130B800000000000000000000000000000000061
S1130B90FFFF7C000000000080070F1F3F3B600048
S1130BA00C00C0F8FFFFFF3F7F3F0F0380C0F8E059
S1130BB0FFFFFCF800030F7FF9F90000E0F0E0808C
S1130BC07FDF77DF2B562D0AFEFEFEFCFCD8B0C07B
S1130BD00000000000000000000000000000000011
S1130BE00000000000000000000000000000000001
S1130BF000000000000000000000000000000000F1
S1130C0000000000000000000000000000000000E0
S1130C1000000000000000000000000000000000D0
S1130C201F06000000000000C303000000000000D5
S1130C30FFFFFE00000000000000000000000000B4
S1130C4000000000000000000000000000000000A0
S1130C500000000000000000000000000000000090
S1130C600000000000000000000000000000000080
S1130C7011241FBECFEFD4E0DEBFCDBF11E0A0E052
S1130C80B1E0ECEAFBE102C005900D92AE36B1078B
S1130C90D9F721E0AEE6B1E001C01D92A63BB20750
S1130CA0E1F70E9400080C94D40D0C94000080918C
S1130CB06E0108958BB780648BBF85B7826085BF52
S1130CC085B78E7F85BF78948EE091E00E94D50A27
S1130CD00895CF93DF93EC010197049768F0DF93B5
S1130CE0CF938FE191E09F938F930E94C10A0F905D
S1130CF00F900F900F900CC081E090E00E94570677
S1130D00FE01ED5FFB4E8C2F8D5F8083C093060147
S1130D10DF91CF9108958BB780688BBF85B78860CA
S1130D2085BF85B78B7F85BF789480E491E00E946E
S1130D30D50A089581E090E00E9469060895CF9352
S1130D40C82F0E94190983E00E941D098C2F0E945C
S1130D501D098C2F0E941D09C82F0E941B098C2F6E
S1130D60CF9108958EB588608EBD89B7806489BFA0
S1130D7080E496E09BBD8ABD8EB583608EBD0895E8
S1130D8090910801890F809308012091080130E0B7
S1130D90E0917501F09176018281938128173907DA
S1130DA014F01092080108950F931F93CF93DF93CB
S1130DB0082F0E943A07079500270795C0E0D0E066
S1130DC010E0CE01800F911F0E94C2072196C03807
S1130DD0D105B9F7DF91CF911F910F910895E0915B
S1130DE008018091750190917601F0E03296EE0F42
S1130DF0FF1FE80FF91F0190F081E02DF0937601B9
S1130E00E0937501828193818830910524F087E015
S1130E108093070102C08093070110926F01109222
S1130E2008010895E0910B01F0910C01E80FF11D08
S1130E3080830895CF93DF93D82FC62F81E20E9439
S1130E4012078D2F0E9412078C2F0E941207DF9128
S1130E50CF910895CF93DF93D82FC62F82E20E94BB
S1130E6012078D2F0E9412078C2F0E941207DF9108
S1130E70CF91089510927801109277016FE780E086
S1130E800E941A0767E080E00E942A070895809371
S1130E907801109277016FE780E00E941A0767E0FB
S1130EA0809178010E942A0780E890E0E09109018E
S1130EB0F0910A01108201970097C1F76FE780E073
S1130EC00E941A07109277010895CF93DF93C0E030
S1130ED0D0E0CE010E9447072196C830D105C9F75A
S1130EE0DF91CF9108958EEA0E94120781EA0E9451
S1130EF012078AED0E94120782E10E94120788EC11
S1130F000E94120788EA0E9412078FE30E941207C8
S1130F1085ED0E94120780E80E94120781E80E9472
S1130F20120780E50E94120789ED0E94120781E2F0
S1130F300E94120780E20E94120782E00E941207B8
S1130F408BED0E94120780E30E9412078DEA0E9433
S1130F50120780E00E94120784EA0E94120786EAC0
S1130F600E9412078FEA0E9412070E9465070E94DE
S1130F703A078DE591E09F938F930E94C10A0F90E9
S1130F800F900895CF93DF93EC01809177018F5FE9
S1130F90803129F510927701809178018F5F883034
S1130FA019F08093780102C0109278016FE780E015
S1130FB00E941A0767E0809178010E942A0711C0F5
S1130FC0FC01E20FF31FE491A0910901B0910A0121
S1130FD0EC932F5F3F4F2830310591F70EC080937B
S1130FE07701CE01880F991F880F991F880F991FC9
S1130FF020E030E080599F4FE3CFDF91CF910895F7
S1131000B89A0E940E098FE190E00E942D090E9477
S11310103C090E9422090E945A060E948B060E94E3
S113102073070E94B2068FE10E949F06FCCF1F92B5
S11310300F920FB60F9211242F933F934F935F9308
S11310406F937F938F939F93AF93BF93EF93FF938C
S113105098B381E0892788BB80917001813001F5C4
S11310608091710190917201A0917301B09174010A
S11310700F97A105B105A4F48091710190917201BB
S1131080A0917301B09174010196A11DB11D8093CB
S1131090710190937201A0937301B09374010AC01B
S11310A010927101109272011092730110927401E6
S11310B0109270010E94570681110BC080910D019E
S11310C0882329F080E00E94D40610920D010E942A
S11310D09A06FF91EF91BF91AF919F918F917F916C
S11310E06F915F914F913F912F910F900FBE0F9091
S11310F01F9018951F920F920FB60F9211242F93E1
S11311003F934F935F936F937F938F939F93AF938B
S1131110BF93EF93FF938091700181112BC0809155
S113112003148A3090F481E090E00E94C00681E0CC
S113113080937001109271011092720110927301E8
S11311401092740180930D0115C080910314863FA1
S113115088F08FEF9FEF0E94C00681E080937001BA
S11311601092710110927201109273011092740125
S113117080930D0180E090E00E945706FF91EF916B
S1131180BF91AF919F918F917F916F915F914F919B
S11311903F912F910F900FBE0F901F9018951F92A3
S11311A00F920FB60F9211242F933F934F935F9397
S11311B06F937F938F939F93AF93BF93EF93FF931B
S11311C08091700181110FC00E94EF0681E080932D
S11311D070011092710110927201109273011092B9
S11311E0740180930D01FF91EF91BF91AF919F9195
S11311F08F917F916F915F914F913F912F910F90BC
S11312000FBE0F901F9018951F920F920FB60F925A
S113121011240F900FBE0F901F9018958BB780620A
S11312208BBFBC9AC49ABD9ABF9A6E9A6C9A689AFC
S11312300895C4980895C49A08958FB9779BFECFF2
S11312408FB1089585B7806885BF0895809179012D
S113125008955D9BFECF8CB9089590BD89B988E14E
S11312608AB986E880BD40E050E066E279E089E230
S113127099E00E94760A0895579A08951F920F9252
S11312800FB60F9211248F938CB18A3011F0809392
S113129079018F910F900FBE0F901F901895CF93E7
S11312A0DF938230910510F482E090E0E091AE018A
S11312B0F091AF0120E030E0A0E0B0E0309739F1E8
S11312C04081518148175907B8F04817590771F4FC
S11312D082819381109729F013969C938E93129791
S11312E02CC09093AF018093AE0127C02115310526
S11312F031F04217530718F0A901DB0101C0EF01D7
S11313009A01BD01DF010280F381E02DD7CF2115C1
S11313103105F9F0281B390B2430310580F48A811A
S11313209B816115710521F0FB019383828304C0C5
S11313309093AF018093AE01FE01329644C0FE014A
S1131340E20FF31F8193919322503109398328834B
S11313503AC02091AC013091AD01232B41F420918E
S11313600201309103013093AD012093AC0120912F
S11313700001309101012115310541F42DB73EB72B
S11313804091040150910501241B350BE091AC01FF
S1131390F091AD01E217F307A0F42E1B3F0B2817C1
S11313A0390778F0AC014E5F5F4F2417350748F0DA
S11313B04E0F5F1F5093AD014093AC018193919305
S11313C002C0E0E0F0E0CF01DF91CF910895CF9328
S11313D0DF93009709F487C0FC01329713821282CD
S11313E0C091AE01D091AF01209781F42081318169
S11313F0280F391F8091AC019091AD01821793079A
S113140079F5F093AD01E093AC016DC0DE0120E00D
S113141030E0AE17BF0750F412964D915C911397CC
S11314209D014115510509F1DA01F3CFB383A2837C
S113143040815181840F951F8A179B0771F48D9108
S11314409C911197840F951F029691838083129625
S11314508D919C911397938382832115310529F4EF
S1131460F093AF01E093AE013EC0D9011396FC9313
S1131470EE9312974D915D91A40FB51FEA17FB07E8
S113148079F480819181840F951F0296D901119678
S11314909C938E938281938113969C938E9312973F
S11314A0E0E0F0E08A819B81009719F0FE01EC01F5
S11314B0F9CFCE01029628813981820F931F2091A2
S11314C0AC013091AD012817390769F4309729F43C
S11314D01092AF011092AE0102C013821282D09317
S11314E0AD01C093AC01DF91CF9108950F931F9389
S11314F0CF93DF93EC018B01009731F461157105F3
S113150019F480E090E038C06EE070E081E090E093
S11315100E94D40CFC010097A1F380E88383011599
S1131520110571F01387028781E883838091B001EC
S11315309091B101892B21F4F093B101E093B001B2
S11315402097C9F0D187C08783818260838380918B
S1131550B2019091B301892B71F4F093B301E0933C
S1131560B2018091B4019091B501892B21F4F093DB
S1131570B501E093B401CF01DF91CF911F910F9199
S11315800895A0E0B0E0E7ECFAE00C94AD0DFE01A4
S1131590359661917191AF018091B2019091B3013F
S11315A00E94020BE2E00C94C90D0F931F93CF939A
S11315B0DF93E091B201F091B301238121FF1BC0BD
S11315C0EC0100E010E089916091B2017091B301E7
S11315D0DB011896ED91FC911997882331F0099558
S11315E0892B89F30FEF1FEFEECF8AE00995892B42
S11315F011F4C80102C08FEF9FEFDF91CF911F91CB
S11316000F910895ACE0B0E0E8E0FBE00C949D0D90
S11316107C016B018A01FC0117821682838181FFA0
S1131620BDC1CE0101964C01F7019381F60193FDF2
S1131630859193FF81916F01882309F4ABC18532B1
S113164039F493FD859193FF81916F01853229F4DB
S1131650B70190E00E940D0DE7CF512C312C20E012
S11316602032A0F48B3269F030F4803259F08332A6
S113167069F420612CC08D3239F0803339F4216053
S113168026C02260246023C0286021C027FD27C013
S113169030ED380F3A3078F426FF06C0FAE05F9E4A
S11316A0300D1124532E13C08AE0389E300D1124BE
S11316B0332E20620CC08E3221F426FD6BC12064CF
S11316C006C08C3611F4206802C0883641F4F60155
S11316D093FD859193FF81916F018111C1CF982F63
S11316E09F7D9554933028F40C5F1F4FFFE3F983DB
S11316F00DC0833631F0833771F0833509F05BC058
S113170022C0F801808189830E5F1F4F44244394D3
S1131710512C540115C03801F2E06F0E711CF80110
S1131720A080B18026FF03C0652D70E002C06FEF7A
S11317307FEFC5012C870E94020D2C0183012C85AB
S11317402F77222E17C03801F2E06F0E711CF801BA
S1131750A080B18026FF03C0652D70E002C06FEF4A
S11317607FEFC5012C870E94F00C2C012C8520688A
S1131770222E830123FC1BC0832D90E048165906BA
S1131780B0F4B70180E290E00E940D0D3A94F4CFDA
S1131790F50127FC859127FE81915F01B70190E057
S11317A00E940D0D31103A94F1E04F1A5108411482
S11317B0510471F7E5C0843611F0893639F5F80122
S11317C027FF07C060817181828193810C5F1F4F65
S11317D008C060817181882777FD8095982F0E5FFE
S11317E01F4F2F76B22E97FF09C090958095709564
S11317F061957F4F8F4F9F4F2068B22E2AE030E0D3
S1131800A4010E943F0DA82EA81844C0853729F4CE
S11318102F7EB22E2AE030E025C0F22FF97FBF2EB2
S11318208F36C1F018F4883579F0B4C0803719F0D8
S1131830883721F0AFC02F2F2061B22EB4FE0DC027
S11318408B2D8460B82E09C024FF0AC09F2F966098
S1131850B92E06C028E030E005C020E130E002C027
S113186020E132E0F801B7FE07C060817181828116
S113187093810C5F1F4F06C06081718180E090E00E
S11318800E5F1F4FA4010E943F0DA82EA818FB2D28
S1131890FF77BF2EB6FE0BC02B2D2E7FA51450F460
S11318A0B4FE0AC0B2FC08C02B2D2E7E05C07A2CD3
S11318B02B2D03C07A2C01C0752C24FF0DC0FE0112
S11318C0EA0DF11D8081803311F4297E09C022FFC5
S11318D006C07394739404C0822F867809F07394BD
S11318E023FD13C020FF06C05A2C731418F4530CA4
S11318F05718732C731468F4B70180E290E02C87B6
S11319000E940D0D73942C85F5CF731410F43718C1
S113191001C0312C24FF12C0B70180E390E02C8772
S11319200E940D0D2C8522FF17C021FF03C088E5FE
S113193090E002C088E790E0B7010CC0822F86785F
S113194059F021FD02C080E201C08BE227FD8DE247
S1131950B70190E00E940D0DA51438F4B70180E39F
S113196090E00E940D0D5A94F7CFAA94F401EA0D69
S1131970F11D8081B70190E00E940D0DA110F5CFFB
S1131980332009F451CEB70180E290E00E940D0D9E
S11319903A94F6CFF7018681978102C08FEF9FEFCB
S11319A02C96E2E10C94B90D0F931F93CF93DF9320
S11319B0869F8001879F100D969F100D1124C801EA
S11319C00E944F09EC01009729F0A80160E070E043
S11319D00E94FB0CCE01DF91CF911F910F910895CE
S11319E0FC010590615070400110D8F780959095E6
S11319F08E0F9F1F0895DC0101C06D93415050402C
S1131A00E0F70895FC016150704001900110D8F78F
S1131A10809590958E0F9F1F08950F931F93CF93DA
S1131A20DF93182F092FEB018B8181FD03C08FEF0A
S1131A309FEF20C082FF10C04E815F812C813D81C9
S1131A40421753077CF4E881F9819F012F5F3F4FD0
S1131A5039832883108306C0E885F985812F099589
S1131A60892B29F72E813F812F5F3F4F3F832E83A0
S1131A70812F902FDF91CF911F910F910895FA013B
S1131A80AA27283051F1203181F1E8946F936E7FB9
S1131A906E5F7F4F8F4F9F4FAF4FB1E03ED0B4E0AA
S1131AA03CD0670F781F891F9A1FA11D680F791FEB
S1131AB08A1F911DA11D6A0F711D811D911DA11DFC
S1131AC020D009F468943F912AE0269F112430190C
S1131AD0305D3193DEF6CF010895462F4770405DA7
S1131AE04193B3E00FD0C9F7F6CF462F4F70405D56
S1131AF04A3318F0495D31FD4052419302D0A9F7B1
S1131B00EACFB4E0A6959795879577956795BA95AA
S1131B10C9F700976105710508959B01AC010A2E70
S1131B2006945795479537952795BA95C9F7620F47
S1131B30731F841F951FA01D08952F923F924F92EB
S1131B405F926F927F928F929F92AF92BF92CF9249
S1131B50DF92EF92FF920F931F93CF93DF93CDB752
S1131B60DEB7CA1BDB0B0FB6F894DEBF0FBECDBFCA
S1131B7009942A88398848885F846E847D848C849B
S1131B809B84AA84B984C884DF80EE80FD800C81A4
S1131B901B81AA81B981CE0FD11D0FB6F894DEBF87
S10F1BA00FBECDBFED010895F894FFCFF7
S1131BAC0000B6012000010701001200100141449D
S1131BBC4320696E697469616C697A656420006597
S1131BCC72726F723A206E6F207375636820616451
S1131BDC63206368616E6E656C3A202569200A0087
S1131BEC4A6F79737469636B20627574746F6E20B9
S1131BFC696E697469616C697A656420006F6C65DF
S1111C0C6420696E697469616C697A656400AC
S903016F8C
